{
	"TOLCOIN_flattened.sol": {
		"TOLCOIN": {
			"abi": [
				{
					"inputs": [],
					"stateMutability": "nonpayable",
					"type": "constructor"
				},
				{
					"inputs": [
						{
							"internalType": "address",
							"name": "spender",
							"type": "address"
						},
						{
							"internalType": "uint256",
							"name": "allowance",
							"type": "uint256"
						},
						{
							"internalType": "uint256",
							"name": "needed",
							"type": "uint256"
						}
					],
					"name": "ERC20InsufficientAllowance",
					"type": "error"
				},
				{
					"inputs": [
						{
							"internalType": "address",
							"name": "sender",
							"type": "address"
						},
						{
							"internalType": "uint256",
							"name": "balance",
							"type": "uint256"
						},
						{
							"internalType": "uint256",
							"name": "needed",
							"type": "uint256"
						}
					],
					"name": "ERC20InsufficientBalance",
					"type": "error"
				},
				{
					"inputs": [
						{
							"internalType": "address",
							"name": "approver",
							"type": "address"
						}
					],
					"name": "ERC20InvalidApprover",
					"type": "error"
				},
				{
					"inputs": [
						{
							"internalType": "address",
							"name": "receiver",
							"type": "address"
						}
					],
					"name": "ERC20InvalidReceiver",
					"type": "error"
				},
				{
					"inputs": [
						{
							"internalType": "address",
							"name": "sender",
							"type": "address"
						}
					],
					"name": "ERC20InvalidSender",
					"type": "error"
				},
				{
					"inputs": [
						{
							"internalType": "address",
							"name": "spender",
							"type": "address"
						}
					],
					"name": "ERC20InvalidSpender",
					"type": "error"
				},
				{
					"inputs": [
						{
							"internalType": "address",
							"name": "owner",
							"type": "address"
						}
					],
					"name": "OwnableInvalidOwner",
					"type": "error"
				},
				{
					"inputs": [
						{
							"internalType": "address",
							"name": "account",
							"type": "address"
						}
					],
					"name": "OwnableUnauthorizedAccount",
					"type": "error"
				},
				{
					"anonymous": false,
					"inputs": [
						{
							"indexed": true,
							"internalType": "address",
							"name": "owner",
							"type": "address"
						},
						{
							"indexed": true,
							"internalType": "address",
							"name": "spender",
							"type": "address"
						},
						{
							"indexed": false,
							"internalType": "uint256",
							"name": "value",
							"type": "uint256"
						}
					],
					"name": "Approval",
					"type": "event"
				},
				{
					"anonymous": false,
					"inputs": [
						{
							"indexed": true,
							"internalType": "address",
							"name": "previousOwner",
							"type": "address"
						},
						{
							"indexed": true,
							"internalType": "address",
							"name": "newOwner",
							"type": "address"
						}
					],
					"name": "OwnershipTransferred",
					"type": "event"
				},
				{
					"anonymous": false,
					"inputs": [
						{
							"indexed": false,
							"internalType": "address",
							"name": "account",
							"type": "address"
						}
					],
					"name": "Paused",
					"type": "event"
				},
				{
					"anonymous": false,
					"inputs": [
						{
							"indexed": true,
							"internalType": "address",
							"name": "from",
							"type": "address"
						},
						{
							"indexed": true,
							"internalType": "address",
							"name": "to",
							"type": "address"
						},
						{
							"indexed": false,
							"internalType": "uint256",
							"name": "value",
							"type": "uint256"
						}
					],
					"name": "Transfer",
					"type": "event"
				},
				{
					"anonymous": false,
					"inputs": [
						{
							"indexed": false,
							"internalType": "address",
							"name": "account",
							"type": "address"
						}
					],
					"name": "Unpaused",
					"type": "event"
				},
				{
					"inputs": [],
					"name": "MAX_SUPPLY",
					"outputs": [
						{
							"internalType": "uint256",
							"name": "",
							"type": "uint256"
						}
					],
					"stateMutability": "view",
					"type": "function"
				},
				{
					"inputs": [
						{
							"internalType": "address",
							"name": "owner",
							"type": "address"
						},
						{
							"internalType": "address",
							"name": "spender",
							"type": "address"
						}
					],
					"name": "allowance",
					"outputs": [
						{
							"internalType": "uint256",
							"name": "",
							"type": "uint256"
						}
					],
					"stateMutability": "view",
					"type": "function"
				},
				{
					"inputs": [
						{
							"internalType": "address",
							"name": "spender",
							"type": "address"
						},
						{
							"internalType": "uint256",
							"name": "value",
							"type": "uint256"
						}
					],
					"name": "approve",
					"outputs": [
						{
							"internalType": "bool",
							"name": "",
							"type": "bool"
						}
					],
					"stateMutability": "nonpayable",
					"type": "function"
				},
				{
					"inputs": [
						{
							"internalType": "address",
							"name": "account",
							"type": "address"
						}
					],
					"name": "balanceOf",
					"outputs": [
						{
							"internalType": "uint256",
							"name": "",
							"type": "uint256"
						}
					],
					"stateMutability": "view",
					"type": "function"
				},
				{
					"inputs": [
						{
							"internalType": "uint256",
							"name": "value",
							"type": "uint256"
						}
					],
					"name": "burn",
					"outputs": [],
					"stateMutability": "nonpayable",
					"type": "function"
				},
				{
					"inputs": [
						{
							"internalType": "address",
							"name": "account",
							"type": "address"
						},
						{
							"internalType": "uint256",
							"name": "value",
							"type": "uint256"
						}
					],
					"name": "burnFrom",
					"outputs": [],
					"stateMutability": "nonpayable",
					"type": "function"
				},
				{
					"inputs": [],
					"name": "decimals",
					"outputs": [
						{
							"internalType": "uint8",
							"name": "",
							"type": "uint8"
						}
					],
					"stateMutability": "view",
					"type": "function"
				},
				{
					"inputs": [
						{
							"internalType": "address",
							"name": "account",
							"type": "address"
						},
						{
							"internalType": "bool",
							"name": "excluded",
							"type": "bool"
						}
					],
					"name": "excludeFromAntiBot",
					"outputs": [],
					"stateMutability": "nonpayable",
					"type": "function"
				},
				{
					"inputs": [
						{
							"internalType": "address",
							"name": "",
							"type": "address"
						}
					],
					"name": "isExcludedFromAntiBot",
					"outputs": [
						{
							"internalType": "bool",
							"name": "",
							"type": "bool"
						}
					],
					"stateMutability": "view",
					"type": "function"
				},
				{
					"inputs": [],
					"name": "name",
					"outputs": [
						{
							"internalType": "string",
							"name": "",
							"type": "string"
						}
					],
					"stateMutability": "view",
					"type": "function"
				},
				{
					"inputs": [],
					"name": "owner",
					"outputs": [
						{
							"internalType": "address",
							"name": "",
							"type": "address"
						}
					],
					"stateMutability": "view",
					"type": "function"
				},
				{
					"inputs": [],
					"name": "pause",
					"outputs": [],
					"stateMutability": "nonpayable",
					"type": "function"
				},
				{
					"inputs": [],
					"name": "paused",
					"outputs": [
						{
							"internalType": "bool",
							"name": "",
							"type": "bool"
						}
					],
					"stateMutability": "view",
					"type": "function"
				},
				{
					"inputs": [],
					"name": "renounceOwnership",
					"outputs": [],
					"stateMutability": "nonpayable",
					"type": "function"
				},
				{
					"inputs": [
						{
							"internalType": "uint256",
							"name": "delayInSeconds",
							"type": "uint256"
						}
					],
					"name": "setTransferDelay",
					"outputs": [],
					"stateMutability": "nonpayable",
					"type": "function"
				},
				{
					"inputs": [],
					"name": "symbol",
					"outputs": [
						{
							"internalType": "string",
							"name": "",
							"type": "string"
						}
					],
					"stateMutability": "view",
					"type": "function"
				},
				{
					"inputs": [],
					"name": "totalSupply",
					"outputs": [
						{
							"internalType": "uint256",
							"name": "",
							"type": "uint256"
						}
					],
					"stateMutability": "view",
					"type": "function"
				},
				{
					"inputs": [
						{
							"internalType": "address",
							"name": "to",
							"type": "address"
						},
						{
							"internalType": "uint256",
							"name": "value",
							"type": "uint256"
						}
					],
					"name": "transfer",
					"outputs": [
						{
							"internalType": "bool",
							"name": "",
							"type": "bool"
						}
					],
					"stateMutability": "nonpayable",
					"type": "function"
				},
				{
					"inputs": [],
					"name": "transferDelay",
					"outputs": [
						{
							"internalType": "uint256",
							"name": "",
							"type": "uint256"
						}
					],
					"stateMutability": "view",
					"type": "function"
				},
				{
					"inputs": [
						{
							"internalType": "address",
							"name": "from",
							"type": "address"
						},
						{
							"internalType": "address",
							"name": "to",
							"type": "address"
						},
						{
							"internalType": "uint256",
							"name": "value",
							"type": "uint256"
						}
					],
					"name": "transferFrom",
					"outputs": [
						{
							"internalType": "bool",
							"name": "",
							"type": "bool"
						}
					],
					"stateMutability": "nonpayable",
					"type": "function"
				},
				{
					"inputs": [
						{
							"internalType": "address",
							"name": "newOwner",
							"type": "address"
						}
					],
					"name": "transferOwnership",
					"outputs": [],
					"stateMutability": "nonpayable",
					"type": "function"
				},
				{
					"inputs": [],
					"name": "unpause",
					"outputs": [],
					"stateMutability": "nonpayable",
					"type": "function"
				}
			],
			"devdoc": {
				"errors": {
					"ERC20InsufficientAllowance(address,uint256,uint256)": [
						{
							"details": "Indicates a failure with the `spender`’s `allowance`. Used in transfers.",
							"params": {
								"allowance": "Amount of tokens a `spender` is allowed to operate with.",
								"needed": "Minimum amount required to perform a transfer.",
								"spender": "Address that may be allowed to operate on tokens without being their owner."
							}
						}
					],
					"ERC20InsufficientBalance(address,uint256,uint256)": [
						{
							"details": "Indicates an error related to the current `balance` of a `sender`. Used in transfers.",
							"params": {
								"balance": "Current balance for the interacting account.",
								"needed": "Minimum amount required to perform a transfer.",
								"sender": "Address whose tokens are being transferred."
							}
						}
					],
					"ERC20InvalidApprover(address)": [
						{
							"details": "Indicates a failure with the `approver` of a token to be approved. Used in approvals.",
							"params": {
								"approver": "Address initiating an approval operation."
							}
						}
					],
					"ERC20InvalidReceiver(address)": [
						{
							"details": "Indicates a failure with the token `receiver`. Used in transfers.",
							"params": {
								"receiver": "Address to which tokens are being transferred."
							}
						}
					],
					"ERC20InvalidSender(address)": [
						{
							"details": "Indicates a failure with the token `sender`. Used in transfers.",
							"params": {
								"sender": "Address whose tokens are being transferred."
							}
						}
					],
					"ERC20InvalidSpender(address)": [
						{
							"details": "Indicates a failure with the `spender` to be approved. Used in approvals.",
							"params": {
								"spender": "Address that may be allowed to operate on tokens without being their owner."
							}
						}
					],
					"OwnableInvalidOwner(address)": [
						{
							"details": "The owner is not a valid owner account. (eg. `address(0)`)"
						}
					],
					"OwnableUnauthorizedAccount(address)": [
						{
							"details": "The caller account is not authorized to perform an operation."
						}
					]
				},
				"events": {
					"Approval(address,address,uint256)": {
						"details": "Emitted when the allowance of a `spender` for an `owner` is set by a call to {approve}. `value` is the new allowance."
					},
					"Paused(address)": {
						"details": "Emitted when the pause is triggered by `account`."
					},
					"Transfer(address,address,uint256)": {
						"details": "Emitted when `value` tokens are moved from one account (`from`) to another (`to`). Note that `value` may be zero."
					},
					"Unpaused(address)": {
						"details": "Emitted when the pause is lifted by `account`."
					}
				},
				"kind": "dev",
				"methods": {
					"allowance(address,address)": {
						"details": "See {IERC20-allowance}."
					},
					"approve(address,uint256)": {
						"details": "See {IERC20-approve}. NOTE: If `value` is the maximum `uint256`, the allowance is not updated on `transferFrom`. This is semantically equivalent to an infinite approval. Requirements: - `spender` cannot be the zero address."
					},
					"balanceOf(address)": {
						"details": "See {IERC20-balanceOf}."
					},
					"burn(uint256)": {
						"details": "Destroys a `value` amount of tokens from the caller. See {ERC20-_burn}."
					},
					"burnFrom(address,uint256)": {
						"details": "Destroys a `value` amount of tokens from `account`, deducting from the caller's allowance. See {ERC20-_burn} and {ERC20-allowance}. Requirements: - the caller must have allowance for ``accounts``'s tokens of at least `value`."
					},
					"decimals()": {
						"details": "Returns the number of decimals used to get its user representation. For example, if `decimals` equals `2`, a balance of `505` tokens should be displayed to a user as `5.05` (`505 / 10 ** 2`). Tokens usually opt for a value of 18, imitating the relationship between Ether and Wei. This is the default value returned by this function, unless it's overridden. NOTE: This information is only used for _display_ purposes: it in no way affects any of the arithmetic of the contract, including {IERC20-balanceOf} and {IERC20-transfer}."
					},
					"name()": {
						"details": "Returns the name of the token."
					},
					"owner()": {
						"details": "Returns the address of the current owner."
					},
					"paused()": {
						"details": "Returns true if the contract is paused, and false otherwise."
					},
					"renounceOwnership()": {
						"details": "Leaves the contract without owner. It will not be possible to call `onlyOwner` functions. Can only be called by the current owner. NOTE: Renouncing ownership will leave the contract without an owner, thereby disabling any functionality that is only available to the owner."
					},
					"symbol()": {
						"details": "Returns the symbol of the token, usually a shorter version of the name."
					},
					"totalSupply()": {
						"details": "See {IERC20-totalSupply}."
					},
					"transfer(address,uint256)": {
						"details": "See {IERC20-transfer}. Requirements: - `to` cannot be the zero address. - the caller must have a balance of at least `value`."
					},
					"transferFrom(address,address,uint256)": {
						"details": "See {IERC20-transferFrom}. Skips emitting an {Approval} event indicating an allowance update. This is not required by the ERC. See {xref-ERC20-_approve-address-address-uint256-bool-}[_approve]. NOTE: Does not update the allowance if the current allowance is the maximum `uint256`. Requirements: - `from` and `to` cannot be the zero address. - `from` must have a balance of at least `value`. - the caller must have allowance for ``from``'s tokens of at least `value`."
					},
					"transferOwnership(address)": {
						"details": "Transfers ownership of the contract to a new account (`newOwner`). Can only be called by the current owner."
					}
				},
				"version": 1
			},
			"evm": {
				"assembly": "    /* \"TOLCOIN_flattened.sol\":35550:37124  contract TOLCOIN is ERC20, ERC20Burnable, Pausable, Ownable {... */\n  mstore(0x40, 0x80)\n    /* \"TOLCOIN_flattened.sol\":35750:35752  30 */\n  0x1e\n    /* \"TOLCOIN_flattened.sol\":35719:35752  uint256 public transferDelay = 30 */\n  0x06\n  sstore\n    /* \"TOLCOIN_flattened.sol\":35910:36068  constructor() ERC20(\"TOLCOIN\", \"TOLCOIN\") Ownable(msg.sender) {... */\n  callvalue\n  dup1\n  iszero\n  tag_1\n  jumpi\n  0x00\n  dup1\n  revert\ntag_1:\n  pop\n    /* \"TOLCOIN_flattened.sol\":12484:12597  constructor(string memory name_, string memory symbol_) {... */\n  0x40\n  dup1\n  mload\n  dup1\n  dup3\n  add\n  dup3\n  mstore\n  0x07\n  dup1\n  dup3\n  mstore\n  shl(0xc9, 0x2a27a621a7a4a7)\n  0x20\n  dup1\n  dup5\n  add\n  dup3\n  swap1\n  mstore\n  dup5\n  mload\n  dup1\n  dup7\n  add\n  swap1\n  swap6\n  mstore\n  swap2\n  dup5\n  mstore\n  swap1\n  dup4\n  add\n  mstore\n    /* \"TOLCOIN_flattened.sol\":35960:35970  msg.sender */\n  caller\n  swap2\n    /* \"TOLCOIN_flattened.sol\":12550:12555  _name */\n  0x03\n    /* \"TOLCOIN_flattened.sol\":12550:12563  _name = name_ */\n  tag_7\n    /* \"TOLCOIN_flattened.sol\":12484:12597  constructor(string memory name_, string memory symbol_) {... */\n  dup4\n    /* \"TOLCOIN_flattened.sol\":12550:12555  _name */\n  dup3\n    /* \"TOLCOIN_flattened.sol\":12550:12563  _name = name_ */\n  tag_8\n  jump\t// in\ntag_7:\n  pop\n    /* \"TOLCOIN_flattened.sol\":12573:12580  _symbol */\n  0x04\n    /* \"TOLCOIN_flattened.sol\":12573:12590  _symbol = symbol_ */\n  tag_9\n    /* \"TOLCOIN_flattened.sol\":12583:12590  symbol_ */\n  dup3\n    /* \"TOLCOIN_flattened.sol\":12573:12580  _symbol */\n  dup3\n    /* \"TOLCOIN_flattened.sol\":12573:12590  _symbol = symbol_ */\n  tag_8\n  jump\t// in\ntag_9:\n  pop\n  pop\n    /* \"TOLCOIN_flattened.sol\":26987:26994  _paused */\n  0x05\n    /* \"TOLCOIN_flattened.sol\":26987:27002  _paused = false */\n  dup1\n  sload\n  not(0xff)\n  and\n  swap1\n  sstore\n  pop\n  sub(shl(0xa0, 0x01), 0x01)\n    /* \"TOLCOIN_flattened.sol\":24167:24193  initialOwner == address(0) */\n  dup2\n  and\n    /* \"TOLCOIN_flattened.sol\":24163:24258  if (initialOwner == address(0)) {... */\n  tag_12\n  jumpi\n    /* \"TOLCOIN_flattened.sol\":24216:24247  OwnableInvalidOwner(address(0)) */\n  mload(0x40)\n  shl(0xe0, 0x1e4fbdf7)\n  dup2\n  mstore\n    /* \"TOLCOIN_flattened.sol\":24244:24245  0 */\n  0x00\n    /* \"TOLCOIN_flattened.sol\":24216:24247  OwnableInvalidOwner(address(0)) */\n  0x04\n  dup3\n  add\n    /* \"#utility.yul\":2847:2898   */\n  mstore\n    /* \"#utility.yul\":2820:2838   */\n  0x24\n  add\n    /* \"TOLCOIN_flattened.sol\":24216:24247  OwnableInvalidOwner(address(0)) */\ntag_13:\n  mload(0x40)\n  dup1\n  swap2\n  sub\n  swap1\n  revert\n    /* \"TOLCOIN_flattened.sol\":24163:24258  if (initialOwner == address(0)) {... */\ntag_12:\n    /* \"TOLCOIN_flattened.sol\":24267:24299  _transferOwnership(initialOwner) */\n  tag_15\n    /* \"TOLCOIN_flattened.sol\":24286:24298  initialOwner */\n  dup2\n    /* \"TOLCOIN_flattened.sol\":24267:24285  _transferOwnership */\n  tag_16\n    /* \"TOLCOIN_flattened.sol\":24267:24299  _transferOwnership(initialOwner) */\n  jump\t// in\ntag_15:\n  pop\n    /* \"TOLCOIN_flattened.sol\":35982:36011  _mint(msg.sender, MAX_SUPPLY) */\n  tag_18\n    /* \"TOLCOIN_flattened.sol\":35988:35998  msg.sender */\n  caller\n    /* \"TOLCOIN_flattened.sol\":35685:35713  1_000_000_000_000 * 10 ** 18 */\n  0x0c9f2c9cd04674edea40000000\n    /* \"TOLCOIN_flattened.sol\":35982:35987  _mint */\n  tag_19\n    /* \"TOLCOIN_flattened.sol\":35982:36011  _mint(msg.sender, MAX_SUPPLY) */\n  jump\t// in\ntag_18:\n    /* \"TOLCOIN_flattened.sol\":36043:36053  msg.sender */\n  caller\n    /* \"TOLCOIN_flattened.sol\":36021:36054  isExcludedFromAntiBot[msg.sender] */\n  0x00\n  swap1\n  dup2\n  mstore\n    /* \"TOLCOIN_flattened.sol\":36021:36042  isExcludedFromAntiBot */\n  0x08\n    /* \"TOLCOIN_flattened.sol\":36021:36054  isExcludedFromAntiBot[msg.sender] */\n  0x20\n  mstore\n  0x40\n  swap1\n  keccak256\n    /* \"TOLCOIN_flattened.sol\":36021:36061  isExcludedFromAntiBot[msg.sender] = true */\n  dup1\n  sload\n  not(0xff)\n  and\n    /* \"TOLCOIN_flattened.sol\":36057:36061  true */\n  0x01\n    /* \"TOLCOIN_flattened.sol\":36021:36061  isExcludedFromAntiBot[msg.sender] = true */\n  or\n  swap1\n  sstore\n    /* \"TOLCOIN_flattened.sol\":35550:37124  contract TOLCOIN is ERC20, ERC20Burnable, Pausable, Ownable {... */\n  jump(tag_44)\n    /* \"TOLCOIN_flattened.sol\":25806:25993  function _transferOwnership(address newOwner) internal virtual {... */\ntag_16:\n    /* \"TOLCOIN_flattened.sol\":25898:25904  _owner */\n  0x05\n  dup1\n  sload\n  sub(shl(0xa0, 0x01), 0x01)\n    /* \"TOLCOIN_flattened.sol\":25914:25931  _owner = newOwner */\n  dup4\n  dup2\n  and\n    /* \"TOLCOIN_flattened.sol\":25898:25904  _owner */\n  0x0100\n    /* \"TOLCOIN_flattened.sol\":25914:25931  _owner = newOwner */\n  dup2\n  dup2\n  mul\n  not(sub(shl(0xa8, 0x01), 0x0100))\n  dup6\n  and\n  or\n  swap1\n  swap5\n  sstore\n    /* \"TOLCOIN_flattened.sol\":25946:25986  OwnershipTransferred(oldOwner, newOwner) */\n  mload(0x40)\n    /* \"TOLCOIN_flattened.sol\":25898:25904  _owner */\n  swap4\n  swap1\n  swap3\n  div\n  and\n  swap2\n  dup3\n  swap1\n    /* \"TOLCOIN_flattened.sol\":25946:25986  OwnershipTransferred(oldOwner, newOwner) */\n  0x8be0079c531659141344cd1fd0a4f28419497f9722a3daafe3b4186f6b6457e0\n  swap1\n    /* \"TOLCOIN_flattened.sol\":25879:25895  address oldOwner */\n  0x00\n  swap1\n    /* \"TOLCOIN_flattened.sol\":25946:25986  OwnershipTransferred(oldOwner, newOwner) */\n  log3\n    /* \"TOLCOIN_flattened.sol\":25869:25993  {... */\n  pop\n    /* \"TOLCOIN_flattened.sol\":25806:25993  function _transferOwnership(address newOwner) internal virtual {... */\n  pop\n  jump\t// out\n    /* \"TOLCOIN_flattened.sol\":18341:18549  function _mint(address account, uint256 value) internal {... */\ntag_19:\n  sub(shl(0xa0, 0x01), 0x01)\n    /* \"TOLCOIN_flattened.sol\":18411:18432  account == address(0) */\n  dup3\n  and\n    /* \"TOLCOIN_flattened.sol\":18407:18498  if (account == address(0)) {... */\n  tag_23\n  jumpi\n    /* \"TOLCOIN_flattened.sol\":18455:18487  ERC20InvalidReceiver(address(0)) */\n  mload(0x40)\n  shl(0xe0, 0xec442f05)\n  dup2\n  mstore\n    /* \"TOLCOIN_flattened.sol\":18484:18485  0 */\n  0x00\n    /* \"TOLCOIN_flattened.sol\":18455:18487  ERC20InvalidReceiver(address(0)) */\n  0x04\n  dup3\n  add\n    /* \"#utility.yul\":2847:2898   */\n  mstore\n    /* \"#utility.yul\":2820:2838   */\n  0x24\n  add\n    /* \"TOLCOIN_flattened.sol\":18455:18487  ERC20InvalidReceiver(address(0)) */\n  tag_13\n    /* \"#utility.yul\":2701:2904   */\n  jump\n    /* \"TOLCOIN_flattened.sol\":18407:18498  if (account == address(0)) {... */\ntag_23:\n    /* \"TOLCOIN_flattened.sol\":18507:18542  _update(address(0), account, value) */\n  tag_25\n    /* \"TOLCOIN_flattened.sol\":18523:18524  0 */\n  0x00\n    /* \"TOLCOIN_flattened.sol\":18527:18534  account */\n  dup4\n    /* \"TOLCOIN_flattened.sol\":18536:18541  value */\n  dup4\n    /* \"TOLCOIN_flattened.sol\":18507:18514  _update */\n  tag_26\n    /* \"TOLCOIN_flattened.sol\":18507:18542  _update(address(0), account, value) */\n  jump\t// in\ntag_25:\n    /* \"TOLCOIN_flattened.sol\":18341:18549  function _mint(address account, uint256 value) internal {... */\n  pop\n  pop\n  jump\t// out\n    /* \"TOLCOIN_flattened.sol\":16891:17998  function _update(address from, address to, uint256 value) internal virtual {... */\ntag_26:\n  sub(shl(0xa0, 0x01), 0x01)\n    /* \"TOLCOIN_flattened.sol\":16980:16998  from == address(0) */\n  dup4\n  and\n    /* \"TOLCOIN_flattened.sol\":16976:17516  if (from == address(0)) {... */\n  tag_28\n  jumpi\n    /* \"TOLCOIN_flattened.sol\":17132:17137  value */\n  dup1\n    /* \"TOLCOIN_flattened.sol\":17116:17128  _totalSupply */\n  0x02\n  0x00\n    /* \"TOLCOIN_flattened.sol\":17116:17137  _totalSupply += value */\n  dup3\n  dup3\n  sload\n  tag_29\n  swap2\n  swap1\n  tag_30\n  jump\t// in\ntag_29:\n  swap1\n  swap2\n  sstore\n  pop\n    /* \"TOLCOIN_flattened.sol\":16976:17516  if (from == address(0)) {... */\n  tag_31\n  swap1\n  pop\n  jump\ntag_28:\n  sub(shl(0xa0, 0x01), 0x01)\n    /* \"TOLCOIN_flattened.sol\":17190:17205  _balances[from] */\n  dup4\n  and\n    /* \"TOLCOIN_flattened.sol\":17168:17187  uint256 fromBalance */\n  0x00\n    /* \"TOLCOIN_flattened.sol\":17190:17205  _balances[from] */\n  swap1\n  dup2\n  mstore\n  0x20\n  dup2\n  swap1\n  mstore\n  0x40\n  swap1\n  keccak256\n  sload\n    /* \"TOLCOIN_flattened.sol\":17223:17242  fromBalance < value */\n  dup2\n  dup2\n  lt\n    /* \"TOLCOIN_flattened.sol\":17219:17334  if (fromBalance < value) {... */\n  iszero\n  tag_32\n  jumpi\n    /* \"TOLCOIN_flattened.sol\":17269:17319  ERC20InsufficientBalance(from, fromBalance, value) */\n  mload(0x40)\n  shl(0xe2, 0x391434e3)\n  dup2\n  mstore\n  sub(shl(0xa0, 0x01), 0x01)\n    /* \"#utility.yul\":3356:3388   */\n  dup6\n  and\n    /* \"TOLCOIN_flattened.sol\":17269:17319  ERC20InsufficientBalance(from, fromBalance, value) */\n  0x04\n  dup3\n  add\n    /* \"#utility.yul\":3338:3389   */\n  mstore\n    /* \"#utility.yul\":3405:3423   */\n  0x24\n  dup2\n  add\n    /* \"#utility.yul\":3398:3432   */\n  dup3\n  swap1\n  mstore\n    /* \"#utility.yul\":3448:3466   */\n  0x44\n  dup2\n  add\n    /* \"#utility.yul\":3441:3475   */\n  dup4\n  swap1\n  mstore\n    /* \"#utility.yul\":3311:3329   */\n  0x64\n  add\n    /* \"TOLCOIN_flattened.sol\":17269:17319  ERC20InsufficientBalance(from, fromBalance, value) */\n  tag_13\n    /* \"#utility.yul\":3136:3481   */\n  jump\n    /* \"TOLCOIN_flattened.sol\":17219:17334  if (fromBalance < value) {... */\ntag_32:\n  sub(shl(0xa0, 0x01), 0x01)\n    /* \"TOLCOIN_flattened.sol\":17454:17469  _balances[from] */\n  dup5\n  and\n    /* \"TOLCOIN_flattened.sol\":17454:17463  _balances */\n  0x00\n    /* \"TOLCOIN_flattened.sol\":17454:17469  _balances[from] */\n  swap1\n  dup2\n  mstore\n  0x20\n  dup2\n  swap1\n  mstore\n  0x40\n  swap1\n  keccak256\n    /* \"TOLCOIN_flattened.sol\":17472:17491  fromBalance - value */\n  swap1\n  dup3\n  swap1\n  sub\n    /* \"TOLCOIN_flattened.sol\":17454:17491  _balances[from] = fromBalance - value */\n  swap1\n  sstore\n    /* \"TOLCOIN_flattened.sol\":16976:17516  if (from == address(0)) {... */\ntag_31:\n  sub(shl(0xa0, 0x01), 0x01)\n    /* \"TOLCOIN_flattened.sol\":17530:17546  to == address(0) */\n  dup3\n  and\n    /* \"TOLCOIN_flattened.sol\":17526:17951  if (to == address(0)) {... */\n  tag_35\n  jumpi\n    /* \"TOLCOIN_flattened.sol\":17693:17705  _totalSupply */\n  0x02\n    /* \"TOLCOIN_flattened.sol\":17693:17714  _totalSupply -= value */\n  dup1\n  sload\n  dup3\n  swap1\n  sub\n  swap1\n  sstore\n    /* \"TOLCOIN_flattened.sol\":17526:17951  if (to == address(0)) {... */\n  jump(tag_36)\ntag_35:\n  sub(shl(0xa0, 0x01), 0x01)\n    /* \"TOLCOIN_flattened.sol\":17904:17917  _balances[to] */\n  dup3\n  and\n    /* \"TOLCOIN_flattened.sol\":17904:17913  _balances */\n  0x00\n    /* \"TOLCOIN_flattened.sol\":17904:17917  _balances[to] */\n  swap1\n  dup2\n  mstore\n  0x20\n  dup2\n  swap1\n  mstore\n  0x40\n  swap1\n  keccak256\n    /* \"TOLCOIN_flattened.sol\":17904:17926  _balances[to] += value */\n  dup1\n  sload\n  dup3\n  add\n  swap1\n  sstore\n    /* \"TOLCOIN_flattened.sol\":17526:17951  if (to == address(0)) {... */\ntag_36:\n    /* \"TOLCOIN_flattened.sol\":17981:17983  to */\n  dup2\n  sub(shl(0xa0, 0x01), 0x01)\n    /* \"TOLCOIN_flattened.sol\":17966:17991  Transfer(from, to, value) */\n  and\n    /* \"TOLCOIN_flattened.sol\":17975:17979  from */\n  dup4\n  sub(shl(0xa0, 0x01), 0x01)\n    /* \"TOLCOIN_flattened.sol\":17966:17991  Transfer(from, to, value) */\n  and\n  0xddf252ad1be2c89b69c2b068fc378daa952ba7f163c4a11628f55a4df523b3ef\n    /* \"TOLCOIN_flattened.sol\":17985:17990  value */\n  dup4\n    /* \"TOLCOIN_flattened.sol\":17966:17991  Transfer(from, to, value) */\n  mload(0x40)\n  tag_37\n  swap2\n    /* \"#utility.yul\":3632:3657   */\n  dup2\n  mstore\n    /* \"#utility.yul\":3620:3622   */\n  0x20\n    /* \"#utility.yul\":3605:3623   */\n  add\n  swap1\n    /* \"#utility.yul\":3486:3663   */\n  jump\n    /* \"TOLCOIN_flattened.sol\":17966:17991  Transfer(from, to, value) */\ntag_37:\n  mload(0x40)\n  dup1\n  swap2\n  sub\n  swap1\n  log3\n    /* \"TOLCOIN_flattened.sol\":16891:17998  function _update(address from, address to, uint256 value) internal virtual {... */\n  pop\n  pop\n  pop\n  jump\t// out\n    /* \"#utility.yul\":14:141   */\ntag_39:\n    /* \"#utility.yul\":75:85   */\n  0x4e487b71\n    /* \"#utility.yul\":70:73   */\n  0xe0\n    /* \"#utility.yul\":66:86   */\n  shl\n    /* \"#utility.yul\":63:64   */\n  0x00\n    /* \"#utility.yul\":56:87   */\n  mstore\n    /* \"#utility.yul\":106:110   */\n  0x41\n    /* \"#utility.yul\":103:104   */\n  0x04\n    /* \"#utility.yul\":96:111   */\n  mstore\n    /* \"#utility.yul\":130:134   */\n  0x24\n    /* \"#utility.yul\":127:128   */\n  0x00\n    /* \"#utility.yul\":120:135   */\n  revert\n    /* \"#utility.yul\":146:526   */\ntag_40:\n    /* \"#utility.yul\":225:226   */\n  0x01\n    /* \"#utility.yul\":221:233   */\n  dup2\n  dup2\n  shr\n  swap1\n    /* \"#utility.yul\":268:280   */\n  dup3\n  and\n  dup1\n    /* \"#utility.yul\":289:350   */\n  tag_47\n  jumpi\n    /* \"#utility.yul\":343:347   */\n  0x7f\n    /* \"#utility.yul\":335:341   */\n  dup3\n    /* \"#utility.yul\":331:348   */\n  and\n    /* \"#utility.yul\":321:348   */\n  swap2\n  pop\n    /* \"#utility.yul\":289:350   */\ntag_47:\n    /* \"#utility.yul\":396:398   */\n  0x20\n    /* \"#utility.yul\":388:394   */\n  dup3\n    /* \"#utility.yul\":385:399   */\n  lt\n    /* \"#utility.yul\":365:383   */\n  dup2\n    /* \"#utility.yul\":362:400   */\n  sub\n    /* \"#utility.yul\":359:520   */\n  tag_48\n  jumpi\n    /* \"#utility.yul\":442:452   */\n  0x4e487b71\n    /* \"#utility.yul\":437:440   */\n  0xe0\n    /* \"#utility.yul\":433:453   */\n  shl\n    /* \"#utility.yul\":430:431   */\n  0x00\n    /* \"#utility.yul\":423:454   */\n  mstore\n    /* \"#utility.yul\":477:481   */\n  0x22\n    /* \"#utility.yul\":474:475   */\n  0x04\n    /* \"#utility.yul\":467:482   */\n  mstore\n    /* \"#utility.yul\":505:509   */\n  0x24\n    /* \"#utility.yul\":502:503   */\n  0x00\n    /* \"#utility.yul\":495:510   */\n  revert\n    /* \"#utility.yul\":359:520   */\ntag_48:\n  pop\n    /* \"#utility.yul\":146:526   */\n  swap2\n  swap1\n  pop\n  jump\t// out\n    /* \"#utility.yul\":657:1175   */\ntag_42:\n    /* \"#utility.yul\":759:761   */\n  0x1f\n    /* \"#utility.yul\":754:757   */\n  dup3\n    /* \"#utility.yul\":751:762   */\n  gt\n    /* \"#utility.yul\":748:1169   */\n  iszero\n  tag_51\n  jumpi\n    /* \"#utility.yul\":795:800   */\n  dup1\n    /* \"#utility.yul\":792:793   */\n  0x00\n    /* \"#utility.yul\":785:801   */\n  mstore\n    /* \"#utility.yul\":839:843   */\n  0x20\n    /* \"#utility.yul\":836:837   */\n  0x00\n    /* \"#utility.yul\":826:844   */\n  keccak256\n    /* \"#utility.yul\":909:911   */\n  0x1f\n    /* \"#utility.yul\":897:907   */\n  dup5\n    /* \"#utility.yul\":893:912   */\n  add\n    /* \"#utility.yul\":890:891   */\n  0x05\n    /* \"#utility.yul\":886:913   */\n  shr\n    /* \"#utility.yul\":880:884   */\n  dup2\n    /* \"#utility.yul\":876:914   */\n  add\n    /* \"#utility.yul\":945:949   */\n  0x20\n    /* \"#utility.yul\":933:943   */\n  dup6\n    /* \"#utility.yul\":930:950   */\n  lt\n    /* \"#utility.yul\":927:974   */\n  iszero\n  tag_52\n  jumpi\n  pop\n    /* \"#utility.yul\":968:972   */\n  dup1\n    /* \"#utility.yul\":927:974   */\ntag_52:\n    /* \"#utility.yul\":1023:1025   */\n  0x1f\n    /* \"#utility.yul\":1018:1021   */\n  dup5\n    /* \"#utility.yul\":1014:1026   */\n  add\n    /* \"#utility.yul\":1011:1012   */\n  0x05\n    /* \"#utility.yul\":1007:1027   */\n  shr\n    /* \"#utility.yul\":1001:1005   */\n  dup3\n    /* \"#utility.yul\":997:1028   */\n  add\n    /* \"#utility.yul\":987:1028   */\n  swap2\n  pop\n    /* \"#utility.yul\":1078:1159   */\ntag_53:\n    /* \"#utility.yul\":1096:1098   */\n  dup2\n    /* \"#utility.yul\":1089:1094   */\n  dup2\n    /* \"#utility.yul\":1086:1099   */\n  lt\n    /* \"#utility.yul\":1078:1159   */\n  iszero\n  tag_55\n  jumpi\n    /* \"#utility.yul\":1155:1156   */\n  0x00\n    /* \"#utility.yul\":1141:1157   */\n  dup2\n  sstore\n    /* \"#utility.yul\":1122:1123   */\n  0x01\n    /* \"#utility.yul\":1111:1124   */\n  add\n    /* \"#utility.yul\":1078:1159   */\n  jump(tag_53)\ntag_55:\n    /* \"#utility.yul\":1082:1085   */\n  pop\n  pop\n    /* \"#utility.yul\":748:1169   */\ntag_51:\n    /* \"#utility.yul\":657:1175   */\n  pop\n  pop\n  pop\n  jump\t// out\n    /* \"#utility.yul\":1351:2696   */\ntag_8:\n    /* \"#utility.yul\":1471:1481   */\n  dup2\n  mload\n  sub(shl(0x40, 0x01), 0x01)\n    /* \"#utility.yul\":1493:1523   */\n  dup2\n  gt\n    /* \"#utility.yul\":1490:1546   */\n  iszero\n  tag_59\n  jumpi\n    /* \"#utility.yul\":1526:1544   */\n  tag_59\n  tag_39\n  jump\t// in\ntag_59:\n    /* \"#utility.yul\":1555:1652   */\n  tag_60\n    /* \"#utility.yul\":1645:1651   */\n  dup2\n    /* \"#utility.yul\":1605:1643   */\n  tag_61\n    /* \"#utility.yul\":1637:1641   */\n  dup5\n    /* \"#utility.yul\":1631:1642   */\n  sload\n    /* \"#utility.yul\":1605:1643   */\n  tag_40\n  jump\t// in\ntag_61:\n    /* \"#utility.yul\":1599:1603   */\n  dup5\n    /* \"#utility.yul\":1555:1652   */\n  tag_42\n  jump\t// in\ntag_60:\n    /* \"#utility.yul\":1707:1711   */\n  0x20\n  dup1\n    /* \"#utility.yul\":1764:1766   */\n  0x1f\n    /* \"#utility.yul\":1753:1767   */\n  dup4\n  gt\n    /* \"#utility.yul\":1781:1782   */\n  0x01\n    /* \"#utility.yul\":1776:2439   */\n  dup2\n  eq\n  tag_63\n  jumpi\n    /* \"#utility.yul\":2483:2484   */\n  0x00\n    /* \"#utility.yul\":2500:2506   */\n  dup5\n    /* \"#utility.yul\":2497:2586   */\n  iszero\n  tag_64\n  jumpi\n  pop\n    /* \"#utility.yul\":2552:2571   */\n  dup6\n  dup4\n  add\n    /* \"#utility.yul\":2546:2572   */\n  mload\n    /* \"#utility.yul\":2497:2586   */\ntag_64:\n  not(0x00)\n    /* \"#utility.yul\":1308:1309   */\n  0x03\n    /* \"#utility.yul\":1304:1315   */\n  dup7\n  swap1\n  shl\n    /* \"#utility.yul\":1300:1324   */\n  shr\n    /* \"#utility.yul\":1296:1325   */\n  not\n    /* \"#utility.yul\":1286:1326   */\n  and\n    /* \"#utility.yul\":1332:1333   */\n  0x01\n    /* \"#utility.yul\":1328:1339   */\n  dup6\n  swap1\n  shl\n    /* \"#utility.yul\":1283:1340   */\n  or\n    /* \"#utility.yul\":2599:2680   */\n  dup6\n  sstore\n    /* \"#utility.yul\":1746:2690   */\n  jump(tag_62)\n    /* \"#utility.yul\":1776:2439   */\ntag_63:\n    /* \"#utility.yul\":604:605   */\n  0x00\n    /* \"#utility.yul\":597:611   */\n  dup6\n  dup2\n  mstore\n    /* \"#utility.yul\":641:645   */\n  0x20\n    /* \"#utility.yul\":628:646   */\n  dup2\n  keccak256\n  not(0x1f)\n    /* \"#utility.yul\":1812:1832   */\n  dup7\n  and\n  swap2\n    /* \"#utility.yul\":1930:2166   */\ntag_67:\n    /* \"#utility.yul\":1944:1951   */\n  dup3\n    /* \"#utility.yul\":1941:1942   */\n  dup2\n    /* \"#utility.yul\":1938:1952   */\n  lt\n    /* \"#utility.yul\":1930:2166   */\n  iszero\n  tag_69\n  jumpi\n    /* \"#utility.yul\":2033:2052   */\n  dup9\n  dup7\n  add\n    /* \"#utility.yul\":2027:2053   */\n  mload\n    /* \"#utility.yul\":2012:2054   */\n  dup3\n  sstore\n    /* \"#utility.yul\":2125:2152   */\n  swap5\n  dup5\n  add\n  swap5\n    /* \"#utility.yul\":2093:2094   */\n  0x01\n    /* \"#utility.yul\":2081:2095   */\n  swap1\n  swap2\n  add\n  swap1\n    /* \"#utility.yul\":1960:1979   */\n  dup5\n  add\n    /* \"#utility.yul\":1930:2166   */\n  jump(tag_67)\ntag_69:\n    /* \"#utility.yul\":1934:1937   */\n  pop\n    /* \"#utility.yul\":2194:2200   */\n  dup6\n    /* \"#utility.yul\":2185:2192   */\n  dup3\n    /* \"#utility.yul\":2182:2201   */\n  lt\n    /* \"#utility.yul\":2179:2380   */\n  iszero\n  tag_70\n  jumpi\n    /* \"#utility.yul\":2255:2274   */\n  dup8\n  dup6\n  add\n    /* \"#utility.yul\":2249:2275   */\n  mload\n  not(0x00)\n    /* \"#utility.yul\":2338:2339   */\n  0x03\n    /* \"#utility.yul\":2334:2348   */\n  dup9\n  swap1\n  shl\n    /* \"#utility.yul\":2350:2353   */\n  0xf8\n    /* \"#utility.yul\":2330:2354   */\n  and\n    /* \"#utility.yul\":2326:2363   */\n  shr\n    /* \"#utility.yul\":2322:2364   */\n  not\n    /* \"#utility.yul\":2307:2365   */\n  and\n    /* \"#utility.yul\":2292:2366   */\n  dup2\n  sstore\n    /* \"#utility.yul\":2179:2380   */\ntag_70:\n  pop\n  pop\n    /* \"#utility.yul\":2426:2427   */\n  0x01\n    /* \"#utility.yul\":2417:2423   */\n  dup5\n    /* \"#utility.yul\":2414:2415   */\n  0x01\n    /* \"#utility.yul\":2410:2424   */\n  shl\n    /* \"#utility.yul\":2406:2428   */\n  add\n    /* \"#utility.yul\":2400:2404   */\n  dup6\n    /* \"#utility.yul\":2393:2429   */\n  sstore\n    /* \"#utility.yul\":1746:2690   */\ntag_62:\n  pop\n  pop\n  pop\n  pop\n    /* \"#utility.yul\":1351:2696   */\n  pop\n  pop\n  jump\t// out\n    /* \"#utility.yul\":2909:3131   */\ntag_30:\n    /* \"#utility.yul\":2974:2983   */\n  dup1\n  dup3\n  add\n    /* \"#utility.yul\":2995:3005   */\n  dup1\n  dup3\n  gt\n    /* \"#utility.yul\":2992:3125   */\n  iszero\n  tag_73\n  jumpi\n    /* \"#utility.yul\":3047:3057   */\n  0x4e487b71\n    /* \"#utility.yul\":3042:3045   */\n  0xe0\n    /* \"#utility.yul\":3038:3058   */\n  shl\n    /* \"#utility.yul\":3035:3036   */\n  0x00\n    /* \"#utility.yul\":3028:3059   */\n  mstore\n    /* \"#utility.yul\":3082:3086   */\n  0x11\n    /* \"#utility.yul\":3079:3080   */\n  0x04\n    /* \"#utility.yul\":3072:3087   */\n  mstore\n    /* \"#utility.yul\":3110:3114   */\n  0x24\n    /* \"#utility.yul\":3107:3108   */\n  0x00\n    /* \"#utility.yul\":3100:3115   */\n  revert\n    /* \"#utility.yul\":2992:3125   */\ntag_73:\n    /* \"#utility.yul\":2909:3131   */\n  swap3\n  swap2\n  pop\n  pop\n  jump\t// out\n    /* \"#utility.yul\":3486:3663   */\ntag_44:\n    /* \"TOLCOIN_flattened.sol\":35550:37124  contract TOLCOIN is ERC20, ERC20Burnable, Pausable, Ownable {... */\n  dataSize(sub_0)\n  dup1\n  dataOffset(sub_0)\n  0x00\n  codecopy\n  0x00\n  return\nstop\n\nsub_0: assembly {\n        /* \"TOLCOIN_flattened.sol\":35550:37124  contract TOLCOIN is ERC20, ERC20Burnable, Pausable, Ownable {... */\n      mstore(0x40, 0x80)\n      callvalue\n      dup1\n      iszero\n      tag_1\n      jumpi\n      0x00\n      dup1\n      revert\n    tag_1:\n      pop\n      jumpi(tag_2, lt(calldatasize, 0x04))\n      shr(0xe0, calldataload(0x00))\n      dup1\n      0x5d5b29c1\n      gt\n      tag_25\n      jumpi\n      dup1\n      0x8da5cb5b\n      gt\n      tag_26\n      jumpi\n      dup1\n      0x8da5cb5b\n      eq\n      tag_19\n      jumpi\n      dup1\n      0x95d89b41\n      eq\n      tag_20\n      jumpi\n      dup1\n      0xa9059cbb\n      eq\n      tag_21\n      jumpi\n      dup1\n      0xcfc06e0b\n      eq\n      tag_22\n      jumpi\n      dup1\n      0xdd62ed3e\n      eq\n      tag_23\n      jumpi\n      dup1\n      0xf2fde38b\n      eq\n      tag_24\n      jumpi\n      0x00\n      dup1\n      revert\n    tag_26:\n      dup1\n      0x5d5b29c1\n      eq\n      tag_14\n      jumpi\n      dup1\n      0x70a08231\n      eq\n      tag_15\n      jumpi\n      dup1\n      0x715018a6\n      eq\n      tag_16\n      jumpi\n      dup1\n      0x79cc6790\n      eq\n      tag_17\n      jumpi\n      dup1\n      0x8456cb59\n      eq\n      tag_18\n      jumpi\n      0x00\n      dup1\n      revert\n    tag_25:\n      dup1\n      0x313ce567\n      gt\n      tag_27\n      jumpi\n      dup1\n      0x313ce567\n      eq\n      tag_8\n      jumpi\n      dup1\n      0x32cb6b0c\n      eq\n      tag_9\n      jumpi\n      dup1\n      0x36e8c9b3\n      eq\n      tag_10\n      jumpi\n      dup1\n      0x3f4ba83a\n      eq\n      tag_11\n      jumpi\n      dup1\n      0x42966c68\n      eq\n      tag_12\n      jumpi\n      dup1\n      0x5c975abb\n      eq\n      tag_13\n      jumpi\n      0x00\n      dup1\n      revert\n    tag_27:\n      dup1\n      0x06fdde03\n      eq\n      tag_3\n      jumpi\n      dup1\n      0x095ea7b3\n      eq\n      tag_4\n      jumpi\n      dup1\n      0x0a702e8d\n      eq\n      tag_5\n      jumpi\n      dup1\n      0x18160ddd\n      eq\n      tag_6\n      jumpi\n      dup1\n      0x23b872dd\n      eq\n      tag_7\n      jumpi\n    tag_2:\n      0x00\n      dup1\n      revert\n        /* \"TOLCOIN_flattened.sol\":12662:12751  function name() public view virtual returns (string memory) {... */\n    tag_3:\n      tag_28\n      tag_29\n      jump\t// in\n    tag_28:\n      mload(0x40)\n      tag_30\n      swap2\n      swap1\n      tag_31\n      jump\t// in\n    tag_30:\n      mload(0x40)\n      dup1\n      swap2\n      sub\n      swap1\n      return\n        /* \"TOLCOIN_flattened.sol\":14881:15067  function approve(address spender, uint256 value) public virtual returns (bool) {... */\n    tag_4:\n      tag_32\n      tag_33\n      calldatasize\n      0x04\n      tag_34\n      jump\t// in\n    tag_33:\n      tag_35\n      jump\t// in\n    tag_32:\n      mload(0x40)\n        /* \"#utility.yul\":1169:1183   */\n      swap1\n      iszero\n        /* \"#utility.yul\":1162:1184   */\n      iszero\n        /* \"#utility.yul\":1144:1185   */\n      dup2\n      mstore\n        /* \"#utility.yul\":1132:1134   */\n      0x20\n        /* \"#utility.yul\":1117:1135   */\n      add\n        /* \"TOLCOIN_flattened.sol\":14881:15067  function approve(address spender, uint256 value) public virtual returns (bool) {... */\n      tag_30\n        /* \"#utility.yul\":1004:1191   */\n      jump\n        /* \"TOLCOIN_flattened.sol\":35719:35752  uint256 public transferDelay = 30 */\n    tag_5:\n      tag_38\n      sload(0x06)\n      dup2\n      jump\n    tag_38:\n      mload(0x40)\n        /* \"#utility.yul\":1342:1367   */\n      swap1\n      dup2\n      mstore\n        /* \"#utility.yul\":1330:1332   */\n      0x20\n        /* \"#utility.yul\":1315:1333   */\n      add\n        /* \"TOLCOIN_flattened.sol\":35719:35752  uint256 public transferDelay = 30 */\n      tag_30\n        /* \"#utility.yul\":1196:1373   */\n      jump\n        /* \"TOLCOIN_flattened.sol\":13732:13829  function totalSupply() public view virtual returns (uint256) {... */\n    tag_6:\n        /* \"TOLCOIN_flattened.sol\":13810:13822  _totalSupply */\n      sload(0x02)\n        /* \"TOLCOIN_flattened.sol\":13732:13829  function totalSupply() public view virtual returns (uint256) {... */\n      jump(tag_38)\n        /* \"TOLCOIN_flattened.sol\":15659:15903  function transferFrom(address from, address to, uint256 value) public virtual returns (bool) {... */\n    tag_7:\n      tag_32\n      tag_46\n      calldatasize\n      0x04\n      tag_47\n      jump\t// in\n    tag_46:\n      tag_48\n      jump\t// in\n        /* \"TOLCOIN_flattened.sol\":13590:13672  function decimals() public view virtual returns (uint8) {... */\n    tag_8:\n      mload(0x40)\n        /* \"TOLCOIN_flattened.sol\":13663:13665  18 */\n      0x12\n        /* \"#utility.yul\":1853:1889   */\n      dup2\n      mstore\n        /* \"#utility.yul\":1841:1843   */\n      0x20\n        /* \"#utility.yul\":1826:1844   */\n      add\n        /* \"TOLCOIN_flattened.sol\":13590:13672  function decimals() public view virtual returns (uint8) {... */\n      tag_30\n        /* \"#utility.yul\":1711:1895   */\n      jump\n        /* \"TOLCOIN_flattened.sol\":35648:35713  uint256 public constant MAX_SUPPLY = 1_000_000_000_000 * 10 ** 18 */\n    tag_9:\n      tag_38\n        /* \"TOLCOIN_flattened.sol\":35685:35713  1_000_000_000_000 * 10 ** 18 */\n      0x0c9f2c9cd04674edea40000000\n        /* \"TOLCOIN_flattened.sol\":35648:35713  uint256 public constant MAX_SUPPLY = 1_000_000_000_000 * 10 ** 18 */\n      dup2\n      jump\n        /* \"TOLCOIN_flattened.sol\":36351:36525  function setTransferDelay(uint256 delayInSeconds) external onlyOwner {... */\n    tag_10:\n      tag_57\n      tag_58\n      calldatasize\n      0x04\n      tag_59\n      jump\t// in\n    tag_58:\n      tag_60\n      jump\t// in\n    tag_57:\n      stop\n        /* \"TOLCOIN_flattened.sol\":36139:36202  function unpause() public onlyOwner {... */\n    tag_11:\n      tag_57\n      tag_62\n      jump\t// in\n        /* \"TOLCOIN_flattened.sol\":22353:22440  function burn(uint256 value) public virtual {... */\n    tag_12:\n      tag_57\n      tag_64\n      calldatasize\n      0x04\n      tag_59\n      jump\t// in\n    tag_64:\n      tag_65\n      jump\t// in\n        /* \"TOLCOIN_flattened.sol\":27606:27690  function paused() public view virtual returns (bool) {... */\n    tag_13:\n        /* \"TOLCOIN_flattened.sol\":27676:27683  _paused */\n      and(0xff, sload(0x05))\n        /* \"TOLCOIN_flattened.sol\":27606:27690  function paused() public view virtual returns (bool) {... */\n      jump(tag_32)\n        /* \"TOLCOIN_flattened.sol\":35850:35903  mapping(address => bool) public isExcludedFromAntiBot */\n    tag_14:\n      tag_32\n      tag_70\n      calldatasize\n      0x04\n      tag_71\n      jump\t// in\n    tag_70:\n      mstore(0x20, 0x08)\n      0x00\n      swap1\n      dup2\n      mstore\n      0x40\n      swap1\n      keccak256\n      sload\n      0xff\n      and\n      dup2\n      jump\n        /* \"TOLCOIN_flattened.sol\":13887:14003  function balanceOf(address account) public view virtual returns (uint256) {... */\n    tag_15:\n      tag_38\n      tag_75\n      calldatasize\n      0x04\n      tag_71\n      jump\t// in\n    tag_75:\n      sub(shl(0xa0, 0x01), 0x01)\n        /* \"TOLCOIN_flattened.sol\":13978:13996  _balances[account] */\n      and\n        /* \"TOLCOIN_flattened.sol\":13952:13959  uint256 */\n      0x00\n        /* \"TOLCOIN_flattened.sol\":13978:13996  _balances[account] */\n      swap1\n      dup2\n      mstore\n      0x20\n      dup2\n      swap1\n      mstore\n      0x40\n      swap1\n      keccak256\n      sload\n      swap1\n        /* \"TOLCOIN_flattened.sol\":13887:14003  function balanceOf(address account) public view virtual returns (uint256) {... */\n      jump\n        /* \"TOLCOIN_flattened.sol\":25187:25288  function renounceOwnership() public virtual onlyOwner {... */\n    tag_16:\n      tag_57\n      tag_79\n      jump\t// in\n        /* \"TOLCOIN_flattened.sol\":22756:22914  function burnFrom(address account, uint256 value) public virtual {... */\n    tag_17:\n      tag_57\n      tag_81\n      calldatasize\n      0x04\n      tag_34\n      jump\t// in\n    tag_81:\n      tag_82\n      jump\t// in\n        /* \"TOLCOIN_flattened.sol\":36074:36133  function pause() public onlyOwner {... */\n    tag_18:\n      tag_57\n      tag_84\n      jump\t// in\n        /* \"TOLCOIN_flattened.sol\":24532:24617  function owner() public view virtual returns (address) {... */\n    tag_19:\n        /* \"TOLCOIN_flattened.sol\":24604:24610  _owner */\n      sload(0x05)\n      0x0100\n      swap1\n      div\n      sub(shl(0xa0, 0x01), 0x01)\n      and\n        /* \"TOLCOIN_flattened.sol\":24532:24617  function owner() public view virtual returns (address) {... */\n      mload(0x40)\n      sub(shl(0xa0, 0x01), 0x01)\n        /* \"#utility.yul\":2440:2472   */\n      swap1\n      swap2\n      and\n        /* \"#utility.yul\":2422:2473   */\n      dup2\n      mstore\n        /* \"#utility.yul\":2410:2412   */\n      0x20\n        /* \"#utility.yul\":2395:2413   */\n      add\n        /* \"TOLCOIN_flattened.sol\":24532:24617  function owner() public view virtual returns (address) {... */\n      tag_30\n        /* \"#utility.yul\":2276:2479   */\n      jump\n        /* \"TOLCOIN_flattened.sol\":12864:12957  function symbol() public view virtual returns (string memory) {... */\n    tag_20:\n      tag_28\n      tag_90\n      jump\t// in\n        /* \"TOLCOIN_flattened.sol\":14198:14376  function transfer(address to, uint256 value) public virtual returns (bool) {... */\n    tag_21:\n      tag_32\n      tag_93\n      calldatasize\n      0x04\n      tag_34\n      jump\t// in\n    tag_93:\n      tag_94\n      jump\t// in\n        /* \"TOLCOIN_flattened.sol\":36208:36345  function excludeFromAntiBot(address account, bool excluded) external onlyOwner {... */\n    tag_22:\n      tag_57\n      tag_97\n      calldatasize\n      0x04\n      tag_98\n      jump\t// in\n    tag_97:\n      tag_99\n      jump\t// in\n        /* \"TOLCOIN_flattened.sol\":14434:14574  function allowance(address owner, address spender) public view virtual returns (uint256) {... */\n    tag_23:\n      tag_38\n      tag_101\n      calldatasize\n      0x04\n      tag_102\n      jump\t// in\n    tag_101:\n      sub(shl(0xa0, 0x01), 0x01)\n        /* \"TOLCOIN_flattened.sol\":14540:14558  _allowances[owner] */\n      swap2\n      dup3\n      and\n        /* \"TOLCOIN_flattened.sol\":14514:14521  uint256 */\n      0x00\n        /* \"TOLCOIN_flattened.sol\":14540:14558  _allowances[owner] */\n      swap1\n      dup2\n      mstore\n        /* \"TOLCOIN_flattened.sol\":14540:14551  _allowances */\n      0x01\n        /* \"TOLCOIN_flattened.sol\":14540:14558  _allowances[owner] */\n      0x20\n      swap1\n      dup2\n      mstore\n      0x40\n      dup1\n      dup4\n      keccak256\n        /* \"TOLCOIN_flattened.sol\":14540:14567  _allowances[owner][spender] */\n      swap4\n      swap1\n      swap5\n      and\n      dup3\n      mstore\n      swap2\n      swap1\n      swap2\n      mstore\n      keccak256\n      sload\n      swap1\n        /* \"TOLCOIN_flattened.sol\":14434:14574  function allowance(address owner, address spender) public view virtual returns (uint256) {... */\n      jump\n        /* \"TOLCOIN_flattened.sol\":25437:25652  function transferOwnership(address newOwner) public virtual onlyOwner {... */\n    tag_24:\n      tag_57\n      tag_106\n      calldatasize\n      0x04\n      tag_71\n      jump\t// in\n    tag_106:\n      tag_107\n      jump\t// in\n        /* \"TOLCOIN_flattened.sol\":12662:12751  function name() public view virtual returns (string memory) {... */\n    tag_29:\n        /* \"TOLCOIN_flattened.sol\":12707:12720  string memory */\n      0x60\n        /* \"TOLCOIN_flattened.sol\":12739:12744  _name */\n      0x03\n        /* \"TOLCOIN_flattened.sol\":12732:12744  return _name */\n      dup1\n      sload\n      tag_109\n      swap1\n      tag_110\n      jump\t// in\n    tag_109:\n      dup1\n      0x1f\n      add\n      0x20\n      dup1\n      swap2\n      div\n      mul\n      0x20\n      add\n      mload(0x40)\n      swap1\n      dup2\n      add\n      0x40\n      mstore\n      dup1\n      swap3\n      swap2\n      swap1\n      dup2\n      dup2\n      mstore\n      0x20\n      add\n      dup3\n      dup1\n      sload\n      tag_111\n      swap1\n      tag_110\n      jump\t// in\n    tag_111:\n      dup1\n      iszero\n      tag_112\n      jumpi\n      dup1\n      0x1f\n      lt\n      tag_113\n      jumpi\n      0x0100\n      dup1\n      dup4\n      sload\n      div\n      mul\n      dup4\n      mstore\n      swap2\n      0x20\n      add\n      swap2\n      jump(tag_112)\n    tag_113:\n      dup3\n      add\n      swap2\n      swap1\n      0x00\n      mstore\n      keccak256(0x00, 0x20)\n      swap1\n    tag_114:\n      dup2\n      sload\n      dup2\n      mstore\n      swap1\n      0x01\n      add\n      swap1\n      0x20\n      add\n      dup1\n      dup4\n      gt\n      tag_114\n      jumpi\n      dup3\n      swap1\n      sub\n      0x1f\n      and\n      dup3\n      add\n      swap2\n    tag_112:\n      pop\n      pop\n      pop\n      pop\n      pop\n      swap1\n      pop\n        /* \"TOLCOIN_flattened.sol\":12662:12751  function name() public view virtual returns (string memory) {... */\n      swap1\n      jump\t// out\n        /* \"TOLCOIN_flattened.sol\":14881:15067  function approve(address spender, uint256 value) public virtual returns (bool) {... */\n    tag_35:\n        /* \"TOLCOIN_flattened.sol\":14954:14958  bool */\n      0x00\n        /* \"TOLCOIN_flattened.sol\":4289:4299  msg.sender */\n      caller\n        /* \"TOLCOIN_flattened.sol\":15008:15039  _approve(owner, spender, value) */\n      tag_118\n        /* \"TOLCOIN_flattened.sol\":4289:4299  msg.sender */\n      dup2\n        /* \"TOLCOIN_flattened.sol\":15024:15031  spender */\n      dup6\n        /* \"TOLCOIN_flattened.sol\":15033:15038  value */\n      dup6\n        /* \"TOLCOIN_flattened.sol\":15008:15016  _approve */\n      tag_119\n        /* \"TOLCOIN_flattened.sol\":15008:15039  _approve(owner, spender, value) */\n      jump\t// in\n    tag_118:\n        /* \"TOLCOIN_flattened.sol\":15056:15060  true */\n      0x01\n        /* \"TOLCOIN_flattened.sol\":15049:15060  return true */\n      swap2\n      pop\n      pop\n        /* \"TOLCOIN_flattened.sol\":14881:15067  function approve(address spender, uint256 value) public virtual returns (bool) {... */\n    tag_115:\n      swap3\n      swap2\n      pop\n      pop\n      jump\t// out\n        /* \"TOLCOIN_flattened.sol\":15659:15903  function transferFrom(address from, address to, uint256 value) public virtual returns (bool) {... */\n    tag_48:\n        /* \"TOLCOIN_flattened.sol\":15746:15750  bool */\n      0x00\n        /* \"TOLCOIN_flattened.sol\":4289:4299  msg.sender */\n      caller\n        /* \"TOLCOIN_flattened.sol\":15802:15839  _spendAllowance(from, spender, value) */\n      tag_123\n        /* \"TOLCOIN_flattened.sol\":15818:15822  from */\n      dup6\n        /* \"TOLCOIN_flattened.sol\":4289:4299  msg.sender */\n      dup3\n        /* \"TOLCOIN_flattened.sol\":15833:15838  value */\n      dup6\n        /* \"TOLCOIN_flattened.sol\":15802:15817  _spendAllowance */\n      tag_124\n        /* \"TOLCOIN_flattened.sol\":15802:15839  _spendAllowance(from, spender, value) */\n      jump\t// in\n    tag_123:\n        /* \"TOLCOIN_flattened.sol\":15849:15875  _transfer(from, to, value) */\n      tag_125\n        /* \"TOLCOIN_flattened.sol\":15859:15863  from */\n      dup6\n        /* \"TOLCOIN_flattened.sol\":15865:15867  to */\n      dup6\n        /* \"TOLCOIN_flattened.sol\":15869:15874  value */\n      dup6\n        /* \"TOLCOIN_flattened.sol\":15849:15858  _transfer */\n      tag_126\n        /* \"TOLCOIN_flattened.sol\":15849:15875  _transfer(from, to, value) */\n      jump\t// in\n    tag_125:\n      pop\n        /* \"TOLCOIN_flattened.sol\":15892:15896  true */\n      0x01\n      swap5\n        /* \"TOLCOIN_flattened.sol\":15659:15903  function transferFrom(address from, address to, uint256 value) public virtual returns (bool) {... */\n      swap4\n      pop\n      pop\n      pop\n      pop\n      jump\t// out\n        /* \"TOLCOIN_flattened.sol\":36351:36525  function setTransferDelay(uint256 delayInSeconds) external onlyOwner {... */\n    tag_60:\n        /* \"TOLCOIN_flattened.sol\":24425:24438  _checkOwner() */\n      tag_129\n        /* \"TOLCOIN_flattened.sol\":24425:24436  _checkOwner */\n      tag_130\n        /* \"TOLCOIN_flattened.sol\":24425:24438  _checkOwner() */\n      jump\t// in\n    tag_129:\n        /* \"TOLCOIN_flattened.sol\":36456:36459  300 */\n      0x012c\n        /* \"TOLCOIN_flattened.sol\":36438:36452  delayInSeconds */\n      dup2\n        /* \"TOLCOIN_flattened.sol\":36438:36459  delayInSeconds <= 300 */\n      gt\n      iszero\n        /* \"TOLCOIN_flattened.sol\":36430:36478  require(delayInSeconds <= 300, \"Delay too long\") */\n      tag_132\n      jumpi\n      mload(0x40)\n      shl(0xe5, 0x461bcd)\n      dup2\n      mstore\n        /* \"#utility.yul\":3688:3690   */\n      0x20\n        /* \"TOLCOIN_flattened.sol\":36430:36478  require(delayInSeconds <= 300, \"Delay too long\") */\n      0x04\n      dup3\n      add\n        /* \"#utility.yul\":3670:3691   */\n      mstore\n        /* \"#utility.yul\":3727:3729   */\n      0x0e\n        /* \"#utility.yul\":3707:3725   */\n      0x24\n      dup3\n      add\n        /* \"#utility.yul\":3700:3730   */\n      mstore\n      shl(0x90, 0x44656c617920746f6f206c6f6e67)\n        /* \"#utility.yul\":3746:3764   */\n      0x44\n      dup3\n      add\n        /* \"#utility.yul\":3739:3783   */\n      mstore\n        /* \"#utility.yul\":3800:3818   */\n      0x64\n      add\n        /* \"TOLCOIN_flattened.sol\":36430:36478  require(delayInSeconds <= 300, \"Delay too long\") */\n    tag_133:\n      mload(0x40)\n      dup1\n      swap2\n      sub\n      swap1\n      revert\n    tag_132:\n        /* \"TOLCOIN_flattened.sol\":36488:36501  transferDelay */\n      0x06\n        /* \"TOLCOIN_flattened.sol\":36488:36518  transferDelay = delayInSeconds */\n      sstore\n        /* \"TOLCOIN_flattened.sol\":36351:36525  function setTransferDelay(uint256 delayInSeconds) external onlyOwner {... */\n      jump\t// out\n        /* \"TOLCOIN_flattened.sol\":36139:36202  function unpause() public onlyOwner {... */\n    tag_62:\n        /* \"TOLCOIN_flattened.sol\":24425:24438  _checkOwner() */\n      tag_136\n        /* \"TOLCOIN_flattened.sol\":24425:24436  _checkOwner */\n      tag_130\n        /* \"TOLCOIN_flattened.sol\":24425:24438  _checkOwner() */\n      jump\t// in\n    tag_136:\n        /* \"TOLCOIN_flattened.sol\":36185:36195  _unpause() */\n      tag_138\n        /* \"TOLCOIN_flattened.sol\":36185:36193  _unpause */\n      tag_139\n        /* \"TOLCOIN_flattened.sol\":36185:36195  _unpause() */\n      jump\t// in\n    tag_138:\n        /* \"TOLCOIN_flattened.sol\":36139:36202  function unpause() public onlyOwner {... */\n      jump\t// out\n        /* \"TOLCOIN_flattened.sol\":22353:22440  function burn(uint256 value) public virtual {... */\n    tag_65:\n        /* \"TOLCOIN_flattened.sol\":22407:22433  _burn(_msgSender(), value) */\n      tag_141\n        /* \"TOLCOIN_flattened.sol\":4289:4299  msg.sender */\n      caller\n        /* \"TOLCOIN_flattened.sol\":22427:22432  value */\n      dup3\n        /* \"TOLCOIN_flattened.sol\":22407:22412  _burn */\n      tag_143\n        /* \"TOLCOIN_flattened.sol\":22407:22433  _burn(_msgSender(), value) */\n      jump\t// in\n    tag_141:\n        /* \"TOLCOIN_flattened.sol\":22353:22440  function burn(uint256 value) public virtual {... */\n      pop\n      jump\t// out\n        /* \"TOLCOIN_flattened.sol\":25187:25288  function renounceOwnership() public virtual onlyOwner {... */\n    tag_79:\n        /* \"TOLCOIN_flattened.sol\":24425:24438  _checkOwner() */\n      tag_147\n        /* \"TOLCOIN_flattened.sol\":24425:24436  _checkOwner */\n      tag_130\n        /* \"TOLCOIN_flattened.sol\":24425:24438  _checkOwner() */\n      jump\t// in\n    tag_147:\n        /* \"TOLCOIN_flattened.sol\":25251:25281  _transferOwnership(address(0)) */\n      tag_138\n        /* \"TOLCOIN_flattened.sol\":25278:25279  0 */\n      0x00\n        /* \"TOLCOIN_flattened.sol\":25251:25269  _transferOwnership */\n      tag_150\n        /* \"TOLCOIN_flattened.sol\":25251:25281  _transferOwnership(address(0)) */\n      jump\t// in\n        /* \"TOLCOIN_flattened.sol\":22756:22914  function burnFrom(address account, uint256 value) public virtual {... */\n    tag_82:\n        /* \"TOLCOIN_flattened.sol\":22831:22876  _spendAllowance(account, _msgSender(), value) */\n      tag_152\n        /* \"TOLCOIN_flattened.sol\":22847:22854  account */\n      dup3\n        /* \"TOLCOIN_flattened.sol\":4289:4299  msg.sender */\n      caller\n        /* \"TOLCOIN_flattened.sol\":22870:22875  value */\n      dup4\n        /* \"TOLCOIN_flattened.sol\":22831:22846  _spendAllowance */\n      tag_124\n        /* \"TOLCOIN_flattened.sol\":22831:22876  _spendAllowance(account, _msgSender(), value) */\n      jump\t// in\n    tag_152:\n        /* \"TOLCOIN_flattened.sol\":22886:22907  _burn(account, value) */\n      tag_154\n        /* \"TOLCOIN_flattened.sol\":22892:22899  account */\n      dup3\n        /* \"TOLCOIN_flattened.sol\":22901:22906  value */\n      dup3\n        /* \"TOLCOIN_flattened.sol\":22886:22891  _burn */\n      tag_143\n        /* \"TOLCOIN_flattened.sol\":22886:22907  _burn(account, value) */\n      jump\t// in\n    tag_154:\n        /* \"TOLCOIN_flattened.sol\":22756:22914  function burnFrom(address account, uint256 value) public virtual {... */\n      pop\n      pop\n      jump\t// out\n        /* \"TOLCOIN_flattened.sol\":36074:36133  function pause() public onlyOwner {... */\n    tag_84:\n        /* \"TOLCOIN_flattened.sol\":24425:24438  _checkOwner() */\n      tag_156\n        /* \"TOLCOIN_flattened.sol\":24425:24436  _checkOwner */\n      tag_130\n        /* \"TOLCOIN_flattened.sol\":24425:24438  _checkOwner() */\n      jump\t// in\n    tag_156:\n        /* \"TOLCOIN_flattened.sol\":36118:36126  _pause() */\n      tag_138\n        /* \"TOLCOIN_flattened.sol\":36118:36124  _pause */\n      tag_159\n        /* \"TOLCOIN_flattened.sol\":36118:36126  _pause() */\n      jump\t// in\n        /* \"TOLCOIN_flattened.sol\":12864:12957  function symbol() public view virtual returns (string memory) {... */\n    tag_90:\n        /* \"TOLCOIN_flattened.sol\":12911:12924  string memory */\n      0x60\n        /* \"TOLCOIN_flattened.sol\":12943:12950  _symbol */\n      0x04\n        /* \"TOLCOIN_flattened.sol\":12936:12950  return _symbol */\n      dup1\n      sload\n      tag_109\n      swap1\n      tag_110\n      jump\t// in\n        /* \"TOLCOIN_flattened.sol\":14198:14376  function transfer(address to, uint256 value) public virtual returns (bool) {... */\n    tag_94:\n        /* \"TOLCOIN_flattened.sol\":14267:14271  bool */\n      0x00\n        /* \"TOLCOIN_flattened.sol\":4289:4299  msg.sender */\n      caller\n        /* \"TOLCOIN_flattened.sol\":14321:14348  _transfer(owner, to, value) */\n      tag_118\n        /* \"TOLCOIN_flattened.sol\":4289:4299  msg.sender */\n      dup2\n        /* \"TOLCOIN_flattened.sol\":14338:14340  to */\n      dup6\n        /* \"TOLCOIN_flattened.sol\":14342:14347  value */\n      dup6\n        /* \"TOLCOIN_flattened.sol\":14321:14330  _transfer */\n      tag_126\n        /* \"TOLCOIN_flattened.sol\":14321:14348  _transfer(owner, to, value) */\n      jump\t// in\n        /* \"TOLCOIN_flattened.sol\":36208:36345  function excludeFromAntiBot(address account, bool excluded) external onlyOwner {... */\n    tag_99:\n        /* \"TOLCOIN_flattened.sol\":24425:24438  _checkOwner() */\n      tag_171\n        /* \"TOLCOIN_flattened.sol\":24425:24436  _checkOwner */\n      tag_130\n        /* \"TOLCOIN_flattened.sol\":24425:24438  _checkOwner() */\n      jump\t// in\n    tag_171:\n      sub(shl(0xa0, 0x01), 0x01)\n        /* \"TOLCOIN_flattened.sol\":36297:36327  isExcludedFromAntiBot[account] */\n      swap2\n      swap1\n      swap2\n      and\n      0x00\n      swap1\n      dup2\n      mstore\n        /* \"TOLCOIN_flattened.sol\":36297:36318  isExcludedFromAntiBot */\n      0x08\n        /* \"TOLCOIN_flattened.sol\":36297:36327  isExcludedFromAntiBot[account] */\n      0x20\n      mstore\n      0x40\n      swap1\n      keccak256\n        /* \"TOLCOIN_flattened.sol\":36297:36338  isExcludedFromAntiBot[account] = excluded */\n      dup1\n      sload\n      not(0xff)\n      and\n      swap2\n      iszero\n      iszero\n      swap2\n      swap1\n      swap2\n      or\n      swap1\n      sstore\n        /* \"TOLCOIN_flattened.sol\":36208:36345  function excludeFromAntiBot(address account, bool excluded) external onlyOwner {... */\n      jump\t// out\n        /* \"TOLCOIN_flattened.sol\":25437:25652  function transferOwnership(address newOwner) public virtual onlyOwner {... */\n    tag_107:\n        /* \"TOLCOIN_flattened.sol\":24425:24438  _checkOwner() */\n      tag_175\n        /* \"TOLCOIN_flattened.sol\":24425:24436  _checkOwner */\n      tag_130\n        /* \"TOLCOIN_flattened.sol\":24425:24438  _checkOwner() */\n      jump\t// in\n    tag_175:\n      sub(shl(0xa0, 0x01), 0x01)\n        /* \"TOLCOIN_flattened.sol\":25521:25543  newOwner == address(0) */\n      dup2\n      and\n        /* \"TOLCOIN_flattened.sol\":25517:25608  if (newOwner == address(0)) {... */\n      tag_177\n      jumpi\n        /* \"TOLCOIN_flattened.sol\":25566:25597  OwnableInvalidOwner(address(0)) */\n      mload(0x40)\n      shl(0xe0, 0x1e4fbdf7)\n      dup2\n      mstore\n        /* \"TOLCOIN_flattened.sol\":25594:25595  0 */\n      0x00\n        /* \"TOLCOIN_flattened.sol\":25566:25597  OwnableInvalidOwner(address(0)) */\n      0x04\n      dup3\n      add\n        /* \"#utility.yul\":2422:2473   */\n      mstore\n        /* \"#utility.yul\":2395:2413   */\n      0x24\n      add\n        /* \"TOLCOIN_flattened.sol\":25566:25597  OwnableInvalidOwner(address(0)) */\n      tag_133\n        /* \"#utility.yul\":2276:2479   */\n      jump\n        /* \"TOLCOIN_flattened.sol\":25517:25608  if (newOwner == address(0)) {... */\n    tag_177:\n        /* \"TOLCOIN_flattened.sol\":25617:25645  _transferOwnership(newOwner) */\n      tag_141\n        /* \"TOLCOIN_flattened.sol\":25636:25644  newOwner */\n      dup2\n        /* \"TOLCOIN_flattened.sol\":25617:25635  _transferOwnership */\n      tag_150\n        /* \"TOLCOIN_flattened.sol\":25617:25645  _transferOwnership(newOwner) */\n      jump\t// in\n        /* \"TOLCOIN_flattened.sol\":19609:19737  function _approve(address owner, address spender, uint256 value) internal {... */\n    tag_119:\n        /* \"TOLCOIN_flattened.sol\":19693:19730  _approve(owner, spender, value, true) */\n      tag_182\n        /* \"TOLCOIN_flattened.sol\":19702:19707  owner */\n      dup4\n        /* \"TOLCOIN_flattened.sol\":19709:19716  spender */\n      dup4\n        /* \"TOLCOIN_flattened.sol\":19718:19723  value */\n      dup4\n        /* \"TOLCOIN_flattened.sol\":19725:19729  true */\n      0x01\n        /* \"TOLCOIN_flattened.sol\":19693:19701  _approve */\n      tag_183\n        /* \"TOLCOIN_flattened.sol\":19693:19730  _approve(owner, spender, value, true) */\n      jump\t// in\n    tag_182:\n        /* \"TOLCOIN_flattened.sol\":19609:19737  function _approve(address owner, address spender, uint256 value) internal {... */\n      pop\n      pop\n      pop\n      jump\t// out\n        /* \"TOLCOIN_flattened.sol\":21298:21774  function _spendAllowance(address owner, address spender, uint256 value) internal virtual {... */\n    tag_124:\n      sub(shl(0xa0, 0x01), 0x01)\n        /* \"TOLCOIN_flattened.sol\":14540:14558  _allowances[owner] */\n      dup4\n      dup2\n      and\n        /* \"TOLCOIN_flattened.sol\":21397:21421  uint256 currentAllowance */\n      0x00\n        /* \"TOLCOIN_flattened.sol\":14540:14558  _allowances[owner] */\n      swap1\n      dup2\n      mstore\n        /* \"TOLCOIN_flattened.sol\":14540:14551  _allowances */\n      0x01\n        /* \"TOLCOIN_flattened.sol\":14540:14558  _allowances[owner] */\n      0x20\n      swap1\n      dup2\n      mstore\n      0x40\n      dup1\n      dup4\n      keccak256\n        /* \"TOLCOIN_flattened.sol\":14540:14567  _allowances[owner][spender] */\n      swap4\n      dup7\n      and\n      dup4\n      mstore\n      swap3\n      swap1\n      mstore\n      keccak256\n      sload\n      not(0x00)\n        /* \"TOLCOIN_flattened.sol\":21463:21499  currentAllowance < type(uint256).max */\n      dup2\n      lt\n        /* \"TOLCOIN_flattened.sol\":21459:21768  if (currentAllowance < type(uint256).max) {... */\n      iszero\n      tag_190\n      jumpi\n        /* \"TOLCOIN_flattened.sol\":21538:21543  value */\n      dup2\n        /* \"TOLCOIN_flattened.sol\":21519:21535  currentAllowance */\n      dup2\n        /* \"TOLCOIN_flattened.sol\":21519:21543  currentAllowance < value */\n      lt\n        /* \"TOLCOIN_flattened.sol\":21515:21645  if (currentAllowance < value) {... */\n      iszero\n      tag_187\n      jumpi\n        /* \"TOLCOIN_flattened.sol\":21570:21630  ERC20InsufficientAllowance(spender, currentAllowance, value) */\n      mload(0x40)\n      shl(0xe1, 0x7dc7a0d9)\n      dup2\n      mstore\n      sub(shl(0xa0, 0x01), 0x01)\n        /* \"#utility.yul\":4049:4081   */\n      dup5\n      and\n        /* \"TOLCOIN_flattened.sol\":21570:21630  ERC20InsufficientAllowance(spender, currentAllowance, value) */\n      0x04\n      dup3\n      add\n        /* \"#utility.yul\":4031:4082   */\n      mstore\n        /* \"#utility.yul\":4098:4116   */\n      0x24\n      dup2\n      add\n        /* \"#utility.yul\":4091:4125   */\n      dup3\n      swap1\n      mstore\n        /* \"#utility.yul\":4141:4159   */\n      0x44\n      dup2\n      add\n        /* \"#utility.yul\":4134:4168   */\n      dup4\n      swap1\n      mstore\n        /* \"#utility.yul\":4004:4022   */\n      0x64\n      add\n        /* \"TOLCOIN_flattened.sol\":21570:21630  ERC20InsufficientAllowance(spender, currentAllowance, value) */\n      tag_133\n        /* \"#utility.yul\":3829:4174   */\n      jump\n        /* \"TOLCOIN_flattened.sol\":21515:21645  if (currentAllowance < value) {... */\n    tag_187:\n        /* \"TOLCOIN_flattened.sol\":21686:21743  _approve(owner, spender, currentAllowance - value, false) */\n      tag_190\n        /* \"TOLCOIN_flattened.sol\":21695:21700  owner */\n      dup5\n        /* \"TOLCOIN_flattened.sol\":21702:21709  spender */\n      dup5\n        /* \"TOLCOIN_flattened.sol\":21730:21735  value */\n      dup5\n        /* \"TOLCOIN_flattened.sol\":21711:21727  currentAllowance */\n      dup5\n        /* \"TOLCOIN_flattened.sol\":21711:21735  currentAllowance - value */\n      sub\n        /* \"TOLCOIN_flattened.sol\":21737:21742  false */\n      0x00\n        /* \"TOLCOIN_flattened.sol\":21686:21694  _approve */\n      tag_183\n        /* \"TOLCOIN_flattened.sol\":21686:21743  _approve(owner, spender, currentAllowance - value, false) */\n      jump\t// in\n    tag_190:\n        /* \"TOLCOIN_flattened.sol\":21387:21774  {... */\n      pop\n        /* \"TOLCOIN_flattened.sol\":21298:21774  function _spendAllowance(address owner, address spender, uint256 value) internal virtual {... */\n      pop\n      pop\n      pop\n      jump\t// out\n        /* \"TOLCOIN_flattened.sol\":16276:16576  function _transfer(address from, address to, uint256 value) internal {... */\n    tag_126:\n      sub(shl(0xa0, 0x01), 0x01)\n        /* \"TOLCOIN_flattened.sol\":16359:16377  from == address(0) */\n      dup4\n      and\n        /* \"TOLCOIN_flattened.sol\":16355:16441  if (from == address(0)) {... */\n      tag_192\n      jumpi\n        /* \"TOLCOIN_flattened.sol\":16400:16430  ERC20InvalidSender(address(0)) */\n      mload(0x40)\n      shl(0xe1, 0x4b637e8f)\n      dup2\n      mstore\n        /* \"TOLCOIN_flattened.sol\":16427:16428  0 */\n      0x00\n        /* \"TOLCOIN_flattened.sol\":16400:16430  ERC20InvalidSender(address(0)) */\n      0x04\n      dup3\n      add\n        /* \"#utility.yul\":2422:2473   */\n      mstore\n        /* \"#utility.yul\":2395:2413   */\n      0x24\n      add\n        /* \"TOLCOIN_flattened.sol\":16400:16430  ERC20InvalidSender(address(0)) */\n      tag_133\n        /* \"#utility.yul\":2276:2479   */\n      jump\n        /* \"TOLCOIN_flattened.sol\":16355:16441  if (from == address(0)) {... */\n    tag_192:\n      sub(shl(0xa0, 0x01), 0x01)\n        /* \"TOLCOIN_flattened.sol\":16454:16470  to == address(0) */\n      dup3\n      and\n        /* \"TOLCOIN_flattened.sol\":16450:16536  if (to == address(0)) {... */\n      tag_194\n      jumpi\n        /* \"TOLCOIN_flattened.sol\":16493:16525  ERC20InvalidReceiver(address(0)) */\n      mload(0x40)\n      shl(0xe0, 0xec442f05)\n      dup2\n      mstore\n        /* \"TOLCOIN_flattened.sol\":16522:16523  0 */\n      0x00\n        /* \"TOLCOIN_flattened.sol\":16493:16525  ERC20InvalidReceiver(address(0)) */\n      0x04\n      dup3\n      add\n        /* \"#utility.yul\":2422:2473   */\n      mstore\n        /* \"#utility.yul\":2395:2413   */\n      0x24\n      add\n        /* \"TOLCOIN_flattened.sol\":16493:16525  ERC20InvalidReceiver(address(0)) */\n      tag_133\n        /* \"#utility.yul\":2276:2479   */\n      jump\n        /* \"TOLCOIN_flattened.sol\":16450:16536  if (to == address(0)) {... */\n    tag_194:\n        /* \"TOLCOIN_flattened.sol\":16545:16569  _update(from, to, value) */\n      tag_182\n        /* \"TOLCOIN_flattened.sol\":16553:16557  from */\n      dup4\n        /* \"TOLCOIN_flattened.sol\":16559:16561  to */\n      dup4\n        /* \"TOLCOIN_flattened.sol\":16563:16568  value */\n      dup4\n        /* \"TOLCOIN_flattened.sol\":16545:16552  _update */\n      tag_197\n        /* \"TOLCOIN_flattened.sol\":16545:16569  _update(from, to, value) */\n      jump\t// in\n        /* \"TOLCOIN_flattened.sol\":24690:24852  function _checkOwner() internal view virtual {... */\n    tag_130:\n        /* \"TOLCOIN_flattened.sol\":24604:24610  _owner */\n      sload(0x05)\n      sub(shl(0xa0, 0x01), 0x01)\n      0x0100\n      swap1\n      swap2\n      div\n      and\n        /* \"TOLCOIN_flattened.sol\":4289:4299  msg.sender */\n      caller\n        /* \"TOLCOIN_flattened.sol\":24749:24772  owner() != _msgSender() */\n      eq\n        /* \"TOLCOIN_flattened.sol\":24745:24846  if (owner() != _msgSender()) {... */\n      tag_138\n      jumpi\n        /* \"TOLCOIN_flattened.sol\":24795:24835  OwnableUnauthorizedAccount(_msgSender()) */\n      mload(0x40)\n      shl(0xe0, 0x118cdaa7)\n      dup2\n      mstore\n        /* \"TOLCOIN_flattened.sol\":4289:4299  msg.sender */\n      caller\n        /* \"TOLCOIN_flattened.sol\":24795:24835  OwnableUnauthorizedAccount(_msgSender()) */\n      0x04\n      dup3\n      add\n        /* \"#utility.yul\":2422:2473   */\n      mstore\n        /* \"#utility.yul\":2395:2413   */\n      0x24\n      add\n        /* \"TOLCOIN_flattened.sol\":24795:24835  OwnableUnauthorizedAccount(_msgSender()) */\n      tag_133\n        /* \"#utility.yul\":2276:2479   */\n      jump\n        /* \"TOLCOIN_flattened.sol\":28424:28541  function _unpause() internal virtual whenPaused {... */\n    tag_139:\n        /* \"TOLCOIN_flattened.sol\":27477:27493  _requirePaused() */\n      tag_205\n        /* \"TOLCOIN_flattened.sol\":27477:27491  _requirePaused */\n      tag_206\n        /* \"TOLCOIN_flattened.sol\":27477:27493  _requirePaused() */\n      jump\t// in\n    tag_205:\n        /* \"TOLCOIN_flattened.sol\":28482:28489  _paused */\n      0x05\n        /* \"TOLCOIN_flattened.sol\":28482:28497  _paused = false */\n      dup1\n      sload\n      not(0xff)\n      and\n      swap1\n      sstore\n        /* \"TOLCOIN_flattened.sol\":28512:28534  Unpaused(_msgSender()) */\n      0x5db9ee0a495bf2e6ff9c91a7834c1ba4fdd244a5e8aa4e537bd38aeae4b073aa\n        /* \"TOLCOIN_flattened.sol\":4289:4299  msg.sender */\n      caller\n        /* \"TOLCOIN_flattened.sol\":28521:28533  _msgSender() */\n    tag_208:\n        /* \"TOLCOIN_flattened.sol\":28512:28534  Unpaused(_msgSender()) */\n      mload(0x40)\n      sub(shl(0xa0, 0x01), 0x01)\n        /* \"#utility.yul\":2440:2472   */\n      swap1\n      swap2\n      and\n        /* \"#utility.yul\":2422:2473   */\n      dup2\n      mstore\n        /* \"#utility.yul\":2410:2412   */\n      0x20\n        /* \"#utility.yul\":2395:2413   */\n      add\n        /* \"TOLCOIN_flattened.sol\":28512:28534  Unpaused(_msgSender()) */\n      mload(0x40)\n      dup1\n      swap2\n      sub\n      swap1\n      log1\n        /* \"TOLCOIN_flattened.sol\":28424:28541  function _unpause() internal virtual whenPaused {... */\n      jump\t// out\n        /* \"TOLCOIN_flattened.sol\":18867:19073  function _burn(address account, uint256 value) internal {... */\n    tag_143:\n      sub(shl(0xa0, 0x01), 0x01)\n        /* \"TOLCOIN_flattened.sol\":18937:18958  account == address(0) */\n      dup3\n      and\n        /* \"TOLCOIN_flattened.sol\":18933:19022  if (account == address(0)) {... */\n      tag_211\n      jumpi\n        /* \"TOLCOIN_flattened.sol\":18981:19011  ERC20InvalidSender(address(0)) */\n      mload(0x40)\n      shl(0xe1, 0x4b637e8f)\n      dup2\n      mstore\n        /* \"TOLCOIN_flattened.sol\":19008:19009  0 */\n      0x00\n        /* \"TOLCOIN_flattened.sol\":18981:19011  ERC20InvalidSender(address(0)) */\n      0x04\n      dup3\n      add\n        /* \"#utility.yul\":2422:2473   */\n      mstore\n        /* \"#utility.yul\":2395:2413   */\n      0x24\n      add\n        /* \"TOLCOIN_flattened.sol\":18981:19011  ERC20InvalidSender(address(0)) */\n      tag_133\n        /* \"#utility.yul\":2276:2479   */\n      jump\n        /* \"TOLCOIN_flattened.sol\":18933:19022  if (account == address(0)) {... */\n    tag_211:\n        /* \"TOLCOIN_flattened.sol\":19031:19066  _update(account, address(0), value) */\n      tag_154\n        /* \"TOLCOIN_flattened.sol\":19039:19046  account */\n      dup3\n        /* \"TOLCOIN_flattened.sol\":19056:19057  0 */\n      0x00\n        /* \"TOLCOIN_flattened.sol\":19060:19065  value */\n      dup4\n        /* \"TOLCOIN_flattened.sol\":19031:19038  _update */\n      tag_197\n        /* \"TOLCOIN_flattened.sol\":19031:19066  _update(account, address(0), value) */\n      jump\t// in\n        /* \"TOLCOIN_flattened.sol\":25806:25993  function _transferOwnership(address newOwner) internal virtual {... */\n    tag_150:\n        /* \"TOLCOIN_flattened.sol\":25898:25904  _owner */\n      0x05\n      dup1\n      sload\n      sub(shl(0xa0, 0x01), 0x01)\n        /* \"TOLCOIN_flattened.sol\":25914:25931  _owner = newOwner */\n      dup4\n      dup2\n      and\n        /* \"TOLCOIN_flattened.sol\":25898:25904  _owner */\n      0x0100\n        /* \"TOLCOIN_flattened.sol\":25914:25931  _owner = newOwner */\n      dup2\n      dup2\n      mul\n      not(sub(shl(0xa8, 0x01), 0x0100))\n      dup6\n      and\n      or\n      swap1\n      swap5\n      sstore\n        /* \"TOLCOIN_flattened.sol\":25946:25986  OwnershipTransferred(oldOwner, newOwner) */\n      mload(0x40)\n        /* \"TOLCOIN_flattened.sol\":25898:25904  _owner */\n      swap4\n      swap1\n      swap3\n      div\n      and\n      swap2\n      dup3\n      swap1\n        /* \"TOLCOIN_flattened.sol\":25946:25986  OwnershipTransferred(oldOwner, newOwner) */\n      0x8be0079c531659141344cd1fd0a4f28419497f9722a3daafe3b4186f6b6457e0\n      swap1\n        /* \"TOLCOIN_flattened.sol\":25879:25895  address oldOwner */\n      0x00\n      swap1\n        /* \"TOLCOIN_flattened.sol\":25946:25986  OwnershipTransferred(oldOwner, newOwner) */\n      log3\n        /* \"TOLCOIN_flattened.sol\":25869:25993  {... */\n      pop\n        /* \"TOLCOIN_flattened.sol\":25806:25993  function _transferOwnership(address newOwner) internal virtual {... */\n      pop\n      jump\t// out\n        /* \"TOLCOIN_flattened.sol\":28177:28292  function _pause() internal virtual whenNotPaused {... */\n    tag_159:\n        /* \"TOLCOIN_flattened.sol\":27230:27249  _requireNotPaused() */\n      tag_216\n        /* \"TOLCOIN_flattened.sol\":27230:27247  _requireNotPaused */\n      tag_217\n        /* \"TOLCOIN_flattened.sol\":27230:27249  _requireNotPaused() */\n      jump\t// in\n    tag_216:\n        /* \"TOLCOIN_flattened.sol\":28236:28243  _paused */\n      0x05\n        /* \"TOLCOIN_flattened.sol\":28236:28250  _paused = true */\n      dup1\n      sload\n      not(0xff)\n      and\n        /* \"TOLCOIN_flattened.sol\":28246:28250  true */\n      0x01\n        /* \"TOLCOIN_flattened.sol\":28236:28250  _paused = true */\n      or\n      swap1\n      sstore\n        /* \"TOLCOIN_flattened.sol\":28265:28285  Paused(_msgSender()) */\n      0x62e78cea01bee320cd4e420270b5ea74000d11b0c9f74754ebdbfc544b05a258\n        /* \"TOLCOIN_flattened.sol\":28272:28284  _msgSender() */\n      tag_208\n        /* \"TOLCOIN_flattened.sol\":4289:4299  msg.sender */\n      caller\n      swap1\n        /* \"TOLCOIN_flattened.sol\":4210:4306  function _msgSender() internal view virtual returns (address) {... */\n      jump\n        /* \"TOLCOIN_flattened.sol\":20584:21016  function _approve(address owner, address spender, uint256 value, bool emitEvent) internal virtual {... */\n    tag_183:\n      sub(shl(0xa0, 0x01), 0x01)\n        /* \"TOLCOIN_flattened.sol\":20696:20715  owner == address(0) */\n      dup5\n      and\n        /* \"TOLCOIN_flattened.sol\":20692:20781  if (owner == address(0)) {... */\n      tag_222\n      jumpi\n        /* \"TOLCOIN_flattened.sol\":20738:20770  ERC20InvalidApprover(address(0)) */\n      mload(0x40)\n      shl(0xe0, 0xe602df05)\n      dup2\n      mstore\n        /* \"TOLCOIN_flattened.sol\":20767:20768  0 */\n      0x00\n        /* \"TOLCOIN_flattened.sol\":20738:20770  ERC20InvalidApprover(address(0)) */\n      0x04\n      dup3\n      add\n        /* \"#utility.yul\":2422:2473   */\n      mstore\n        /* \"#utility.yul\":2395:2413   */\n      0x24\n      add\n        /* \"TOLCOIN_flattened.sol\":20738:20770  ERC20InvalidApprover(address(0)) */\n      tag_133\n        /* \"#utility.yul\":2276:2479   */\n      jump\n        /* \"TOLCOIN_flattened.sol\":20692:20781  if (owner == address(0)) {... */\n    tag_222:\n      sub(shl(0xa0, 0x01), 0x01)\n        /* \"TOLCOIN_flattened.sol\":20794:20815  spender == address(0) */\n      dup4\n      and\n        /* \"TOLCOIN_flattened.sol\":20790:20880  if (spender == address(0)) {... */\n      tag_224\n      jumpi\n        /* \"TOLCOIN_flattened.sol\":20838:20869  ERC20InvalidSpender(address(0)) */\n      mload(0x40)\n      shl(0xe1, 0x4a1406b1)\n      dup2\n      mstore\n        /* \"TOLCOIN_flattened.sol\":20866:20867  0 */\n      0x00\n        /* \"TOLCOIN_flattened.sol\":20838:20869  ERC20InvalidSpender(address(0)) */\n      0x04\n      dup3\n      add\n        /* \"#utility.yul\":2422:2473   */\n      mstore\n        /* \"#utility.yul\":2395:2413   */\n      0x24\n      add\n        /* \"TOLCOIN_flattened.sol\":20838:20869  ERC20InvalidSpender(address(0)) */\n      tag_133\n        /* \"#utility.yul\":2276:2479   */\n      jump\n        /* \"TOLCOIN_flattened.sol\":20790:20880  if (spender == address(0)) {... */\n    tag_224:\n      sub(shl(0xa0, 0x01), 0x01)\n        /* \"TOLCOIN_flattened.sol\":20889:20907  _allowances[owner] */\n      dup1\n      dup6\n      and\n      0x00\n      swap1\n      dup2\n      mstore\n        /* \"TOLCOIN_flattened.sol\":20889:20900  _allowances */\n      0x01\n        /* \"TOLCOIN_flattened.sol\":20889:20907  _allowances[owner] */\n      0x20\n      swap1\n      dup2\n      mstore\n      0x40\n      dup1\n      dup4\n      keccak256\n        /* \"TOLCOIN_flattened.sol\":20889:20916  _allowances[owner][spender] */\n      swap4\n      dup8\n      and\n      dup4\n      mstore\n      swap3\n      swap1\n      mstore\n      keccak256\n        /* \"TOLCOIN_flattened.sol\":20889:20924  _allowances[owner][spender] = value */\n      dup3\n      swap1\n      sstore\n        /* \"TOLCOIN_flattened.sol\":20934:21010  if (emitEvent) {... */\n      dup1\n      iszero\n      tag_190\n      jumpi\n        /* \"TOLCOIN_flattened.sol\":20984:20991  spender */\n      dup3\n      sub(shl(0xa0, 0x01), 0x01)\n        /* \"TOLCOIN_flattened.sol\":20968:20999  Approval(owner, spender, value) */\n      and\n        /* \"TOLCOIN_flattened.sol\":20977:20982  owner */\n      dup5\n      sub(shl(0xa0, 0x01), 0x01)\n        /* \"TOLCOIN_flattened.sol\":20968:20999  Approval(owner, spender, value) */\n      and\n      0x8c5be1e5ebec7d5bd14f71427d1e84f3dd0314c0f7b2291e5b200ac8c7c3b925\n        /* \"TOLCOIN_flattened.sol\":20993:20998  value */\n      dup5\n        /* \"TOLCOIN_flattened.sol\":20968:20999  Approval(owner, spender, value) */\n      mload(0x40)\n      tag_227\n      swap2\n        /* \"#utility.yul\":1342:1367   */\n      dup2\n      mstore\n        /* \"#utility.yul\":1330:1332   */\n      0x20\n        /* \"#utility.yul\":1315:1333   */\n      add\n      swap1\n        /* \"#utility.yul\":1196:1373   */\n      jump\n        /* \"TOLCOIN_flattened.sol\":20968:20999  Approval(owner, spender, value) */\n    tag_227:\n      mload(0x40)\n      dup1\n      swap2\n      sub\n      swap1\n      log3\n        /* \"TOLCOIN_flattened.sol\":20584:21016  function _approve(address owner, address spender, uint256 value, bool emitEvent) internal virtual {... */\n      pop\n      pop\n      pop\n      pop\n      jump\t// out\n        /* \"TOLCOIN_flattened.sol\":16891:17998  function _update(address from, address to, uint256 value) internal virtual {... */\n    tag_197:\n      sub(shl(0xa0, 0x01), 0x01)\n        /* \"TOLCOIN_flattened.sol\":16980:16998  from == address(0) */\n      dup4\n      and\n        /* \"TOLCOIN_flattened.sol\":16976:17516  if (from == address(0)) {... */\n      tag_229\n      jumpi\n        /* \"TOLCOIN_flattened.sol\":17132:17137  value */\n      dup1\n        /* \"TOLCOIN_flattened.sol\":17116:17128  _totalSupply */\n      0x02\n      0x00\n        /* \"TOLCOIN_flattened.sol\":17116:17137  _totalSupply += value */\n      dup3\n      dup3\n      sload\n      tag_230\n      swap2\n      swap1\n      tag_231\n      jump\t// in\n    tag_230:\n      swap1\n      swap2\n      sstore\n      pop\n        /* \"TOLCOIN_flattened.sol\":16976:17516  if (from == address(0)) {... */\n      tag_232\n      swap1\n      pop\n      jump\n    tag_229:\n      sub(shl(0xa0, 0x01), 0x01)\n        /* \"TOLCOIN_flattened.sol\":17190:17205  _balances[from] */\n      dup4\n      and\n        /* \"TOLCOIN_flattened.sol\":17168:17187  uint256 fromBalance */\n      0x00\n        /* \"TOLCOIN_flattened.sol\":17190:17205  _balances[from] */\n      swap1\n      dup2\n      mstore\n      0x20\n      dup2\n      swap1\n      mstore\n      0x40\n      swap1\n      keccak256\n      sload\n        /* \"TOLCOIN_flattened.sol\":17223:17242  fromBalance < value */\n      dup2\n      dup2\n      lt\n        /* \"TOLCOIN_flattened.sol\":17219:17334  if (fromBalance < value) {... */\n      iszero\n      tag_233\n      jumpi\n        /* \"TOLCOIN_flattened.sol\":17269:17319  ERC20InsufficientBalance(from, fromBalance, value) */\n      mload(0x40)\n      shl(0xe2, 0x391434e3)\n      dup2\n      mstore\n      sub(shl(0xa0, 0x01), 0x01)\n        /* \"#utility.yul\":4049:4081   */\n      dup6\n      and\n        /* \"TOLCOIN_flattened.sol\":17269:17319  ERC20InsufficientBalance(from, fromBalance, value) */\n      0x04\n      dup3\n      add\n        /* \"#utility.yul\":4031:4082   */\n      mstore\n        /* \"#utility.yul\":4098:4116   */\n      0x24\n      dup2\n      add\n        /* \"#utility.yul\":4091:4125   */\n      dup3\n      swap1\n      mstore\n        /* \"#utility.yul\":4141:4159   */\n      0x44\n      dup2\n      add\n        /* \"#utility.yul\":4134:4168   */\n      dup4\n      swap1\n      mstore\n        /* \"#utility.yul\":4004:4022   */\n      0x64\n      add\n        /* \"TOLCOIN_flattened.sol\":17269:17319  ERC20InsufficientBalance(from, fromBalance, value) */\n      tag_133\n        /* \"#utility.yul\":3829:4174   */\n      jump\n        /* \"TOLCOIN_flattened.sol\":17219:17334  if (fromBalance < value) {... */\n    tag_233:\n      sub(shl(0xa0, 0x01), 0x01)\n        /* \"TOLCOIN_flattened.sol\":17454:17469  _balances[from] */\n      dup5\n      and\n        /* \"TOLCOIN_flattened.sol\":17454:17463  _balances */\n      0x00\n        /* \"TOLCOIN_flattened.sol\":17454:17469  _balances[from] */\n      swap1\n      dup2\n      mstore\n      0x20\n      dup2\n      swap1\n      mstore\n      0x40\n      swap1\n      keccak256\n        /* \"TOLCOIN_flattened.sol\":17472:17491  fromBalance - value */\n      swap1\n      dup3\n      swap1\n      sub\n        /* \"TOLCOIN_flattened.sol\":17454:17491  _balances[from] = fromBalance - value */\n      swap1\n      sstore\n        /* \"TOLCOIN_flattened.sol\":16976:17516  if (from == address(0)) {... */\n    tag_232:\n      sub(shl(0xa0, 0x01), 0x01)\n        /* \"TOLCOIN_flattened.sol\":17530:17546  to == address(0) */\n      dup3\n      and\n        /* \"TOLCOIN_flattened.sol\":17526:17951  if (to == address(0)) {... */\n      tag_235\n      jumpi\n        /* \"TOLCOIN_flattened.sol\":17693:17705  _totalSupply */\n      0x02\n        /* \"TOLCOIN_flattened.sol\":17693:17714  _totalSupply -= value */\n      dup1\n      sload\n      dup3\n      swap1\n      sub\n      swap1\n      sstore\n        /* \"TOLCOIN_flattened.sol\":17526:17951  if (to == address(0)) {... */\n      jump(tag_236)\n    tag_235:\n      sub(shl(0xa0, 0x01), 0x01)\n        /* \"TOLCOIN_flattened.sol\":17904:17917  _balances[to] */\n      dup3\n      and\n        /* \"TOLCOIN_flattened.sol\":17904:17913  _balances */\n      0x00\n        /* \"TOLCOIN_flattened.sol\":17904:17917  _balances[to] */\n      swap1\n      dup2\n      mstore\n      0x20\n      dup2\n      swap1\n      mstore\n      0x40\n      swap1\n      keccak256\n        /* \"TOLCOIN_flattened.sol\":17904:17926  _balances[to] += value */\n      dup1\n      sload\n      dup3\n      add\n      swap1\n      sstore\n        /* \"TOLCOIN_flattened.sol\":17526:17951  if (to == address(0)) {... */\n    tag_236:\n        /* \"TOLCOIN_flattened.sol\":17981:17983  to */\n      dup2\n      sub(shl(0xa0, 0x01), 0x01)\n        /* \"TOLCOIN_flattened.sol\":17966:17991  Transfer(from, to, value) */\n      and\n        /* \"TOLCOIN_flattened.sol\":17975:17979  from */\n      dup4\n      sub(shl(0xa0, 0x01), 0x01)\n        /* \"TOLCOIN_flattened.sol\":17966:17991  Transfer(from, to, value) */\n      and\n      0xddf252ad1be2c89b69c2b068fc378daa952ba7f163c4a11628f55a4df523b3ef\n        /* \"TOLCOIN_flattened.sol\":17985:17990  value */\n      dup4\n        /* \"TOLCOIN_flattened.sol\":17966:17991  Transfer(from, to, value) */\n      mload(0x40)\n      tag_237\n      swap2\n        /* \"#utility.yul\":1342:1367   */\n      dup2\n      mstore\n        /* \"#utility.yul\":1330:1332   */\n      0x20\n        /* \"#utility.yul\":1315:1333   */\n      add\n      swap1\n        /* \"#utility.yul\":1196:1373   */\n      jump\n        /* \"TOLCOIN_flattened.sol\":17966:17991  Transfer(from, to, value) */\n    tag_237:\n      mload(0x40)\n      dup1\n      swap2\n      sub\n      swap1\n      log3\n        /* \"TOLCOIN_flattened.sol\":16891:17998  function _update(address from, address to, uint256 value) internal virtual {... */\n      pop\n      pop\n      pop\n      jump\t// out\n        /* \"TOLCOIN_flattened.sol\":27936:28042  function _requirePaused() internal view virtual {... */\n    tag_206:\n        /* \"TOLCOIN_flattened.sol\":27676:27683  _paused */\n      and(0xff, sload(0x05))\n        /* \"TOLCOIN_flattened.sol\":27994:28035  require(paused(), \"Pausable: not paused\") */\n      tag_138\n      jumpi\n      mload(0x40)\n      shl(0xe5, 0x461bcd)\n      dup2\n      mstore\n        /* \"#utility.yul\":4608:4610   */\n      0x20\n        /* \"TOLCOIN_flattened.sol\":27994:28035  require(paused(), \"Pausable: not paused\") */\n      0x04\n      dup3\n      add\n        /* \"#utility.yul\":4590:4611   */\n      mstore\n        /* \"#utility.yul\":4647:4649   */\n      0x14\n        /* \"#utility.yul\":4627:4645   */\n      0x24\n      dup3\n      add\n        /* \"#utility.yul\":4620:4650   */\n      mstore\n      shl(0x62, 0x14185d5cd8589b194e881b9bdd081c185d5cd959)\n        /* \"#utility.yul\":4666:4684   */\n      0x44\n      dup3\n      add\n        /* \"#utility.yul\":4659:4709   */\n      mstore\n        /* \"#utility.yul\":4726:4744   */\n      0x64\n      add\n        /* \"TOLCOIN_flattened.sol\":27994:28035  require(paused(), \"Pausable: not paused\") */\n      tag_133\n        /* \"#utility.yul\":4406:4750   */\n      jump\n        /* \"TOLCOIN_flattened.sol\":27758:27864  function _requireNotPaused() internal view virtual {... */\n    tag_217:\n        /* \"TOLCOIN_flattened.sol\":27676:27683  _paused */\n      and(0xff, sload(0x05))\n        /* \"TOLCOIN_flattened.sol\":27827:27836  !paused() */\n      iszero\n        /* \"TOLCOIN_flattened.sol\":27819:27857  require(!paused(), \"Pausable: paused\") */\n      tag_138\n      jumpi\n      mload(0x40)\n      shl(0xe5, 0x461bcd)\n      dup2\n      mstore\n        /* \"#utility.yul\":4957:4959   */\n      0x20\n        /* \"TOLCOIN_flattened.sol\":27819:27857  require(!paused(), \"Pausable: paused\") */\n      0x04\n      dup3\n      add\n        /* \"#utility.yul\":4939:4960   */\n      mstore\n        /* \"#utility.yul\":4996:4998   */\n      0x10\n        /* \"#utility.yul\":4976:4994   */\n      0x24\n      dup3\n      add\n        /* \"#utility.yul\":4969:4999   */\n      mstore\n      shl(0x82, 0x14185d5cd8589b194e881c185d5cd959)\n        /* \"#utility.yul\":5015:5033   */\n      0x44\n      dup3\n      add\n        /* \"#utility.yul\":5008:5054   */\n      mstore\n        /* \"#utility.yul\":5071:5089   */\n      0x64\n      add\n        /* \"TOLCOIN_flattened.sol\":27819:27857  require(!paused(), \"Pausable: paused\") */\n      tag_133\n        /* \"#utility.yul\":4755:5095   */\n      jump\n        /* \"#utility.yul\":14:562   */\n    tag_31:\n        /* \"#utility.yul\":126:130   */\n      0x00\n        /* \"#utility.yul\":155:157   */\n      0x20\n        /* \"#utility.yul\":184:186   */\n      dup1\n        /* \"#utility.yul\":173:182   */\n      dup4\n        /* \"#utility.yul\":166:187   */\n      mstore\n        /* \"#utility.yul\":216:222   */\n      dup4\n        /* \"#utility.yul\":210:223   */\n      mload\n        /* \"#utility.yul\":259:265   */\n      dup1\n        /* \"#utility.yul\":254:256   */\n      0x20\n        /* \"#utility.yul\":243:252   */\n      dup6\n        /* \"#utility.yul\":239:257   */\n      add\n        /* \"#utility.yul\":232:266   */\n      mstore\n        /* \"#utility.yul\":284:285   */\n      0x00\n        /* \"#utility.yul\":294:434   */\n    tag_251:\n        /* \"#utility.yul\":308:314   */\n      dup2\n        /* \"#utility.yul\":305:306   */\n      dup2\n        /* \"#utility.yul\":302:315   */\n      lt\n        /* \"#utility.yul\":294:434   */\n      iszero\n      tag_253\n      jumpi\n        /* \"#utility.yul\":403:417   */\n      dup6\n      dup2\n      add\n        /* \"#utility.yul\":399:422   */\n      dup4\n      add\n        /* \"#utility.yul\":393:423   */\n      mload\n        /* \"#utility.yul\":369:386   */\n      dup6\n      dup3\n      add\n        /* \"#utility.yul\":388:390   */\n      0x40\n        /* \"#utility.yul\":365:391   */\n      add\n        /* \"#utility.yul\":358:424   */\n      mstore\n        /* \"#utility.yul\":323:333   */\n      dup3\n      add\n        /* \"#utility.yul\":294:434   */\n      jump(tag_251)\n    tag_253:\n        /* \"#utility.yul\":298:301   */\n      pop\n        /* \"#utility.yul\":483:484   */\n      0x00\n        /* \"#utility.yul\":478:480   */\n      0x40\n        /* \"#utility.yul\":469:475   */\n      dup3\n        /* \"#utility.yul\":458:467   */\n      dup7\n        /* \"#utility.yul\":454:476   */\n      add\n        /* \"#utility.yul\":450:481   */\n      add\n        /* \"#utility.yul\":443:485   */\n      mstore\n        /* \"#utility.yul\":553:555   */\n      0x40\n        /* \"#utility.yul\":546:548   */\n      0x1f\n        /* \"#utility.yul\":542:549   */\n      not\n        /* \"#utility.yul\":537:539   */\n      0x1f\n        /* \"#utility.yul\":529:535   */\n      dup4\n        /* \"#utility.yul\":525:540   */\n      add\n        /* \"#utility.yul\":521:550   */\n      and\n        /* \"#utility.yul\":510:519   */\n      dup6\n        /* \"#utility.yul\":506:551   */\n      add\n        /* \"#utility.yul\":502:556   */\n      add\n        /* \"#utility.yul\":494:556   */\n      swap3\n      pop\n      pop\n      pop\n        /* \"#utility.yul\":14:562   */\n      swap3\n      swap2\n      pop\n      pop\n      jump\t// out\n        /* \"#utility.yul\":567:740   */\n    tag_248:\n        /* \"#utility.yul\":635:655   */\n      dup1\n      calldataload\n      sub(shl(0xa0, 0x01), 0x01)\n        /* \"#utility.yul\":684:715   */\n      dup2\n      and\n        /* \"#utility.yul\":674:716   */\n      dup2\n      eq\n        /* \"#utility.yul\":664:734   */\n      tag_255\n      jumpi\n        /* \"#utility.yul\":730:731   */\n      0x00\n        /* \"#utility.yul\":727:728   */\n      dup1\n        /* \"#utility.yul\":720:732   */\n      revert\n        /* \"#utility.yul\":664:734   */\n    tag_255:\n        /* \"#utility.yul\":567:740   */\n      swap2\n      swap1\n      pop\n      jump\t// out\n        /* \"#utility.yul\":745:999   */\n    tag_34:\n        /* \"#utility.yul\":813:819   */\n      0x00\n        /* \"#utility.yul\":821:827   */\n      dup1\n        /* \"#utility.yul\":874:876   */\n      0x40\n        /* \"#utility.yul\":862:871   */\n      dup4\n        /* \"#utility.yul\":853:860   */\n      dup6\n        /* \"#utility.yul\":849:872   */\n      sub\n        /* \"#utility.yul\":845:877   */\n      slt\n        /* \"#utility.yul\":842:894   */\n      iszero\n      tag_257\n      jumpi\n        /* \"#utility.yul\":890:891   */\n      0x00\n        /* \"#utility.yul\":887:888   */\n      dup1\n        /* \"#utility.yul\":880:892   */\n      revert\n        /* \"#utility.yul\":842:894   */\n    tag_257:\n        /* \"#utility.yul\":913:942   */\n      tag_258\n        /* \"#utility.yul\":932:941   */\n      dup4\n        /* \"#utility.yul\":913:942   */\n      tag_248\n      jump\t// in\n    tag_258:\n        /* \"#utility.yul\":903:942   */\n      swap5\n        /* \"#utility.yul\":989:991   */\n      0x20\n        /* \"#utility.yul\":974:992   */\n      swap4\n      swap1\n      swap4\n      add\n        /* \"#utility.yul\":961:993   */\n      calldataload\n      swap4\n      pop\n      pop\n      pop\n        /* \"#utility.yul\":745:999   */\n      jump\t// out\n        /* \"#utility.yul\":1378:1706   */\n    tag_47:\n        /* \"#utility.yul\":1455:1461   */\n      0x00\n        /* \"#utility.yul\":1463:1469   */\n      dup1\n        /* \"#utility.yul\":1471:1477   */\n      0x00\n        /* \"#utility.yul\":1524:1526   */\n      0x60\n        /* \"#utility.yul\":1512:1521   */\n      dup5\n        /* \"#utility.yul\":1503:1510   */\n      dup7\n        /* \"#utility.yul\":1499:1522   */\n      sub\n        /* \"#utility.yul\":1495:1527   */\n      slt\n        /* \"#utility.yul\":1492:1544   */\n      iszero\n      tag_262\n      jumpi\n        /* \"#utility.yul\":1540:1541   */\n      0x00\n        /* \"#utility.yul\":1537:1538   */\n      dup1\n        /* \"#utility.yul\":1530:1542   */\n      revert\n        /* \"#utility.yul\":1492:1544   */\n    tag_262:\n        /* \"#utility.yul\":1563:1592   */\n      tag_263\n        /* \"#utility.yul\":1582:1591   */\n      dup5\n        /* \"#utility.yul\":1563:1592   */\n      tag_248\n      jump\t// in\n    tag_263:\n        /* \"#utility.yul\":1553:1592   */\n      swap3\n      pop\n        /* \"#utility.yul\":1611:1649   */\n      tag_264\n        /* \"#utility.yul\":1645:1647   */\n      0x20\n        /* \"#utility.yul\":1634:1643   */\n      dup6\n        /* \"#utility.yul\":1630:1648   */\n      add\n        /* \"#utility.yul\":1611:1649   */\n      tag_248\n      jump\t// in\n    tag_264:\n        /* \"#utility.yul\":1601:1649   */\n      swap2\n      pop\n        /* \"#utility.yul\":1696:1698   */\n      0x40\n        /* \"#utility.yul\":1685:1694   */\n      dup5\n        /* \"#utility.yul\":1681:1699   */\n      add\n        /* \"#utility.yul\":1668:1700   */\n      calldataload\n        /* \"#utility.yul\":1658:1700   */\n      swap1\n      pop\n        /* \"#utility.yul\":1378:1706   */\n      swap3\n      pop\n      swap3\n      pop\n      swap3\n      jump\t// out\n        /* \"#utility.yul\":1900:2080   */\n    tag_59:\n        /* \"#utility.yul\":1959:1965   */\n      0x00\n        /* \"#utility.yul\":2012:2014   */\n      0x20\n        /* \"#utility.yul\":2000:2009   */\n      dup3\n        /* \"#utility.yul\":1991:1998   */\n      dup5\n        /* \"#utility.yul\":1987:2010   */\n      sub\n        /* \"#utility.yul\":1983:2015   */\n      slt\n        /* \"#utility.yul\":1980:2032   */\n      iszero\n      tag_267\n      jumpi\n        /* \"#utility.yul\":2028:2029   */\n      0x00\n        /* \"#utility.yul\":2025:2026   */\n      dup1\n        /* \"#utility.yul\":2018:2030   */\n      revert\n        /* \"#utility.yul\":1980:2032   */\n    tag_267:\n      pop\n        /* \"#utility.yul\":2051:2074   */\n      calldataload\n      swap2\n        /* \"#utility.yul\":1900:2080   */\n      swap1\n      pop\n      jump\t// out\n        /* \"#utility.yul\":2085:2271   */\n    tag_71:\n        /* \"#utility.yul\":2144:2150   */\n      0x00\n        /* \"#utility.yul\":2197:2199   */\n      0x20\n        /* \"#utility.yul\":2185:2194   */\n      dup3\n        /* \"#utility.yul\":2176:2183   */\n      dup5\n        /* \"#utility.yul\":2172:2195   */\n      sub\n        /* \"#utility.yul\":2168:2200   */\n      slt\n        /* \"#utility.yul\":2165:2217   */\n      iszero\n      tag_269\n      jumpi\n        /* \"#utility.yul\":2213:2214   */\n      0x00\n        /* \"#utility.yul\":2210:2211   */\n      dup1\n        /* \"#utility.yul\":2203:2215   */\n      revert\n        /* \"#utility.yul\":2165:2217   */\n    tag_269:\n        /* \"#utility.yul\":2236:2265   */\n      tag_270\n        /* \"#utility.yul\":2255:2264   */\n      dup3\n        /* \"#utility.yul\":2236:2265   */\n      tag_248\n      jump\t// in\n    tag_270:\n        /* \"#utility.yul\":2226:2265   */\n      swap4\n        /* \"#utility.yul\":2085:2271   */\n      swap3\n      pop\n      pop\n      pop\n      jump\t// out\n        /* \"#utility.yul\":2484:2831   */\n    tag_98:\n        /* \"#utility.yul\":2549:2555   */\n      0x00\n        /* \"#utility.yul\":2557:2563   */\n      dup1\n        /* \"#utility.yul\":2610:2612   */\n      0x40\n        /* \"#utility.yul\":2598:2607   */\n      dup4\n        /* \"#utility.yul\":2589:2596   */\n      dup6\n        /* \"#utility.yul\":2585:2608   */\n      sub\n        /* \"#utility.yul\":2581:2613   */\n      slt\n        /* \"#utility.yul\":2578:2630   */\n      iszero\n      tag_273\n      jumpi\n        /* \"#utility.yul\":2626:2627   */\n      0x00\n        /* \"#utility.yul\":2623:2624   */\n      dup1\n        /* \"#utility.yul\":2616:2628   */\n      revert\n        /* \"#utility.yul\":2578:2630   */\n    tag_273:\n        /* \"#utility.yul\":2649:2678   */\n      tag_274\n        /* \"#utility.yul\":2668:2677   */\n      dup4\n        /* \"#utility.yul\":2649:2678   */\n      tag_248\n      jump\t// in\n    tag_274:\n        /* \"#utility.yul\":2639:2678   */\n      swap2\n      pop\n        /* \"#utility.yul\":2728:2730   */\n      0x20\n        /* \"#utility.yul\":2717:2726   */\n      dup4\n        /* \"#utility.yul\":2713:2731   */\n      add\n        /* \"#utility.yul\":2700:2732   */\n      calldataload\n        /* \"#utility.yul\":2775:2780   */\n      dup1\n        /* \"#utility.yul\":2768:2781   */\n      iszero\n        /* \"#utility.yul\":2761:2782   */\n      iszero\n        /* \"#utility.yul\":2754:2759   */\n      dup2\n        /* \"#utility.yul\":2751:2783   */\n      eq\n        /* \"#utility.yul\":2741:2801   */\n      tag_275\n      jumpi\n        /* \"#utility.yul\":2797:2798   */\n      0x00\n        /* \"#utility.yul\":2794:2795   */\n      dup1\n        /* \"#utility.yul\":2787:2799   */\n      revert\n        /* \"#utility.yul\":2741:2801   */\n    tag_275:\n        /* \"#utility.yul\":2820:2825   */\n      dup1\n        /* \"#utility.yul\":2810:2825   */\n      swap2\n      pop\n      pop\n        /* \"#utility.yul\":2484:2831   */\n      swap3\n      pop\n      swap3\n      swap1\n      pop\n      jump\t// out\n        /* \"#utility.yul\":2836:3096   */\n    tag_102:\n        /* \"#utility.yul\":2904:2910   */\n      0x00\n        /* \"#utility.yul\":2912:2918   */\n      dup1\n        /* \"#utility.yul\":2965:2967   */\n      0x40\n        /* \"#utility.yul\":2953:2962   */\n      dup4\n        /* \"#utility.yul\":2944:2951   */\n      dup6\n        /* \"#utility.yul\":2940:2963   */\n      sub\n        /* \"#utility.yul\":2936:2968   */\n      slt\n        /* \"#utility.yul\":2933:2985   */\n      iszero\n      tag_277\n      jumpi\n        /* \"#utility.yul\":2981:2982   */\n      0x00\n        /* \"#utility.yul\":2978:2979   */\n      dup1\n        /* \"#utility.yul\":2971:2983   */\n      revert\n        /* \"#utility.yul\":2933:2985   */\n    tag_277:\n        /* \"#utility.yul\":3004:3033   */\n      tag_278\n        /* \"#utility.yul\":3023:3032   */\n      dup4\n        /* \"#utility.yul\":3004:3033   */\n      tag_248\n      jump\t// in\n    tag_278:\n        /* \"#utility.yul\":2994:3033   */\n      swap2\n      pop\n        /* \"#utility.yul\":3052:3090   */\n      tag_279\n        /* \"#utility.yul\":3086:3088   */\n      0x20\n        /* \"#utility.yul\":3075:3084   */\n      dup5\n        /* \"#utility.yul\":3071:3089   */\n      add\n        /* \"#utility.yul\":3052:3090   */\n      tag_248\n      jump\t// in\n    tag_279:\n        /* \"#utility.yul\":3042:3090   */\n      swap1\n      pop\n        /* \"#utility.yul\":2836:3096   */\n      swap3\n      pop\n      swap3\n      swap1\n      pop\n      jump\t// out\n        /* \"#utility.yul\":3101:3481   */\n    tag_110:\n        /* \"#utility.yul\":3180:3181   */\n      0x01\n        /* \"#utility.yul\":3176:3188   */\n      dup2\n      dup2\n      shr\n      swap1\n        /* \"#utility.yul\":3223:3235   */\n      dup3\n      and\n      dup1\n        /* \"#utility.yul\":3244:3305   */\n      tag_281\n      jumpi\n        /* \"#utility.yul\":3298:3302   */\n      0x7f\n        /* \"#utility.yul\":3290:3296   */\n      dup3\n        /* \"#utility.yul\":3286:3303   */\n      and\n        /* \"#utility.yul\":3276:3303   */\n      swap2\n      pop\n        /* \"#utility.yul\":3244:3305   */\n    tag_281:\n        /* \"#utility.yul\":3351:3353   */\n      0x20\n        /* \"#utility.yul\":3343:3349   */\n      dup3\n        /* \"#utility.yul\":3340:3354   */\n      lt\n        /* \"#utility.yul\":3320:3338   */\n      dup2\n        /* \"#utility.yul\":3317:3355   */\n      sub\n        /* \"#utility.yul\":3314:3475   */\n      tag_282\n      jumpi\n        /* \"#utility.yul\":3397:3407   */\n      0x4e487b71\n        /* \"#utility.yul\":3392:3395   */\n      0xe0\n        /* \"#utility.yul\":3388:3408   */\n      shl\n        /* \"#utility.yul\":3385:3386   */\n      0x00\n        /* \"#utility.yul\":3378:3409   */\n      mstore\n        /* \"#utility.yul\":3432:3436   */\n      0x22\n        /* \"#utility.yul\":3429:3430   */\n      0x04\n        /* \"#utility.yul\":3422:3437   */\n      mstore\n        /* \"#utility.yul\":3460:3464   */\n      0x24\n        /* \"#utility.yul\":3457:3458   */\n      0x00\n        /* \"#utility.yul\":3450:3465   */\n      revert\n        /* \"#utility.yul\":3314:3475   */\n    tag_282:\n      pop\n        /* \"#utility.yul\":3101:3481   */\n      swap2\n      swap1\n      pop\n      jump\t// out\n        /* \"#utility.yul\":4179:4401   */\n    tag_231:\n        /* \"#utility.yul\":4244:4253   */\n      dup1\n      dup3\n      add\n        /* \"#utility.yul\":4265:4275   */\n      dup1\n      dup3\n      gt\n        /* \"#utility.yul\":4262:4395   */\n      iszero\n      tag_115\n      jumpi\n        /* \"#utility.yul\":4317:4327   */\n      0x4e487b71\n        /* \"#utility.yul\":4312:4315   */\n      0xe0\n        /* \"#utility.yul\":4308:4328   */\n      shl\n        /* \"#utility.yul\":4305:4306   */\n      0x00\n        /* \"#utility.yul\":4298:4329   */\n      mstore\n        /* \"#utility.yul\":4352:4356   */\n      0x11\n        /* \"#utility.yul\":4349:4350   */\n      0x04\n        /* \"#utility.yul\":4342:4357   */\n      mstore\n        /* \"#utility.yul\":4380:4384   */\n      0x24\n        /* \"#utility.yul\":4377:4378   */\n      0x00\n        /* \"#utility.yul\":4370:4385   */\n      revert\n\n    auxdata: 0xa2646970667358221220423032c60b73107b17126d8e8a8b530d234b7e9352f9d8fb7a665186e744781664736f6c63430008180033\n}\n",
				"bytecode": {
					"linkReferences": {},
					"object": "6080604052601e60065534801562000015575f80fd5b506040805180820182526007808252662a27a621a7a4a760c91b60208084018290528451808601909552918452908301523391600362000056838262000347565b50600462000065828262000347565b50506005805460ff19169055506001600160a01b038116620000a157604051631e4fbdf760e01b81525f60048201526024015b60405180910390fd5b620000ac81620000e5565b50620000c6336c0c9f2c9cd04674edea400000006200013e565b335f908152600860205260409020805460ff1916600117905562000439565b600580546001600160a01b03838116610100818102610100600160a81b031985161790945560405193909204169182907f8be0079c531659141344cd1fd0a4f28419497f9722a3daafe3b4186f6b6457e0905f90a35050565b6001600160a01b038216620001695760405163ec442f0560e01b81525f600482015260240162000098565b620001765f83836200017a565b5050565b6001600160a01b038316620001a8578060025f8282546200019c919062000413565b909155506200021a9050565b6001600160a01b0383165f9081526020819052604090205481811015620001fc5760405163391434e360e21b81526001600160a01b0385166004820152602481018290526044810183905260640162000098565b6001600160a01b0384165f9081526020819052604090209082900390555b6001600160a01b038216620002385760028054829003905562000256565b6001600160a01b0382165f9081526020819052604090208054820190555b816001600160a01b0316836001600160a01b03167fddf252ad1be2c89b69c2b068fc378daa952ba7f163c4a11628f55a4df523b3ef836040516200029c91815260200190565b60405180910390a3505050565b634e487b7160e01b5f52604160045260245ffd5b600181811c90821680620002d257607f821691505b602082108103620002f157634e487b7160e01b5f52602260045260245ffd5b50919050565b601f8211156200034257805f5260205f20601f840160051c810160208510156200031e5750805b601f840160051c820191505b818110156200033f575f81556001016200032a565b50505b505050565b81516001600160401b03811115620003635762000363620002a9565b6200037b81620003748454620002bd565b84620002f7565b602080601f831160018114620003b1575f8415620003995750858301515b5f19600386901b1c1916600185901b1785556200040b565b5f85815260208120601f198616915b82811015620003e157888601518255948401946001909101908401620003c0565b5085821015620003ff57878501515f19600388901b60f8161c191681555b505060018460011b0185555b505050505050565b808201808211156200043357634e487b7160e01b5f52601160045260245ffd5b92915050565b610bda80620004475f395ff3fe608060405234801561000f575f80fd5b506004361061013d575f3560e01c80635d5b29c1116100b45780638da5cb5b116100795780638da5cb5b1461027f57806395d89b41146102a8578063a9059cbb146102b0578063cfc06e0b146102c3578063dd62ed3e146102d6578063f2fde38b1461030e575f80fd5b80635d5b29c11461021257806370a0823114610234578063715018a61461025c57806379cc6790146102645780638456cb5914610277575f80fd5b8063313ce56711610105578063313ce567146101b457806332cb6b0c146101c357806336e8c9b3146101d75780633f4ba83a146101ec57806342966c68146101f45780635c975abb14610207575f80fd5b806306fdde0314610141578063095ea7b31461015f5780630a702e8d1461018257806318160ddd1461019957806323b872dd146101a1575b5f80fd5b610149610321565b60405161015691906109e4565b60405180910390f35b61017261016d366004610a4b565b6103b1565b6040519015158152602001610156565b61018b60065481565b604051908152602001610156565b60025461018b565b6101726101af366004610a73565b6103ca565b60405160128152602001610156565b61018b6c0c9f2c9cd04674edea4000000081565b6101ea6101e5366004610aac565b6103ed565b005b6101ea610442565b6101ea610202366004610aac565b610454565b60055460ff16610172565b610172610220366004610ac3565b60086020525f908152604090205460ff1681565b61018b610242366004610ac3565b6001600160a01b03165f9081526020819052604090205490565b6101ea610461565b6101ea610272366004610a4b565b610472565b6101ea61048b565b60055461010090046001600160a01b03166040516001600160a01b039091168152602001610156565b61014961049b565b6101726102be366004610a4b565b6104aa565b6101ea6102d1366004610ae3565b6104b7565b61018b6102e4366004610b1c565b6001600160a01b039182165f90815260016020908152604080832093909416825291909152205490565b6101ea61031c366004610ac3565b6104e9565b60606003805461033090610b4d565b80601f016020809104026020016040519081016040528092919081815260200182805461035c90610b4d565b80156103a75780601f1061037e576101008083540402835291602001916103a7565b820191905f5260205f20905b81548152906001019060200180831161038a57829003601f168201915b5050505050905090565b5f336103be818585610523565b60019150505b92915050565b5f336103d7858285610535565b6103e28585856105b1565b506001949350505050565b6103f561060e565b61012c81111561043d5760405162461bcd60e51b815260206004820152600e60248201526d44656c617920746f6f206c6f6e6760901b60448201526064015b60405180910390fd5b600655565b61044a61060e565b610452610641565b565b61045e3382610693565b50565b61046961060e565b6104525f6106c7565b61047d823383610535565b6104878282610693565b5050565b61049361060e565b610452610720565b60606004805461033090610b4d565b5f336103be8185856105b1565b6104bf61060e565b6001600160a01b03919091165f908152600860205260409020805460ff1916911515919091179055565b6104f161060e565b6001600160a01b03811661051a57604051631e4fbdf760e01b81525f6004820152602401610434565b61045e816106c7565b610530838383600161075d565b505050565b6001600160a01b038381165f908152600160209081526040808320938616835292905220545f198110156105ab578181101561059d57604051637dc7a0d960e11b81526001600160a01b03841660048201526024810182905260448101839052606401610434565b6105ab84848484035f61075d565b50505050565b6001600160a01b0383166105da57604051634b637e8f60e11b81525f6004820152602401610434565b6001600160a01b0382166106035760405163ec442f0560e01b81525f6004820152602401610434565b61053083838361082f565b6005546001600160a01b036101009091041633146104525760405163118cdaa760e01b8152336004820152602401610434565b610649610955565b6005805460ff191690557f5db9ee0a495bf2e6ff9c91a7834c1ba4fdd244a5e8aa4e537bd38aeae4b073aa335b6040516001600160a01b03909116815260200160405180910390a1565b6001600160a01b0382166106bc57604051634b637e8f60e11b81525f6004820152602401610434565b610487825f8361082f565b600580546001600160a01b03838116610100818102610100600160a81b031985161790945560405193909204169182907f8be0079c531659141344cd1fd0a4f28419497f9722a3daafe3b4186f6b6457e0905f90a35050565b61072861099e565b6005805460ff191660011790557f62e78cea01bee320cd4e420270b5ea74000d11b0c9f74754ebdbfc544b05a2586106763390565b6001600160a01b0384166107865760405163e602df0560e01b81525f6004820152602401610434565b6001600160a01b0383166107af57604051634a1406b160e11b81525f6004820152602401610434565b6001600160a01b038085165f90815260016020908152604080832093871683529290522082905580156105ab57826001600160a01b0316846001600160a01b03167f8c5be1e5ebec7d5bd14f71427d1e84f3dd0314c0f7b2291e5b200ac8c7c3b9258460405161082191815260200190565b60405180910390a350505050565b6001600160a01b038316610859578060025f82825461084e9190610b85565b909155506108c99050565b6001600160a01b0383165f90815260208190526040902054818110156108ab5760405163391434e360e21b81526001600160a01b03851660048201526024810182905260448101839052606401610434565b6001600160a01b0384165f9081526020819052604090209082900390555b6001600160a01b0382166108e557600280548290039055610903565b6001600160a01b0382165f9081526020819052604090208054820190555b816001600160a01b0316836001600160a01b03167fddf252ad1be2c89b69c2b068fc378daa952ba7f163c4a11628f55a4df523b3ef8360405161094891815260200190565b60405180910390a3505050565b60055460ff166104525760405162461bcd60e51b815260206004820152601460248201527314185d5cd8589b194e881b9bdd081c185d5cd95960621b6044820152606401610434565b60055460ff16156104525760405162461bcd60e51b815260206004820152601060248201526f14185d5cd8589b194e881c185d5cd95960821b6044820152606401610434565b5f602080835283518060208501525f5b81811015610a10578581018301518582016040015282016109f4565b505f604082860101526040601f19601f8301168501019250505092915050565b80356001600160a01b0381168114610a46575f80fd5b919050565b5f8060408385031215610a5c575f80fd5b610a6583610a30565b946020939093013593505050565b5f805f60608486031215610a85575f80fd5b610a8e84610a30565b9250610a9c60208501610a30565b9150604084013590509250925092565b5f60208284031215610abc575f80fd5b5035919050565b5f60208284031215610ad3575f80fd5b610adc82610a30565b9392505050565b5f8060408385031215610af4575f80fd5b610afd83610a30565b915060208301358015158114610b11575f80fd5b809150509250929050565b5f8060408385031215610b2d575f80fd5b610b3683610a30565b9150610b4460208401610a30565b90509250929050565b600181811c90821680610b6157607f821691505b602082108103610b7f57634e487b7160e01b5f52602260045260245ffd5b50919050565b808201808211156103c457634e487b7160e01b5f52601160045260245ffdfea2646970667358221220423032c60b73107b17126d8e8a8b530d234b7e9352f9d8fb7a665186e744781664736f6c63430008180033",
					"opcodes": "PUSH1 0x80 PUSH1 0x40 MSTORE PUSH1 0x1E PUSH1 0x6 SSTORE CALLVALUE DUP1 ISZERO PUSH3 0x15 JUMPI PUSH0 DUP1 REVERT JUMPDEST POP PUSH1 0x40 DUP1 MLOAD DUP1 DUP3 ADD DUP3 MSTORE PUSH1 0x7 DUP1 DUP3 MSTORE PUSH7 0x2A27A621A7A4A7 PUSH1 0xC9 SHL PUSH1 0x20 DUP1 DUP5 ADD DUP3 SWAP1 MSTORE DUP5 MLOAD DUP1 DUP7 ADD SWAP1 SWAP6 MSTORE SWAP2 DUP5 MSTORE SWAP1 DUP4 ADD MSTORE CALLER SWAP2 PUSH1 0x3 PUSH3 0x56 DUP4 DUP3 PUSH3 0x347 JUMP JUMPDEST POP PUSH1 0x4 PUSH3 0x65 DUP3 DUP3 PUSH3 0x347 JUMP JUMPDEST POP POP PUSH1 0x5 DUP1 SLOAD PUSH1 0xFF NOT AND SWAP1 SSTORE POP PUSH1 0x1 PUSH1 0x1 PUSH1 0xA0 SHL SUB DUP2 AND PUSH3 0xA1 JUMPI PUSH1 0x40 MLOAD PUSH4 0x1E4FBDF7 PUSH1 0xE0 SHL DUP2 MSTORE PUSH0 PUSH1 0x4 DUP3 ADD MSTORE PUSH1 0x24 ADD JUMPDEST PUSH1 0x40 MLOAD DUP1 SWAP2 SUB SWAP1 REVERT JUMPDEST PUSH3 0xAC DUP2 PUSH3 0xE5 JUMP JUMPDEST POP PUSH3 0xC6 CALLER PUSH13 0xC9F2C9CD04674EDEA40000000 PUSH3 0x13E JUMP JUMPDEST CALLER PUSH0 SWAP1 DUP2 MSTORE PUSH1 0x8 PUSH1 0x20 MSTORE PUSH1 0x40 SWAP1 KECCAK256 DUP1 SLOAD PUSH1 0xFF NOT AND PUSH1 0x1 OR SWAP1 SSTORE PUSH3 0x439 JUMP JUMPDEST PUSH1 0x5 DUP1 SLOAD PUSH1 0x1 PUSH1 0x1 PUSH1 0xA0 SHL SUB DUP4 DUP2 AND PUSH2 0x100 DUP2 DUP2 MUL PUSH2 0x100 PUSH1 0x1 PUSH1 0xA8 SHL SUB NOT DUP6 AND OR SWAP1 SWAP5 SSTORE PUSH1 0x40 MLOAD SWAP4 SWAP1 SWAP3 DIV AND SWAP2 DUP3 SWAP1 PUSH32 0x8BE0079C531659141344CD1FD0A4F28419497F9722A3DAAFE3B4186F6B6457E0 SWAP1 PUSH0 SWAP1 LOG3 POP POP JUMP JUMPDEST PUSH1 0x1 PUSH1 0x1 PUSH1 0xA0 SHL SUB DUP3 AND PUSH3 0x169 JUMPI PUSH1 0x40 MLOAD PUSH4 0xEC442F05 PUSH1 0xE0 SHL DUP2 MSTORE PUSH0 PUSH1 0x4 DUP3 ADD MSTORE PUSH1 0x24 ADD PUSH3 0x98 JUMP JUMPDEST PUSH3 0x176 PUSH0 DUP4 DUP4 PUSH3 0x17A JUMP JUMPDEST POP POP JUMP JUMPDEST PUSH1 0x1 PUSH1 0x1 PUSH1 0xA0 SHL SUB DUP4 AND PUSH3 0x1A8 JUMPI DUP1 PUSH1 0x2 PUSH0 DUP3 DUP3 SLOAD PUSH3 0x19C SWAP2 SWAP1 PUSH3 0x413 JUMP JUMPDEST SWAP1 SWAP2 SSTORE POP PUSH3 0x21A SWAP1 POP JUMP JUMPDEST PUSH1 0x1 PUSH1 0x1 PUSH1 0xA0 SHL SUB DUP4 AND PUSH0 SWAP1 DUP2 MSTORE PUSH1 0x20 DUP2 SWAP1 MSTORE PUSH1 0x40 SWAP1 KECCAK256 SLOAD DUP2 DUP2 LT ISZERO PUSH3 0x1FC JUMPI PUSH1 0x40 MLOAD PUSH4 0x391434E3 PUSH1 0xE2 SHL DUP2 MSTORE PUSH1 0x1 PUSH1 0x1 PUSH1 0xA0 SHL SUB DUP6 AND PUSH1 0x4 DUP3 ADD MSTORE PUSH1 0x24 DUP2 ADD DUP3 SWAP1 MSTORE PUSH1 0x44 DUP2 ADD DUP4 SWAP1 MSTORE PUSH1 0x64 ADD PUSH3 0x98 JUMP JUMPDEST PUSH1 0x1 PUSH1 0x1 PUSH1 0xA0 SHL SUB DUP5 AND PUSH0 SWAP1 DUP2 MSTORE PUSH1 0x20 DUP2 SWAP1 MSTORE PUSH1 0x40 SWAP1 KECCAK256 SWAP1 DUP3 SWAP1 SUB SWAP1 SSTORE JUMPDEST PUSH1 0x1 PUSH1 0x1 PUSH1 0xA0 SHL SUB DUP3 AND PUSH3 0x238 JUMPI PUSH1 0x2 DUP1 SLOAD DUP3 SWAP1 SUB SWAP1 SSTORE PUSH3 0x256 JUMP JUMPDEST PUSH1 0x1 PUSH1 0x1 PUSH1 0xA0 SHL SUB DUP3 AND PUSH0 SWAP1 DUP2 MSTORE PUSH1 0x20 DUP2 SWAP1 MSTORE PUSH1 0x40 SWAP1 KECCAK256 DUP1 SLOAD DUP3 ADD SWAP1 SSTORE JUMPDEST DUP2 PUSH1 0x1 PUSH1 0x1 PUSH1 0xA0 SHL SUB AND DUP4 PUSH1 0x1 PUSH1 0x1 PUSH1 0xA0 SHL SUB AND PUSH32 0xDDF252AD1BE2C89B69C2B068FC378DAA952BA7F163C4A11628F55A4DF523B3EF DUP4 PUSH1 0x40 MLOAD PUSH3 0x29C SWAP2 DUP2 MSTORE PUSH1 0x20 ADD SWAP1 JUMP JUMPDEST PUSH1 0x40 MLOAD DUP1 SWAP2 SUB SWAP1 LOG3 POP POP POP JUMP JUMPDEST PUSH4 0x4E487B71 PUSH1 0xE0 SHL PUSH0 MSTORE PUSH1 0x41 PUSH1 0x4 MSTORE PUSH1 0x24 PUSH0 REVERT JUMPDEST PUSH1 0x1 DUP2 DUP2 SHR SWAP1 DUP3 AND DUP1 PUSH3 0x2D2 JUMPI PUSH1 0x7F DUP3 AND SWAP2 POP JUMPDEST PUSH1 0x20 DUP3 LT DUP2 SUB PUSH3 0x2F1 JUMPI PUSH4 0x4E487B71 PUSH1 0xE0 SHL PUSH0 MSTORE PUSH1 0x22 PUSH1 0x4 MSTORE PUSH1 0x24 PUSH0 REVERT JUMPDEST POP SWAP2 SWAP1 POP JUMP JUMPDEST PUSH1 0x1F DUP3 GT ISZERO PUSH3 0x342 JUMPI DUP1 PUSH0 MSTORE PUSH1 0x20 PUSH0 KECCAK256 PUSH1 0x1F DUP5 ADD PUSH1 0x5 SHR DUP2 ADD PUSH1 0x20 DUP6 LT ISZERO PUSH3 0x31E JUMPI POP DUP1 JUMPDEST PUSH1 0x1F DUP5 ADD PUSH1 0x5 SHR DUP3 ADD SWAP2 POP JUMPDEST DUP2 DUP2 LT ISZERO PUSH3 0x33F JUMPI PUSH0 DUP2 SSTORE PUSH1 0x1 ADD PUSH3 0x32A JUMP JUMPDEST POP POP JUMPDEST POP POP POP JUMP JUMPDEST DUP2 MLOAD PUSH1 0x1 PUSH1 0x1 PUSH1 0x40 SHL SUB DUP2 GT ISZERO PUSH3 0x363 JUMPI PUSH3 0x363 PUSH3 0x2A9 JUMP JUMPDEST PUSH3 0x37B DUP2 PUSH3 0x374 DUP5 SLOAD PUSH3 0x2BD JUMP JUMPDEST DUP5 PUSH3 0x2F7 JUMP JUMPDEST PUSH1 0x20 DUP1 PUSH1 0x1F DUP4 GT PUSH1 0x1 DUP2 EQ PUSH3 0x3B1 JUMPI PUSH0 DUP5 ISZERO PUSH3 0x399 JUMPI POP DUP6 DUP4 ADD MLOAD JUMPDEST PUSH0 NOT PUSH1 0x3 DUP7 SWAP1 SHL SHR NOT AND PUSH1 0x1 DUP6 SWAP1 SHL OR DUP6 SSTORE PUSH3 0x40B JUMP JUMPDEST PUSH0 DUP6 DUP2 MSTORE PUSH1 0x20 DUP2 KECCAK256 PUSH1 0x1F NOT DUP7 AND SWAP2 JUMPDEST DUP3 DUP2 LT ISZERO PUSH3 0x3E1 JUMPI DUP9 DUP7 ADD MLOAD DUP3 SSTORE SWAP5 DUP5 ADD SWAP5 PUSH1 0x1 SWAP1 SWAP2 ADD SWAP1 DUP5 ADD PUSH3 0x3C0 JUMP JUMPDEST POP DUP6 DUP3 LT ISZERO PUSH3 0x3FF JUMPI DUP8 DUP6 ADD MLOAD PUSH0 NOT PUSH1 0x3 DUP9 SWAP1 SHL PUSH1 0xF8 AND SHR NOT AND DUP2 SSTORE JUMPDEST POP POP PUSH1 0x1 DUP5 PUSH1 0x1 SHL ADD DUP6 SSTORE JUMPDEST POP POP POP POP POP POP JUMP JUMPDEST DUP1 DUP3 ADD DUP1 DUP3 GT ISZERO PUSH3 0x433 JUMPI PUSH4 0x4E487B71 PUSH1 0xE0 SHL PUSH0 MSTORE PUSH1 0x11 PUSH1 0x4 MSTORE PUSH1 0x24 PUSH0 REVERT JUMPDEST SWAP3 SWAP2 POP POP JUMP JUMPDEST PUSH2 0xBDA DUP1 PUSH3 0x447 PUSH0 CODECOPY PUSH0 RETURN INVALID PUSH1 0x80 PUSH1 0x40 MSTORE CALLVALUE DUP1 ISZERO PUSH2 0xF JUMPI PUSH0 DUP1 REVERT JUMPDEST POP PUSH1 0x4 CALLDATASIZE LT PUSH2 0x13D JUMPI PUSH0 CALLDATALOAD PUSH1 0xE0 SHR DUP1 PUSH4 0x5D5B29C1 GT PUSH2 0xB4 JUMPI DUP1 PUSH4 0x8DA5CB5B GT PUSH2 0x79 JUMPI DUP1 PUSH4 0x8DA5CB5B EQ PUSH2 0x27F JUMPI DUP1 PUSH4 0x95D89B41 EQ PUSH2 0x2A8 JUMPI DUP1 PUSH4 0xA9059CBB EQ PUSH2 0x2B0 JUMPI DUP1 PUSH4 0xCFC06E0B EQ PUSH2 0x2C3 JUMPI DUP1 PUSH4 0xDD62ED3E EQ PUSH2 0x2D6 JUMPI DUP1 PUSH4 0xF2FDE38B EQ PUSH2 0x30E JUMPI PUSH0 DUP1 REVERT JUMPDEST DUP1 PUSH4 0x5D5B29C1 EQ PUSH2 0x212 JUMPI DUP1 PUSH4 0x70A08231 EQ PUSH2 0x234 JUMPI DUP1 PUSH4 0x715018A6 EQ PUSH2 0x25C JUMPI DUP1 PUSH4 0x79CC6790 EQ PUSH2 0x264 JUMPI DUP1 PUSH4 0x8456CB59 EQ PUSH2 0x277 JUMPI PUSH0 DUP1 REVERT JUMPDEST DUP1 PUSH4 0x313CE567 GT PUSH2 0x105 JUMPI DUP1 PUSH4 0x313CE567 EQ PUSH2 0x1B4 JUMPI DUP1 PUSH4 0x32CB6B0C EQ PUSH2 0x1C3 JUMPI DUP1 PUSH4 0x36E8C9B3 EQ PUSH2 0x1D7 JUMPI DUP1 PUSH4 0x3F4BA83A EQ PUSH2 0x1EC JUMPI DUP1 PUSH4 0x42966C68 EQ PUSH2 0x1F4 JUMPI DUP1 PUSH4 0x5C975ABB EQ PUSH2 0x207 JUMPI PUSH0 DUP1 REVERT JUMPDEST DUP1 PUSH4 0x6FDDE03 EQ PUSH2 0x141 JUMPI DUP1 PUSH4 0x95EA7B3 EQ PUSH2 0x15F JUMPI DUP1 PUSH4 0xA702E8D EQ PUSH2 0x182 JUMPI DUP1 PUSH4 0x18160DDD EQ PUSH2 0x199 JUMPI DUP1 PUSH4 0x23B872DD EQ PUSH2 0x1A1 JUMPI JUMPDEST PUSH0 DUP1 REVERT JUMPDEST PUSH2 0x149 PUSH2 0x321 JUMP JUMPDEST PUSH1 0x40 MLOAD PUSH2 0x156 SWAP2 SWAP1 PUSH2 0x9E4 JUMP JUMPDEST PUSH1 0x40 MLOAD DUP1 SWAP2 SUB SWAP1 RETURN JUMPDEST PUSH2 0x172 PUSH2 0x16D CALLDATASIZE PUSH1 0x4 PUSH2 0xA4B JUMP JUMPDEST PUSH2 0x3B1 JUMP JUMPDEST PUSH1 0x40 MLOAD SWAP1 ISZERO ISZERO DUP2 MSTORE PUSH1 0x20 ADD PUSH2 0x156 JUMP JUMPDEST PUSH2 0x18B PUSH1 0x6 SLOAD DUP2 JUMP JUMPDEST PUSH1 0x40 MLOAD SWAP1 DUP2 MSTORE PUSH1 0x20 ADD PUSH2 0x156 JUMP JUMPDEST PUSH1 0x2 SLOAD PUSH2 0x18B JUMP JUMPDEST PUSH2 0x172 PUSH2 0x1AF CALLDATASIZE PUSH1 0x4 PUSH2 0xA73 JUMP JUMPDEST PUSH2 0x3CA JUMP JUMPDEST PUSH1 0x40 MLOAD PUSH1 0x12 DUP2 MSTORE PUSH1 0x20 ADD PUSH2 0x156 JUMP JUMPDEST PUSH2 0x18B PUSH13 0xC9F2C9CD04674EDEA40000000 DUP2 JUMP JUMPDEST PUSH2 0x1EA PUSH2 0x1E5 CALLDATASIZE PUSH1 0x4 PUSH2 0xAAC JUMP JUMPDEST PUSH2 0x3ED JUMP JUMPDEST STOP JUMPDEST PUSH2 0x1EA PUSH2 0x442 JUMP JUMPDEST PUSH2 0x1EA PUSH2 0x202 CALLDATASIZE PUSH1 0x4 PUSH2 0xAAC JUMP JUMPDEST PUSH2 0x454 JUMP JUMPDEST PUSH1 0x5 SLOAD PUSH1 0xFF AND PUSH2 0x172 JUMP JUMPDEST PUSH2 0x172 PUSH2 0x220 CALLDATASIZE PUSH1 0x4 PUSH2 0xAC3 JUMP JUMPDEST PUSH1 0x8 PUSH1 0x20 MSTORE PUSH0 SWAP1 DUP2 MSTORE PUSH1 0x40 SWAP1 KECCAK256 SLOAD PUSH1 0xFF AND DUP2 JUMP JUMPDEST PUSH2 0x18B PUSH2 0x242 CALLDATASIZE PUSH1 0x4 PUSH2 0xAC3 JUMP JUMPDEST PUSH1 0x1 PUSH1 0x1 PUSH1 0xA0 SHL SUB AND PUSH0 SWAP1 DUP2 MSTORE PUSH1 0x20 DUP2 SWAP1 MSTORE PUSH1 0x40 SWAP1 KECCAK256 SLOAD SWAP1 JUMP JUMPDEST PUSH2 0x1EA PUSH2 0x461 JUMP JUMPDEST PUSH2 0x1EA PUSH2 0x272 CALLDATASIZE PUSH1 0x4 PUSH2 0xA4B JUMP JUMPDEST PUSH2 0x472 JUMP JUMPDEST PUSH2 0x1EA PUSH2 0x48B JUMP JUMPDEST PUSH1 0x5 SLOAD PUSH2 0x100 SWAP1 DIV PUSH1 0x1 PUSH1 0x1 PUSH1 0xA0 SHL SUB AND PUSH1 0x40 MLOAD PUSH1 0x1 PUSH1 0x1 PUSH1 0xA0 SHL SUB SWAP1 SWAP2 AND DUP2 MSTORE PUSH1 0x20 ADD PUSH2 0x156 JUMP JUMPDEST PUSH2 0x149 PUSH2 0x49B JUMP JUMPDEST PUSH2 0x172 PUSH2 0x2BE CALLDATASIZE PUSH1 0x4 PUSH2 0xA4B JUMP JUMPDEST PUSH2 0x4AA JUMP JUMPDEST PUSH2 0x1EA PUSH2 0x2D1 CALLDATASIZE PUSH1 0x4 PUSH2 0xAE3 JUMP JUMPDEST PUSH2 0x4B7 JUMP JUMPDEST PUSH2 0x18B PUSH2 0x2E4 CALLDATASIZE PUSH1 0x4 PUSH2 0xB1C JUMP JUMPDEST PUSH1 0x1 PUSH1 0x1 PUSH1 0xA0 SHL SUB SWAP2 DUP3 AND PUSH0 SWAP1 DUP2 MSTORE PUSH1 0x1 PUSH1 0x20 SWAP1 DUP2 MSTORE PUSH1 0x40 DUP1 DUP4 KECCAK256 SWAP4 SWAP1 SWAP5 AND DUP3 MSTORE SWAP2 SWAP1 SWAP2 MSTORE KECCAK256 SLOAD SWAP1 JUMP JUMPDEST PUSH2 0x1EA PUSH2 0x31C CALLDATASIZE PUSH1 0x4 PUSH2 0xAC3 JUMP JUMPDEST PUSH2 0x4E9 JUMP JUMPDEST PUSH1 0x60 PUSH1 0x3 DUP1 SLOAD PUSH2 0x330 SWAP1 PUSH2 0xB4D JUMP JUMPDEST DUP1 PUSH1 0x1F ADD PUSH1 0x20 DUP1 SWAP2 DIV MUL PUSH1 0x20 ADD PUSH1 0x40 MLOAD SWAP1 DUP2 ADD PUSH1 0x40 MSTORE DUP1 SWAP3 SWAP2 SWAP1 DUP2 DUP2 MSTORE PUSH1 0x20 ADD DUP3 DUP1 SLOAD PUSH2 0x35C SWAP1 PUSH2 0xB4D JUMP JUMPDEST DUP1 ISZERO PUSH2 0x3A7 JUMPI DUP1 PUSH1 0x1F LT PUSH2 0x37E JUMPI PUSH2 0x100 DUP1 DUP4 SLOAD DIV MUL DUP4 MSTORE SWAP2 PUSH1 0x20 ADD SWAP2 PUSH2 0x3A7 JUMP JUMPDEST DUP3 ADD SWAP2 SWAP1 PUSH0 MSTORE PUSH1 0x20 PUSH0 KECCAK256 SWAP1 JUMPDEST DUP2 SLOAD DUP2 MSTORE SWAP1 PUSH1 0x1 ADD SWAP1 PUSH1 0x20 ADD DUP1 DUP4 GT PUSH2 0x38A JUMPI DUP3 SWAP1 SUB PUSH1 0x1F AND DUP3 ADD SWAP2 JUMPDEST POP POP POP POP POP SWAP1 POP SWAP1 JUMP JUMPDEST PUSH0 CALLER PUSH2 0x3BE DUP2 DUP6 DUP6 PUSH2 0x523 JUMP JUMPDEST PUSH1 0x1 SWAP2 POP POP JUMPDEST SWAP3 SWAP2 POP POP JUMP JUMPDEST PUSH0 CALLER PUSH2 0x3D7 DUP6 DUP3 DUP6 PUSH2 0x535 JUMP JUMPDEST PUSH2 0x3E2 DUP6 DUP6 DUP6 PUSH2 0x5B1 JUMP JUMPDEST POP PUSH1 0x1 SWAP5 SWAP4 POP POP POP POP JUMP JUMPDEST PUSH2 0x3F5 PUSH2 0x60E JUMP JUMPDEST PUSH2 0x12C DUP2 GT ISZERO PUSH2 0x43D JUMPI PUSH1 0x40 MLOAD PUSH3 0x461BCD PUSH1 0xE5 SHL DUP2 MSTORE PUSH1 0x20 PUSH1 0x4 DUP3 ADD MSTORE PUSH1 0xE PUSH1 0x24 DUP3 ADD MSTORE PUSH14 0x44656C617920746F6F206C6F6E67 PUSH1 0x90 SHL PUSH1 0x44 DUP3 ADD MSTORE PUSH1 0x64 ADD JUMPDEST PUSH1 0x40 MLOAD DUP1 SWAP2 SUB SWAP1 REVERT JUMPDEST PUSH1 0x6 SSTORE JUMP JUMPDEST PUSH2 0x44A PUSH2 0x60E JUMP JUMPDEST PUSH2 0x452 PUSH2 0x641 JUMP JUMPDEST JUMP JUMPDEST PUSH2 0x45E CALLER DUP3 PUSH2 0x693 JUMP JUMPDEST POP JUMP JUMPDEST PUSH2 0x469 PUSH2 0x60E JUMP JUMPDEST PUSH2 0x452 PUSH0 PUSH2 0x6C7 JUMP JUMPDEST PUSH2 0x47D DUP3 CALLER DUP4 PUSH2 0x535 JUMP JUMPDEST PUSH2 0x487 DUP3 DUP3 PUSH2 0x693 JUMP JUMPDEST POP POP JUMP JUMPDEST PUSH2 0x493 PUSH2 0x60E JUMP JUMPDEST PUSH2 0x452 PUSH2 0x720 JUMP JUMPDEST PUSH1 0x60 PUSH1 0x4 DUP1 SLOAD PUSH2 0x330 SWAP1 PUSH2 0xB4D JUMP JUMPDEST PUSH0 CALLER PUSH2 0x3BE DUP2 DUP6 DUP6 PUSH2 0x5B1 JUMP JUMPDEST PUSH2 0x4BF PUSH2 0x60E JUMP JUMPDEST PUSH1 0x1 PUSH1 0x1 PUSH1 0xA0 SHL SUB SWAP2 SWAP1 SWAP2 AND PUSH0 SWAP1 DUP2 MSTORE PUSH1 0x8 PUSH1 0x20 MSTORE PUSH1 0x40 SWAP1 KECCAK256 DUP1 SLOAD PUSH1 0xFF NOT AND SWAP2 ISZERO ISZERO SWAP2 SWAP1 SWAP2 OR SWAP1 SSTORE JUMP JUMPDEST PUSH2 0x4F1 PUSH2 0x60E JUMP JUMPDEST PUSH1 0x1 PUSH1 0x1 PUSH1 0xA0 SHL SUB DUP2 AND PUSH2 0x51A JUMPI PUSH1 0x40 MLOAD PUSH4 0x1E4FBDF7 PUSH1 0xE0 SHL DUP2 MSTORE PUSH0 PUSH1 0x4 DUP3 ADD MSTORE PUSH1 0x24 ADD PUSH2 0x434 JUMP JUMPDEST PUSH2 0x45E DUP2 PUSH2 0x6C7 JUMP JUMPDEST PUSH2 0x530 DUP4 DUP4 DUP4 PUSH1 0x1 PUSH2 0x75D JUMP JUMPDEST POP POP POP JUMP JUMPDEST PUSH1 0x1 PUSH1 0x1 PUSH1 0xA0 SHL SUB DUP4 DUP2 AND PUSH0 SWAP1 DUP2 MSTORE PUSH1 0x1 PUSH1 0x20 SWAP1 DUP2 MSTORE PUSH1 0x40 DUP1 DUP4 KECCAK256 SWAP4 DUP7 AND DUP4 MSTORE SWAP3 SWAP1 MSTORE KECCAK256 SLOAD PUSH0 NOT DUP2 LT ISZERO PUSH2 0x5AB JUMPI DUP2 DUP2 LT ISZERO PUSH2 0x59D JUMPI PUSH1 0x40 MLOAD PUSH4 0x7DC7A0D9 PUSH1 0xE1 SHL DUP2 MSTORE PUSH1 0x1 PUSH1 0x1 PUSH1 0xA0 SHL SUB DUP5 AND PUSH1 0x4 DUP3 ADD MSTORE PUSH1 0x24 DUP2 ADD DUP3 SWAP1 MSTORE PUSH1 0x44 DUP2 ADD DUP4 SWAP1 MSTORE PUSH1 0x64 ADD PUSH2 0x434 JUMP JUMPDEST PUSH2 0x5AB DUP5 DUP5 DUP5 DUP5 SUB PUSH0 PUSH2 0x75D JUMP JUMPDEST POP POP POP POP JUMP JUMPDEST PUSH1 0x1 PUSH1 0x1 PUSH1 0xA0 SHL SUB DUP4 AND PUSH2 0x5DA JUMPI PUSH1 0x40 MLOAD PUSH4 0x4B637E8F PUSH1 0xE1 SHL DUP2 MSTORE PUSH0 PUSH1 0x4 DUP3 ADD MSTORE PUSH1 0x24 ADD PUSH2 0x434 JUMP JUMPDEST PUSH1 0x1 PUSH1 0x1 PUSH1 0xA0 SHL SUB DUP3 AND PUSH2 0x603 JUMPI PUSH1 0x40 MLOAD PUSH4 0xEC442F05 PUSH1 0xE0 SHL DUP2 MSTORE PUSH0 PUSH1 0x4 DUP3 ADD MSTORE PUSH1 0x24 ADD PUSH2 0x434 JUMP JUMPDEST PUSH2 0x530 DUP4 DUP4 DUP4 PUSH2 0x82F JUMP JUMPDEST PUSH1 0x5 SLOAD PUSH1 0x1 PUSH1 0x1 PUSH1 0xA0 SHL SUB PUSH2 0x100 SWAP1 SWAP2 DIV AND CALLER EQ PUSH2 0x452 JUMPI PUSH1 0x40 MLOAD PUSH4 0x118CDAA7 PUSH1 0xE0 SHL DUP2 MSTORE CALLER PUSH1 0x4 DUP3 ADD MSTORE PUSH1 0x24 ADD PUSH2 0x434 JUMP JUMPDEST PUSH2 0x649 PUSH2 0x955 JUMP JUMPDEST PUSH1 0x5 DUP1 SLOAD PUSH1 0xFF NOT AND SWAP1 SSTORE PUSH32 0x5DB9EE0A495BF2E6FF9C91A7834C1BA4FDD244A5E8AA4E537BD38AEAE4B073AA CALLER JUMPDEST PUSH1 0x40 MLOAD PUSH1 0x1 PUSH1 0x1 PUSH1 0xA0 SHL SUB SWAP1 SWAP2 AND DUP2 MSTORE PUSH1 0x20 ADD PUSH1 0x40 MLOAD DUP1 SWAP2 SUB SWAP1 LOG1 JUMP JUMPDEST PUSH1 0x1 PUSH1 0x1 PUSH1 0xA0 SHL SUB DUP3 AND PUSH2 0x6BC JUMPI PUSH1 0x40 MLOAD PUSH4 0x4B637E8F PUSH1 0xE1 SHL DUP2 MSTORE PUSH0 PUSH1 0x4 DUP3 ADD MSTORE PUSH1 0x24 ADD PUSH2 0x434 JUMP JUMPDEST PUSH2 0x487 DUP3 PUSH0 DUP4 PUSH2 0x82F JUMP JUMPDEST PUSH1 0x5 DUP1 SLOAD PUSH1 0x1 PUSH1 0x1 PUSH1 0xA0 SHL SUB DUP4 DUP2 AND PUSH2 0x100 DUP2 DUP2 MUL PUSH2 0x100 PUSH1 0x1 PUSH1 0xA8 SHL SUB NOT DUP6 AND OR SWAP1 SWAP5 SSTORE PUSH1 0x40 MLOAD SWAP4 SWAP1 SWAP3 DIV AND SWAP2 DUP3 SWAP1 PUSH32 0x8BE0079C531659141344CD1FD0A4F28419497F9722A3DAAFE3B4186F6B6457E0 SWAP1 PUSH0 SWAP1 LOG3 POP POP JUMP JUMPDEST PUSH2 0x728 PUSH2 0x99E JUMP JUMPDEST PUSH1 0x5 DUP1 SLOAD PUSH1 0xFF NOT AND PUSH1 0x1 OR SWAP1 SSTORE PUSH32 0x62E78CEA01BEE320CD4E420270B5EA74000D11B0C9F74754EBDBFC544B05A258 PUSH2 0x676 CALLER SWAP1 JUMP JUMPDEST PUSH1 0x1 PUSH1 0x1 PUSH1 0xA0 SHL SUB DUP5 AND PUSH2 0x786 JUMPI PUSH1 0x40 MLOAD PUSH4 0xE602DF05 PUSH1 0xE0 SHL DUP2 MSTORE PUSH0 PUSH1 0x4 DUP3 ADD MSTORE PUSH1 0x24 ADD PUSH2 0x434 JUMP JUMPDEST PUSH1 0x1 PUSH1 0x1 PUSH1 0xA0 SHL SUB DUP4 AND PUSH2 0x7AF JUMPI PUSH1 0x40 MLOAD PUSH4 0x4A1406B1 PUSH1 0xE1 SHL DUP2 MSTORE PUSH0 PUSH1 0x4 DUP3 ADD MSTORE PUSH1 0x24 ADD PUSH2 0x434 JUMP JUMPDEST PUSH1 0x1 PUSH1 0x1 PUSH1 0xA0 SHL SUB DUP1 DUP6 AND PUSH0 SWAP1 DUP2 MSTORE PUSH1 0x1 PUSH1 0x20 SWAP1 DUP2 MSTORE PUSH1 0x40 DUP1 DUP4 KECCAK256 SWAP4 DUP8 AND DUP4 MSTORE SWAP3 SWAP1 MSTORE KECCAK256 DUP3 SWAP1 SSTORE DUP1 ISZERO PUSH2 0x5AB JUMPI DUP3 PUSH1 0x1 PUSH1 0x1 PUSH1 0xA0 SHL SUB AND DUP5 PUSH1 0x1 PUSH1 0x1 PUSH1 0xA0 SHL SUB AND PUSH32 0x8C5BE1E5EBEC7D5BD14F71427D1E84F3DD0314C0F7B2291E5B200AC8C7C3B925 DUP5 PUSH1 0x40 MLOAD PUSH2 0x821 SWAP2 DUP2 MSTORE PUSH1 0x20 ADD SWAP1 JUMP JUMPDEST PUSH1 0x40 MLOAD DUP1 SWAP2 SUB SWAP1 LOG3 POP POP POP POP JUMP JUMPDEST PUSH1 0x1 PUSH1 0x1 PUSH1 0xA0 SHL SUB DUP4 AND PUSH2 0x859 JUMPI DUP1 PUSH1 0x2 PUSH0 DUP3 DUP3 SLOAD PUSH2 0x84E SWAP2 SWAP1 PUSH2 0xB85 JUMP JUMPDEST SWAP1 SWAP2 SSTORE POP PUSH2 0x8C9 SWAP1 POP JUMP JUMPDEST PUSH1 0x1 PUSH1 0x1 PUSH1 0xA0 SHL SUB DUP4 AND PUSH0 SWAP1 DUP2 MSTORE PUSH1 0x20 DUP2 SWAP1 MSTORE PUSH1 0x40 SWAP1 KECCAK256 SLOAD DUP2 DUP2 LT ISZERO PUSH2 0x8AB JUMPI PUSH1 0x40 MLOAD PUSH4 0x391434E3 PUSH1 0xE2 SHL DUP2 MSTORE PUSH1 0x1 PUSH1 0x1 PUSH1 0xA0 SHL SUB DUP6 AND PUSH1 0x4 DUP3 ADD MSTORE PUSH1 0x24 DUP2 ADD DUP3 SWAP1 MSTORE PUSH1 0x44 DUP2 ADD DUP4 SWAP1 MSTORE PUSH1 0x64 ADD PUSH2 0x434 JUMP JUMPDEST PUSH1 0x1 PUSH1 0x1 PUSH1 0xA0 SHL SUB DUP5 AND PUSH0 SWAP1 DUP2 MSTORE PUSH1 0x20 DUP2 SWAP1 MSTORE PUSH1 0x40 SWAP1 KECCAK256 SWAP1 DUP3 SWAP1 SUB SWAP1 SSTORE JUMPDEST PUSH1 0x1 PUSH1 0x1 PUSH1 0xA0 SHL SUB DUP3 AND PUSH2 0x8E5 JUMPI PUSH1 0x2 DUP1 SLOAD DUP3 SWAP1 SUB SWAP1 SSTORE PUSH2 0x903 JUMP JUMPDEST PUSH1 0x1 PUSH1 0x1 PUSH1 0xA0 SHL SUB DUP3 AND PUSH0 SWAP1 DUP2 MSTORE PUSH1 0x20 DUP2 SWAP1 MSTORE PUSH1 0x40 SWAP1 KECCAK256 DUP1 SLOAD DUP3 ADD SWAP1 SSTORE JUMPDEST DUP2 PUSH1 0x1 PUSH1 0x1 PUSH1 0xA0 SHL SUB AND DUP4 PUSH1 0x1 PUSH1 0x1 PUSH1 0xA0 SHL SUB AND PUSH32 0xDDF252AD1BE2C89B69C2B068FC378DAA952BA7F163C4A11628F55A4DF523B3EF DUP4 PUSH1 0x40 MLOAD PUSH2 0x948 SWAP2 DUP2 MSTORE PUSH1 0x20 ADD SWAP1 JUMP JUMPDEST PUSH1 0x40 MLOAD DUP1 SWAP2 SUB SWAP1 LOG3 POP POP POP JUMP JUMPDEST PUSH1 0x5 SLOAD PUSH1 0xFF AND PUSH2 0x452 JUMPI PUSH1 0x40 MLOAD PUSH3 0x461BCD PUSH1 0xE5 SHL DUP2 MSTORE PUSH1 0x20 PUSH1 0x4 DUP3 ADD MSTORE PUSH1 0x14 PUSH1 0x24 DUP3 ADD MSTORE PUSH20 0x14185D5CD8589B194E881B9BDD081C185D5CD959 PUSH1 0x62 SHL PUSH1 0x44 DUP3 ADD MSTORE PUSH1 0x64 ADD PUSH2 0x434 JUMP JUMPDEST PUSH1 0x5 SLOAD PUSH1 0xFF AND ISZERO PUSH2 0x452 JUMPI PUSH1 0x40 MLOAD PUSH3 0x461BCD PUSH1 0xE5 SHL DUP2 MSTORE PUSH1 0x20 PUSH1 0x4 DUP3 ADD MSTORE PUSH1 0x10 PUSH1 0x24 DUP3 ADD MSTORE PUSH16 0x14185D5CD8589B194E881C185D5CD959 PUSH1 0x82 SHL PUSH1 0x44 DUP3 ADD MSTORE PUSH1 0x64 ADD PUSH2 0x434 JUMP JUMPDEST PUSH0 PUSH1 0x20 DUP1 DUP4 MSTORE DUP4 MLOAD DUP1 PUSH1 0x20 DUP6 ADD MSTORE PUSH0 JUMPDEST DUP2 DUP2 LT ISZERO PUSH2 0xA10 JUMPI DUP6 DUP2 ADD DUP4 ADD MLOAD DUP6 DUP3 ADD PUSH1 0x40 ADD MSTORE DUP3 ADD PUSH2 0x9F4 JUMP JUMPDEST POP PUSH0 PUSH1 0x40 DUP3 DUP7 ADD ADD MSTORE PUSH1 0x40 PUSH1 0x1F NOT PUSH1 0x1F DUP4 ADD AND DUP6 ADD ADD SWAP3 POP POP POP SWAP3 SWAP2 POP POP JUMP JUMPDEST DUP1 CALLDATALOAD PUSH1 0x1 PUSH1 0x1 PUSH1 0xA0 SHL SUB DUP2 AND DUP2 EQ PUSH2 0xA46 JUMPI PUSH0 DUP1 REVERT JUMPDEST SWAP2 SWAP1 POP JUMP JUMPDEST PUSH0 DUP1 PUSH1 0x40 DUP4 DUP6 SUB SLT ISZERO PUSH2 0xA5C JUMPI PUSH0 DUP1 REVERT JUMPDEST PUSH2 0xA65 DUP4 PUSH2 0xA30 JUMP JUMPDEST SWAP5 PUSH1 0x20 SWAP4 SWAP1 SWAP4 ADD CALLDATALOAD SWAP4 POP POP POP JUMP JUMPDEST PUSH0 DUP1 PUSH0 PUSH1 0x60 DUP5 DUP7 SUB SLT ISZERO PUSH2 0xA85 JUMPI PUSH0 DUP1 REVERT JUMPDEST PUSH2 0xA8E DUP5 PUSH2 0xA30 JUMP JUMPDEST SWAP3 POP PUSH2 0xA9C PUSH1 0x20 DUP6 ADD PUSH2 0xA30 JUMP JUMPDEST SWAP2 POP PUSH1 0x40 DUP5 ADD CALLDATALOAD SWAP1 POP SWAP3 POP SWAP3 POP SWAP3 JUMP JUMPDEST PUSH0 PUSH1 0x20 DUP3 DUP5 SUB SLT ISZERO PUSH2 0xABC JUMPI PUSH0 DUP1 REVERT JUMPDEST POP CALLDATALOAD SWAP2 SWAP1 POP JUMP JUMPDEST PUSH0 PUSH1 0x20 DUP3 DUP5 SUB SLT ISZERO PUSH2 0xAD3 JUMPI PUSH0 DUP1 REVERT JUMPDEST PUSH2 0xADC DUP3 PUSH2 0xA30 JUMP JUMPDEST SWAP4 SWAP3 POP POP POP JUMP JUMPDEST PUSH0 DUP1 PUSH1 0x40 DUP4 DUP6 SUB SLT ISZERO PUSH2 0xAF4 JUMPI PUSH0 DUP1 REVERT JUMPDEST PUSH2 0xAFD DUP4 PUSH2 0xA30 JUMP JUMPDEST SWAP2 POP PUSH1 0x20 DUP4 ADD CALLDATALOAD DUP1 ISZERO ISZERO DUP2 EQ PUSH2 0xB11 JUMPI PUSH0 DUP1 REVERT JUMPDEST DUP1 SWAP2 POP POP SWAP3 POP SWAP3 SWAP1 POP JUMP JUMPDEST PUSH0 DUP1 PUSH1 0x40 DUP4 DUP6 SUB SLT ISZERO PUSH2 0xB2D JUMPI PUSH0 DUP1 REVERT JUMPDEST PUSH2 0xB36 DUP4 PUSH2 0xA30 JUMP JUMPDEST SWAP2 POP PUSH2 0xB44 PUSH1 0x20 DUP5 ADD PUSH2 0xA30 JUMP JUMPDEST SWAP1 POP SWAP3 POP SWAP3 SWAP1 POP JUMP JUMPDEST PUSH1 0x1 DUP2 DUP2 SHR SWAP1 DUP3 AND DUP1 PUSH2 0xB61 JUMPI PUSH1 0x7F DUP3 AND SWAP2 POP JUMPDEST PUSH1 0x20 DUP3 LT DUP2 SUB PUSH2 0xB7F JUMPI PUSH4 0x4E487B71 PUSH1 0xE0 SHL PUSH0 MSTORE PUSH1 0x22 PUSH1 0x4 MSTORE PUSH1 0x24 PUSH0 REVERT JUMPDEST POP SWAP2 SWAP1 POP JUMP JUMPDEST DUP1 DUP3 ADD DUP1 DUP3 GT ISZERO PUSH2 0x3C4 JUMPI PUSH4 0x4E487B71 PUSH1 0xE0 SHL PUSH0 MSTORE PUSH1 0x11 PUSH1 0x4 MSTORE PUSH1 0x24 PUSH0 REVERT INVALID LOG2 PUSH5 0x6970667358 0x22 SLT KECCAK256 TIMESTAMP ADDRESS ORIGIN 0xC6 SIGNEXTEND PUSH20 0x107B17126D8E8A8B530D234B7E9352F9D8FB7A66 MLOAD DUP7 0xE7 PREVRANDAO PUSH25 0x1664736F6C6343000818003300000000000000000000000000 "
				},
				"gasEstimates": {
					"creation": {
						"codeDepositCost": "606800",
						"executionCost": "infinite",
						"totalCost": "infinite"
					},
					"external": {
						"MAX_SUPPLY()": "239",
						"allowance(address,address)": "infinite",
						"approve(address,uint256)": "24758",
						"balanceOf(address)": "2582",
						"burn(uint256)": "51027",
						"burnFrom(address,uint256)": "infinite",
						"decimals()": "199",
						"excludeFromAntiBot(address,bool)": "26957",
						"isExcludedFromAntiBot(address)": "2551",
						"name()": "infinite",
						"owner()": "2351",
						"pause()": "infinite",
						"paused()": "2436",
						"renounceOwnership()": "infinite",
						"setTransferDelay(uint256)": "24593",
						"symbol()": "infinite",
						"totalSupply()": "2381",
						"transfer(address,uint256)": "51282",
						"transferDelay()": "2362",
						"transferFrom(address,address,uint256)": "infinite",
						"transferOwnership(address)": "28498",
						"unpause()": "infinite"
					},
					"internal": {
						"_beforeTokenTransfer(address,address,uint256)": "infinite"
					}
				},
				"methodIdentifiers": {
					"MAX_SUPPLY()": "32cb6b0c",
					"allowance(address,address)": "dd62ed3e",
					"approve(address,uint256)": "095ea7b3",
					"balanceOf(address)": "70a08231",
					"burn(uint256)": "42966c68",
					"burnFrom(address,uint256)": "79cc6790",
					"decimals()": "313ce567",
					"excludeFromAntiBot(address,bool)": "cfc06e0b",
					"isExcludedFromAntiBot(address)": "5d5b29c1",
					"name()": "06fdde03",
					"owner()": "8da5cb5b",
					"pause()": "8456cb59",
					"paused()": "5c975abb",
					"renounceOwnership()": "715018a6",
					"setTransferDelay(uint256)": "36e8c9b3",
					"symbol()": "95d89b41",
					"totalSupply()": "18160ddd",
					"transfer(address,uint256)": "a9059cbb",
					"transferDelay()": "0a702e8d",
					"transferFrom(address,address,uint256)": "23b872dd",
					"transferOwnership(address)": "f2fde38b",
					"unpause()": "3f4ba83a"
				}
			},
			"storageLayout": {
				"storage": [
					{
						"astId": 279,
						"contract": "TOLCOIN_flattened.sol:TOLCOIN",
						"label": "_balances",
						"offset": 0,
						"slot": "0",
						"type": "t_mapping(t_address,t_uint256)"
					},
					{
						"astId": 285,
						"contract": "TOLCOIN_flattened.sol:TOLCOIN",
						"label": "_allowances",
						"offset": 0,
						"slot": "1",
						"type": "t_mapping(t_address,t_mapping(t_address,t_uint256))"
					},
					{
						"astId": 287,
						"contract": "TOLCOIN_flattened.sol:TOLCOIN",
						"label": "_totalSupply",
						"offset": 0,
						"slot": "2",
						"type": "t_uint256"
					},
					{
						"astId": 289,
						"contract": "TOLCOIN_flattened.sol:TOLCOIN",
						"label": "_name",
						"offset": 0,
						"slot": "3",
						"type": "t_string_storage"
					},
					{
						"astId": 291,
						"contract": "TOLCOIN_flattened.sol:TOLCOIN",
						"label": "_symbol",
						"offset": 0,
						"slot": "4",
						"type": "t_string_storage"
					},
					{
						"astId": 973,
						"contract": "TOLCOIN_flattened.sol:TOLCOIN",
						"label": "_paused",
						"offset": 0,
						"slot": "5",
						"type": "t_bool"
					},
					{
						"astId": 818,
						"contract": "TOLCOIN_flattened.sol:TOLCOIN",
						"label": "_owner",
						"offset": 1,
						"slot": "5",
						"type": "t_address"
					},
					{
						"astId": 1363,
						"contract": "TOLCOIN_flattened.sol:TOLCOIN",
						"label": "transferDelay",
						"offset": 0,
						"slot": "6",
						"type": "t_uint256"
					},
					{
						"astId": 1367,
						"contract": "TOLCOIN_flattened.sol:TOLCOIN",
						"label": "_lastTransferTimestamp",
						"offset": 0,
						"slot": "7",
						"type": "t_mapping(t_address,t_uint256)"
					},
					{
						"astId": 1371,
						"contract": "TOLCOIN_flattened.sol:TOLCOIN",
						"label": "isExcludedFromAntiBot",
						"offset": 0,
						"slot": "8",
						"type": "t_mapping(t_address,t_bool)"
					}
				],
				"types": {
					"t_address": {
						"encoding": "inplace",
						"label": "address",
						"numberOfBytes": "20"
					},
					"t_bool": {
						"encoding": "inplace",
						"label": "bool",
						"numberOfBytes": "1"
					},
					"t_mapping(t_address,t_bool)": {
						"encoding": "mapping",
						"key": "t_address",
						"label": "mapping(address => bool)",
						"numberOfBytes": "32",
						"value": "t_bool"
					},
					"t_mapping(t_address,t_mapping(t_address,t_uint256))": {
						"encoding": "mapping",
						"key": "t_address",
						"label": "mapping(address => mapping(address => uint256))",
						"numberOfBytes": "32",
						"value": "t_mapping(t_address,t_uint256)"
					},
					"t_mapping(t_address,t_uint256)": {
						"encoding": "mapping",
						"key": "t_address",
						"label": "mapping(address => uint256)",
						"numberOfBytes": "32",
						"value": "t_uint256"
					},
					"t_string_storage": {
						"encoding": "bytes",
						"label": "string",
						"numberOfBytes": "32"
					},
					"t_uint256": {
						"encoding": "inplace",
						"label": "uint256",
						"numberOfBytes": "32"
					}
				}
			},
			"userdoc": {
				"kind": "user",
				"methods": {},
				"version": 1
			}
		}
	}
}