{
	"TolcoinStakingContract.sol": {
		"TolcoinStaking": {
			"abi": [
				{
					"inputs": [],
					"stateMutability": "nonpayable",
					"type": "constructor"
				},
				{
					"inputs": [
						{
							"internalType": "address",
							"name": "owner",
							"type": "address"
						}
					],
					"name": "OwnableInvalidOwner",
					"type": "error"
				},
				{
					"inputs": [
						{
							"internalType": "address",
							"name": "account",
							"type": "address"
						}
					],
					"name": "OwnableUnauthorizedAccount",
					"type": "error"
				},
				{
					"anonymous": false,
					"inputs": [
						{
							"indexed": true,
							"internalType": "address",
							"name": "previousOwner",
							"type": "address"
						},
						{
							"indexed": true,
							"internalType": "address",
							"name": "newOwner",
							"type": "address"
						}
					],
					"name": "OwnershipTransferred",
					"type": "event"
				},
				{
					"anonymous": false,
					"inputs": [
						{
							"indexed": true,
							"internalType": "address",
							"name": "user",
							"type": "address"
						},
						{
							"indexed": false,
							"internalType": "uint256",
							"name": "reward",
							"type": "uint256"
						}
					],
					"name": "RewardClaimed",
					"type": "event"
				},
				{
					"anonymous": false,
					"inputs": [
						{
							"indexed": true,
							"internalType": "address",
							"name": "user",
							"type": "address"
						},
						{
							"indexed": false,
							"internalType": "uint256",
							"name": "amount",
							"type": "uint256"
						}
					],
					"name": "Staked",
					"type": "event"
				},
				{
					"anonymous": false,
					"inputs": [
						{
							"indexed": true,
							"internalType": "address",
							"name": "user",
							"type": "address"
						},
						{
							"indexed": false,
							"internalType": "uint256",
							"name": "amount",
							"type": "uint256"
						}
					],
					"name": "Withdrawn",
					"type": "event"
				},
				{
					"inputs": [],
					"name": "claimReward",
					"outputs": [],
					"stateMutability": "nonpayable",
					"type": "function"
				},
				{
					"inputs": [],
					"name": "emergencyWithdraw",
					"outputs": [],
					"stateMutability": "nonpayable",
					"type": "function"
				},
				{
					"inputs": [],
					"name": "owner",
					"outputs": [
						{
							"internalType": "address",
							"name": "",
							"type": "address"
						}
					],
					"stateMutability": "view",
					"type": "function"
				},
				{
					"inputs": [],
					"name": "renounceOwnership",
					"outputs": [],
					"stateMutability": "nonpayable",
					"type": "function"
				},
				{
					"inputs": [],
					"name": "rewardRatePerSecond",
					"outputs": [
						{
							"internalType": "uint256",
							"name": "",
							"type": "uint256"
						}
					],
					"stateMutability": "view",
					"type": "function"
				},
				{
					"inputs": [
						{
							"internalType": "uint256",
							"name": "newRate",
							"type": "uint256"
						}
					],
					"name": "setRewardRate",
					"outputs": [],
					"stateMutability": "nonpayable",
					"type": "function"
				},
				{
					"inputs": [
						{
							"internalType": "uint256",
							"name": "amount",
							"type": "uint256"
						}
					],
					"name": "stake",
					"outputs": [],
					"stateMutability": "nonpayable",
					"type": "function"
				},
				{
					"inputs": [
						{
							"internalType": "address",
							"name": "",
							"type": "address"
						}
					],
					"name": "stakes",
					"outputs": [
						{
							"internalType": "uint256",
							"name": "amount",
							"type": "uint256"
						},
						{
							"internalType": "uint256",
							"name": "timestamp",
							"type": "uint256"
						},
						{
							"internalType": "uint256",
							"name": "rewardDebt",
							"type": "uint256"
						}
					],
					"stateMutability": "view",
					"type": "function"
				},
				{
					"inputs": [],
					"name": "tolcoin",
					"outputs": [
						{
							"internalType": "contract IERC20",
							"name": "",
							"type": "address"
						}
					],
					"stateMutability": "view",
					"type": "function"
				},
				{
					"inputs": [
						{
							"internalType": "address",
							"name": "newOwner",
							"type": "address"
						}
					],
					"name": "transferOwnership",
					"outputs": [],
					"stateMutability": "nonpayable",
					"type": "function"
				},
				{
					"inputs": [
						{
							"internalType": "uint256",
							"name": "amount",
							"type": "uint256"
						}
					],
					"name": "withdraw",
					"outputs": [],
					"stateMutability": "nonpayable",
					"type": "function"
				}
			],
			"devdoc": {
				"errors": {
					"OwnableInvalidOwner(address)": [
						{
							"details": "The owner is not a valid owner account. (eg. `address(0)`)"
						}
					],
					"OwnableUnauthorizedAccount(address)": [
						{
							"details": "The caller account is not authorized to perform an operation."
						}
					]
				},
				"kind": "dev",
				"methods": {
					"owner()": {
						"details": "Returns the address of the current owner."
					},
					"renounceOwnership()": {
						"details": "Leaves the contract without owner. It will not be possible to call `onlyOwner` functions. Can only be called by the current owner. NOTE: Renouncing ownership will leave the contract without an owner, thereby disabling any functionality that is only available to the owner."
					},
					"transferOwnership(address)": {
						"details": "Transfers ownership of the contract to a new account (`newOwner`). Can only be called by the current owner."
					}
				},
				"version": 1
			},
			"evm": {
				"assembly": "    /* \"TolcoinStakingContract.sol\":175:2601  contract TolcoinStaking is Ownable {... */\n  mstore(0x40, 0xa0)\n    /* \"TolcoinStakingContract.sol\":459:471  115740740740 */\n  0x1af2af8c84\n    /* \"TolcoinStakingContract.sol\":422:471  uint256 public rewardRatePerSecond = 115740740740 */\n  0x02\n  sstore\n    /* \"TolcoinStakingContract.sol\":695:840  constructor() Ownable(0xcD1710e8A72c95BDd127CC71e1227D8C98e05Aec) {... */\n  callvalue\n  dup1\n  iszero\n  tag_1\n  jumpi\n  0x00\n  dup1\n  revert\ntag_1:\n  pop\n    /* \"TolcoinStakingContract.sol\":717:759  0xcD1710e8A72c95BDd127CC71e1227D8C98e05Aec */\n  0xcd1710e8a72c95bdd127cc71e1227d8c98e05aec\n    /* \"@openzeppelin/contracts/access/Ownable.sol\":1373:1405  _transferOwnership(initialOwner) */\n  tag_8\n    /* \"@openzeppelin/contracts/access/Ownable.sol\":1392:1404  initialOwner */\n  dup2\n    /* \"@openzeppelin/contracts/access/Ownable.sol\":1373:1391  _transferOwnership */\n  tag_9\n    /* \"@openzeppelin/contracts/access/Ownable.sol\":1373:1405  _transferOwnership(initialOwner) */\n  jump\t// in\ntag_8:\n  pop\n    /* \"TolcoinStakingContract.sol\":789:831  0xEBd92716d4aAc1ABe6A73a42B5A83a42C145447d */\n  0xebd92716d4aac1abe6a73a42b5a83a42c145447d\n    /* \"TolcoinStakingContract.sol\":772:832  tolcoin = IERC20(0xEBd92716d4aAc1ABe6A73a42B5A83a42C145447d) */\n  0x80\n  mstore\n    /* \"TolcoinStakingContract.sol\":175:2601  contract TolcoinStaking is Ownable {... */\n  jump(tag_13)\n    /* \"@openzeppelin/contracts/access/Ownable.sol\":2912:3099  function _transferOwnership(address newOwner) internal virtual {... */\ntag_9:\n    /* \"@openzeppelin/contracts/access/Ownable.sol\":2985:3001  address oldOwner */\n  0x00\n    /* \"@openzeppelin/contracts/access/Ownable.sol\":3004:3010  _owner */\n  dup1\n  sload\n  sub(shl(0xa0, 0x01), 0x01)\n    /* \"@openzeppelin/contracts/access/Ownable.sol\":3020:3037  _owner = newOwner */\n  dup4\n  dup2\n  and\n  not(sub(shl(0xa0, 0x01), 0x01))\n  dup4\n  and\n  dup2\n  or\n  dup5\n  sstore\n    /* \"@openzeppelin/contracts/access/Ownable.sol\":3052:3092  OwnershipTransferred(oldOwner, newOwner) */\n  mload(0x40)\n    /* \"@openzeppelin/contracts/access/Ownable.sol\":3004:3010  _owner */\n  swap2\n  swap1\n  swap3\n  and\n  swap3\n  dup4\n  swap2\n    /* \"@openzeppelin/contracts/access/Ownable.sol\":3052:3092  OwnershipTransferred(oldOwner, newOwner) */\n  0x8be0079c531659141344cd1fd0a4f28419497f9722a3daafe3b4186f6b6457e0\n  swap2\n    /* \"@openzeppelin/contracts/access/Ownable.sol\":2985:3001  address oldOwner */\n  swap1\n    /* \"@openzeppelin/contracts/access/Ownable.sol\":3052:3092  OwnershipTransferred(oldOwner, newOwner) */\n  log3\n    /* \"@openzeppelin/contracts/access/Ownable.sol\":2975:3099  {... */\n  pop\n    /* \"@openzeppelin/contracts/access/Ownable.sol\":2912:3099  function _transferOwnership(address newOwner) internal virtual {... */\n  pop\n  jump\t// out\n    /* \"#utility.yul\":14:217   */\ntag_13:\n    /* \"TolcoinStakingContract.sol\":175:2601  contract TolcoinStaking is Ownable {... */\n  mload(0x80)\n  codecopy(0x00, dataOffset(sub_0), dataSize(sub_0))\n  0x00\n  assignImmutable(\"0xb7020dd003fcd4d96af1507ff4dc7e2c1158f23ad0bacfdf3455869cf9fb4898\")\n  return(0x00, dataSize(sub_0))\nstop\n\nsub_0: assembly {\n        /* \"TolcoinStakingContract.sol\":175:2601  contract TolcoinStaking is Ownable {... */\n      mstore(0x40, 0x80)\n      callvalue\n      dup1\n      iszero\n      tag_1\n      jumpi\n      0x00\n      dup1\n      revert\n    tag_1:\n      pop\n      jumpi(tag_2, lt(calldatasize, 0x04))\n      shr(0xe0, calldataload(0x00))\n      dup1\n      0x8da5cb5b\n      gt\n      tag_14\n      jumpi\n      dup1\n      0x8da5cb5b\n      eq\n      tag_8\n      jumpi\n      dup1\n      0x9e447fc6\n      eq\n      tag_9\n      jumpi\n      dup1\n      0xa694fc3a\n      eq\n      tag_10\n      jumpi\n      dup1\n      0xb88a802f\n      eq\n      tag_11\n      jumpi\n      dup1\n      0xdb2e21bc\n      eq\n      tag_12\n      jumpi\n      dup1\n      0xf2fde38b\n      eq\n      tag_13\n      jumpi\n      0x00\n      dup1\n      revert\n    tag_14:\n      dup1\n      0x16934fc4\n      eq\n      tag_3\n      jumpi\n      dup1\n      0x1859ea47\n      eq\n      tag_4\n      jumpi\n      dup1\n      0x2e1a7d4d\n      eq\n      tag_5\n      jumpi\n      dup1\n      0x5d773b2c\n      eq\n      tag_6\n      jumpi\n      dup1\n      0x715018a6\n      eq\n      tag_7\n      jumpi\n    tag_2:\n      0x00\n      dup1\n      revert\n        /* \"TolcoinStakingContract.sol\":372:415  mapping(address => StakeInfo) public stakes */\n    tag_3:\n      tag_15\n      tag_16\n      calldatasize\n      0x04\n      tag_17\n      jump\t// in\n    tag_16:\n      0x01\n      0x20\n      dup2\n      swap1\n      mstore\n      0x00\n      swap2\n      dup3\n      mstore\n      0x40\n      swap1\n      swap2\n      keccak256\n      dup1\n      sload\n      swap2\n      dup2\n      add\n      sload\n      0x02\n      swap1\n      swap2\n      add\n      sload\n      dup4\n      jump\n    tag_15:\n      0x40\n      dup1\n      mload\n        /* \"#utility.yul\":507:532   */\n      swap4\n      dup5\n      mstore\n        /* \"#utility.yul\":563:565   */\n      0x20\n        /* \"#utility.yul\":548:566   */\n      dup5\n      add\n        /* \"#utility.yul\":541:575   */\n      swap3\n      swap1\n      swap3\n      mstore\n        /* \"#utility.yul\":591:609   */\n      swap1\n      dup3\n      add\n        /* \"#utility.yul\":584:618   */\n      mstore\n        /* \"#utility.yul\":495:497   */\n      0x60\n        /* \"#utility.yul\":480:498   */\n      add\n        /* \"TolcoinStakingContract.sol\":372:415  mapping(address => StakeInfo) public stakes */\n    tag_19:\n      mload(0x40)\n      dup1\n      swap2\n      sub\n      swap1\n      return\n        /* \"TolcoinStakingContract.sol\":217:248  IERC20 public immutable tolcoin */\n    tag_4:\n      tag_21\n      immutable(\"0xb7020dd003fcd4d96af1507ff4dc7e2c1158f23ad0bacfdf3455869cf9fb4898\")\n      dup2\n      jump\n    tag_21:\n      mload(0x40)\n      sub(shl(0xa0, 0x01), 0x01)\n        /* \"#utility.yul\":807:839   */\n      swap1\n      swap2\n      and\n        /* \"#utility.yul\":789:840   */\n      dup2\n      mstore\n        /* \"#utility.yul\":777:779   */\n      0x20\n        /* \"#utility.yul\":762:780   */\n      add\n        /* \"TolcoinStakingContract.sol\":217:248  IERC20 public immutable tolcoin */\n      tag_19\n        /* \"#utility.yul\":629:846   */\n      jump\n        /* \"TolcoinStakingContract.sol\":1203:1560  function withdraw(uint256 amount) external {... */\n    tag_5:\n      tag_25\n      tag_26\n      calldatasize\n      0x04\n      tag_27\n      jump\t// in\n    tag_26:\n      tag_28\n      jump\t// in\n    tag_25:\n      stop\n        /* \"TolcoinStakingContract.sol\":422:471  uint256 public rewardRatePerSecond = 115740740740 */\n    tag_6:\n      tag_29\n      sload(0x02)\n      dup2\n      jump\n    tag_29:\n      mload(0x40)\n        /* \"#utility.yul\":1182:1207   */\n      swap1\n      dup2\n      mstore\n        /* \"#utility.yul\":1170:1172   */\n      0x20\n        /* \"#utility.yul\":1155:1173   */\n      add\n        /* \"TolcoinStakingContract.sol\":422:471  uint256 public rewardRatePerSecond = 115740740740 */\n      tag_19\n        /* \"#utility.yul\":1036:1213   */\n      jump\n        /* \"@openzeppelin/contracts/access/Ownable.sol\":2293:2394  function renounceOwnership() public virtual onlyOwner {... */\n    tag_7:\n      tag_25\n      tag_34\n      jump\t// in\n        /* \"@openzeppelin/contracts/access/Ownable.sol\":1638:1723  function owner() public view virtual returns (address) {... */\n    tag_8:\n        /* \"@openzeppelin/contracts/access/Ownable.sol\":1684:1691  address */\n      0x00\n        /* \"@openzeppelin/contracts/access/Ownable.sol\":1710:1716  _owner */\n      sload\n      sub(shl(0xa0, 0x01), 0x01)\n      and\n        /* \"@openzeppelin/contracts/access/Ownable.sol\":1638:1723  function owner() public view virtual returns (address) {... */\n      jump(tag_21)\n        /* \"TolcoinStakingContract.sol\":2321:2428  function setRewardRate(uint256 newRate) external onlyOwner {... */\n    tag_9:\n      tag_25\n      tag_40\n      calldatasize\n      0x04\n      tag_27\n      jump\t// in\n    tag_40:\n      tag_41\n      jump\t// in\n        /* \"TolcoinStakingContract.sol\":848:1195  function stake(uint256 amount) external {... */\n    tag_10:\n      tag_25\n      tag_43\n      calldatasize\n      0x04\n      tag_27\n      jump\t// in\n    tag_43:\n      tag_44\n      jump\t// in\n        /* \"TolcoinStakingContract.sol\":1568:1890  function claimReward() external {... */\n    tag_11:\n      tag_25\n      tag_46\n      jump\t// in\n        /* \"TolcoinStakingContract.sol\":2436:2598  function emergencyWithdraw() external onlyOwner {... */\n    tag_12:\n      tag_25\n      tag_48\n      jump\t// in\n        /* \"@openzeppelin/contracts/access/Ownable.sol\":2543:2758  function transferOwnership(address newOwner) public virtual onlyOwner {... */\n    tag_13:\n      tag_25\n      tag_50\n      calldatasize\n      0x04\n      tag_17\n      jump\t// in\n    tag_50:\n      tag_51\n      jump\t// in\n        /* \"TolcoinStakingContract.sol\":1203:1560  function withdraw(uint256 amount) external {... */\n    tag_28:\n        /* \"TolcoinStakingContract.sol\":1274:1275  0 */\n      0x00\n        /* \"TolcoinStakingContract.sol\":1265:1271  amount */\n      dup2\n        /* \"TolcoinStakingContract.sol\":1265:1275  amount > 0 */\n      gt\n        /* \"TolcoinStakingContract.sol\":1257:1297  require(amount > 0, \"Cannot withdraw 0\") */\n      tag_53\n      jumpi\n      mload(0x40)\n      shl(0xe5, 0x461bcd)\n      dup2\n      mstore\n        /* \"#utility.yul\":1628:1630   */\n      0x20\n        /* \"TolcoinStakingContract.sol\":1257:1297  require(amount > 0, \"Cannot withdraw 0\") */\n      0x04\n      dup3\n      add\n        /* \"#utility.yul\":1610:1631   */\n      mstore\n        /* \"#utility.yul\":1667:1669   */\n      0x11\n        /* \"#utility.yul\":1647:1665   */\n      0x24\n      dup3\n      add\n        /* \"#utility.yul\":1640:1670   */\n      mstore\n      shl(0x7c, 0x043616e6e6f74207769746864726177203)\n        /* \"#utility.yul\":1686:1704   */\n      0x44\n      dup3\n      add\n        /* \"#utility.yul\":1679:1726   */\n      mstore\n        /* \"#utility.yul\":1743:1761   */\n      0x64\n      add\n        /* \"TolcoinStakingContract.sol\":1257:1297  require(amount > 0, \"Cannot withdraw 0\") */\n    tag_54:\n      mload(0x40)\n      dup1\n      swap2\n      sub\n      swap1\n      revert\n    tag_53:\n        /* \"TolcoinStakingContract.sol\":1323:1333  msg.sender */\n      caller\n        /* \"TolcoinStakingContract.sol\":1316:1334  stakes[msg.sender] */\n      0x00\n      swap1\n      dup2\n      mstore\n        /* \"TolcoinStakingContract.sol\":1316:1322  stakes */\n      0x01\n        /* \"TolcoinStakingContract.sol\":1316:1334  stakes[msg.sender] */\n      0x20\n      mstore\n      0x40\n      swap1\n      keccak256\n        /* \"TolcoinStakingContract.sol\":1316:1341  stakes[msg.sender].amount */\n      sload\n        /* \"TolcoinStakingContract.sol\":1316:1351  stakes[msg.sender].amount >= amount */\n      dup2\n      gt\n      iszero\n        /* \"TolcoinStakingContract.sol\":1308:1374  require(stakes[msg.sender].amount >= amount, \"Insufficient stake\") */\n      tag_56\n      jumpi\n      mload(0x40)\n      shl(0xe5, 0x461bcd)\n      dup2\n      mstore\n        /* \"#utility.yul\":1974:1976   */\n      0x20\n        /* \"TolcoinStakingContract.sol\":1308:1374  require(stakes[msg.sender].amount >= amount, \"Insufficient stake\") */\n      0x04\n      dup3\n      add\n        /* \"#utility.yul\":1956:1977   */\n      mstore\n        /* \"#utility.yul\":2013:2015   */\n      0x12\n        /* \"#utility.yul\":1993:2011   */\n      0x24\n      dup3\n      add\n        /* \"#utility.yul\":1986:2016   */\n      mstore\n      shl(0x70, 0x496e73756666696369656e74207374616b65)\n        /* \"#utility.yul\":2032:2050   */\n      0x44\n      dup3\n      add\n        /* \"#utility.yul\":2025:2073   */\n      mstore\n        /* \"#utility.yul\":2090:2108   */\n      0x64\n      add\n        /* \"TolcoinStakingContract.sol\":1308:1374  require(stakes[msg.sender].amount >= amount, \"Insufficient stake\") */\n      tag_54\n        /* \"#utility.yul\":1772:2114   */\n      jump\n        /* \"TolcoinStakingContract.sol\":1308:1374  require(stakes[msg.sender].amount >= amount, \"Insufficient stake\") */\n    tag_56:\n        /* \"TolcoinStakingContract.sol\":1387:1412  _updateReward(msg.sender) */\n      tag_59\n        /* \"TolcoinStakingContract.sol\":1401:1411  msg.sender */\n      caller\n        /* \"TolcoinStakingContract.sol\":1387:1400  _updateReward */\n      tag_60\n        /* \"TolcoinStakingContract.sol\":1387:1412  _updateReward(msg.sender) */\n      jump\t// in\n    tag_59:\n        /* \"TolcoinStakingContract.sol\":1430:1440  msg.sender */\n      caller\n        /* \"TolcoinStakingContract.sol\":1423:1441  stakes[msg.sender] */\n      0x00\n      swap1\n      dup2\n      mstore\n        /* \"TolcoinStakingContract.sol\":1423:1429  stakes */\n      0x01\n        /* \"TolcoinStakingContract.sol\":1423:1441  stakes[msg.sender] */\n      0x20\n      mstore\n      0x40\n      dup2\n      keccak256\n        /* \"TolcoinStakingContract.sol\":1423:1458  stakes[msg.sender].amount -= amount */\n      dup1\n      sload\n        /* \"TolcoinStakingContract.sol\":1452:1458  amount */\n      dup4\n      swap3\n        /* \"TolcoinStakingContract.sol\":1423:1441  stakes[msg.sender] */\n      swap1\n        /* \"TolcoinStakingContract.sol\":1423:1458  stakes[msg.sender].amount -= amount */\n      tag_61\n      swap1\n        /* \"TolcoinStakingContract.sol\":1452:1458  amount */\n      dup5\n      swap1\n        /* \"TolcoinStakingContract.sol\":1423:1458  stakes[msg.sender].amount -= amount */\n      tag_62\n      jump\t// in\n    tag_61:\n      swap1\n      swap2\n      sstore\n      pop\n      pop\n        /* \"TolcoinStakingContract.sol\":1469:1505  tolcoin.transfer(msg.sender, amount) */\n      mload(0x40)\n      shl(0xe0, 0xa9059cbb)\n      dup2\n      mstore\n        /* \"TolcoinStakingContract.sol\":1486:1496  msg.sender */\n      caller\n        /* \"TolcoinStakingContract.sol\":1469:1505  tolcoin.transfer(msg.sender, amount) */\n      0x04\n      dup3\n      add\n        /* \"#utility.yul\":2558:2609   */\n      mstore\n        /* \"#utility.yul\":2625:2643   */\n      0x24\n      dup2\n      add\n        /* \"#utility.yul\":2618:2652   */\n      dup3\n      swap1\n      mstore\n        /* \"TolcoinStakingContract.sol\":1469:1476  tolcoin */\n      immutable(\"0xb7020dd003fcd4d96af1507ff4dc7e2c1158f23ad0bacfdf3455869cf9fb4898\")\n      sub(shl(0xa0, 0x01), 0x01)\n        /* \"TolcoinStakingContract.sol\":1469:1485  tolcoin.transfer */\n      and\n      swap1\n      0xa9059cbb\n      swap1\n        /* \"#utility.yul\":2531:2549   */\n      0x44\n      add\n        /* \"TolcoinStakingContract.sol\":1469:1505  tolcoin.transfer(msg.sender, amount) */\n      0x20\n      mload(0x40)\n      dup1\n      dup4\n      sub\n      dup2\n      0x00\n      dup8\n      gas\n      call\n      iszero\n      dup1\n      iszero\n      tag_66\n      jumpi\n      returndatasize\n      0x00\n      dup1\n      returndatacopy\n      revert(0x00, returndatasize)\n    tag_66:\n      pop\n      pop\n      pop\n      pop\n      mload(0x40)\n      returndatasize\n      not(0x1f)\n      0x1f\n      dup3\n      add\n      and\n      dup3\n      add\n      dup1\n      0x40\n      mstore\n      pop\n      dup2\n      add\n      swap1\n      tag_67\n      swap2\n      swap1\n      tag_68\n      jump\t// in\n    tag_67:\n      pop\n        /* \"TolcoinStakingContract.sol\":1523:1552  Withdrawn(msg.sender, amount) */\n      mload(0x40)\n        /* \"#utility.yul\":1182:1207   */\n      dup2\n      dup2\n      mstore\n        /* \"TolcoinStakingContract.sol\":1533:1543  msg.sender */\n      caller\n      swap1\n        /* \"TolcoinStakingContract.sol\":1523:1552  Withdrawn(msg.sender, amount) */\n      0x7084f5476618d8e60b11ef0d7d3f06914655adb8793e28ff7f018d4c76d505d5\n      swap1\n        /* \"#utility.yul\":1170:1172   */\n      0x20\n        /* \"#utility.yul\":1155:1173   */\n      add\n        /* \"TolcoinStakingContract.sol\":1523:1552  Withdrawn(msg.sender, amount) */\n    tag_69:\n      mload(0x40)\n      dup1\n      swap2\n      sub\n      swap1\n      log2\n        /* \"TolcoinStakingContract.sol\":1203:1560  function withdraw(uint256 amount) external {... */\n      pop\n      jump\t// out\n        /* \"@openzeppelin/contracts/access/Ownable.sol\":2293:2394  function renounceOwnership() public virtual onlyOwner {... */\n    tag_34:\n        /* \"@openzeppelin/contracts/access/Ownable.sol\":1531:1544  _checkOwner() */\n      tag_71\n        /* \"@openzeppelin/contracts/access/Ownable.sol\":1531:1542  _checkOwner */\n      tag_72\n        /* \"@openzeppelin/contracts/access/Ownable.sol\":1531:1544  _checkOwner() */\n      jump\t// in\n    tag_71:\n        /* \"@openzeppelin/contracts/access/Ownable.sol\":2357:2387  _transferOwnership(address(0)) */\n      tag_74\n        /* \"@openzeppelin/contracts/access/Ownable.sol\":2384:2385  0 */\n      0x00\n        /* \"@openzeppelin/contracts/access/Ownable.sol\":2357:2375  _transferOwnership */\n      tag_75\n        /* \"@openzeppelin/contracts/access/Ownable.sol\":2357:2387  _transferOwnership(address(0)) */\n      jump\t// in\n    tag_74:\n        /* \"@openzeppelin/contracts/access/Ownable.sol\":2293:2394  function renounceOwnership() public virtual onlyOwner {... */\n      jump\t// out\n        /* \"TolcoinStakingContract.sol\":2321:2428  function setRewardRate(uint256 newRate) external onlyOwner {... */\n    tag_41:\n        /* \"@openzeppelin/contracts/access/Ownable.sol\":1531:1544  _checkOwner() */\n      tag_78\n        /* \"@openzeppelin/contracts/access/Ownable.sol\":1531:1542  _checkOwner */\n      tag_72\n        /* \"@openzeppelin/contracts/access/Ownable.sol\":1531:1544  _checkOwner() */\n      jump\t// in\n    tag_78:\n        /* \"TolcoinStakingContract.sol\":2391:2410  rewardRatePerSecond */\n      0x02\n        /* \"TolcoinStakingContract.sol\":2391:2420  rewardRatePerSecond = newRate */\n      sstore\n        /* \"TolcoinStakingContract.sol\":2321:2428  function setRewardRate(uint256 newRate) external onlyOwner {... */\n      jump\t// out\n        /* \"TolcoinStakingContract.sol\":848:1195  function stake(uint256 amount) external {... */\n    tag_44:\n        /* \"TolcoinStakingContract.sol\":916:917  0 */\n      0x00\n        /* \"TolcoinStakingContract.sol\":907:913  amount */\n      dup2\n        /* \"TolcoinStakingContract.sol\":907:917  amount > 0 */\n      gt\n        /* \"TolcoinStakingContract.sol\":899:936  require(amount > 0, \"Cannot stake 0\") */\n      tag_81\n      jumpi\n      mload(0x40)\n      shl(0xe5, 0x461bcd)\n      dup2\n      mstore\n        /* \"#utility.yul\":3147:3149   */\n      0x20\n        /* \"TolcoinStakingContract.sol\":899:936  require(amount > 0, \"Cannot stake 0\") */\n      0x04\n      dup3\n      add\n        /* \"#utility.yul\":3129:3150   */\n      mstore\n        /* \"#utility.yul\":3186:3188   */\n      0x0e\n        /* \"#utility.yul\":3166:3184   */\n      0x24\n      dup3\n      add\n        /* \"#utility.yul\":3159:3189   */\n      mstore\n      shl(0x94, 0x043616e6e6f74207374616b65203)\n        /* \"#utility.yul\":3205:3223   */\n      0x44\n      dup3\n      add\n        /* \"#utility.yul\":3198:3242   */\n      mstore\n        /* \"#utility.yul\":3259:3277   */\n      0x64\n      add\n        /* \"TolcoinStakingContract.sol\":899:936  require(amount > 0, \"Cannot stake 0\") */\n      tag_54\n        /* \"#utility.yul\":2945:3283   */\n      jump\n        /* \"TolcoinStakingContract.sol\":899:936  require(amount > 0, \"Cannot stake 0\") */\n    tag_81:\n        /* \"TolcoinStakingContract.sol\":947:972  _updateReward(msg.sender) */\n      tag_84\n        /* \"TolcoinStakingContract.sol\":961:971  msg.sender */\n      caller\n        /* \"TolcoinStakingContract.sol\":947:960  _updateReward */\n      tag_60\n        /* \"TolcoinStakingContract.sol\":947:972  _updateReward(msg.sender) */\n      jump\t// in\n    tag_84:\n        /* \"TolcoinStakingContract.sol\":985:1040  tolcoin.transferFrom(msg.sender, address(this), amount) */\n      mload(0x40)\n      shl(0xe0, 0x23b872dd)\n      dup2\n      mstore\n        /* \"TolcoinStakingContract.sol\":1006:1016  msg.sender */\n      caller\n        /* \"TolcoinStakingContract.sol\":985:1040  tolcoin.transferFrom(msg.sender, address(this), amount) */\n      0x04\n      dup3\n      add\n        /* \"#utility.yul\":3528:3562   */\n      mstore\n        /* \"TolcoinStakingContract.sol\":1026:1030  this */\n      address\n        /* \"#utility.yul\":3578:3596   */\n      0x24\n      dup3\n      add\n        /* \"#utility.yul\":3571:3614   */\n      mstore\n        /* \"#utility.yul\":3630:3648   */\n      0x44\n      dup2\n      add\n        /* \"#utility.yul\":3623:3657   */\n      dup3\n      swap1\n      mstore\n        /* \"TolcoinStakingContract.sol\":985:992  tolcoin */\n      immutable(\"0xb7020dd003fcd4d96af1507ff4dc7e2c1158f23ad0bacfdf3455869cf9fb4898\")\n      sub(shl(0xa0, 0x01), 0x01)\n        /* \"TolcoinStakingContract.sol\":985:1005  tolcoin.transferFrom */\n      and\n      swap1\n      0x23b872dd\n      swap1\n        /* \"#utility.yul\":3463:3481   */\n      0x64\n      add\n        /* \"TolcoinStakingContract.sol\":985:1040  tolcoin.transferFrom(msg.sender, address(this), amount) */\n      0x20\n      mload(0x40)\n      dup1\n      dup4\n      sub\n      dup2\n      0x00\n      dup8\n      gas\n      call\n      iszero\n      dup1\n      iszero\n      tag_88\n      jumpi\n      returndatasize\n      0x00\n      dup1\n      returndatacopy\n      revert(0x00, returndatasize)\n    tag_88:\n      pop\n      pop\n      pop\n      pop\n      mload(0x40)\n      returndatasize\n      not(0x1f)\n      0x1f\n      dup3\n      add\n      and\n      dup3\n      add\n      dup1\n      0x40\n      mstore\n      pop\n      dup2\n      add\n      swap1\n      tag_89\n      swap2\n      swap1\n      tag_68\n      jump\t// in\n    tag_89:\n      pop\n        /* \"TolcoinStakingContract.sol\":1058:1068  msg.sender */\n      caller\n        /* \"TolcoinStakingContract.sol\":1051:1069  stakes[msg.sender] */\n      0x00\n      swap1\n      dup2\n      mstore\n        /* \"TolcoinStakingContract.sol\":1051:1057  stakes */\n      0x01\n        /* \"TolcoinStakingContract.sol\":1051:1069  stakes[msg.sender] */\n      0x20\n      mstore\n      0x40\n      dup2\n      keccak256\n        /* \"TolcoinStakingContract.sol\":1051:1086  stakes[msg.sender].amount += amount */\n      dup1\n      sload\n        /* \"TolcoinStakingContract.sol\":1080:1086  amount */\n      dup4\n      swap3\n        /* \"TolcoinStakingContract.sol\":1051:1069  stakes[msg.sender] */\n      swap1\n        /* \"TolcoinStakingContract.sol\":1051:1086  stakes[msg.sender].amount += amount */\n      tag_90\n      swap1\n        /* \"TolcoinStakingContract.sol\":1080:1086  amount */\n      dup5\n      swap1\n        /* \"TolcoinStakingContract.sol\":1051:1086  stakes[msg.sender].amount += amount */\n      tag_91\n      jump\t// in\n    tag_90:\n      swap1\n      swap2\n      sstore\n      pop\n      pop\n        /* \"TolcoinStakingContract.sol\":1104:1114  msg.sender */\n      caller\n        /* \"TolcoinStakingContract.sol\":1097:1115  stakes[msg.sender] */\n      0x00\n      dup2\n      dup2\n      mstore\n        /* \"TolcoinStakingContract.sol\":1097:1103  stakes */\n      0x01\n        /* \"TolcoinStakingContract.sol\":1097:1115  stakes[msg.sender] */\n      0x20\n      dup2\n      swap1\n      mstore\n      0x40\n      swap2\n      dup3\n      swap1\n      keccak256\n        /* \"TolcoinStakingContract.sol\":1128:1143  block.timestamp */\n      timestamp\n        /* \"TolcoinStakingContract.sol\":1097:1125  stakes[msg.sender].timestamp */\n      swap2\n      add\n        /* \"TolcoinStakingContract.sol\":1097:1143  stakes[msg.sender].timestamp = block.timestamp */\n      sstore\n        /* \"TolcoinStakingContract.sol\":1161:1187  Staked(msg.sender, amount) */\n      mload\n      0x9e71bc8eea02a63969f509818f2dafb9254532904319f9dbda79b67bd34a5f3d\n      swap1\n      tag_69\n      swap1\n        /* \"TolcoinStakingContract.sol\":1180:1186  amount */\n      dup5\n        /* \"#utility.yul\":1182:1207   */\n      dup2\n      mstore\n        /* \"#utility.yul\":1170:1172   */\n      0x20\n        /* \"#utility.yul\":1155:1173   */\n      add\n      swap1\n        /* \"#utility.yul\":1036:1213   */\n      jump\n        /* \"TolcoinStakingContract.sol\":1568:1890  function claimReward() external {... */\n    tag_46:\n        /* \"TolcoinStakingContract.sol\":1611:1636  _updateReward(msg.sender) */\n      tag_94\n        /* \"TolcoinStakingContract.sol\":1625:1635  msg.sender */\n      caller\n        /* \"TolcoinStakingContract.sol\":1611:1624  _updateReward */\n      tag_60\n        /* \"TolcoinStakingContract.sol\":1611:1636  _updateReward(msg.sender) */\n      jump\t// in\n    tag_94:\n        /* \"TolcoinStakingContract.sol\":1673:1683  msg.sender */\n      caller\n        /* \"TolcoinStakingContract.sol\":1649:1663  uint256 reward */\n      0x00\n        /* \"TolcoinStakingContract.sol\":1666:1684  stakes[msg.sender] */\n      swap1\n      dup2\n      mstore\n        /* \"TolcoinStakingContract.sol\":1666:1672  stakes */\n      0x01\n        /* \"TolcoinStakingContract.sol\":1666:1684  stakes[msg.sender] */\n      0x20\n      mstore\n      0x40\n      swap1\n      keccak256\n        /* \"TolcoinStakingContract.sol\":1666:1695  stakes[msg.sender].rewardDebt */\n      0x02\n      add\n      sload\n        /* \"TolcoinStakingContract.sol\":1714:1724  reward > 0 */\n      dup1\n        /* \"TolcoinStakingContract.sol\":1706:1738  require(reward > 0, \"No reward\") */\n      tag_95\n      jumpi\n      mload(0x40)\n      shl(0xe5, 0x461bcd)\n      dup2\n      mstore\n        /* \"#utility.yul\":4000:4002   */\n      0x20\n        /* \"TolcoinStakingContract.sol\":1706:1738  require(reward > 0, \"No reward\") */\n      0x04\n      dup3\n      add\n        /* \"#utility.yul\":3982:4003   */\n      mstore\n        /* \"#utility.yul\":4039:4040   */\n      0x09\n        /* \"#utility.yul\":4019:4037   */\n      0x24\n      dup3\n      add\n        /* \"#utility.yul\":4012:4041   */\n      mstore\n      shl(0xba, 0x139bc81c995dd85c99)\n        /* \"#utility.yul\":4057:4075   */\n      0x44\n      dup3\n      add\n        /* \"#utility.yul\":4050:4089   */\n      mstore\n        /* \"#utility.yul\":4106:4124   */\n      0x64\n      add\n        /* \"TolcoinStakingContract.sol\":1706:1738  require(reward > 0, \"No reward\") */\n      tag_54\n        /* \"#utility.yul\":3798:4130   */\n      jump\n        /* \"TolcoinStakingContract.sol\":1706:1738  require(reward > 0, \"No reward\") */\n    tag_95:\n        /* \"TolcoinStakingContract.sol\":1758:1768  msg.sender */\n      caller\n        /* \"TolcoinStakingContract.sol\":1783:1784  0 */\n      0x00\n        /* \"TolcoinStakingContract.sol\":1751:1769  stakes[msg.sender] */\n      dup2\n      dup2\n      mstore\n        /* \"TolcoinStakingContract.sol\":1751:1757  stakes */\n      0x01\n        /* \"TolcoinStakingContract.sol\":1751:1769  stakes[msg.sender] */\n      0x20\n      mstore\n      0x40\n      dup1\n      dup3\n      keccak256\n        /* \"TolcoinStakingContract.sol\":1751:1780  stakes[msg.sender].rewardDebt */\n      0x02\n      add\n        /* \"TolcoinStakingContract.sol\":1751:1784  stakes[msg.sender].rewardDebt = 0 */\n      swap2\n      swap1\n      swap2\n      sstore\n        /* \"TolcoinStakingContract.sol\":1795:1831  tolcoin.transfer(msg.sender, reward) */\n      mload\n      shl(0xe0, 0xa9059cbb)\n      dup2\n      mstore\n      0x04\n      dup2\n      add\n        /* \"#utility.yul\":2558:2609   */\n      swap2\n      swap1\n      swap2\n      mstore\n        /* \"#utility.yul\":2625:2643   */\n      0x24\n      dup2\n      add\n        /* \"#utility.yul\":2618:2652   */\n      dup3\n      swap1\n      mstore\n      sub(shl(0xa0, 0x01), 0x01)\n        /* \"TolcoinStakingContract.sol\":1795:1802  tolcoin */\n      immutable(\"0xb7020dd003fcd4d96af1507ff4dc7e2c1158f23ad0bacfdf3455869cf9fb4898\")\n        /* \"TolcoinStakingContract.sol\":1795:1811  tolcoin.transfer */\n      and\n      swap1\n      0xa9059cbb\n      swap1\n        /* \"#utility.yul\":2531:2549   */\n      0x44\n      add\n        /* \"TolcoinStakingContract.sol\":1795:1831  tolcoin.transfer(msg.sender, reward) */\n      0x20\n      mload(0x40)\n      dup1\n      dup4\n      sub\n      dup2\n      0x00\n      dup8\n      gas\n      call\n      iszero\n      dup1\n      iszero\n      tag_100\n      jumpi\n      returndatasize\n      0x00\n      dup1\n      returndatacopy\n      revert(0x00, returndatasize)\n    tag_100:\n      pop\n      pop\n      pop\n      pop\n      mload(0x40)\n      returndatasize\n      not(0x1f)\n      0x1f\n      dup3\n      add\n      and\n      dup3\n      add\n      dup1\n      0x40\n      mstore\n      pop\n      dup2\n      add\n      swap1\n      tag_101\n      swap2\n      swap1\n      tag_68\n      jump\t// in\n    tag_101:\n      pop\n        /* \"TolcoinStakingContract.sol\":1849:1882  RewardClaimed(msg.sender, reward) */\n      mload(0x40)\n        /* \"#utility.yul\":1182:1207   */\n      dup2\n      dup2\n      mstore\n        /* \"TolcoinStakingContract.sol\":1863:1873  msg.sender */\n      caller\n      swap1\n        /* \"TolcoinStakingContract.sol\":1849:1882  RewardClaimed(msg.sender, reward) */\n      0x106f923f993c2149d49b4255ff723acafa1f2d94393f561d3eda32ae348f7241\n      swap1\n        /* \"#utility.yul\":1170:1172   */\n      0x20\n        /* \"#utility.yul\":1155:1173   */\n      add\n        /* \"TolcoinStakingContract.sol\":1849:1882  RewardClaimed(msg.sender, reward) */\n      tag_69\n        /* \"#utility.yul\":1036:1213   */\n      jump\n        /* \"TolcoinStakingContract.sol\":2436:2598  function emergencyWithdraw() external onlyOwner {... */\n    tag_48:\n        /* \"@openzeppelin/contracts/access/Ownable.sol\":1531:1544  _checkOwner() */\n      tag_104\n        /* \"@openzeppelin/contracts/access/Ownable.sol\":1531:1542  _checkOwner */\n      tag_72\n        /* \"@openzeppelin/contracts/access/Ownable.sol\":1531:1544  _checkOwner() */\n      jump\t// in\n    tag_104:\n        /* \"TolcoinStakingContract.sol\":2513:2545  tolcoin.balanceOf(address(this)) */\n      mload(0x40)\n      shl(0xe0, 0x70a08231)\n      dup2\n      mstore\n        /* \"TolcoinStakingContract.sol\":2539:2543  this */\n      address\n        /* \"TolcoinStakingContract.sol\":2513:2545  tolcoin.balanceOf(address(this)) */\n      0x04\n      dup3\n      add\n        /* \"#utility.yul\":789:840   */\n      mstore\n        /* \"TolcoinStakingContract.sol\":2495:2510  uint256 balance */\n      0x00\n      swap1\n        /* \"TolcoinStakingContract.sol\":2513:2520  tolcoin */\n      immutable(\"0xb7020dd003fcd4d96af1507ff4dc7e2c1158f23ad0bacfdf3455869cf9fb4898\")\n      sub(shl(0xa0, 0x01), 0x01)\n        /* \"TolcoinStakingContract.sol\":2513:2530  tolcoin.balanceOf */\n      and\n      swap1\n      0x70a08231\n      swap1\n        /* \"#utility.yul\":762:780   */\n      0x24\n      add\n        /* \"TolcoinStakingContract.sol\":2513:2545  tolcoin.balanceOf(address(this)) */\n      0x20\n      mload(0x40)\n      dup1\n      dup4\n      sub\n      dup2\n      dup7\n      gas\n      staticcall\n      iszero\n      dup1\n      iszero\n      tag_108\n      jumpi\n      returndatasize\n      0x00\n      dup1\n      returndatacopy\n      revert(0x00, returndatasize)\n    tag_108:\n      pop\n      pop\n      pop\n      pop\n      mload(0x40)\n      returndatasize\n      not(0x1f)\n      0x1f\n      dup3\n      add\n      and\n      dup3\n      add\n      dup1\n      0x40\n      mstore\n      pop\n      dup2\n      add\n      swap1\n      tag_109\n      swap2\n      swap1\n      tag_110\n      jump\t// in\n    tag_109:\n        /* \"TolcoinStakingContract.sol\":2495:2545  uint256 balance = tolcoin.balanceOf(address(this)) */\n      swap1\n      pop\n        /* \"TolcoinStakingContract.sol\":2556:2563  tolcoin */\n      immutable(\"0xb7020dd003fcd4d96af1507ff4dc7e2c1158f23ad0bacfdf3455869cf9fb4898\")\n      sub(shl(0xa0, 0x01), 0x01)\n        /* \"TolcoinStakingContract.sol\":2556:2572  tolcoin.transfer */\n      and\n      0xa9059cbb\n        /* \"TolcoinStakingContract.sol\":2573:2580  owner() */\n      tag_111\n        /* \"@openzeppelin/contracts/access/Ownable.sol\":1684:1691  address */\n      0x00\n        /* \"@openzeppelin/contracts/access/Ownable.sol\":1710:1716  _owner */\n      sload\n      sub(shl(0xa0, 0x01), 0x01)\n      and\n      swap1\n        /* \"@openzeppelin/contracts/access/Ownable.sol\":1638:1723  function owner() public view virtual returns (address) {... */\n      jump\n        /* \"TolcoinStakingContract.sol\":2573:2580  owner() */\n    tag_111:\n        /* \"TolcoinStakingContract.sol\":2556:2590  tolcoin.transfer(owner(), balance) */\n      mload(0x40)\n      not(sub(shl(0xe0, 0x01), 0x01))\n      0xe0\n      dup5\n      swap1\n      shl\n      and\n      dup2\n      mstore\n      sub(shl(0xa0, 0x01), 0x01)\n        /* \"#utility.yul\":2576:2608   */\n      swap1\n      swap2\n      and\n        /* \"TolcoinStakingContract.sol\":2556:2590  tolcoin.transfer(owner(), balance) */\n      0x04\n      dup3\n      add\n        /* \"#utility.yul\":2558:2609   */\n      mstore\n        /* \"#utility.yul\":2625:2643   */\n      0x24\n      dup2\n      add\n        /* \"#utility.yul\":2618:2652   */\n      dup5\n      swap1\n      mstore\n        /* \"#utility.yul\":2531:2549   */\n      0x44\n      add\n        /* \"TolcoinStakingContract.sol\":2556:2590  tolcoin.transfer(owner(), balance) */\n      0x20\n      mload(0x40)\n      dup1\n      dup4\n      sub\n      dup2\n      0x00\n      dup8\n      gas\n      call\n      iszero\n      dup1\n      iszero\n      tag_114\n      jumpi\n      returndatasize\n      0x00\n      dup1\n      returndatacopy\n      revert(0x00, returndatasize)\n    tag_114:\n      pop\n      pop\n      pop\n      pop\n      mload(0x40)\n      returndatasize\n      not(0x1f)\n      0x1f\n      dup3\n      add\n      and\n      dup3\n      add\n      dup1\n      0x40\n      mstore\n      pop\n      dup2\n      add\n      swap1\n      tag_115\n      swap2\n      swap1\n      tag_68\n      jump\t// in\n    tag_115:\n      pop\n        /* \"TolcoinStakingContract.sol\":2484:2598  {... */\n      pop\n        /* \"TolcoinStakingContract.sol\":2436:2598  function emergencyWithdraw() external onlyOwner {... */\n      jump\t// out\n        /* \"@openzeppelin/contracts/access/Ownable.sol\":2543:2758  function transferOwnership(address newOwner) public virtual onlyOwner {... */\n    tag_51:\n        /* \"@openzeppelin/contracts/access/Ownable.sol\":1531:1544  _checkOwner() */\n      tag_117\n        /* \"@openzeppelin/contracts/access/Ownable.sol\":1531:1542  _checkOwner */\n      tag_72\n        /* \"@openzeppelin/contracts/access/Ownable.sol\":1531:1544  _checkOwner() */\n      jump\t// in\n    tag_117:\n      sub(shl(0xa0, 0x01), 0x01)\n        /* \"@openzeppelin/contracts/access/Ownable.sol\":2627:2649  newOwner == address(0) */\n      dup2\n      and\n        /* \"@openzeppelin/contracts/access/Ownable.sol\":2623:2714  if (newOwner == address(0)) {... */\n      tag_119\n      jumpi\n        /* \"@openzeppelin/contracts/access/Ownable.sol\":2672:2703  OwnableInvalidOwner(address(0)) */\n      mload(0x40)\n      shl(0xe0, 0x1e4fbdf7)\n      dup2\n      mstore\n        /* \"@openzeppelin/contracts/access/Ownable.sol\":2700:2701  0 */\n      0x00\n        /* \"@openzeppelin/contracts/access/Ownable.sol\":2672:2703  OwnableInvalidOwner(address(0)) */\n      0x04\n      dup3\n      add\n        /* \"#utility.yul\":789:840   */\n      mstore\n        /* \"#utility.yul\":762:780   */\n      0x24\n      add\n        /* \"@openzeppelin/contracts/access/Ownable.sol\":2672:2703  OwnableInvalidOwner(address(0)) */\n      tag_54\n        /* \"#utility.yul\":629:846   */\n      jump\n        /* \"@openzeppelin/contracts/access/Ownable.sol\":2623:2714  if (newOwner == address(0)) {... */\n    tag_119:\n        /* \"@openzeppelin/contracts/access/Ownable.sol\":2723:2751  _transferOwnership(newOwner) */\n      tag_121\n        /* \"@openzeppelin/contracts/access/Ownable.sol\":2742:2750  newOwner */\n      dup2\n        /* \"@openzeppelin/contracts/access/Ownable.sol\":2723:2741  _transferOwnership */\n      tag_75\n        /* \"@openzeppelin/contracts/access/Ownable.sol\":2723:2751  _transferOwnership(newOwner) */\n      jump\t// in\n    tag_121:\n        /* \"@openzeppelin/contracts/access/Ownable.sol\":2543:2758  function transferOwnership(address newOwner) public virtual onlyOwner {... */\n      pop\n      jump\t// out\n        /* \"TolcoinStakingContract.sol\":1898:2313  function _updateReward(address account) internal {... */\n    tag_60:\n      sub(shl(0xa0, 0x01), 0x01)\n        /* \"TolcoinStakingContract.sol\":1988:2003  stakes[account] */\n      dup2\n      and\n        /* \"TolcoinStakingContract.sol\":1958:1985  StakeInfo storage stakeInfo */\n      0x00\n        /* \"TolcoinStakingContract.sol\":1988:2003  stakes[account] */\n      swap1\n      dup2\n      mstore\n        /* \"TolcoinStakingContract.sol\":1988:1994  stakes */\n      0x01\n        /* \"TolcoinStakingContract.sol\":1988:2003  stakes[account] */\n      0x20\n      mstore\n      0x40\n      swap1\n      keccak256\n        /* \"TolcoinStakingContract.sol\":2018:2034  stakeInfo.amount */\n      dup1\n      sload\n        /* \"TolcoinStakingContract.sol\":2018:2038  stakeInfo.amount > 0 */\n      iszero\n        /* \"TolcoinStakingContract.sol\":2014:2258  if (stakeInfo.amount > 0) {... */\n      tag_123\n      jumpi\n        /* \"TolcoinStakingContract.sol\":2055:2071  uint256 duration */\n      0x00\n        /* \"TolcoinStakingContract.sol\":2092:2101  stakeInfo */\n      dup2\n        /* \"TolcoinStakingContract.sol\":2092:2111  stakeInfo.timestamp */\n      0x01\n      add\n      sload\n        /* \"TolcoinStakingContract.sol\":2074:2089  block.timestamp */\n      timestamp\n        /* \"TolcoinStakingContract.sol\":2074:2111  block.timestamp - stakeInfo.timestamp */\n      tag_124\n      swap2\n      swap1\n      tag_62\n      jump\t// in\n    tag_124:\n        /* \"TolcoinStakingContract.sol\":2055:2111  uint256 duration = block.timestamp - stakeInfo.timestamp */\n      swap1\n      pop\n        /* \"TolcoinStakingContract.sol\":2126:2140  uint256 reward */\n      0x00\n        /* \"TolcoinStakingContract.sol\":2197:2201  1e18 */\n      0x0de0b6b3a7640000\n        /* \"TolcoinStakingContract.sol\":2174:2193  rewardRatePerSecond */\n      sload(0x02)\n        /* \"TolcoinStakingContract.sol\":2163:2171  duration */\n      dup4\n        /* \"TolcoinStakingContract.sol\":2144:2153  stakeInfo */\n      dup6\n        /* \"TolcoinStakingContract.sol\":2144:2160  stakeInfo.amount */\n      0x00\n      add\n      sload\n        /* \"TolcoinStakingContract.sol\":2144:2171  stakeInfo.amount * duration */\n      tag_125\n      swap2\n      swap1\n      tag_126\n      jump\t// in\n    tag_125:\n        /* \"TolcoinStakingContract.sol\":2144:2193  stakeInfo.amount * duration * rewardRatePerSecond */\n      tag_127\n      swap2\n      swap1\n      tag_126\n      jump\t// in\n    tag_127:\n        /* \"TolcoinStakingContract.sol\":2143:2201  (stakeInfo.amount * duration * rewardRatePerSecond) / 1e18 */\n      tag_128\n      swap2\n      swap1\n      tag_129\n      jump\t// in\n    tag_128:\n        /* \"TolcoinStakingContract.sol\":2126:2201  uint256 reward = (stakeInfo.amount * duration * rewardRatePerSecond) / 1e18 */\n      swap1\n      pop\n        /* \"TolcoinStakingContract.sol\":2240:2246  reward */\n      dup1\n        /* \"TolcoinStakingContract.sol\":2216:2225  stakeInfo */\n      dup4\n        /* \"TolcoinStakingContract.sol\":2216:2236  stakeInfo.rewardDebt */\n      0x02\n      add\n      0x00\n        /* \"TolcoinStakingContract.sol\":2216:2246  stakeInfo.rewardDebt += reward */\n      dup3\n      dup3\n      sload\n      tag_130\n      swap2\n      swap1\n      tag_91\n      jump\t// in\n    tag_130:\n      swap1\n      swap2\n      sstore\n      pop\n      pop\n      pop\n      pop\n        /* \"TolcoinStakingContract.sol\":2014:2258  if (stakeInfo.amount > 0) {... */\n    tag_123:\n        /* \"TolcoinStakingContract.sol\":2290:2305  block.timestamp */\n      timestamp\n        /* \"TolcoinStakingContract.sol\":2268:2287  stakeInfo.timestamp */\n      0x01\n      swap1\n      swap2\n      add\n        /* \"TolcoinStakingContract.sol\":2268:2305  stakeInfo.timestamp = block.timestamp */\n      sstore\n      pop\n        /* \"TolcoinStakingContract.sol\":1898:2313  function _updateReward(address account) internal {... */\n      jump\t// out\n        /* \"@openzeppelin/contracts/access/Ownable.sol\":1796:1958  function _checkOwner() internal view virtual {... */\n    tag_72:\n        /* \"@openzeppelin/contracts/access/Ownable.sol\":1684:1691  address */\n      0x00\n        /* \"@openzeppelin/contracts/access/Ownable.sol\":1710:1716  _owner */\n      sload\n      sub(shl(0xa0, 0x01), 0x01)\n      and\n        /* \"@openzeppelin/contracts/utils/Context.sol\":735:745  msg.sender */\n      caller\n        /* \"@openzeppelin/contracts/access/Ownable.sol\":1855:1878  owner() != _msgSender() */\n      eq\n        /* \"@openzeppelin/contracts/access/Ownable.sol\":1851:1952  if (owner() != _msgSender()) {... */\n      tag_74\n      jumpi\n        /* \"@openzeppelin/contracts/access/Ownable.sol\":1901:1941  OwnableUnauthorizedAccount(_msgSender()) */\n      mload(0x40)\n      shl(0xe0, 0x118cdaa7)\n      dup2\n      mstore\n        /* \"@openzeppelin/contracts/utils/Context.sol\":735:745  msg.sender */\n      caller\n        /* \"@openzeppelin/contracts/access/Ownable.sol\":1901:1941  OwnableUnauthorizedAccount(_msgSender()) */\n      0x04\n      dup3\n      add\n        /* \"#utility.yul\":789:840   */\n      mstore\n        /* \"#utility.yul\":762:780   */\n      0x24\n      add\n        /* \"@openzeppelin/contracts/access/Ownable.sol\":1901:1941  OwnableUnauthorizedAccount(_msgSender()) */\n      tag_54\n        /* \"#utility.yul\":629:846   */\n      jump\n        /* \"@openzeppelin/contracts/access/Ownable.sol\":2912:3099  function _transferOwnership(address newOwner) internal virtual {... */\n    tag_75:\n        /* \"@openzeppelin/contracts/access/Ownable.sol\":2985:3001  address oldOwner */\n      0x00\n        /* \"@openzeppelin/contracts/access/Ownable.sol\":3004:3010  _owner */\n      dup1\n      sload\n      sub(shl(0xa0, 0x01), 0x01)\n        /* \"@openzeppelin/contracts/access/Ownable.sol\":3020:3037  _owner = newOwner */\n      dup4\n      dup2\n      and\n      not(sub(shl(0xa0, 0x01), 0x01))\n      dup4\n      and\n      dup2\n      or\n      dup5\n      sstore\n        /* \"@openzeppelin/contracts/access/Ownable.sol\":3052:3092  OwnershipTransferred(oldOwner, newOwner) */\n      mload(0x40)\n        /* \"@openzeppelin/contracts/access/Ownable.sol\":3004:3010  _owner */\n      swap2\n      swap1\n      swap3\n      and\n      swap3\n      dup4\n      swap2\n        /* \"@openzeppelin/contracts/access/Ownable.sol\":3052:3092  OwnershipTransferred(oldOwner, newOwner) */\n      0x8be0079c531659141344cd1fd0a4f28419497f9722a3daafe3b4186f6b6457e0\n      swap2\n        /* \"@openzeppelin/contracts/access/Ownable.sol\":2985:3001  address oldOwner */\n      swap1\n        /* \"@openzeppelin/contracts/access/Ownable.sol\":3052:3092  OwnershipTransferred(oldOwner, newOwner) */\n      log3\n        /* \"@openzeppelin/contracts/access/Ownable.sol\":2975:3099  {... */\n      pop\n        /* \"@openzeppelin/contracts/access/Ownable.sol\":2912:3099  function _transferOwnership(address newOwner) internal virtual {... */\n      pop\n      jump\t// out\n        /* \"#utility.yul\":14:300   */\n    tag_17:\n        /* \"#utility.yul\":73:79   */\n      0x00\n        /* \"#utility.yul\":126:128   */\n      0x20\n        /* \"#utility.yul\":114:123   */\n      dup3\n        /* \"#utility.yul\":105:112   */\n      dup5\n        /* \"#utility.yul\":101:124   */\n      sub\n        /* \"#utility.yul\":97:129   */\n      slt\n        /* \"#utility.yul\":94:146   */\n      iszero\n      tag_143\n      jumpi\n        /* \"#utility.yul\":142:143   */\n      0x00\n        /* \"#utility.yul\":139:140   */\n      dup1\n        /* \"#utility.yul\":132:144   */\n      revert\n        /* \"#utility.yul\":94:146   */\n    tag_143:\n        /* \"#utility.yul\":168:191   */\n      dup2\n      calldataload\n      sub(shl(0xa0, 0x01), 0x01)\n        /* \"#utility.yul\":220:251   */\n      dup2\n      and\n        /* \"#utility.yul\":210:252   */\n      dup2\n      eq\n        /* \"#utility.yul\":200:270   */\n      tag_144\n      jumpi\n        /* \"#utility.yul\":266:267   */\n      0x00\n        /* \"#utility.yul\":263:264   */\n      dup1\n        /* \"#utility.yul\":256:268   */\n      revert\n        /* \"#utility.yul\":200:270   */\n    tag_144:\n        /* \"#utility.yul\":289:294   */\n      swap4\n        /* \"#utility.yul\":14:300   */\n      swap3\n      pop\n      pop\n      pop\n      jump\t// out\n        /* \"#utility.yul\":851:1031   */\n    tag_27:\n        /* \"#utility.yul\":910:916   */\n      0x00\n        /* \"#utility.yul\":963:965   */\n      0x20\n        /* \"#utility.yul\":951:960   */\n      dup3\n        /* \"#utility.yul\":942:949   */\n      dup5\n        /* \"#utility.yul\":938:961   */\n      sub\n        /* \"#utility.yul\":934:966   */\n      slt\n        /* \"#utility.yul\":931:983   */\n      iszero\n      tag_148\n      jumpi\n        /* \"#utility.yul\":979:980   */\n      0x00\n        /* \"#utility.yul\":976:977   */\n      dup1\n        /* \"#utility.yul\":969:981   */\n      revert\n        /* \"#utility.yul\":931:983   */\n    tag_148:\n      pop\n        /* \"#utility.yul\":1002:1025   */\n      calldataload\n      swap2\n        /* \"#utility.yul\":851:1031   */\n      swap1\n      pop\n      jump\t// out\n        /* \"#utility.yul\":2119:2246   */\n    tag_140:\n        /* \"#utility.yul\":2180:2190   */\n      0x4e487b71\n        /* \"#utility.yul\":2175:2178   */\n      0xe0\n        /* \"#utility.yul\":2171:2191   */\n      shl\n        /* \"#utility.yul\":2168:2169   */\n      0x00\n        /* \"#utility.yul\":2161:2192   */\n      mstore\n        /* \"#utility.yul\":2211:2215   */\n      0x11\n        /* \"#utility.yul\":2208:2209   */\n      0x04\n        /* \"#utility.yul\":2201:2216   */\n      mstore\n        /* \"#utility.yul\":2235:2239   */\n      0x24\n        /* \"#utility.yul\":2232:2233   */\n      0x00\n        /* \"#utility.yul\":2225:2240   */\n      revert\n        /* \"#utility.yul\":2251:2379   */\n    tag_62:\n        /* \"#utility.yul\":2318:2327   */\n      dup2\n      dup2\n      sub\n        /* \"#utility.yul\":2339:2350   */\n      dup2\n      dup2\n      gt\n        /* \"#utility.yul\":2336:2373   */\n      iszero\n      tag_156\n      jumpi\n        /* \"#utility.yul\":2353:2371   */\n      tag_156\n      tag_140\n      jump\t// in\n    tag_156:\n        /* \"#utility.yul\":2251:2379   */\n      swap3\n      swap2\n      pop\n      pop\n      jump\t// out\n        /* \"#utility.yul\":2663:2940   */\n    tag_68:\n        /* \"#utility.yul\":2730:2736   */\n      0x00\n        /* \"#utility.yul\":2783:2785   */\n      0x20\n        /* \"#utility.yul\":2771:2780   */\n      dup3\n        /* \"#utility.yul\":2762:2769   */\n      dup5\n        /* \"#utility.yul\":2758:2781   */\n      sub\n        /* \"#utility.yul\":2754:2786   */\n      slt\n        /* \"#utility.yul\":2751:2803   */\n      iszero\n      tag_159\n      jumpi\n        /* \"#utility.yul\":2799:2800   */\n      0x00\n        /* \"#utility.yul\":2796:2797   */\n      dup1\n        /* \"#utility.yul\":2789:2801   */\n      revert\n        /* \"#utility.yul\":2751:2803   */\n    tag_159:\n        /* \"#utility.yul\":2831:2840   */\n      dup2\n        /* \"#utility.yul\":2825:2841   */\n      mload\n        /* \"#utility.yul\":2884:2889   */\n      dup1\n        /* \"#utility.yul\":2877:2890   */\n      iszero\n        /* \"#utility.yul\":2870:2891   */\n      iszero\n        /* \"#utility.yul\":2863:2868   */\n      dup2\n        /* \"#utility.yul\":2860:2892   */\n      eq\n        /* \"#utility.yul\":2850:2910   */\n      tag_144\n      jumpi\n        /* \"#utility.yul\":2906:2907   */\n      0x00\n        /* \"#utility.yul\":2903:2904   */\n      dup1\n        /* \"#utility.yul\":2896:2908   */\n      revert\n        /* \"#utility.yul\":3668:3793   */\n    tag_91:\n        /* \"#utility.yul\":3733:3742   */\n      dup1\n      dup3\n      add\n        /* \"#utility.yul\":3754:3764   */\n      dup1\n      dup3\n      gt\n        /* \"#utility.yul\":3751:3787   */\n      iszero\n      tag_156\n      jumpi\n        /* \"#utility.yul\":3767:3785   */\n      tag_156\n      tag_140\n      jump\t// in\n        /* \"#utility.yul\":4135:4319   */\n    tag_110:\n        /* \"#utility.yul\":4205:4211   */\n      0x00\n        /* \"#utility.yul\":4258:4260   */\n      0x20\n        /* \"#utility.yul\":4246:4255   */\n      dup3\n        /* \"#utility.yul\":4237:4244   */\n      dup5\n        /* \"#utility.yul\":4233:4256   */\n      sub\n        /* \"#utility.yul\":4229:4261   */\n      slt\n        /* \"#utility.yul\":4226:4278   */\n      iszero\n      tag_168\n      jumpi\n        /* \"#utility.yul\":4274:4275   */\n      0x00\n        /* \"#utility.yul\":4271:4272   */\n      dup1\n        /* \"#utility.yul\":4264:4276   */\n      revert\n        /* \"#utility.yul\":4226:4278   */\n    tag_168:\n      pop\n        /* \"#utility.yul\":4297:4313   */\n      mload\n      swap2\n        /* \"#utility.yul\":4135:4319   */\n      swap1\n      pop\n      jump\t// out\n        /* \"#utility.yul\":4324:4492   */\n    tag_126:\n        /* \"#utility.yul\":4397:4406   */\n      dup1\n      dup3\n      mul\n        /* \"#utility.yul\":4428:4437   */\n      dup2\n      iszero\n        /* \"#utility.yul\":4445:4460   */\n      dup3\n      dup3\n      div\n        /* \"#utility.yul\":4439:4461   */\n      dup5\n      eq\n        /* \"#utility.yul\":4425:4462   */\n      or\n        /* \"#utility.yul\":4415:4486   */\n      tag_156\n      jumpi\n        /* \"#utility.yul\":4466:4484   */\n      tag_156\n      tag_140\n      jump\t// in\n        /* \"#utility.yul\":4497:4714   */\n    tag_129:\n        /* \"#utility.yul\":4537:4538   */\n      0x00\n        /* \"#utility.yul\":4563:4564   */\n      dup3\n        /* \"#utility.yul\":4553:4685   */\n      tag_173\n      jumpi\n        /* \"#utility.yul\":4607:4617   */\n      0x4e487b71\n        /* \"#utility.yul\":4602:4605   */\n      0xe0\n        /* \"#utility.yul\":4598:4618   */\n      shl\n        /* \"#utility.yul\":4595:4596   */\n      0x00\n        /* \"#utility.yul\":4588:4619   */\n      mstore\n        /* \"#utility.yul\":4642:4646   */\n      0x12\n        /* \"#utility.yul\":4639:4640   */\n      0x04\n        /* \"#utility.yul\":4632:4647   */\n      mstore\n        /* \"#utility.yul\":4670:4674   */\n      0x24\n        /* \"#utility.yul\":4667:4668   */\n      0x00\n        /* \"#utility.yul\":4660:4675   */\n      revert\n        /* \"#utility.yul\":4553:4685   */\n    tag_173:\n      pop\n        /* \"#utility.yul\":4699:4708   */\n      div\n      swap1\n        /* \"#utility.yul\":4497:4714   */\n      jump\t// out\n\n    auxdata: 0xa2646970667358221220be16ab7b79c93582a064747840f3e332605e7763d4ff863ebfae93f79363001764736f6c63430008180033\n}\n",
				"bytecode": {
					"linkReferences": {},
					"object": "60a0604052641af2af8c84600255348015610018575f80fd5b5073cd1710e8a72c95bdd127cc71e1227d8c98e05aec61003781610055565b5073ebd92716d4aac1abe6a73a42b5a83a42c145447d6080526100a4565b5f80546001600160a01b038381166001600160a01b0319831681178455604051919092169283917f8be0079c531659141344cd1fd0a4f28419497f9722a3daafe3b4186f6b6457e09190a35050565b60805161098e6100de5f395f818160fc015281816102a6015281816103dd01528181610547015281816106030152610678015261098e5ff3fe608060405234801561000f575f80fd5b50600436106100a6575f3560e01c80638da5cb5b1161006e5780638da5cb5b1461016a5780639e447fc61461017a578063a694fc3a1461018d578063b88a802f146101a0578063db2e21bc146101a8578063f2fde38b146101b0575f80fd5b806316934fc4146100aa5780631859ea47146100f75780632e1a7d4d146101365780635d773b2c1461014b578063715018a614610162575b5f80fd5b6100d76100b8366004610868565b600160208190525f918252604090912080549181015460029091015483565b604080519384526020840192909252908201526060015b60405180910390f35b61011e7f000000000000000000000000000000000000000000000000000000000000000081565b6040516001600160a01b0390911681526020016100ee565b610149610144366004610895565b6101c3565b005b61015460025481565b6040519081526020016100ee565b610149610352565b5f546001600160a01b031661011e565b610149610188366004610895565b610365565b61014961019b366004610895565b610372565b6101496104b9565b6101496105e4565b6101496101be366004610868565b610728565b5f811161020b5760405162461bcd60e51b8152602060048201526011602482015270043616e6e6f74207769746864726177203607c1b60448201526064015b60405180910390fd5b335f9081526001602052604090205481111561025e5760405162461bcd60e51b8152602060048201526012602482015271496e73756666696369656e74207374616b6560701b6044820152606401610202565b61026733610765565b335f90815260016020526040812080548392906102859084906108c0565b909155505060405163a9059cbb60e01b8152336004820152602481018290527f00000000000000000000000000000000000000000000000000000000000000006001600160a01b03169063a9059cbb906044016020604051808303815f875af11580156102f4573d5f803e3d5ffd5b505050506040513d601f19601f8201168201806040525081019061031891906108d9565b5060405181815233907f7084f5476618d8e60b11ef0d7d3f06914655adb8793e28ff7f018d4c76d505d5906020015b60405180910390a250565b61035a6107ed565b6103635f610819565b565b61036d6107ed565b600255565b5f81116103b25760405162461bcd60e51b815260206004820152600e60248201526d043616e6e6f74207374616b6520360941b6044820152606401610202565b6103bb33610765565b6040516323b872dd60e01b8152336004820152306024820152604481018290527f00000000000000000000000000000000000000000000000000000000000000006001600160a01b0316906323b872dd906064016020604051808303815f875af115801561042b573d5f803e3d5ffd5b505050506040513d601f19601f8201168201806040525081019061044f91906108d9565b50335f908152600160205260408120805483929061046e9084906108f8565b9091555050335f8181526001602081905260409182902042910155517f9e71bc8eea02a63969f509818f2dafb9254532904319f9dbda79b67bd34a5f3d906103479084815260200190565b6104c233610765565b335f908152600160205260409020600201548061050d5760405162461bcd60e51b8152602060048201526009602482015268139bc81c995dd85c9960ba1b6044820152606401610202565b335f81815260016020526040808220600201919091555163a9059cbb60e01b81526004810191909152602481018290526001600160a01b037f0000000000000000000000000000000000000000000000000000000000000000169063a9059cbb906044016020604051808303815f875af115801561058d573d5f803e3d5ffd5b505050506040513d601f19601f820116820180604052508101906105b191906108d9565b5060405181815233907f106f923f993c2149d49b4255ff723acafa1f2d94393f561d3eda32ae348f724190602001610347565b6105ec6107ed565b6040516370a0823160e01b81523060048201525f907f00000000000000000000000000000000000000000000000000000000000000006001600160a01b0316906370a0823190602401602060405180830381865afa158015610650573d5f803e3d5ffd5b505050506040513d601f19601f82011682018060405250810190610674919061090b565b90507f00000000000000000000000000000000000000000000000000000000000000006001600160a01b031663a9059cbb6106b65f546001600160a01b031690565b6040516001600160e01b031960e084901b1681526001600160a01b039091166004820152602481018490526044016020604051808303815f875af1158015610700573d5f803e3d5ffd5b505050506040513d601f19601f8201168201806040525081019061072491906108d9565b5050565b6107306107ed565b6001600160a01b03811661075957604051631e4fbdf760e01b81525f6004820152602401610202565b61076281610819565b50565b6001600160a01b0381165f9081526001602052604090208054156107e3575f81600101544261079491906108c0565b90505f670de0b6b3a764000060025483855f01546107b29190610922565b6107bc9190610922565b6107c69190610939565b905080836002015f8282546107db91906108f8565b909155505050505b4260019091015550565b5f546001600160a01b031633146103635760405163118cdaa760e01b8152336004820152602401610202565b5f80546001600160a01b038381166001600160a01b0319831681178455604051919092169283917f8be0079c531659141344cd1fd0a4f28419497f9722a3daafe3b4186f6b6457e09190a35050565b5f60208284031215610878575f80fd5b81356001600160a01b038116811461088e575f80fd5b9392505050565b5f602082840312156108a5575f80fd5b5035919050565b634e487b7160e01b5f52601160045260245ffd5b818103818111156108d3576108d36108ac565b92915050565b5f602082840312156108e9575f80fd5b8151801515811461088e575f80fd5b808201808211156108d3576108d36108ac565b5f6020828403121561091b575f80fd5b5051919050565b80820281158282048414176108d3576108d36108ac565b5f8261095357634e487b7160e01b5f52601260045260245ffd5b50049056fea2646970667358221220be16ab7b79c93582a064747840f3e332605e7763d4ff863ebfae93f79363001764736f6c63430008180033",
					"opcodes": "PUSH1 0xA0 PUSH1 0x40 MSTORE PUSH5 0x1AF2AF8C84 PUSH1 0x2 SSTORE CALLVALUE DUP1 ISZERO PUSH2 0x18 JUMPI PUSH0 DUP1 REVERT JUMPDEST POP PUSH20 0xCD1710E8A72C95BDD127CC71E1227D8C98E05AEC PUSH2 0x37 DUP2 PUSH2 0x55 JUMP JUMPDEST POP PUSH20 0xEBD92716D4AAC1ABE6A73A42B5A83A42C145447D PUSH1 0x80 MSTORE PUSH2 0xA4 JUMP JUMPDEST PUSH0 DUP1 SLOAD PUSH1 0x1 PUSH1 0x1 PUSH1 0xA0 SHL SUB DUP4 DUP2 AND PUSH1 0x1 PUSH1 0x1 PUSH1 0xA0 SHL SUB NOT DUP4 AND DUP2 OR DUP5 SSTORE PUSH1 0x40 MLOAD SWAP2 SWAP1 SWAP3 AND SWAP3 DUP4 SWAP2 PUSH32 0x8BE0079C531659141344CD1FD0A4F28419497F9722A3DAAFE3B4186F6B6457E0 SWAP2 SWAP1 LOG3 POP POP JUMP JUMPDEST PUSH1 0x80 MLOAD PUSH2 0x98E PUSH2 0xDE PUSH0 CODECOPY PUSH0 DUP2 DUP2 PUSH1 0xFC ADD MSTORE DUP2 DUP2 PUSH2 0x2A6 ADD MSTORE DUP2 DUP2 PUSH2 0x3DD ADD MSTORE DUP2 DUP2 PUSH2 0x547 ADD MSTORE DUP2 DUP2 PUSH2 0x603 ADD MSTORE PUSH2 0x678 ADD MSTORE PUSH2 0x98E PUSH0 RETURN INVALID PUSH1 0x80 PUSH1 0x40 MSTORE CALLVALUE DUP1 ISZERO PUSH2 0xF JUMPI PUSH0 DUP1 REVERT JUMPDEST POP PUSH1 0x4 CALLDATASIZE LT PUSH2 0xA6 JUMPI PUSH0 CALLDATALOAD PUSH1 0xE0 SHR DUP1 PUSH4 0x8DA5CB5B GT PUSH2 0x6E JUMPI DUP1 PUSH4 0x8DA5CB5B EQ PUSH2 0x16A JUMPI DUP1 PUSH4 0x9E447FC6 EQ PUSH2 0x17A JUMPI DUP1 PUSH4 0xA694FC3A EQ PUSH2 0x18D JUMPI DUP1 PUSH4 0xB88A802F EQ PUSH2 0x1A0 JUMPI DUP1 PUSH4 0xDB2E21BC EQ PUSH2 0x1A8 JUMPI DUP1 PUSH4 0xF2FDE38B EQ PUSH2 0x1B0 JUMPI PUSH0 DUP1 REVERT JUMPDEST DUP1 PUSH4 0x16934FC4 EQ PUSH2 0xAA JUMPI DUP1 PUSH4 0x1859EA47 EQ PUSH2 0xF7 JUMPI DUP1 PUSH4 0x2E1A7D4D EQ PUSH2 0x136 JUMPI DUP1 PUSH4 0x5D773B2C EQ PUSH2 0x14B JUMPI DUP1 PUSH4 0x715018A6 EQ PUSH2 0x162 JUMPI JUMPDEST PUSH0 DUP1 REVERT JUMPDEST PUSH2 0xD7 PUSH2 0xB8 CALLDATASIZE PUSH1 0x4 PUSH2 0x868 JUMP JUMPDEST PUSH1 0x1 PUSH1 0x20 DUP2 SWAP1 MSTORE PUSH0 SWAP2 DUP3 MSTORE PUSH1 0x40 SWAP1 SWAP2 KECCAK256 DUP1 SLOAD SWAP2 DUP2 ADD SLOAD PUSH1 0x2 SWAP1 SWAP2 ADD SLOAD DUP4 JUMP JUMPDEST PUSH1 0x40 DUP1 MLOAD SWAP4 DUP5 MSTORE PUSH1 0x20 DUP5 ADD SWAP3 SWAP1 SWAP3 MSTORE SWAP1 DUP3 ADD MSTORE PUSH1 0x60 ADD JUMPDEST PUSH1 0x40 MLOAD DUP1 SWAP2 SUB SWAP1 RETURN JUMPDEST PUSH2 0x11E PUSH32 0x0 DUP2 JUMP JUMPDEST PUSH1 0x40 MLOAD PUSH1 0x1 PUSH1 0x1 PUSH1 0xA0 SHL SUB SWAP1 SWAP2 AND DUP2 MSTORE PUSH1 0x20 ADD PUSH2 0xEE JUMP JUMPDEST PUSH2 0x149 PUSH2 0x144 CALLDATASIZE PUSH1 0x4 PUSH2 0x895 JUMP JUMPDEST PUSH2 0x1C3 JUMP JUMPDEST STOP JUMPDEST PUSH2 0x154 PUSH1 0x2 SLOAD DUP2 JUMP JUMPDEST PUSH1 0x40 MLOAD SWAP1 DUP2 MSTORE PUSH1 0x20 ADD PUSH2 0xEE JUMP JUMPDEST PUSH2 0x149 PUSH2 0x352 JUMP JUMPDEST PUSH0 SLOAD PUSH1 0x1 PUSH1 0x1 PUSH1 0xA0 SHL SUB AND PUSH2 0x11E JUMP JUMPDEST PUSH2 0x149 PUSH2 0x188 CALLDATASIZE PUSH1 0x4 PUSH2 0x895 JUMP JUMPDEST PUSH2 0x365 JUMP JUMPDEST PUSH2 0x149 PUSH2 0x19B CALLDATASIZE PUSH1 0x4 PUSH2 0x895 JUMP JUMPDEST PUSH2 0x372 JUMP JUMPDEST PUSH2 0x149 PUSH2 0x4B9 JUMP JUMPDEST PUSH2 0x149 PUSH2 0x5E4 JUMP JUMPDEST PUSH2 0x149 PUSH2 0x1BE CALLDATASIZE PUSH1 0x4 PUSH2 0x868 JUMP JUMPDEST PUSH2 0x728 JUMP JUMPDEST PUSH0 DUP2 GT PUSH2 0x20B JUMPI PUSH1 0x40 MLOAD PUSH3 0x461BCD PUSH1 0xE5 SHL DUP2 MSTORE PUSH1 0x20 PUSH1 0x4 DUP3 ADD MSTORE PUSH1 0x11 PUSH1 0x24 DUP3 ADD MSTORE PUSH17 0x43616E6E6F74207769746864726177203 PUSH1 0x7C SHL PUSH1 0x44 DUP3 ADD MSTORE PUSH1 0x64 ADD JUMPDEST PUSH1 0x40 MLOAD DUP1 SWAP2 SUB SWAP1 REVERT JUMPDEST CALLER PUSH0 SWAP1 DUP2 MSTORE PUSH1 0x1 PUSH1 0x20 MSTORE PUSH1 0x40 SWAP1 KECCAK256 SLOAD DUP2 GT ISZERO PUSH2 0x25E JUMPI PUSH1 0x40 MLOAD PUSH3 0x461BCD PUSH1 0xE5 SHL DUP2 MSTORE PUSH1 0x20 PUSH1 0x4 DUP3 ADD MSTORE PUSH1 0x12 PUSH1 0x24 DUP3 ADD MSTORE PUSH18 0x496E73756666696369656E74207374616B65 PUSH1 0x70 SHL PUSH1 0x44 DUP3 ADD MSTORE PUSH1 0x64 ADD PUSH2 0x202 JUMP JUMPDEST PUSH2 0x267 CALLER PUSH2 0x765 JUMP JUMPDEST CALLER PUSH0 SWAP1 DUP2 MSTORE PUSH1 0x1 PUSH1 0x20 MSTORE PUSH1 0x40 DUP2 KECCAK256 DUP1 SLOAD DUP4 SWAP3 SWAP1 PUSH2 0x285 SWAP1 DUP5 SWAP1 PUSH2 0x8C0 JUMP JUMPDEST SWAP1 SWAP2 SSTORE POP POP PUSH1 0x40 MLOAD PUSH4 0xA9059CBB PUSH1 0xE0 SHL DUP2 MSTORE CALLER PUSH1 0x4 DUP3 ADD MSTORE PUSH1 0x24 DUP2 ADD DUP3 SWAP1 MSTORE PUSH32 0x0 PUSH1 0x1 PUSH1 0x1 PUSH1 0xA0 SHL SUB AND SWAP1 PUSH4 0xA9059CBB SWAP1 PUSH1 0x44 ADD PUSH1 0x20 PUSH1 0x40 MLOAD DUP1 DUP4 SUB DUP2 PUSH0 DUP8 GAS CALL ISZERO DUP1 ISZERO PUSH2 0x2F4 JUMPI RETURNDATASIZE PUSH0 DUP1 RETURNDATACOPY RETURNDATASIZE PUSH0 REVERT JUMPDEST POP POP POP POP PUSH1 0x40 MLOAD RETURNDATASIZE PUSH1 0x1F NOT PUSH1 0x1F DUP3 ADD AND DUP3 ADD DUP1 PUSH1 0x40 MSTORE POP DUP2 ADD SWAP1 PUSH2 0x318 SWAP2 SWAP1 PUSH2 0x8D9 JUMP JUMPDEST POP PUSH1 0x40 MLOAD DUP2 DUP2 MSTORE CALLER SWAP1 PUSH32 0x7084F5476618D8E60B11EF0D7D3F06914655ADB8793E28FF7F018D4C76D505D5 SWAP1 PUSH1 0x20 ADD JUMPDEST PUSH1 0x40 MLOAD DUP1 SWAP2 SUB SWAP1 LOG2 POP JUMP JUMPDEST PUSH2 0x35A PUSH2 0x7ED JUMP JUMPDEST PUSH2 0x363 PUSH0 PUSH2 0x819 JUMP JUMPDEST JUMP JUMPDEST PUSH2 0x36D PUSH2 0x7ED JUMP JUMPDEST PUSH1 0x2 SSTORE JUMP JUMPDEST PUSH0 DUP2 GT PUSH2 0x3B2 JUMPI PUSH1 0x40 MLOAD PUSH3 0x461BCD PUSH1 0xE5 SHL DUP2 MSTORE PUSH1 0x20 PUSH1 0x4 DUP3 ADD MSTORE PUSH1 0xE PUSH1 0x24 DUP3 ADD MSTORE PUSH14 0x43616E6E6F74207374616B65203 PUSH1 0x94 SHL PUSH1 0x44 DUP3 ADD MSTORE PUSH1 0x64 ADD PUSH2 0x202 JUMP JUMPDEST PUSH2 0x3BB CALLER PUSH2 0x765 JUMP JUMPDEST PUSH1 0x40 MLOAD PUSH4 0x23B872DD PUSH1 0xE0 SHL DUP2 MSTORE CALLER PUSH1 0x4 DUP3 ADD MSTORE ADDRESS PUSH1 0x24 DUP3 ADD MSTORE PUSH1 0x44 DUP2 ADD DUP3 SWAP1 MSTORE PUSH32 0x0 PUSH1 0x1 PUSH1 0x1 PUSH1 0xA0 SHL SUB AND SWAP1 PUSH4 0x23B872DD SWAP1 PUSH1 0x64 ADD PUSH1 0x20 PUSH1 0x40 MLOAD DUP1 DUP4 SUB DUP2 PUSH0 DUP8 GAS CALL ISZERO DUP1 ISZERO PUSH2 0x42B JUMPI RETURNDATASIZE PUSH0 DUP1 RETURNDATACOPY RETURNDATASIZE PUSH0 REVERT JUMPDEST POP POP POP POP PUSH1 0x40 MLOAD RETURNDATASIZE PUSH1 0x1F NOT PUSH1 0x1F DUP3 ADD AND DUP3 ADD DUP1 PUSH1 0x40 MSTORE POP DUP2 ADD SWAP1 PUSH2 0x44F SWAP2 SWAP1 PUSH2 0x8D9 JUMP JUMPDEST POP CALLER PUSH0 SWAP1 DUP2 MSTORE PUSH1 0x1 PUSH1 0x20 MSTORE PUSH1 0x40 DUP2 KECCAK256 DUP1 SLOAD DUP4 SWAP3 SWAP1 PUSH2 0x46E SWAP1 DUP5 SWAP1 PUSH2 0x8F8 JUMP JUMPDEST SWAP1 SWAP2 SSTORE POP POP CALLER PUSH0 DUP2 DUP2 MSTORE PUSH1 0x1 PUSH1 0x20 DUP2 SWAP1 MSTORE PUSH1 0x40 SWAP2 DUP3 SWAP1 KECCAK256 TIMESTAMP SWAP2 ADD SSTORE MLOAD PUSH32 0x9E71BC8EEA02A63969F509818F2DAFB9254532904319F9DBDA79B67BD34A5F3D SWAP1 PUSH2 0x347 SWAP1 DUP5 DUP2 MSTORE PUSH1 0x20 ADD SWAP1 JUMP JUMPDEST PUSH2 0x4C2 CALLER PUSH2 0x765 JUMP JUMPDEST CALLER PUSH0 SWAP1 DUP2 MSTORE PUSH1 0x1 PUSH1 0x20 MSTORE PUSH1 0x40 SWAP1 KECCAK256 PUSH1 0x2 ADD SLOAD DUP1 PUSH2 0x50D JUMPI PUSH1 0x40 MLOAD PUSH3 0x461BCD PUSH1 0xE5 SHL DUP2 MSTORE PUSH1 0x20 PUSH1 0x4 DUP3 ADD MSTORE PUSH1 0x9 PUSH1 0x24 DUP3 ADD MSTORE PUSH9 0x139BC81C995DD85C99 PUSH1 0xBA SHL PUSH1 0x44 DUP3 ADD MSTORE PUSH1 0x64 ADD PUSH2 0x202 JUMP JUMPDEST CALLER PUSH0 DUP2 DUP2 MSTORE PUSH1 0x1 PUSH1 0x20 MSTORE PUSH1 0x40 DUP1 DUP3 KECCAK256 PUSH1 0x2 ADD SWAP2 SWAP1 SWAP2 SSTORE MLOAD PUSH4 0xA9059CBB PUSH1 0xE0 SHL DUP2 MSTORE PUSH1 0x4 DUP2 ADD SWAP2 SWAP1 SWAP2 MSTORE PUSH1 0x24 DUP2 ADD DUP3 SWAP1 MSTORE PUSH1 0x1 PUSH1 0x1 PUSH1 0xA0 SHL SUB PUSH32 0x0 AND SWAP1 PUSH4 0xA9059CBB SWAP1 PUSH1 0x44 ADD PUSH1 0x20 PUSH1 0x40 MLOAD DUP1 DUP4 SUB DUP2 PUSH0 DUP8 GAS CALL ISZERO DUP1 ISZERO PUSH2 0x58D JUMPI RETURNDATASIZE PUSH0 DUP1 RETURNDATACOPY RETURNDATASIZE PUSH0 REVERT JUMPDEST POP POP POP POP PUSH1 0x40 MLOAD RETURNDATASIZE PUSH1 0x1F NOT PUSH1 0x1F DUP3 ADD AND DUP3 ADD DUP1 PUSH1 0x40 MSTORE POP DUP2 ADD SWAP1 PUSH2 0x5B1 SWAP2 SWAP1 PUSH2 0x8D9 JUMP JUMPDEST POP PUSH1 0x40 MLOAD DUP2 DUP2 MSTORE CALLER SWAP1 PUSH32 0x106F923F993C2149D49B4255FF723ACAFA1F2D94393F561D3EDA32AE348F7241 SWAP1 PUSH1 0x20 ADD PUSH2 0x347 JUMP JUMPDEST PUSH2 0x5EC PUSH2 0x7ED JUMP JUMPDEST PUSH1 0x40 MLOAD PUSH4 0x70A08231 PUSH1 0xE0 SHL DUP2 MSTORE ADDRESS PUSH1 0x4 DUP3 ADD MSTORE PUSH0 SWAP1 PUSH32 0x0 PUSH1 0x1 PUSH1 0x1 PUSH1 0xA0 SHL SUB AND SWAP1 PUSH4 0x70A08231 SWAP1 PUSH1 0x24 ADD PUSH1 0x20 PUSH1 0x40 MLOAD DUP1 DUP4 SUB DUP2 DUP7 GAS STATICCALL ISZERO DUP1 ISZERO PUSH2 0x650 JUMPI RETURNDATASIZE PUSH0 DUP1 RETURNDATACOPY RETURNDATASIZE PUSH0 REVERT JUMPDEST POP POP POP POP PUSH1 0x40 MLOAD RETURNDATASIZE PUSH1 0x1F NOT PUSH1 0x1F DUP3 ADD AND DUP3 ADD DUP1 PUSH1 0x40 MSTORE POP DUP2 ADD SWAP1 PUSH2 0x674 SWAP2 SWAP1 PUSH2 0x90B JUMP JUMPDEST SWAP1 POP PUSH32 0x0 PUSH1 0x1 PUSH1 0x1 PUSH1 0xA0 SHL SUB AND PUSH4 0xA9059CBB PUSH2 0x6B6 PUSH0 SLOAD PUSH1 0x1 PUSH1 0x1 PUSH1 0xA0 SHL SUB AND SWAP1 JUMP JUMPDEST PUSH1 0x40 MLOAD PUSH1 0x1 PUSH1 0x1 PUSH1 0xE0 SHL SUB NOT PUSH1 0xE0 DUP5 SWAP1 SHL AND DUP2 MSTORE PUSH1 0x1 PUSH1 0x1 PUSH1 0xA0 SHL SUB SWAP1 SWAP2 AND PUSH1 0x4 DUP3 ADD MSTORE PUSH1 0x24 DUP2 ADD DUP5 SWAP1 MSTORE PUSH1 0x44 ADD PUSH1 0x20 PUSH1 0x40 MLOAD DUP1 DUP4 SUB DUP2 PUSH0 DUP8 GAS CALL ISZERO DUP1 ISZERO PUSH2 0x700 JUMPI RETURNDATASIZE PUSH0 DUP1 RETURNDATACOPY RETURNDATASIZE PUSH0 REVERT JUMPDEST POP POP POP POP PUSH1 0x40 MLOAD RETURNDATASIZE PUSH1 0x1F NOT PUSH1 0x1F DUP3 ADD AND DUP3 ADD DUP1 PUSH1 0x40 MSTORE POP DUP2 ADD SWAP1 PUSH2 0x724 SWAP2 SWAP1 PUSH2 0x8D9 JUMP JUMPDEST POP POP JUMP JUMPDEST PUSH2 0x730 PUSH2 0x7ED JUMP JUMPDEST PUSH1 0x1 PUSH1 0x1 PUSH1 0xA0 SHL SUB DUP2 AND PUSH2 0x759 JUMPI PUSH1 0x40 MLOAD PUSH4 0x1E4FBDF7 PUSH1 0xE0 SHL DUP2 MSTORE PUSH0 PUSH1 0x4 DUP3 ADD MSTORE PUSH1 0x24 ADD PUSH2 0x202 JUMP JUMPDEST PUSH2 0x762 DUP2 PUSH2 0x819 JUMP JUMPDEST POP JUMP JUMPDEST PUSH1 0x1 PUSH1 0x1 PUSH1 0xA0 SHL SUB DUP2 AND PUSH0 SWAP1 DUP2 MSTORE PUSH1 0x1 PUSH1 0x20 MSTORE PUSH1 0x40 SWAP1 KECCAK256 DUP1 SLOAD ISZERO PUSH2 0x7E3 JUMPI PUSH0 DUP2 PUSH1 0x1 ADD SLOAD TIMESTAMP PUSH2 0x794 SWAP2 SWAP1 PUSH2 0x8C0 JUMP JUMPDEST SWAP1 POP PUSH0 PUSH8 0xDE0B6B3A7640000 PUSH1 0x2 SLOAD DUP4 DUP6 PUSH0 ADD SLOAD PUSH2 0x7B2 SWAP2 SWAP1 PUSH2 0x922 JUMP JUMPDEST PUSH2 0x7BC SWAP2 SWAP1 PUSH2 0x922 JUMP JUMPDEST PUSH2 0x7C6 SWAP2 SWAP1 PUSH2 0x939 JUMP JUMPDEST SWAP1 POP DUP1 DUP4 PUSH1 0x2 ADD PUSH0 DUP3 DUP3 SLOAD PUSH2 0x7DB SWAP2 SWAP1 PUSH2 0x8F8 JUMP JUMPDEST SWAP1 SWAP2 SSTORE POP POP POP POP JUMPDEST TIMESTAMP PUSH1 0x1 SWAP1 SWAP2 ADD SSTORE POP JUMP JUMPDEST PUSH0 SLOAD PUSH1 0x1 PUSH1 0x1 PUSH1 0xA0 SHL SUB AND CALLER EQ PUSH2 0x363 JUMPI PUSH1 0x40 MLOAD PUSH4 0x118CDAA7 PUSH1 0xE0 SHL DUP2 MSTORE CALLER PUSH1 0x4 DUP3 ADD MSTORE PUSH1 0x24 ADD PUSH2 0x202 JUMP JUMPDEST PUSH0 DUP1 SLOAD PUSH1 0x1 PUSH1 0x1 PUSH1 0xA0 SHL SUB DUP4 DUP2 AND PUSH1 0x1 PUSH1 0x1 PUSH1 0xA0 SHL SUB NOT DUP4 AND DUP2 OR DUP5 SSTORE PUSH1 0x40 MLOAD SWAP2 SWAP1 SWAP3 AND SWAP3 DUP4 SWAP2 PUSH32 0x8BE0079C531659141344CD1FD0A4F28419497F9722A3DAAFE3B4186F6B6457E0 SWAP2 SWAP1 LOG3 POP POP JUMP JUMPDEST PUSH0 PUSH1 0x20 DUP3 DUP5 SUB SLT ISZERO PUSH2 0x878 JUMPI PUSH0 DUP1 REVERT JUMPDEST DUP2 CALLDATALOAD PUSH1 0x1 PUSH1 0x1 PUSH1 0xA0 SHL SUB DUP2 AND DUP2 EQ PUSH2 0x88E JUMPI PUSH0 DUP1 REVERT JUMPDEST SWAP4 SWAP3 POP POP POP JUMP JUMPDEST PUSH0 PUSH1 0x20 DUP3 DUP5 SUB SLT ISZERO PUSH2 0x8A5 JUMPI PUSH0 DUP1 REVERT JUMPDEST POP CALLDATALOAD SWAP2 SWAP1 POP JUMP JUMPDEST PUSH4 0x4E487B71 PUSH1 0xE0 SHL PUSH0 MSTORE PUSH1 0x11 PUSH1 0x4 MSTORE PUSH1 0x24 PUSH0 REVERT JUMPDEST DUP2 DUP2 SUB DUP2 DUP2 GT ISZERO PUSH2 0x8D3 JUMPI PUSH2 0x8D3 PUSH2 0x8AC JUMP JUMPDEST SWAP3 SWAP2 POP POP JUMP JUMPDEST PUSH0 PUSH1 0x20 DUP3 DUP5 SUB SLT ISZERO PUSH2 0x8E9 JUMPI PUSH0 DUP1 REVERT JUMPDEST DUP2 MLOAD DUP1 ISZERO ISZERO DUP2 EQ PUSH2 0x88E JUMPI PUSH0 DUP1 REVERT JUMPDEST DUP1 DUP3 ADD DUP1 DUP3 GT ISZERO PUSH2 0x8D3 JUMPI PUSH2 0x8D3 PUSH2 0x8AC JUMP JUMPDEST PUSH0 PUSH1 0x20 DUP3 DUP5 SUB SLT ISZERO PUSH2 0x91B JUMPI PUSH0 DUP1 REVERT JUMPDEST POP MLOAD SWAP2 SWAP1 POP JUMP JUMPDEST DUP1 DUP3 MUL DUP2 ISZERO DUP3 DUP3 DIV DUP5 EQ OR PUSH2 0x8D3 JUMPI PUSH2 0x8D3 PUSH2 0x8AC JUMP JUMPDEST PUSH0 DUP3 PUSH2 0x953 JUMPI PUSH4 0x4E487B71 PUSH1 0xE0 SHL PUSH0 MSTORE PUSH1 0x12 PUSH1 0x4 MSTORE PUSH1 0x24 PUSH0 REVERT JUMPDEST POP DIV SWAP1 JUMP INVALID LOG2 PUSH5 0x6970667358 0x22 SLT KECCAK256 0xBE AND 0xAB PUSH28 0x79C93582A064747840F3E332605E7763D4FF863EBFAE93F793630017 PUSH5 0x736F6C6343 STOP ADDMOD XOR STOP CALLER "
				},
				"gasEstimates": {
					"creation": {
						"codeDepositCost": "489200",
						"executionCost": "infinite",
						"totalCost": "infinite"
					},
					"external": {
						"claimReward()": "infinite",
						"emergencyWithdraw()": "infinite",
						"owner()": "2329",
						"renounceOwnership()": "infinite",
						"rewardRatePerSecond()": "2361",
						"setRewardRate(uint256)": "24507",
						"stake(uint256)": "infinite",
						"stakes(address)": "6746",
						"tolcoin()": "infinite",
						"transferOwnership(address)": "28404",
						"withdraw(uint256)": "infinite"
					},
					"internal": {
						"_updateReward(address)": "infinite"
					}
				},
				"methodIdentifiers": {
					"claimReward()": "b88a802f",
					"emergencyWithdraw()": "db2e21bc",
					"owner()": "8da5cb5b",
					"renounceOwnership()": "715018a6",
					"rewardRatePerSecond()": "5d773b2c",
					"setRewardRate(uint256)": "9e447fc6",
					"stake(uint256)": "a694fc3a",
					"stakes(address)": "16934fc4",
					"tolcoin()": "1859ea47",
					"transferOwnership(address)": "f2fde38b",
					"withdraw(uint256)": "2e1a7d4d"
				}
			},
			"storageLayout": {
				"storage": [
					{
						"astId": 8,
						"contract": "TolcoinStakingContract.sol:TolcoinStaking",
						"label": "_owner",
						"offset": 0,
						"slot": "0",
						"type": "t_address"
					},
					{
						"astId": 276,
						"contract": "TolcoinStakingContract.sol:TolcoinStaking",
						"label": "stakes",
						"offset": 0,
						"slot": "1",
						"type": "t_mapping(t_address,t_struct(StakeInfo)271_storage)"
					},
					{
						"astId": 279,
						"contract": "TolcoinStakingContract.sol:TolcoinStaking",
						"label": "rewardRatePerSecond",
						"offset": 0,
						"slot": "2",
						"type": "t_uint256"
					}
				],
				"types": {
					"t_address": {
						"encoding": "inplace",
						"label": "address",
						"numberOfBytes": "20"
					},
					"t_mapping(t_address,t_struct(StakeInfo)271_storage)": {
						"encoding": "mapping",
						"key": "t_address",
						"label": "mapping(address => struct TolcoinStaking.StakeInfo)",
						"numberOfBytes": "32",
						"value": "t_struct(StakeInfo)271_storage"
					},
					"t_struct(StakeInfo)271_storage": {
						"encoding": "inplace",
						"label": "struct TolcoinStaking.StakeInfo",
						"members": [
							{
								"astId": 266,
								"contract": "TolcoinStakingContract.sol:TolcoinStaking",
								"label": "amount",
								"offset": 0,
								"slot": "0",
								"type": "t_uint256"
							},
							{
								"astId": 268,
								"contract": "TolcoinStakingContract.sol:TolcoinStaking",
								"label": "timestamp",
								"offset": 0,
								"slot": "1",
								"type": "t_uint256"
							},
							{
								"astId": 270,
								"contract": "TolcoinStakingContract.sol:TolcoinStaking",
								"label": "rewardDebt",
								"offset": 0,
								"slot": "2",
								"type": "t_uint256"
							}
						],
						"numberOfBytes": "96"
					},
					"t_uint256": {
						"encoding": "inplace",
						"label": "uint256",
						"numberOfBytes": "32"
					}
				}
			},
			"userdoc": {
				"kind": "user",
				"methods": {},
				"version": 1
			}
		}
	}
}