{
	"data": {
		"bytecode": {
			"linkReferences": {},
			"object": "6080604052662386f26fc10000600a55600b805460ff1916600117905534801562000028575f80fd5b5060405162001f0338038062001f038339810160408190526200004b91620001de565b3383835f6200005b8382620002f3565b5060016200006a8282620002f3565b5050506001600160a01b0381166200009b57604051631e4fbdf760e01b81525f600482015260240160405180910390fd5b620000a681620000cc565b506007805460ff60a01b191690556009620000c28282620002f3565b50505050620003bf565b600780546001600160a01b038381166001600160a01b0319831681179093556040519116919082907f8be0079c531659141344cd1fd0a4f28419497f9722a3daafe3b4186f6b6457e0905f90a35050565b634e487b7160e01b5f52604160045260245ffd5b5f82601f83011262000141575f80fd5b81516001600160401b03808211156200015e576200015e6200011d565b604051601f8301601f19908116603f011681019082821181831017156200018957620001896200011d565b8160405283815260209250866020858801011115620001a6575f80fd5b5f91505b83821015620001c95785820183015181830184015290820190620001aa565b5f602085830101528094505050505092915050565b5f805f60608486031215620001f1575f80fd5b83516001600160401b038082111562000208575f80fd5b620002168783880162000131565b945060208601519150808211156200022c575f80fd5b6200023a8783880162000131565b9350604086015191508082111562000250575f80fd5b506200025f8682870162000131565b9150509250925092565b600181811c908216806200027e57607f821691505b6020821081036200029d57634e487b7160e01b5f52602260045260245ffd5b50919050565b601f821115620002ee57805f5260205f20601f840160051c81016020851015620002ca5750805b601f840160051c820191505b81811015620002eb575f8155600101620002d6565b50505b505050565b81516001600160401b038111156200030f576200030f6200011d565b620003278162000320845462000269565b84620002a3565b602080601f8311600181146200035d575f8415620003455750858301515b5f19600386901b1c1916600185901b178555620003b7565b5f85815260208120601f198616915b828110156200038d578886015182559484019460019091019084016200036c565b5085821015620003ab57878501515f19600388901b60f8161c191681555b505060018460011b0185555b505050505050565b611b3680620003cd5f395ff3fe608060405260043610610195575f3560e01c80636c0360eb116100e7578063a22cb46511610087578063d85d3d2711610062578063d85d3d271461044c578063e985e9c51461045f578063f2fde38b1461047e578063f4a0a5281461049d575f80fd5b8063a22cb465146103ef578063b88d4fde1461040e578063c87b56dd1461042d575f80fd5b80638456cb59116100c25780638456cb591461038b5780638da5cb5b1461039f57806395d89b41146103bc5780639b7c1c83146103d0575f80fd5b80636c0360eb1461034457806370a0823114610358578063715018a614610377575f80fd5b80633ccfd60b1161015257806355f804b31161012d57806355f804b3146102c55780635c975abb146102e45780636352211e146103025780636817c76c14610321575f80fd5b80633ccfd60b1461027e5780633f4ba83a1461029257806342842e0e146102a6575f80fd5b806301ffc9a71461019957806306fdde03146101cd578063081812fc146101ee578063095ea7b3146102255780630f4161aa1461024657806323b872dd1461025f575b5f80fd5b3480156101a4575f80fd5b506101b86101b33660046114cc565b6104bc565b60405190151581526020015b60405180910390f35b3480156101d8575f80fd5b506101e16104e6565b6040516101c49190611534565b3480156101f9575f80fd5b5061020d610208366004611546565b610575565b6040516001600160a01b0390911681526020016101c4565b348015610230575f80fd5b5061024461023f366004611578565b61059c565b005b348015610251575f80fd5b50600b546101b89060ff1681565b34801561026a575f80fd5b506102446102793660046115a0565b6105ab565b348015610289575f80fd5b50610244610639565b34801561029d575f80fd5b5061024461067a565b3480156102b1575f80fd5b506102446102c03660046115a0565b61068c565b3480156102d0575f80fd5b506102446102df3660046115d9565b6106ab565b3480156102ef575f80fd5b50600754600160a01b900460ff166101b8565b34801561030d575f80fd5b5061020d61031c366004611546565b6106c0565b34801561032c575f80fd5b50610336600a5481565b6040519081526020016101c4565b34801561034f575f80fd5b506101e16106ca565b348015610363575f80fd5b50610336610372366004611645565b610756565b348015610382575f80fd5b5061024461079b565b348015610396575f80fd5b506102446107ac565b3480156103aa575f80fd5b506007546001600160a01b031661020d565b3480156103c7575f80fd5b506101e16107bc565b3480156103db575f80fd5b506102446103ea36600461166d565b6107cb565b3480156103fa575f80fd5b50610244610409366004611686565b6107e6565b348015610419575f80fd5b506102446104283660046116cb565b6107f1565b348015610438575f80fd5b506101e1610447366004611546565b610809565b61024461045a3660046115d9565b610858565b34801561046a575f80fd5b506101b86104793660046117a0565b6109c1565b348015610489575f80fd5b50610244610498366004611645565b6109ee565b3480156104a8575f80fd5b506102446104b7366004611546565b610a28565b5f6001600160e01b03198216632483248360e11b14806104e057506104e082610a35565b92915050565b60605f80546104f4906117c8565b80601f0160208091040260200160405190810160405280929190818152602001828054610520906117c8565b801561056b5780601f106105425761010080835404028352916020019161056b565b820191905f5260205f20905b81548152906001019060200180831161054e57829003601f168201915b5050505050905090565b5f61057f82610a84565b505f828152600460205260409020546001600160a01b03166104e0565b6105a7828233610abc565b5050565b6001600160a01b0382166105d957604051633250574960e11b81525f60048201526024015b60405180910390fd5b5f6105e5838333610ac9565b9050836001600160a01b0316816001600160a01b031614610633576040516364283d7b60e01b81526001600160a01b03808616600483015260248201849052821660448201526064016105d0565b50505050565b610641610bbb565b6007546040516001600160a01b03909116904780156108fc02915f818181858888f19350505050158015610677573d5f803e3d5ffd5b50565b610682610bbb565b61068a610be8565b565b6106a683838360405180602001604052805f8152506107f1565b505050565b6106b3610bbb565b60096106a6828483611844565b5f6104e082610a84565b600980546106d7906117c8565b80601f0160208091040260200160405190810160405280929190818152602001828054610703906117c8565b801561074e5780601f106107255761010080835404028352916020019161074e565b820191905f5260205f20905b81548152906001019060200180831161073157829003601f168201915b505050505081565b5f6001600160a01b038216610780576040516322718ad960e21b81525f60048201526024016105d0565b506001600160a01b03165f9081526003602052604090205490565b6107a3610bbb565b61068a5f610c3d565b6107b4610bbb565b61068a610c8e565b6060600180546104f4906117c8565b6107d3610bbb565b600b805460ff1916911515919091179055565b6105a7338383610cd1565b6107fc8484846105ab565b6106333385858585610d67565b60605f61081583610e8f565b90505f81511161084f57600961082a84610f9a565b60405160200161083b9291906118fe565b604051602081830303815290604052610851565b805b9392505050565b61086061102a565b600b5460ff168061087b57506007546001600160a01b031633145b6108bd5760405162461bcd60e51b8152602060048201526013602482015272135a5b9d1a5b99c81b9bdd08185b1b1bddd959606a1b60448201526064016105d0565b6007546001600160a01b03163314806108d85750600a543410155b6109155760405162461bcd60e51b815260206004820152600e60248201526d09cdee840cadcdeeaced0408aa8960931b60448201526064016105d0565b5f61091f60085490565b905061092f600880546001019055565b6109393382611077565b6109788184848080601f0160208091040260200160405190810160405280939291908181526020018383808284375f9201919091525061109092505050565b80336001600160a01b03167fd35bb95e09c04b219e35047ce7b7b300e3384264ef84a40456943dbc0fc17c1485856040516109b4929190611991565b60405180910390a3505050565b6001600160a01b039182165f90815260056020908152604080832093909416825291909152205460ff1690565b6109f6610bbb565b6001600160a01b038116610a1f57604051631e4fbdf760e01b81525f60048201526024016105d0565b61067781610c3d565b610a30610bbb565b600a55565b5f6001600160e01b031982166380ac58cd60e01b1480610a6557506001600160e01b03198216635b5e139f60e01b145b806104e057506301ffc9a760e01b6001600160e01b03198316146104e0565b5f818152600260205260408120546001600160a01b03168061084f57604051637e27328960e01b8152600481018490526024016105d0565b6106a683838360016110df565b5f828152600260205260408120546001600160a01b0390811690831615610af557610af58184866111e3565b6001600160a01b03811615610b2f57610b105f855f806110df565b6001600160a01b0381165f90815260036020526040902080545f190190555b6001600160a01b03851615610b5d576001600160a01b0385165f908152600360205260409020805460010190555b5f8481526002602052604080822080546001600160a01b0319166001600160a01b0389811691821790925591518793918516917fddf252ad1be2c89b69c2b068fc378daa952ba7f163c4a11628f55a4df523b3ef91a4949350505050565b6007546001600160a01b0316331461068a5760405163118cdaa760e01b81523360048201526024016105d0565b610bf0611247565b6007805460ff60a01b191690557f5db9ee0a495bf2e6ff9c91a7834c1ba4fdd244a5e8aa4e537bd38aeae4b073aa335b6040516001600160a01b03909116815260200160405180910390a1565b600780546001600160a01b038381166001600160a01b0319831681179093556040519116919082907f8be0079c531659141344cd1fd0a4f28419497f9722a3daafe3b4186f6b6457e0905f90a35050565b610c9661102a565b6007805460ff60a01b1916600160a01b1790557f62e78cea01bee320cd4e420270b5ea74000d11b0c9f74754ebdbfc544b05a258610c203390565b6001600160a01b038216610d0357604051630b61174360e31b81526001600160a01b03831660048201526024016105d0565b6001600160a01b038381165f81815260056020908152604080832094871680845294825291829020805460ff191686151590811790915591519182527f17307eab39ab6107e8899845ad3d59bd9653f200f220920489ca2b5937696c3191016109b4565b6001600160a01b0383163b15610e8857604051630a85bd0160e11b81526001600160a01b0384169063150b7a0290610da99088908890879087906004016119bf565b6020604051808303815f875af1925050508015610de3575060408051601f3d908101601f19168201909252610de0918101906119fb565b60015b610e4a573d808015610e10576040519150601f19603f3d011682016040523d82523d5f602084013e610e15565b606091505b5080515f03610e4257604051633250574960e11b81526001600160a01b03851660048201526024016105d0565b805181602001fd5b6001600160e01b03198116630a85bd0160e11b14610e8657604051633250574960e11b81526001600160a01b03851660048201526024016105d0565b505b5050505050565b6060610e9a82610a84565b505f8281526006602052604081208054610eb3906117c8565b80601f0160208091040260200160405190810160405280929190818152602001828054610edf906117c8565b8015610f2a5780601f10610f0157610100808354040283529160200191610f2a565b820191905f5260205f20905b815481529060010190602001808311610f0d57829003601f168201915b505050505090505f610f4660408051602081019091525f815290565b905080515f03610f57575092915050565b815115610f89578082604051602001610f71929190611a16565b60405160208183030381529060405292505050919050565b610f9284611297565b949350505050565b60605f610fa683611307565b60010190505f8167ffffffffffffffff811115610fc557610fc56116b7565b6040519080825280601f01601f191660200182016040528015610fef576020820181803683370190505b5090508181016020015b5f19016f181899199a1a9b1b9c1cb0b131b232b360811b600a86061a8153600a8504945084610ff957509392505050565b600754600160a01b900460ff161561068a5760405162461bcd60e51b815260206004820152601060248201526f14185d5cd8589b194e881c185d5cd95960821b60448201526064016105d0565b6105a7828260405180602001604052805f8152506113de565b5f8281526006602052604090206110a78282611a44565b506040518281527ff8e1a15aba9398e019f0b49df1a4fde98ee17ae345cb5f6b5e2c27f5033e8ce79060200160405180910390a15050565b80806110f357506001600160a01b03821615155b156111b4575f61110284610a84565b90506001600160a01b0383161580159061112e5750826001600160a01b0316816001600160a01b031614155b8015611141575061113f81846109c1565b155b1561116a5760405163a9fbf51f60e01b81526001600160a01b03841660048201526024016105d0565b81156111b25783856001600160a01b0316826001600160a01b03167f8c5be1e5ebec7d5bd14f71427d1e84f3dd0314c0f7b2291e5b200ac8c7c3b92560405160405180910390a45b505b50505f90815260046020526040902080546001600160a01b0319166001600160a01b0392909216919091179055565b6111ee8383836113f5565b6106a6576001600160a01b03831661121c57604051637e27328960e01b8152600481018290526024016105d0565b60405163177e802f60e01b81526001600160a01b0383166004820152602481018290526044016105d0565b600754600160a01b900460ff1661068a5760405162461bcd60e51b815260206004820152601460248201527314185d5cd8589b194e881b9bdd081c185d5cd95960621b60448201526064016105d0565b60606112a282610a84565b505f6112b860408051602081019091525f815290565b90505f8151116112d65760405180602001604052805f815250610851565b806112e084610f9a565b6040516020016112f1929190611a16565b6040516020818303038152906040529392505050565b5f8072184f03e93ff9f4daa797ed6e38ed64bf6a1f0160401b83106113455772184f03e93ff9f4daa797ed6e38ed64bf6a1f0160401b830492506040015b6d04ee2d6d415b85acef81000000008310611371576d04ee2d6d415b85acef8100000000830492506020015b662386f26fc10000831061138f57662386f26fc10000830492506010015b6305f5e10083106113a7576305f5e100830492506008015b61271083106113bb57612710830492506004015b606483106113cd576064830492506002015b600a831061084f5760010192915050565b6113e88383611456565b6106a6335f858585610d67565b5f6001600160a01b03831615801590610f925750826001600160a01b0316846001600160a01b0316148061142e575061142e84846109c1565b80610f925750505f908152600460205260409020546001600160a01b03908116911614919050565b6001600160a01b03821661147f57604051633250574960e11b81525f60048201526024016105d0565b5f61148b83835f610ac9565b90506001600160a01b038116156106a6576040516339e3563760e11b81525f60048201526024016105d0565b6001600160e01b031981168114610677575f80fd5b5f602082840312156114dc575f80fd5b8135610851816114b7565b5f5b838110156115015781810151838201526020016114e9565b50505f910152565b5f81518084526115208160208601602086016114e7565b601f01601f19169290920160200192915050565b602081525f6108516020830184611509565b5f60208284031215611556575f80fd5b5035919050565b80356001600160a01b0381168114611573575f80fd5b919050565b5f8060408385031215611589575f80fd5b6115928361155d565b946020939093013593505050565b5f805f606084860312156115b2575f80fd5b6115bb8461155d565b92506115c96020850161155d565b9150604084013590509250925092565b5f80602083850312156115ea575f80fd5b823567ffffffffffffffff80821115611601575f80fd5b818501915085601f830112611614575f80fd5b813581811115611622575f80fd5b866020828501011115611633575f80fd5b60209290920196919550909350505050565b5f60208284031215611655575f80fd5b6108518261155d565b80358015158114611573575f80fd5b5f6020828403121561167d575f80fd5b6108518261165e565b5f8060408385031215611697575f80fd5b6116a08361155d565b91506116ae6020840161165e565b90509250929050565b634e487b7160e01b5f52604160045260245ffd5b5f805f80608085870312156116de575f80fd5b6116e78561155d565b93506116f56020860161155d565b925060408501359150606085013567ffffffffffffffff80821115611718575f80fd5b818701915087601f83011261172b575f80fd5b81358181111561173d5761173d6116b7565b604051601f8201601f19908116603f01168101908382118183101715611765576117656116b7565b816040528281528a602084870101111561177d575f80fd5b826020860160208301375f60208483010152809550505050505092959194509250565b5f80604083850312156117b1575f80fd5b6117ba8361155d565b91506116ae6020840161155d565b600181811c908216806117dc57607f821691505b6020821081036117fa57634e487b7160e01b5f52602260045260245ffd5b50919050565b601f8211156106a657805f5260205f20601f840160051c810160208510156118255750805b601f840160051c820191505b81811015610e88575f8155600101611831565b67ffffffffffffffff83111561185c5761185c6116b7565b6118708361186a83546117c8565b83611800565b5f601f8411600181146118a1575f851561188a5750838201355b5f19600387901b1c1916600186901b178355610e88565b5f83815260208120601f198716915b828110156118d057868501358255602094850194600190920191016118b0565b50868210156118ec575f1960f88860031b161c19848701351681555b505060018560011b0183555050505050565b5f80845461190b816117c8565b60018281168015611923576001811461193857611964565b60ff1984168752821515830287019450611964565b885f526020805f205f5b8581101561195b5781548a820152908401908201611942565b50505082870194505b5050505083516119788183602088016114e7565b64173539b7b760d91b9101908152600501949350505050565b60208152816020820152818360408301375f818301604090810191909152601f909201601f19160101919050565b6001600160a01b03858116825284166020820152604081018390526080606082018190525f906119f190830184611509565b9695505050505050565b5f60208284031215611a0b575f80fd5b8151610851816114b7565b5f8351611a278184602088016114e7565b835190830190611a3b8183602088016114e7565b01949350505050565b815167ffffffffffffffff811115611a5e57611a5e6116b7565b611a7281611a6c84546117c8565b84611800565b602080601f831160018114611aa5575f8415611a8e5750858301515b5f19600386901b1c1916600185901b178555610e86565b5f85815260208120601f198616915b82811015611ad357888601518255948401946001909101908401611ab4565b5085821015611af057878501515f19600388901b60f8161c191681555b5050505050600190811b0190555056fea2646970667358221220077fb6d5041f8d4d6ee3d6dd528cbd1f2abbe7201fb53d39d60603b08fdc561464736f6c63430008180033",
			"opcodes": "PUSH1 0x80 PUSH1 0x40 MSTORE PUSH7 0x2386F26FC10000 PUSH1 0xA SSTORE PUSH1 0xB DUP1 SLOAD PUSH1 0xFF NOT AND PUSH1 0x1 OR SWAP1 SSTORE CALLVALUE DUP1 ISZERO PUSH3 0x28 JUMPI PUSH0 DUP1 REVERT JUMPDEST POP PUSH1 0x40 MLOAD PUSH3 0x1F03 CODESIZE SUB DUP1 PUSH3 0x1F03 DUP4 CODECOPY DUP2 ADD PUSH1 0x40 DUP2 SWAP1 MSTORE PUSH3 0x4B SWAP2 PUSH3 0x1DE JUMP JUMPDEST CALLER DUP4 DUP4 PUSH0 PUSH3 0x5B DUP4 DUP3 PUSH3 0x2F3 JUMP JUMPDEST POP PUSH1 0x1 PUSH3 0x6A DUP3 DUP3 PUSH3 0x2F3 JUMP JUMPDEST POP POP POP PUSH1 0x1 PUSH1 0x1 PUSH1 0xA0 SHL SUB DUP2 AND PUSH3 0x9B JUMPI PUSH1 0x40 MLOAD PUSH4 0x1E4FBDF7 PUSH1 0xE0 SHL DUP2 MSTORE PUSH0 PUSH1 0x4 DUP3 ADD MSTORE PUSH1 0x24 ADD PUSH1 0x40 MLOAD DUP1 SWAP2 SUB SWAP1 REVERT JUMPDEST PUSH3 0xA6 DUP2 PUSH3 0xCC JUMP JUMPDEST POP PUSH1 0x7 DUP1 SLOAD PUSH1 0xFF PUSH1 0xA0 SHL NOT AND SWAP1 SSTORE PUSH1 0x9 PUSH3 0xC2 DUP3 DUP3 PUSH3 0x2F3 JUMP JUMPDEST POP POP POP POP PUSH3 0x3BF JUMP JUMPDEST PUSH1 0x7 DUP1 SLOAD PUSH1 0x1 PUSH1 0x1 PUSH1 0xA0 SHL SUB DUP4 DUP2 AND PUSH1 0x1 PUSH1 0x1 PUSH1 0xA0 SHL SUB NOT DUP4 AND DUP2 OR SWAP1 SWAP4 SSTORE PUSH1 0x40 MLOAD SWAP2 AND SWAP2 SWAP1 DUP3 SWAP1 PUSH32 0x8BE0079C531659141344CD1FD0A4F28419497F9722A3DAAFE3B4186F6B6457E0 SWAP1 PUSH0 SWAP1 LOG3 POP POP JUMP JUMPDEST PUSH4 0x4E487B71 PUSH1 0xE0 SHL PUSH0 MSTORE PUSH1 0x41 PUSH1 0x4 MSTORE PUSH1 0x24 PUSH0 REVERT JUMPDEST PUSH0 DUP3 PUSH1 0x1F DUP4 ADD SLT PUSH3 0x141 JUMPI PUSH0 DUP1 REVERT JUMPDEST DUP2 MLOAD PUSH1 0x1 PUSH1 0x1 PUSH1 0x40 SHL SUB DUP1 DUP3 GT ISZERO PUSH3 0x15E JUMPI PUSH3 0x15E PUSH3 0x11D JUMP JUMPDEST PUSH1 0x40 MLOAD PUSH1 0x1F DUP4 ADD PUSH1 0x1F NOT SWAP1 DUP2 AND PUSH1 0x3F ADD AND DUP2 ADD SWAP1 DUP3 DUP3 GT DUP2 DUP4 LT OR ISZERO PUSH3 0x189 JUMPI PUSH3 0x189 PUSH3 0x11D JUMP JUMPDEST DUP2 PUSH1 0x40 MSTORE DUP4 DUP2 MSTORE PUSH1 0x20 SWAP3 POP DUP7 PUSH1 0x20 DUP6 DUP9 ADD ADD GT ISZERO PUSH3 0x1A6 JUMPI PUSH0 DUP1 REVERT JUMPDEST PUSH0 SWAP2 POP JUMPDEST DUP4 DUP3 LT ISZERO PUSH3 0x1C9 JUMPI DUP6 DUP3 ADD DUP4 ADD MLOAD DUP2 DUP4 ADD DUP5 ADD MSTORE SWAP1 DUP3 ADD SWAP1 PUSH3 0x1AA JUMP JUMPDEST PUSH0 PUSH1 0x20 DUP6 DUP4 ADD ADD MSTORE DUP1 SWAP5 POP POP POP POP POP SWAP3 SWAP2 POP POP JUMP JUMPDEST PUSH0 DUP1 PUSH0 PUSH1 0x60 DUP5 DUP7 SUB SLT ISZERO PUSH3 0x1F1 JUMPI PUSH0 DUP1 REVERT JUMPDEST DUP4 MLOAD PUSH1 0x1 PUSH1 0x1 PUSH1 0x40 SHL SUB DUP1 DUP3 GT ISZERO PUSH3 0x208 JUMPI PUSH0 DUP1 REVERT JUMPDEST PUSH3 0x216 DUP8 DUP4 DUP9 ADD PUSH3 0x131 JUMP JUMPDEST SWAP5 POP PUSH1 0x20 DUP7 ADD MLOAD SWAP2 POP DUP1 DUP3 GT ISZERO PUSH3 0x22C JUMPI PUSH0 DUP1 REVERT JUMPDEST PUSH3 0x23A DUP8 DUP4 DUP9 ADD PUSH3 0x131 JUMP JUMPDEST SWAP4 POP PUSH1 0x40 DUP7 ADD MLOAD SWAP2 POP DUP1 DUP3 GT ISZERO PUSH3 0x250 JUMPI PUSH0 DUP1 REVERT JUMPDEST POP PUSH3 0x25F DUP7 DUP3 DUP8 ADD PUSH3 0x131 JUMP JUMPDEST SWAP2 POP POP SWAP3 POP SWAP3 POP SWAP3 JUMP JUMPDEST PUSH1 0x1 DUP2 DUP2 SHR SWAP1 DUP3 AND DUP1 PUSH3 0x27E JUMPI PUSH1 0x7F DUP3 AND SWAP2 POP JUMPDEST PUSH1 0x20 DUP3 LT DUP2 SUB PUSH3 0x29D JUMPI PUSH4 0x4E487B71 PUSH1 0xE0 SHL PUSH0 MSTORE PUSH1 0x22 PUSH1 0x4 MSTORE PUSH1 0x24 PUSH0 REVERT JUMPDEST POP SWAP2 SWAP1 POP JUMP JUMPDEST PUSH1 0x1F DUP3 GT ISZERO PUSH3 0x2EE JUMPI DUP1 PUSH0 MSTORE PUSH1 0x20 PUSH0 KECCAK256 PUSH1 0x1F DUP5 ADD PUSH1 0x5 SHR DUP2 ADD PUSH1 0x20 DUP6 LT ISZERO PUSH3 0x2CA JUMPI POP DUP1 JUMPDEST PUSH1 0x1F DUP5 ADD PUSH1 0x5 SHR DUP3 ADD SWAP2 POP JUMPDEST DUP2 DUP2 LT ISZERO PUSH3 0x2EB JUMPI PUSH0 DUP2 SSTORE PUSH1 0x1 ADD PUSH3 0x2D6 JUMP JUMPDEST POP POP JUMPDEST POP POP POP JUMP JUMPDEST DUP2 MLOAD PUSH1 0x1 PUSH1 0x1 PUSH1 0x40 SHL SUB DUP2 GT ISZERO PUSH3 0x30F JUMPI PUSH3 0x30F PUSH3 0x11D JUMP JUMPDEST PUSH3 0x327 DUP2 PUSH3 0x320 DUP5 SLOAD PUSH3 0x269 JUMP JUMPDEST DUP5 PUSH3 0x2A3 JUMP JUMPDEST PUSH1 0x20 DUP1 PUSH1 0x1F DUP4 GT PUSH1 0x1 DUP2 EQ PUSH3 0x35D JUMPI PUSH0 DUP5 ISZERO PUSH3 0x345 JUMPI POP DUP6 DUP4 ADD MLOAD JUMPDEST PUSH0 NOT PUSH1 0x3 DUP7 SWAP1 SHL SHR NOT AND PUSH1 0x1 DUP6 SWAP1 SHL OR DUP6 SSTORE PUSH3 0x3B7 JUMP JUMPDEST PUSH0 DUP6 DUP2 MSTORE PUSH1 0x20 DUP2 KECCAK256 PUSH1 0x1F NOT DUP7 AND SWAP2 JUMPDEST DUP3 DUP2 LT ISZERO PUSH3 0x38D JUMPI DUP9 DUP7 ADD MLOAD DUP3 SSTORE SWAP5 DUP5 ADD SWAP5 PUSH1 0x1 SWAP1 SWAP2 ADD SWAP1 DUP5 ADD PUSH3 0x36C JUMP JUMPDEST POP DUP6 DUP3 LT ISZERO PUSH3 0x3AB JUMPI DUP8 DUP6 ADD MLOAD PUSH0 NOT PUSH1 0x3 DUP9 SWAP1 SHL PUSH1 0xF8 AND SHR NOT AND DUP2 SSTORE JUMPDEST POP POP PUSH1 0x1 DUP5 PUSH1 0x1 SHL ADD DUP6 SSTORE JUMPDEST POP POP POP POP POP POP JUMP JUMPDEST PUSH2 0x1B36 DUP1 PUSH3 0x3CD PUSH0 CODECOPY PUSH0 RETURN INVALID PUSH1 0x80 PUSH1 0x40 MSTORE PUSH1 0x4 CALLDATASIZE LT PUSH2 0x195 JUMPI PUSH0 CALLDATALOAD PUSH1 0xE0 SHR DUP1 PUSH4 0x6C0360EB GT PUSH2 0xE7 JUMPI DUP1 PUSH4 0xA22CB465 GT PUSH2 0x87 JUMPI DUP1 PUSH4 0xD85D3D27 GT PUSH2 0x62 JUMPI DUP1 PUSH4 0xD85D3D27 EQ PUSH2 0x44C JUMPI DUP1 PUSH4 0xE985E9C5 EQ PUSH2 0x45F JUMPI DUP1 PUSH4 0xF2FDE38B EQ PUSH2 0x47E JUMPI DUP1 PUSH4 0xF4A0A528 EQ PUSH2 0x49D JUMPI PUSH0 DUP1 REVERT JUMPDEST DUP1 PUSH4 0xA22CB465 EQ PUSH2 0x3EF JUMPI DUP1 PUSH4 0xB88D4FDE EQ PUSH2 0x40E JUMPI DUP1 PUSH4 0xC87B56DD EQ PUSH2 0x42D JUMPI PUSH0 DUP1 REVERT JUMPDEST DUP1 PUSH4 0x8456CB59 GT PUSH2 0xC2 JUMPI DUP1 PUSH4 0x8456CB59 EQ PUSH2 0x38B JUMPI DUP1 PUSH4 0x8DA5CB5B EQ PUSH2 0x39F JUMPI DUP1 PUSH4 0x95D89B41 EQ PUSH2 0x3BC JUMPI DUP1 PUSH4 0x9B7C1C83 EQ PUSH2 0x3D0 JUMPI PUSH0 DUP1 REVERT JUMPDEST DUP1 PUSH4 0x6C0360EB EQ PUSH2 0x344 JUMPI DUP1 PUSH4 0x70A08231 EQ PUSH2 0x358 JUMPI DUP1 PUSH4 0x715018A6 EQ PUSH2 0x377 JUMPI PUSH0 DUP1 REVERT JUMPDEST DUP1 PUSH4 0x3CCFD60B GT PUSH2 0x152 JUMPI DUP1 PUSH4 0x55F804B3 GT PUSH2 0x12D JUMPI DUP1 PUSH4 0x55F804B3 EQ PUSH2 0x2C5 JUMPI DUP1 PUSH4 0x5C975ABB EQ PUSH2 0x2E4 JUMPI DUP1 PUSH4 0x6352211E EQ PUSH2 0x302 JUMPI DUP1 PUSH4 0x6817C76C EQ PUSH2 0x321 JUMPI PUSH0 DUP1 REVERT JUMPDEST DUP1 PUSH4 0x3CCFD60B EQ PUSH2 0x27E JUMPI DUP1 PUSH4 0x3F4BA83A EQ PUSH2 0x292 JUMPI DUP1 PUSH4 0x42842E0E EQ PUSH2 0x2A6 JUMPI PUSH0 DUP1 REVERT JUMPDEST DUP1 PUSH4 0x1FFC9A7 EQ PUSH2 0x199 JUMPI DUP1 PUSH4 0x6FDDE03 EQ PUSH2 0x1CD JUMPI DUP1 PUSH4 0x81812FC EQ PUSH2 0x1EE JUMPI DUP1 PUSH4 0x95EA7B3 EQ PUSH2 0x225 JUMPI DUP1 PUSH4 0xF4161AA EQ PUSH2 0x246 JUMPI DUP1 PUSH4 0x23B872DD EQ PUSH2 0x25F JUMPI JUMPDEST PUSH0 DUP1 REVERT JUMPDEST CALLVALUE DUP1 ISZERO PUSH2 0x1A4 JUMPI PUSH0 DUP1 REVERT JUMPDEST POP PUSH2 0x1B8 PUSH2 0x1B3 CALLDATASIZE PUSH1 0x4 PUSH2 0x14CC JUMP JUMPDEST PUSH2 0x4BC JUMP JUMPDEST PUSH1 0x40 MLOAD SWAP1 ISZERO ISZERO DUP2 MSTORE PUSH1 0x20 ADD JUMPDEST PUSH1 0x40 MLOAD DUP1 SWAP2 SUB SWAP1 RETURN JUMPDEST CALLVALUE DUP1 ISZERO PUSH2 0x1D8 JUMPI PUSH0 DUP1 REVERT JUMPDEST POP PUSH2 0x1E1 PUSH2 0x4E6 JUMP JUMPDEST PUSH1 0x40 MLOAD PUSH2 0x1C4 SWAP2 SWAP1 PUSH2 0x1534 JUMP JUMPDEST CALLVALUE DUP1 ISZERO PUSH2 0x1F9 JUMPI PUSH0 DUP1 REVERT JUMPDEST POP PUSH2 0x20D PUSH2 0x208 CALLDATASIZE PUSH1 0x4 PUSH2 0x1546 JUMP JUMPDEST PUSH2 0x575 JUMP JUMPDEST PUSH1 0x40 MLOAD PUSH1 0x1 PUSH1 0x1 PUSH1 0xA0 SHL SUB SWAP1 SWAP2 AND DUP2 MSTORE PUSH1 0x20 ADD PUSH2 0x1C4 JUMP JUMPDEST CALLVALUE DUP1 ISZERO PUSH2 0x230 JUMPI PUSH0 DUP1 REVERT JUMPDEST POP PUSH2 0x244 PUSH2 0x23F CALLDATASIZE PUSH1 0x4 PUSH2 0x1578 JUMP JUMPDEST PUSH2 0x59C JUMP JUMPDEST STOP JUMPDEST CALLVALUE DUP1 ISZERO PUSH2 0x251 JUMPI PUSH0 DUP1 REVERT JUMPDEST POP PUSH1 0xB SLOAD PUSH2 0x1B8 SWAP1 PUSH1 0xFF AND DUP2 JUMP JUMPDEST CALLVALUE DUP1 ISZERO PUSH2 0x26A JUMPI PUSH0 DUP1 REVERT JUMPDEST POP PUSH2 0x244 PUSH2 0x279 CALLDATASIZE PUSH1 0x4 PUSH2 0x15A0 JUMP JUMPDEST PUSH2 0x5AB JUMP JUMPDEST CALLVALUE DUP1 ISZERO PUSH2 0x289 JUMPI PUSH0 DUP1 REVERT JUMPDEST POP PUSH2 0x244 PUSH2 0x639 JUMP JUMPDEST CALLVALUE DUP1 ISZERO PUSH2 0x29D JUMPI PUSH0 DUP1 REVERT JUMPDEST POP PUSH2 0x244 PUSH2 0x67A JUMP JUMPDEST CALLVALUE DUP1 ISZERO PUSH2 0x2B1 JUMPI PUSH0 DUP1 REVERT JUMPDEST POP PUSH2 0x244 PUSH2 0x2C0 CALLDATASIZE PUSH1 0x4 PUSH2 0x15A0 JUMP JUMPDEST PUSH2 0x68C JUMP JUMPDEST CALLVALUE DUP1 ISZERO PUSH2 0x2D0 JUMPI PUSH0 DUP1 REVERT JUMPDEST POP PUSH2 0x244 PUSH2 0x2DF CALLDATASIZE PUSH1 0x4 PUSH2 0x15D9 JUMP JUMPDEST PUSH2 0x6AB JUMP JUMPDEST CALLVALUE DUP1 ISZERO PUSH2 0x2EF JUMPI PUSH0 DUP1 REVERT JUMPDEST POP PUSH1 0x7 SLOAD PUSH1 0x1 PUSH1 0xA0 SHL SWAP1 DIV PUSH1 0xFF AND PUSH2 0x1B8 JUMP JUMPDEST CALLVALUE DUP1 ISZERO PUSH2 0x30D JUMPI PUSH0 DUP1 REVERT JUMPDEST POP PUSH2 0x20D PUSH2 0x31C CALLDATASIZE PUSH1 0x4 PUSH2 0x1546 JUMP JUMPDEST PUSH2 0x6C0 JUMP JUMPDEST CALLVALUE DUP1 ISZERO PUSH2 0x32C JUMPI PUSH0 DUP1 REVERT JUMPDEST POP PUSH2 0x336 PUSH1 0xA SLOAD DUP2 JUMP JUMPDEST PUSH1 0x40 MLOAD SWAP1 DUP2 MSTORE PUSH1 0x20 ADD PUSH2 0x1C4 JUMP JUMPDEST CALLVALUE DUP1 ISZERO PUSH2 0x34F JUMPI PUSH0 DUP1 REVERT JUMPDEST POP PUSH2 0x1E1 PUSH2 0x6CA JUMP JUMPDEST CALLVALUE DUP1 ISZERO PUSH2 0x363 JUMPI PUSH0 DUP1 REVERT JUMPDEST POP PUSH2 0x336 PUSH2 0x372 CALLDATASIZE PUSH1 0x4 PUSH2 0x1645 JUMP JUMPDEST PUSH2 0x756 JUMP JUMPDEST CALLVALUE DUP1 ISZERO PUSH2 0x382 JUMPI PUSH0 DUP1 REVERT JUMPDEST POP PUSH2 0x244 PUSH2 0x79B JUMP JUMPDEST CALLVALUE DUP1 ISZERO PUSH2 0x396 JUMPI PUSH0 DUP1 REVERT JUMPDEST POP PUSH2 0x244 PUSH2 0x7AC JUMP JUMPDEST CALLVALUE DUP1 ISZERO PUSH2 0x3AA JUMPI PUSH0 DUP1 REVERT JUMPDEST POP PUSH1 0x7 SLOAD PUSH1 0x1 PUSH1 0x1 PUSH1 0xA0 SHL SUB AND PUSH2 0x20D JUMP JUMPDEST CALLVALUE DUP1 ISZERO PUSH2 0x3C7 JUMPI PUSH0 DUP1 REVERT JUMPDEST POP PUSH2 0x1E1 PUSH2 0x7BC JUMP JUMPDEST CALLVALUE DUP1 ISZERO PUSH2 0x3DB JUMPI PUSH0 DUP1 REVERT JUMPDEST POP PUSH2 0x244 PUSH2 0x3EA CALLDATASIZE PUSH1 0x4 PUSH2 0x166D JUMP JUMPDEST PUSH2 0x7CB JUMP JUMPDEST CALLVALUE DUP1 ISZERO PUSH2 0x3FA JUMPI PUSH0 DUP1 REVERT JUMPDEST POP PUSH2 0x244 PUSH2 0x409 CALLDATASIZE PUSH1 0x4 PUSH2 0x1686 JUMP JUMPDEST PUSH2 0x7E6 JUMP JUMPDEST CALLVALUE DUP1 ISZERO PUSH2 0x419 JUMPI PUSH0 DUP1 REVERT JUMPDEST POP PUSH2 0x244 PUSH2 0x428 CALLDATASIZE PUSH1 0x4 PUSH2 0x16CB JUMP JUMPDEST PUSH2 0x7F1 JUMP JUMPDEST CALLVALUE DUP1 ISZERO PUSH2 0x438 JUMPI PUSH0 DUP1 REVERT JUMPDEST POP PUSH2 0x1E1 PUSH2 0x447 CALLDATASIZE PUSH1 0x4 PUSH2 0x1546 JUMP JUMPDEST PUSH2 0x809 JUMP JUMPDEST PUSH2 0x244 PUSH2 0x45A CALLDATASIZE PUSH1 0x4 PUSH2 0x15D9 JUMP JUMPDEST PUSH2 0x858 JUMP JUMPDEST CALLVALUE DUP1 ISZERO PUSH2 0x46A JUMPI PUSH0 DUP1 REVERT JUMPDEST POP PUSH2 0x1B8 PUSH2 0x479 CALLDATASIZE PUSH1 0x4 PUSH2 0x17A0 JUMP JUMPDEST PUSH2 0x9C1 JUMP JUMPDEST CALLVALUE DUP1 ISZERO PUSH2 0x489 JUMPI PUSH0 DUP1 REVERT JUMPDEST POP PUSH2 0x244 PUSH2 0x498 CALLDATASIZE PUSH1 0x4 PUSH2 0x1645 JUMP JUMPDEST PUSH2 0x9EE JUMP JUMPDEST CALLVALUE DUP1 ISZERO PUSH2 0x4A8 JUMPI PUSH0 DUP1 REVERT JUMPDEST POP PUSH2 0x244 PUSH2 0x4B7 CALLDATASIZE PUSH1 0x4 PUSH2 0x1546 JUMP JUMPDEST PUSH2 0xA28 JUMP JUMPDEST PUSH0 PUSH1 0x1 PUSH1 0x1 PUSH1 0xE0 SHL SUB NOT DUP3 AND PUSH4 0x24832483 PUSH1 0xE1 SHL EQ DUP1 PUSH2 0x4E0 JUMPI POP PUSH2 0x4E0 DUP3 PUSH2 0xA35 JUMP JUMPDEST SWAP3 SWAP2 POP POP JUMP JUMPDEST PUSH1 0x60 PUSH0 DUP1 SLOAD PUSH2 0x4F4 SWAP1 PUSH2 0x17C8 JUMP JUMPDEST DUP1 PUSH1 0x1F ADD PUSH1 0x20 DUP1 SWAP2 DIV MUL PUSH1 0x20 ADD PUSH1 0x40 MLOAD SWAP1 DUP2 ADD PUSH1 0x40 MSTORE DUP1 SWAP3 SWAP2 SWAP1 DUP2 DUP2 MSTORE PUSH1 0x20 ADD DUP3 DUP1 SLOAD PUSH2 0x520 SWAP1 PUSH2 0x17C8 JUMP JUMPDEST DUP1 ISZERO PUSH2 0x56B JUMPI DUP1 PUSH1 0x1F LT PUSH2 0x542 JUMPI PUSH2 0x100 DUP1 DUP4 SLOAD DIV MUL DUP4 MSTORE SWAP2 PUSH1 0x20 ADD SWAP2 PUSH2 0x56B JUMP JUMPDEST DUP3 ADD SWAP2 SWAP1 PUSH0 MSTORE PUSH1 0x20 PUSH0 KECCAK256 SWAP1 JUMPDEST DUP2 SLOAD DUP2 MSTORE SWAP1 PUSH1 0x1 ADD SWAP1 PUSH1 0x20 ADD DUP1 DUP4 GT PUSH2 0x54E JUMPI DUP3 SWAP1 SUB PUSH1 0x1F AND DUP3 ADD SWAP2 JUMPDEST POP POP POP POP POP SWAP1 POP SWAP1 JUMP JUMPDEST PUSH0 PUSH2 0x57F DUP3 PUSH2 0xA84 JUMP JUMPDEST POP PUSH0 DUP3 DUP2 MSTORE PUSH1 0x4 PUSH1 0x20 MSTORE PUSH1 0x40 SWAP1 KECCAK256 SLOAD PUSH1 0x1 PUSH1 0x1 PUSH1 0xA0 SHL SUB AND PUSH2 0x4E0 JUMP JUMPDEST PUSH2 0x5A7 DUP3 DUP3 CALLER PUSH2 0xABC JUMP JUMPDEST POP POP JUMP JUMPDEST PUSH1 0x1 PUSH1 0x1 PUSH1 0xA0 SHL SUB DUP3 AND PUSH2 0x5D9 JUMPI PUSH1 0x40 MLOAD PUSH4 0x32505749 PUSH1 0xE1 SHL DUP2 MSTORE PUSH0 PUSH1 0x4 DUP3 ADD MSTORE PUSH1 0x24 ADD JUMPDEST PUSH1 0x40 MLOAD DUP1 SWAP2 SUB SWAP1 REVERT JUMPDEST PUSH0 PUSH2 0x5E5 DUP4 DUP4 CALLER PUSH2 0xAC9 JUMP JUMPDEST SWAP1 POP DUP4 PUSH1 0x1 PUSH1 0x1 PUSH1 0xA0 SHL SUB AND DUP2 PUSH1 0x1 PUSH1 0x1 PUSH1 0xA0 SHL SUB AND EQ PUSH2 0x633 JUMPI PUSH1 0x40 MLOAD PUSH4 0x64283D7B PUSH1 0xE0 SHL DUP2 MSTORE PUSH1 0x1 PUSH1 0x1 PUSH1 0xA0 SHL SUB DUP1 DUP7 AND PUSH1 0x4 DUP4 ADD MSTORE PUSH1 0x24 DUP3 ADD DUP5 SWAP1 MSTORE DUP3 AND PUSH1 0x44 DUP3 ADD MSTORE PUSH1 0x64 ADD PUSH2 0x5D0 JUMP JUMPDEST POP POP POP POP JUMP JUMPDEST PUSH2 0x641 PUSH2 0xBBB JUMP JUMPDEST PUSH1 0x7 SLOAD PUSH1 0x40 MLOAD PUSH1 0x1 PUSH1 0x1 PUSH1 0xA0 SHL SUB SWAP1 SWAP2 AND SWAP1 SELFBALANCE DUP1 ISZERO PUSH2 0x8FC MUL SWAP2 PUSH0 DUP2 DUP2 DUP2 DUP6 DUP9 DUP9 CALL SWAP4 POP POP POP POP ISZERO DUP1 ISZERO PUSH2 0x677 JUMPI RETURNDATASIZE PUSH0 DUP1 RETURNDATACOPY RETURNDATASIZE PUSH0 REVERT JUMPDEST POP JUMP JUMPDEST PUSH2 0x682 PUSH2 0xBBB JUMP JUMPDEST PUSH2 0x68A PUSH2 0xBE8 JUMP JUMPDEST JUMP JUMPDEST PUSH2 0x6A6 DUP4 DUP4 DUP4 PUSH1 0x40 MLOAD DUP1 PUSH1 0x20 ADD PUSH1 0x40 MSTORE DUP1 PUSH0 DUP2 MSTORE POP PUSH2 0x7F1 JUMP JUMPDEST POP POP POP JUMP JUMPDEST PUSH2 0x6B3 PUSH2 0xBBB JUMP JUMPDEST PUSH1 0x9 PUSH2 0x6A6 DUP3 DUP5 DUP4 PUSH2 0x1844 JUMP JUMPDEST PUSH0 PUSH2 0x4E0 DUP3 PUSH2 0xA84 JUMP JUMPDEST PUSH1 0x9 DUP1 SLOAD PUSH2 0x6D7 SWAP1 PUSH2 0x17C8 JUMP JUMPDEST DUP1 PUSH1 0x1F ADD PUSH1 0x20 DUP1 SWAP2 DIV MUL PUSH1 0x20 ADD PUSH1 0x40 MLOAD SWAP1 DUP2 ADD PUSH1 0x40 MSTORE DUP1 SWAP3 SWAP2 SWAP1 DUP2 DUP2 MSTORE PUSH1 0x20 ADD DUP3 DUP1 SLOAD PUSH2 0x703 SWAP1 PUSH2 0x17C8 JUMP JUMPDEST DUP1 ISZERO PUSH2 0x74E JUMPI DUP1 PUSH1 0x1F LT PUSH2 0x725 JUMPI PUSH2 0x100 DUP1 DUP4 SLOAD DIV MUL DUP4 MSTORE SWAP2 PUSH1 0x20 ADD SWAP2 PUSH2 0x74E JUMP JUMPDEST DUP3 ADD SWAP2 SWAP1 PUSH0 MSTORE PUSH1 0x20 PUSH0 KECCAK256 SWAP1 JUMPDEST DUP2 SLOAD DUP2 MSTORE SWAP1 PUSH1 0x1 ADD SWAP1 PUSH1 0x20 ADD DUP1 DUP4 GT PUSH2 0x731 JUMPI DUP3 SWAP1 SUB PUSH1 0x1F AND DUP3 ADD SWAP2 JUMPDEST POP POP POP POP POP DUP2 JUMP JUMPDEST PUSH0 PUSH1 0x1 PUSH1 0x1 PUSH1 0xA0 SHL SUB DUP3 AND PUSH2 0x780 JUMPI PUSH1 0x40 MLOAD PUSH4 0x22718AD9 PUSH1 0xE2 SHL DUP2 MSTORE PUSH0 PUSH1 0x4 DUP3 ADD MSTORE PUSH1 0x24 ADD PUSH2 0x5D0 JUMP JUMPDEST POP PUSH1 0x1 PUSH1 0x1 PUSH1 0xA0 SHL SUB AND PUSH0 SWAP1 DUP2 MSTORE PUSH1 0x3 PUSH1 0x20 MSTORE PUSH1 0x40 SWAP1 KECCAK256 SLOAD SWAP1 JUMP JUMPDEST PUSH2 0x7A3 PUSH2 0xBBB JUMP JUMPDEST PUSH2 0x68A PUSH0 PUSH2 0xC3D JUMP JUMPDEST PUSH2 0x7B4 PUSH2 0xBBB JUMP JUMPDEST PUSH2 0x68A PUSH2 0xC8E JUMP JUMPDEST PUSH1 0x60 PUSH1 0x1 DUP1 SLOAD PUSH2 0x4F4 SWAP1 PUSH2 0x17C8 JUMP JUMPDEST PUSH2 0x7D3 PUSH2 0xBBB JUMP JUMPDEST PUSH1 0xB DUP1 SLOAD PUSH1 0xFF NOT AND SWAP2 ISZERO ISZERO SWAP2 SWAP1 SWAP2 OR SWAP1 SSTORE JUMP JUMPDEST PUSH2 0x5A7 CALLER DUP4 DUP4 PUSH2 0xCD1 JUMP JUMPDEST PUSH2 0x7FC DUP5 DUP5 DUP5 PUSH2 0x5AB JUMP JUMPDEST PUSH2 0x633 CALLER DUP6 DUP6 DUP6 DUP6 PUSH2 0xD67 JUMP JUMPDEST PUSH1 0x60 PUSH0 PUSH2 0x815 DUP4 PUSH2 0xE8F JUMP JUMPDEST SWAP1 POP PUSH0 DUP2 MLOAD GT PUSH2 0x84F JUMPI PUSH1 0x9 PUSH2 0x82A DUP5 PUSH2 0xF9A JUMP JUMPDEST PUSH1 0x40 MLOAD PUSH1 0x20 ADD PUSH2 0x83B SWAP3 SWAP2 SWAP1 PUSH2 0x18FE JUMP JUMPDEST PUSH1 0x40 MLOAD PUSH1 0x20 DUP2 DUP4 SUB SUB DUP2 MSTORE SWAP1 PUSH1 0x40 MSTORE PUSH2 0x851 JUMP JUMPDEST DUP1 JUMPDEST SWAP4 SWAP3 POP POP POP JUMP JUMPDEST PUSH2 0x860 PUSH2 0x102A JUMP JUMPDEST PUSH1 0xB SLOAD PUSH1 0xFF AND DUP1 PUSH2 0x87B JUMPI POP PUSH1 0x7 SLOAD PUSH1 0x1 PUSH1 0x1 PUSH1 0xA0 SHL SUB AND CALLER EQ JUMPDEST PUSH2 0x8BD JUMPI PUSH1 0x40 MLOAD PUSH3 0x461BCD PUSH1 0xE5 SHL DUP2 MSTORE PUSH1 0x20 PUSH1 0x4 DUP3 ADD MSTORE PUSH1 0x13 PUSH1 0x24 DUP3 ADD MSTORE PUSH19 0x135A5B9D1A5B99C81B9BDD08185B1B1BDDD959 PUSH1 0x6A SHL PUSH1 0x44 DUP3 ADD MSTORE PUSH1 0x64 ADD PUSH2 0x5D0 JUMP JUMPDEST PUSH1 0x7 SLOAD PUSH1 0x1 PUSH1 0x1 PUSH1 0xA0 SHL SUB AND CALLER EQ DUP1 PUSH2 0x8D8 JUMPI POP PUSH1 0xA SLOAD CALLVALUE LT ISZERO JUMPDEST PUSH2 0x915 JUMPI PUSH1 0x40 MLOAD PUSH3 0x461BCD PUSH1 0xE5 SHL DUP2 MSTORE PUSH1 0x20 PUSH1 0x4 DUP3 ADD MSTORE PUSH1 0xE PUSH1 0x24 DUP3 ADD MSTORE PUSH14 0x9CDEE840CADCDEEACED0408AA89 PUSH1 0x93 SHL PUSH1 0x44 DUP3 ADD MSTORE PUSH1 0x64 ADD PUSH2 0x5D0 JUMP JUMPDEST PUSH0 PUSH2 0x91F PUSH1 0x8 SLOAD SWAP1 JUMP JUMPDEST SWAP1 POP PUSH2 0x92F PUSH1 0x8 DUP1 SLOAD PUSH1 0x1 ADD SWAP1 SSTORE JUMP JUMPDEST PUSH2 0x939 CALLER DUP3 PUSH2 0x1077 JUMP JUMPDEST PUSH2 0x978 DUP2 DUP5 DUP5 DUP1 DUP1 PUSH1 0x1F ADD PUSH1 0x20 DUP1 SWAP2 DIV MUL PUSH1 0x20 ADD PUSH1 0x40 MLOAD SWAP1 DUP2 ADD PUSH1 0x40 MSTORE DUP1 SWAP4 SWAP3 SWAP2 SWAP1 DUP2 DUP2 MSTORE PUSH1 0x20 ADD DUP4 DUP4 DUP1 DUP3 DUP5 CALLDATACOPY PUSH0 SWAP3 ADD SWAP2 SWAP1 SWAP2 MSTORE POP PUSH2 0x1090 SWAP3 POP POP POP JUMP JUMPDEST DUP1 CALLER PUSH1 0x1 PUSH1 0x1 PUSH1 0xA0 SHL SUB AND PUSH32 0xD35BB95E09C04B219E35047CE7B7B300E3384264EF84A40456943DBC0FC17C14 DUP6 DUP6 PUSH1 0x40 MLOAD PUSH2 0x9B4 SWAP3 SWAP2 SWAP1 PUSH2 0x1991 JUMP JUMPDEST PUSH1 0x40 MLOAD DUP1 SWAP2 SUB SWAP1 LOG3 POP POP POP JUMP JUMPDEST PUSH1 0x1 PUSH1 0x1 PUSH1 0xA0 SHL SUB SWAP2 DUP3 AND PUSH0 SWAP1 DUP2 MSTORE PUSH1 0x5 PUSH1 0x20 SWAP1 DUP2 MSTORE PUSH1 0x40 DUP1 DUP4 KECCAK256 SWAP4 SWAP1 SWAP5 AND DUP3 MSTORE SWAP2 SWAP1 SWAP2 MSTORE KECCAK256 SLOAD PUSH1 0xFF AND SWAP1 JUMP JUMPDEST PUSH2 0x9F6 PUSH2 0xBBB JUMP JUMPDEST PUSH1 0x1 PUSH1 0x1 PUSH1 0xA0 SHL SUB DUP2 AND PUSH2 0xA1F JUMPI PUSH1 0x40 MLOAD PUSH4 0x1E4FBDF7 PUSH1 0xE0 SHL DUP2 MSTORE PUSH0 PUSH1 0x4 DUP3 ADD MSTORE PUSH1 0x24 ADD PUSH2 0x5D0 JUMP JUMPDEST PUSH2 0x677 DUP2 PUSH2 0xC3D JUMP JUMPDEST PUSH2 0xA30 PUSH2 0xBBB JUMP JUMPDEST PUSH1 0xA SSTORE JUMP JUMPDEST PUSH0 PUSH1 0x1 PUSH1 0x1 PUSH1 0xE0 SHL SUB NOT DUP3 AND PUSH4 0x80AC58CD PUSH1 0xE0 SHL EQ DUP1 PUSH2 0xA65 JUMPI POP PUSH1 0x1 PUSH1 0x1 PUSH1 0xE0 SHL SUB NOT DUP3 AND PUSH4 0x5B5E139F PUSH1 0xE0 SHL EQ JUMPDEST DUP1 PUSH2 0x4E0 JUMPI POP PUSH4 0x1FFC9A7 PUSH1 0xE0 SHL PUSH1 0x1 PUSH1 0x1 PUSH1 0xE0 SHL SUB NOT DUP4 AND EQ PUSH2 0x4E0 JUMP JUMPDEST PUSH0 DUP2 DUP2 MSTORE PUSH1 0x2 PUSH1 0x20 MSTORE PUSH1 0x40 DUP2 KECCAK256 SLOAD PUSH1 0x1 PUSH1 0x1 PUSH1 0xA0 SHL SUB AND DUP1 PUSH2 0x84F JUMPI PUSH1 0x40 MLOAD PUSH4 0x7E273289 PUSH1 0xE0 SHL DUP2 MSTORE PUSH1 0x4 DUP2 ADD DUP5 SWAP1 MSTORE PUSH1 0x24 ADD PUSH2 0x5D0 JUMP JUMPDEST PUSH2 0x6A6 DUP4 DUP4 DUP4 PUSH1 0x1 PUSH2 0x10DF JUMP JUMPDEST PUSH0 DUP3 DUP2 MSTORE PUSH1 0x2 PUSH1 0x20 MSTORE PUSH1 0x40 DUP2 KECCAK256 SLOAD PUSH1 0x1 PUSH1 0x1 PUSH1 0xA0 SHL SUB SWAP1 DUP2 AND SWAP1 DUP4 AND ISZERO PUSH2 0xAF5 JUMPI PUSH2 0xAF5 DUP2 DUP5 DUP7 PUSH2 0x11E3 JUMP JUMPDEST PUSH1 0x1 PUSH1 0x1 PUSH1 0xA0 SHL SUB DUP2 AND ISZERO PUSH2 0xB2F JUMPI PUSH2 0xB10 PUSH0 DUP6 PUSH0 DUP1 PUSH2 0x10DF JUMP JUMPDEST PUSH1 0x1 PUSH1 0x1 PUSH1 0xA0 SHL SUB DUP2 AND PUSH0 SWAP1 DUP2 MSTORE PUSH1 0x3 PUSH1 0x20 MSTORE PUSH1 0x40 SWAP1 KECCAK256 DUP1 SLOAD PUSH0 NOT ADD SWAP1 SSTORE JUMPDEST PUSH1 0x1 PUSH1 0x1 PUSH1 0xA0 SHL SUB DUP6 AND ISZERO PUSH2 0xB5D JUMPI PUSH1 0x1 PUSH1 0x1 PUSH1 0xA0 SHL SUB DUP6 AND PUSH0 SWAP1 DUP2 MSTORE PUSH1 0x3 PUSH1 0x20 MSTORE PUSH1 0x40 SWAP1 KECCAK256 DUP1 SLOAD PUSH1 0x1 ADD SWAP1 SSTORE JUMPDEST PUSH0 DUP5 DUP2 MSTORE PUSH1 0x2 PUSH1 0x20 MSTORE PUSH1 0x40 DUP1 DUP3 KECCAK256 DUP1 SLOAD PUSH1 0x1 PUSH1 0x1 PUSH1 0xA0 SHL SUB NOT AND PUSH1 0x1 PUSH1 0x1 PUSH1 0xA0 SHL SUB DUP10 DUP2 AND SWAP2 DUP3 OR SWAP1 SWAP3 SSTORE SWAP2 MLOAD DUP8 SWAP4 SWAP2 DUP6 AND SWAP2 PUSH32 0xDDF252AD1BE2C89B69C2B068FC378DAA952BA7F163C4A11628F55A4DF523B3EF SWAP2 LOG4 SWAP5 SWAP4 POP POP POP POP JUMP JUMPDEST PUSH1 0x7 SLOAD PUSH1 0x1 PUSH1 0x1 PUSH1 0xA0 SHL SUB AND CALLER EQ PUSH2 0x68A JUMPI PUSH1 0x40 MLOAD PUSH4 0x118CDAA7 PUSH1 0xE0 SHL DUP2 MSTORE CALLER PUSH1 0x4 DUP3 ADD MSTORE PUSH1 0x24 ADD PUSH2 0x5D0 JUMP JUMPDEST PUSH2 0xBF0 PUSH2 0x1247 JUMP JUMPDEST PUSH1 0x7 DUP1 SLOAD PUSH1 0xFF PUSH1 0xA0 SHL NOT AND SWAP1 SSTORE PUSH32 0x5DB9EE0A495BF2E6FF9C91A7834C1BA4FDD244A5E8AA4E537BD38AEAE4B073AA CALLER JUMPDEST PUSH1 0x40 MLOAD PUSH1 0x1 PUSH1 0x1 PUSH1 0xA0 SHL SUB SWAP1 SWAP2 AND DUP2 MSTORE PUSH1 0x20 ADD PUSH1 0x40 MLOAD DUP1 SWAP2 SUB SWAP1 LOG1 JUMP JUMPDEST PUSH1 0x7 DUP1 SLOAD PUSH1 0x1 PUSH1 0x1 PUSH1 0xA0 SHL SUB DUP4 DUP2 AND PUSH1 0x1 PUSH1 0x1 PUSH1 0xA0 SHL SUB NOT DUP4 AND DUP2 OR SWAP1 SWAP4 SSTORE PUSH1 0x40 MLOAD SWAP2 AND SWAP2 SWAP1 DUP3 SWAP1 PUSH32 0x8BE0079C531659141344CD1FD0A4F28419497F9722A3DAAFE3B4186F6B6457E0 SWAP1 PUSH0 SWAP1 LOG3 POP POP JUMP JUMPDEST PUSH2 0xC96 PUSH2 0x102A JUMP JUMPDEST PUSH1 0x7 DUP1 SLOAD PUSH1 0xFF PUSH1 0xA0 SHL NOT AND PUSH1 0x1 PUSH1 0xA0 SHL OR SWAP1 SSTORE PUSH32 0x62E78CEA01BEE320CD4E420270B5EA74000D11B0C9F74754EBDBFC544B05A258 PUSH2 0xC20 CALLER SWAP1 JUMP JUMPDEST PUSH1 0x1 PUSH1 0x1 PUSH1 0xA0 SHL SUB DUP3 AND PUSH2 0xD03 JUMPI PUSH1 0x40 MLOAD PUSH4 0xB611743 PUSH1 0xE3 SHL DUP2 MSTORE PUSH1 0x1 PUSH1 0x1 PUSH1 0xA0 SHL SUB DUP4 AND PUSH1 0x4 DUP3 ADD MSTORE PUSH1 0x24 ADD PUSH2 0x5D0 JUMP JUMPDEST PUSH1 0x1 PUSH1 0x1 PUSH1 0xA0 SHL SUB DUP4 DUP2 AND PUSH0 DUP2 DUP2 MSTORE PUSH1 0x5 PUSH1 0x20 SWAP1 DUP2 MSTORE PUSH1 0x40 DUP1 DUP4 KECCAK256 SWAP5 DUP8 AND DUP1 DUP5 MSTORE SWAP5 DUP3 MSTORE SWAP2 DUP3 SWAP1 KECCAK256 DUP1 SLOAD PUSH1 0xFF NOT AND DUP7 ISZERO ISZERO SWAP1 DUP2 OR SWAP1 SWAP2 SSTORE SWAP2 MLOAD SWAP2 DUP3 MSTORE PUSH32 0x17307EAB39AB6107E8899845AD3D59BD9653F200F220920489CA2B5937696C31 SWAP2 ADD PUSH2 0x9B4 JUMP JUMPDEST PUSH1 0x1 PUSH1 0x1 PUSH1 0xA0 SHL SUB DUP4 AND EXTCODESIZE ISZERO PUSH2 0xE88 JUMPI PUSH1 0x40 MLOAD PUSH4 0xA85BD01 PUSH1 0xE1 SHL DUP2 MSTORE PUSH1 0x1 PUSH1 0x1 PUSH1 0xA0 SHL SUB DUP5 AND SWAP1 PUSH4 0x150B7A02 SWAP1 PUSH2 0xDA9 SWAP1 DUP9 SWAP1 DUP9 SWAP1 DUP8 SWAP1 DUP8 SWAP1 PUSH1 0x4 ADD PUSH2 0x19BF JUMP JUMPDEST PUSH1 0x20 PUSH1 0x40 MLOAD DUP1 DUP4 SUB DUP2 PUSH0 DUP8 GAS CALL SWAP3 POP POP POP DUP1 ISZERO PUSH2 0xDE3 JUMPI POP PUSH1 0x40 DUP1 MLOAD PUSH1 0x1F RETURNDATASIZE SWAP1 DUP2 ADD PUSH1 0x1F NOT AND DUP3 ADD SWAP1 SWAP3 MSTORE PUSH2 0xDE0 SWAP2 DUP2 ADD SWAP1 PUSH2 0x19FB JUMP JUMPDEST PUSH1 0x1 JUMPDEST PUSH2 0xE4A JUMPI RETURNDATASIZE DUP1 DUP1 ISZERO PUSH2 0xE10 JUMPI PUSH1 0x40 MLOAD SWAP2 POP PUSH1 0x1F NOT PUSH1 0x3F RETURNDATASIZE ADD AND DUP3 ADD PUSH1 0x40 MSTORE RETURNDATASIZE DUP3 MSTORE RETURNDATASIZE PUSH0 PUSH1 0x20 DUP5 ADD RETURNDATACOPY PUSH2 0xE15 JUMP JUMPDEST PUSH1 0x60 SWAP2 POP JUMPDEST POP DUP1 MLOAD PUSH0 SUB PUSH2 0xE42 JUMPI PUSH1 0x40 MLOAD PUSH4 0x32505749 PUSH1 0xE1 SHL DUP2 MSTORE PUSH1 0x1 PUSH1 0x1 PUSH1 0xA0 SHL SUB DUP6 AND PUSH1 0x4 DUP3 ADD MSTORE PUSH1 0x24 ADD PUSH2 0x5D0 JUMP JUMPDEST DUP1 MLOAD DUP2 PUSH1 0x20 ADD REVERT JUMPDEST PUSH1 0x1 PUSH1 0x1 PUSH1 0xE0 SHL SUB NOT DUP2 AND PUSH4 0xA85BD01 PUSH1 0xE1 SHL EQ PUSH2 0xE86 JUMPI PUSH1 0x40 MLOAD PUSH4 0x32505749 PUSH1 0xE1 SHL DUP2 MSTORE PUSH1 0x1 PUSH1 0x1 PUSH1 0xA0 SHL SUB DUP6 AND PUSH1 0x4 DUP3 ADD MSTORE PUSH1 0x24 ADD PUSH2 0x5D0 JUMP JUMPDEST POP JUMPDEST POP POP POP POP POP JUMP JUMPDEST PUSH1 0x60 PUSH2 0xE9A DUP3 PUSH2 0xA84 JUMP JUMPDEST POP PUSH0 DUP3 DUP2 MSTORE PUSH1 0x6 PUSH1 0x20 MSTORE PUSH1 0x40 DUP2 KECCAK256 DUP1 SLOAD PUSH2 0xEB3 SWAP1 PUSH2 0x17C8 JUMP JUMPDEST DUP1 PUSH1 0x1F ADD PUSH1 0x20 DUP1 SWAP2 DIV MUL PUSH1 0x20 ADD PUSH1 0x40 MLOAD SWAP1 DUP2 ADD PUSH1 0x40 MSTORE DUP1 SWAP3 SWAP2 SWAP1 DUP2 DUP2 MSTORE PUSH1 0x20 ADD DUP3 DUP1 SLOAD PUSH2 0xEDF SWAP1 PUSH2 0x17C8 JUMP JUMPDEST DUP1 ISZERO PUSH2 0xF2A JUMPI DUP1 PUSH1 0x1F LT PUSH2 0xF01 JUMPI PUSH2 0x100 DUP1 DUP4 SLOAD DIV MUL DUP4 MSTORE SWAP2 PUSH1 0x20 ADD SWAP2 PUSH2 0xF2A JUMP JUMPDEST DUP3 ADD SWAP2 SWAP1 PUSH0 MSTORE PUSH1 0x20 PUSH0 KECCAK256 SWAP1 JUMPDEST DUP2 SLOAD DUP2 MSTORE SWAP1 PUSH1 0x1 ADD SWAP1 PUSH1 0x20 ADD DUP1 DUP4 GT PUSH2 0xF0D JUMPI DUP3 SWAP1 SUB PUSH1 0x1F AND DUP3 ADD SWAP2 JUMPDEST POP POP POP POP POP SWAP1 POP PUSH0 PUSH2 0xF46 PUSH1 0x40 DUP1 MLOAD PUSH1 0x20 DUP2 ADD SWAP1 SWAP2 MSTORE PUSH0 DUP2 MSTORE SWAP1 JUMP JUMPDEST SWAP1 POP DUP1 MLOAD PUSH0 SUB PUSH2 0xF57 JUMPI POP SWAP3 SWAP2 POP POP JUMP JUMPDEST DUP2 MLOAD ISZERO PUSH2 0xF89 JUMPI DUP1 DUP3 PUSH1 0x40 MLOAD PUSH1 0x20 ADD PUSH2 0xF71 SWAP3 SWAP2 SWAP1 PUSH2 0x1A16 JUMP JUMPDEST PUSH1 0x40 MLOAD PUSH1 0x20 DUP2 DUP4 SUB SUB DUP2 MSTORE SWAP1 PUSH1 0x40 MSTORE SWAP3 POP POP POP SWAP2 SWAP1 POP JUMP JUMPDEST PUSH2 0xF92 DUP5 PUSH2 0x1297 JUMP JUMPDEST SWAP5 SWAP4 POP POP POP POP JUMP JUMPDEST PUSH1 0x60 PUSH0 PUSH2 0xFA6 DUP4 PUSH2 0x1307 JUMP JUMPDEST PUSH1 0x1 ADD SWAP1 POP PUSH0 DUP2 PUSH8 0xFFFFFFFFFFFFFFFF DUP2 GT ISZERO PUSH2 0xFC5 JUMPI PUSH2 0xFC5 PUSH2 0x16B7 JUMP JUMPDEST PUSH1 0x40 MLOAD SWAP1 DUP1 DUP3 MSTORE DUP1 PUSH1 0x1F ADD PUSH1 0x1F NOT AND PUSH1 0x20 ADD DUP3 ADD PUSH1 0x40 MSTORE DUP1 ISZERO PUSH2 0xFEF JUMPI PUSH1 0x20 DUP3 ADD DUP2 DUP1 CALLDATASIZE DUP4 CALLDATACOPY ADD SWAP1 POP JUMPDEST POP SWAP1 POP DUP2 DUP2 ADD PUSH1 0x20 ADD JUMPDEST PUSH0 NOT ADD PUSH16 0x181899199A1A9B1B9C1CB0B131B232B3 PUSH1 0x81 SHL PUSH1 0xA DUP7 MOD BYTE DUP2 MSTORE8 PUSH1 0xA DUP6 DIV SWAP5 POP DUP5 PUSH2 0xFF9 JUMPI POP SWAP4 SWAP3 POP POP POP JUMP JUMPDEST PUSH1 0x7 SLOAD PUSH1 0x1 PUSH1 0xA0 SHL SWAP1 DIV PUSH1 0xFF AND ISZERO PUSH2 0x68A JUMPI PUSH1 0x40 MLOAD PUSH3 0x461BCD PUSH1 0xE5 SHL DUP2 MSTORE PUSH1 0x20 PUSH1 0x4 DUP3 ADD MSTORE PUSH1 0x10 PUSH1 0x24 DUP3 ADD MSTORE PUSH16 0x14185D5CD8589B194E881C185D5CD959 PUSH1 0x82 SHL PUSH1 0x44 DUP3 ADD MSTORE PUSH1 0x64 ADD PUSH2 0x5D0 JUMP JUMPDEST PUSH2 0x5A7 DUP3 DUP3 PUSH1 0x40 MLOAD DUP1 PUSH1 0x20 ADD PUSH1 0x40 MSTORE DUP1 PUSH0 DUP2 MSTORE POP PUSH2 0x13DE JUMP JUMPDEST PUSH0 DUP3 DUP2 MSTORE PUSH1 0x6 PUSH1 0x20 MSTORE PUSH1 0x40 SWAP1 KECCAK256 PUSH2 0x10A7 DUP3 DUP3 PUSH2 0x1A44 JUMP JUMPDEST POP PUSH1 0x40 MLOAD DUP3 DUP2 MSTORE PUSH32 0xF8E1A15ABA9398E019F0B49DF1A4FDE98EE17AE345CB5F6B5E2C27F5033E8CE7 SWAP1 PUSH1 0x20 ADD PUSH1 0x40 MLOAD DUP1 SWAP2 SUB SWAP1 LOG1 POP POP JUMP JUMPDEST DUP1 DUP1 PUSH2 0x10F3 JUMPI POP PUSH1 0x1 PUSH1 0x1 PUSH1 0xA0 SHL SUB DUP3 AND ISZERO ISZERO JUMPDEST ISZERO PUSH2 0x11B4 JUMPI PUSH0 PUSH2 0x1102 DUP5 PUSH2 0xA84 JUMP JUMPDEST SWAP1 POP PUSH1 0x1 PUSH1 0x1 PUSH1 0xA0 SHL SUB DUP4 AND ISZERO DUP1 ISZERO SWAP1 PUSH2 0x112E JUMPI POP DUP3 PUSH1 0x1 PUSH1 0x1 PUSH1 0xA0 SHL SUB AND DUP2 PUSH1 0x1 PUSH1 0x1 PUSH1 0xA0 SHL SUB AND EQ ISZERO JUMPDEST DUP1 ISZERO PUSH2 0x1141 JUMPI POP PUSH2 0x113F DUP2 DUP5 PUSH2 0x9C1 JUMP JUMPDEST ISZERO JUMPDEST ISZERO PUSH2 0x116A JUMPI PUSH1 0x40 MLOAD PUSH4 0xA9FBF51F PUSH1 0xE0 SHL DUP2 MSTORE PUSH1 0x1 PUSH1 0x1 PUSH1 0xA0 SHL SUB DUP5 AND PUSH1 0x4 DUP3 ADD MSTORE PUSH1 0x24 ADD PUSH2 0x5D0 JUMP JUMPDEST DUP2 ISZERO PUSH2 0x11B2 JUMPI DUP4 DUP6 PUSH1 0x1 PUSH1 0x1 PUSH1 0xA0 SHL SUB AND DUP3 PUSH1 0x1 PUSH1 0x1 PUSH1 0xA0 SHL SUB AND PUSH32 0x8C5BE1E5EBEC7D5BD14F71427D1E84F3DD0314C0F7B2291E5B200AC8C7C3B925 PUSH1 0x40 MLOAD PUSH1 0x40 MLOAD DUP1 SWAP2 SUB SWAP1 LOG4 JUMPDEST POP JUMPDEST POP POP PUSH0 SWAP1 DUP2 MSTORE PUSH1 0x4 PUSH1 0x20 MSTORE PUSH1 0x40 SWAP1 KECCAK256 DUP1 SLOAD PUSH1 0x1 PUSH1 0x1 PUSH1 0xA0 SHL SUB NOT AND PUSH1 0x1 PUSH1 0x1 PUSH1 0xA0 SHL SUB SWAP3 SWAP1 SWAP3 AND SWAP2 SWAP1 SWAP2 OR SWAP1 SSTORE JUMP JUMPDEST PUSH2 0x11EE DUP4 DUP4 DUP4 PUSH2 0x13F5 JUMP JUMPDEST PUSH2 0x6A6 JUMPI PUSH1 0x1 PUSH1 0x1 PUSH1 0xA0 SHL SUB DUP4 AND PUSH2 0x121C JUMPI PUSH1 0x40 MLOAD PUSH4 0x7E273289 PUSH1 0xE0 SHL DUP2 MSTORE PUSH1 0x4 DUP2 ADD DUP3 SWAP1 MSTORE PUSH1 0x24 ADD PUSH2 0x5D0 JUMP JUMPDEST PUSH1 0x40 MLOAD PUSH4 0x177E802F PUSH1 0xE0 SHL DUP2 MSTORE PUSH1 0x1 PUSH1 0x1 PUSH1 0xA0 SHL SUB DUP4 AND PUSH1 0x4 DUP3 ADD MSTORE PUSH1 0x24 DUP2 ADD DUP3 SWAP1 MSTORE PUSH1 0x44 ADD PUSH2 0x5D0 JUMP JUMPDEST PUSH1 0x7 SLOAD PUSH1 0x1 PUSH1 0xA0 SHL SWAP1 DIV PUSH1 0xFF AND PUSH2 0x68A JUMPI PUSH1 0x40 MLOAD PUSH3 0x461BCD PUSH1 0xE5 SHL DUP2 MSTORE PUSH1 0x20 PUSH1 0x4 DUP3 ADD MSTORE PUSH1 0x14 PUSH1 0x24 DUP3 ADD MSTORE PUSH20 0x14185D5CD8589B194E881B9BDD081C185D5CD959 PUSH1 0x62 SHL PUSH1 0x44 DUP3 ADD MSTORE PUSH1 0x64 ADD PUSH2 0x5D0 JUMP JUMPDEST PUSH1 0x60 PUSH2 0x12A2 DUP3 PUSH2 0xA84 JUMP JUMPDEST POP PUSH0 PUSH2 0x12B8 PUSH1 0x40 DUP1 MLOAD PUSH1 0x20 DUP2 ADD SWAP1 SWAP2 MSTORE PUSH0 DUP2 MSTORE SWAP1 JUMP JUMPDEST SWAP1 POP PUSH0 DUP2 MLOAD GT PUSH2 0x12D6 JUMPI PUSH1 0x40 MLOAD DUP1 PUSH1 0x20 ADD PUSH1 0x40 MSTORE DUP1 PUSH0 DUP2 MSTORE POP PUSH2 0x851 JUMP JUMPDEST DUP1 PUSH2 0x12E0 DUP5 PUSH2 0xF9A JUMP JUMPDEST PUSH1 0x40 MLOAD PUSH1 0x20 ADD PUSH2 0x12F1 SWAP3 SWAP2 SWAP1 PUSH2 0x1A16 JUMP JUMPDEST PUSH1 0x40 MLOAD PUSH1 0x20 DUP2 DUP4 SUB SUB DUP2 MSTORE SWAP1 PUSH1 0x40 MSTORE SWAP4 SWAP3 POP POP POP JUMP JUMPDEST PUSH0 DUP1 PUSH19 0x184F03E93FF9F4DAA797ED6E38ED64BF6A1F01 PUSH1 0x40 SHL DUP4 LT PUSH2 0x1345 JUMPI PUSH19 0x184F03E93FF9F4DAA797ED6E38ED64BF6A1F01 PUSH1 0x40 SHL DUP4 DIV SWAP3 POP PUSH1 0x40 ADD JUMPDEST PUSH14 0x4EE2D6D415B85ACEF8100000000 DUP4 LT PUSH2 0x1371 JUMPI PUSH14 0x4EE2D6D415B85ACEF8100000000 DUP4 DIV SWAP3 POP PUSH1 0x20 ADD JUMPDEST PUSH7 0x2386F26FC10000 DUP4 LT PUSH2 0x138F JUMPI PUSH7 0x2386F26FC10000 DUP4 DIV SWAP3 POP PUSH1 0x10 ADD JUMPDEST PUSH4 0x5F5E100 DUP4 LT PUSH2 0x13A7 JUMPI PUSH4 0x5F5E100 DUP4 DIV SWAP3 POP PUSH1 0x8 ADD JUMPDEST PUSH2 0x2710 DUP4 LT PUSH2 0x13BB JUMPI PUSH2 0x2710 DUP4 DIV SWAP3 POP PUSH1 0x4 ADD JUMPDEST PUSH1 0x64 DUP4 LT PUSH2 0x13CD JUMPI PUSH1 0x64 DUP4 DIV SWAP3 POP PUSH1 0x2 ADD JUMPDEST PUSH1 0xA DUP4 LT PUSH2 0x84F JUMPI PUSH1 0x1 ADD SWAP3 SWAP2 POP POP JUMP JUMPDEST PUSH2 0x13E8 DUP4 DUP4 PUSH2 0x1456 JUMP JUMPDEST PUSH2 0x6A6 CALLER PUSH0 DUP6 DUP6 DUP6 PUSH2 0xD67 JUMP JUMPDEST PUSH0 PUSH1 0x1 PUSH1 0x1 PUSH1 0xA0 SHL SUB DUP4 AND ISZERO DUP1 ISZERO SWAP1 PUSH2 0xF92 JUMPI POP DUP3 PUSH1 0x1 PUSH1 0x1 PUSH1 0xA0 SHL SUB AND DUP5 PUSH1 0x1 PUSH1 0x1 PUSH1 0xA0 SHL SUB AND EQ DUP1 PUSH2 0x142E JUMPI POP PUSH2 0x142E DUP5 DUP5 PUSH2 0x9C1 JUMP JUMPDEST DUP1 PUSH2 0xF92 JUMPI POP POP PUSH0 SWAP1 DUP2 MSTORE PUSH1 0x4 PUSH1 0x20 MSTORE PUSH1 0x40 SWAP1 KECCAK256 SLOAD PUSH1 0x1 PUSH1 0x1 PUSH1 0xA0 SHL SUB SWAP1 DUP2 AND SWAP2 AND EQ SWAP2 SWAP1 POP JUMP JUMPDEST PUSH1 0x1 PUSH1 0x1 PUSH1 0xA0 SHL SUB DUP3 AND PUSH2 0x147F JUMPI PUSH1 0x40 MLOAD PUSH4 0x32505749 PUSH1 0xE1 SHL DUP2 MSTORE PUSH0 PUSH1 0x4 DUP3 ADD MSTORE PUSH1 0x24 ADD PUSH2 0x5D0 JUMP JUMPDEST PUSH0 PUSH2 0x148B DUP4 DUP4 PUSH0 PUSH2 0xAC9 JUMP JUMPDEST SWAP1 POP PUSH1 0x1 PUSH1 0x1 PUSH1 0xA0 SHL SUB DUP2 AND ISZERO PUSH2 0x6A6 JUMPI PUSH1 0x40 MLOAD PUSH4 0x39E35637 PUSH1 0xE1 SHL DUP2 MSTORE PUSH0 PUSH1 0x4 DUP3 ADD MSTORE PUSH1 0x24 ADD PUSH2 0x5D0 JUMP JUMPDEST PUSH1 0x1 PUSH1 0x1 PUSH1 0xE0 SHL SUB NOT DUP2 AND DUP2 EQ PUSH2 0x677 JUMPI PUSH0 DUP1 REVERT JUMPDEST PUSH0 PUSH1 0x20 DUP3 DUP5 SUB SLT ISZERO PUSH2 0x14DC JUMPI PUSH0 DUP1 REVERT JUMPDEST DUP2 CALLDATALOAD PUSH2 0x851 DUP2 PUSH2 0x14B7 JUMP JUMPDEST PUSH0 JUMPDEST DUP4 DUP2 LT ISZERO PUSH2 0x1501 JUMPI DUP2 DUP2 ADD MLOAD DUP4 DUP3 ADD MSTORE PUSH1 0x20 ADD PUSH2 0x14E9 JUMP JUMPDEST POP POP PUSH0 SWAP2 ADD MSTORE JUMP JUMPDEST PUSH0 DUP2 MLOAD DUP1 DUP5 MSTORE PUSH2 0x1520 DUP2 PUSH1 0x20 DUP7 ADD PUSH1 0x20 DUP7 ADD PUSH2 0x14E7 JUMP JUMPDEST PUSH1 0x1F ADD PUSH1 0x1F NOT AND SWAP3 SWAP1 SWAP3 ADD PUSH1 0x20 ADD SWAP3 SWAP2 POP POP JUMP JUMPDEST PUSH1 0x20 DUP2 MSTORE PUSH0 PUSH2 0x851 PUSH1 0x20 DUP4 ADD DUP5 PUSH2 0x1509 JUMP JUMPDEST PUSH0 PUSH1 0x20 DUP3 DUP5 SUB SLT ISZERO PUSH2 0x1556 JUMPI PUSH0 DUP1 REVERT JUMPDEST POP CALLDATALOAD SWAP2 SWAP1 POP JUMP JUMPDEST DUP1 CALLDATALOAD PUSH1 0x1 PUSH1 0x1 PUSH1 0xA0 SHL SUB DUP2 AND DUP2 EQ PUSH2 0x1573 JUMPI PUSH0 DUP1 REVERT JUMPDEST SWAP2 SWAP1 POP JUMP JUMPDEST PUSH0 DUP1 PUSH1 0x40 DUP4 DUP6 SUB SLT ISZERO PUSH2 0x1589 JUMPI PUSH0 DUP1 REVERT JUMPDEST PUSH2 0x1592 DUP4 PUSH2 0x155D JUMP JUMPDEST SWAP5 PUSH1 0x20 SWAP4 SWAP1 SWAP4 ADD CALLDATALOAD SWAP4 POP POP POP JUMP JUMPDEST PUSH0 DUP1 PUSH0 PUSH1 0x60 DUP5 DUP7 SUB SLT ISZERO PUSH2 0x15B2 JUMPI PUSH0 DUP1 REVERT JUMPDEST PUSH2 0x15BB DUP5 PUSH2 0x155D JUMP JUMPDEST SWAP3 POP PUSH2 0x15C9 PUSH1 0x20 DUP6 ADD PUSH2 0x155D JUMP JUMPDEST SWAP2 POP PUSH1 0x40 DUP5 ADD CALLDATALOAD SWAP1 POP SWAP3 POP SWAP3 POP SWAP3 JUMP JUMPDEST PUSH0 DUP1 PUSH1 0x20 DUP4 DUP6 SUB SLT ISZERO PUSH2 0x15EA JUMPI PUSH0 DUP1 REVERT JUMPDEST DUP3 CALLDATALOAD PUSH8 0xFFFFFFFFFFFFFFFF DUP1 DUP3 GT ISZERO PUSH2 0x1601 JUMPI PUSH0 DUP1 REVERT JUMPDEST DUP2 DUP6 ADD SWAP2 POP DUP6 PUSH1 0x1F DUP4 ADD SLT PUSH2 0x1614 JUMPI PUSH0 DUP1 REVERT JUMPDEST DUP2 CALLDATALOAD DUP2 DUP2 GT ISZERO PUSH2 0x1622 JUMPI PUSH0 DUP1 REVERT JUMPDEST DUP7 PUSH1 0x20 DUP3 DUP6 ADD ADD GT ISZERO PUSH2 0x1633 JUMPI PUSH0 DUP1 REVERT JUMPDEST PUSH1 0x20 SWAP3 SWAP1 SWAP3 ADD SWAP7 SWAP2 SWAP6 POP SWAP1 SWAP4 POP POP POP POP JUMP JUMPDEST PUSH0 PUSH1 0x20 DUP3 DUP5 SUB SLT ISZERO PUSH2 0x1655 JUMPI PUSH0 DUP1 REVERT JUMPDEST PUSH2 0x851 DUP3 PUSH2 0x155D JUMP JUMPDEST DUP1 CALLDATALOAD DUP1 ISZERO ISZERO DUP2 EQ PUSH2 0x1573 JUMPI PUSH0 DUP1 REVERT JUMPDEST PUSH0 PUSH1 0x20 DUP3 DUP5 SUB SLT ISZERO PUSH2 0x167D JUMPI PUSH0 DUP1 REVERT JUMPDEST PUSH2 0x851 DUP3 PUSH2 0x165E JUMP JUMPDEST PUSH0 DUP1 PUSH1 0x40 DUP4 DUP6 SUB SLT ISZERO PUSH2 0x1697 JUMPI PUSH0 DUP1 REVERT JUMPDEST PUSH2 0x16A0 DUP4 PUSH2 0x155D JUMP JUMPDEST SWAP2 POP PUSH2 0x16AE PUSH1 0x20 DUP5 ADD PUSH2 0x165E JUMP JUMPDEST SWAP1 POP SWAP3 POP SWAP3 SWAP1 POP JUMP JUMPDEST PUSH4 0x4E487B71 PUSH1 0xE0 SHL PUSH0 MSTORE PUSH1 0x41 PUSH1 0x4 MSTORE PUSH1 0x24 PUSH0 REVERT JUMPDEST PUSH0 DUP1 PUSH0 DUP1 PUSH1 0x80 DUP6 DUP8 SUB SLT ISZERO PUSH2 0x16DE JUMPI PUSH0 DUP1 REVERT JUMPDEST PUSH2 0x16E7 DUP6 PUSH2 0x155D JUMP JUMPDEST SWAP4 POP PUSH2 0x16F5 PUSH1 0x20 DUP7 ADD PUSH2 0x155D JUMP JUMPDEST SWAP3 POP PUSH1 0x40 DUP6 ADD CALLDATALOAD SWAP2 POP PUSH1 0x60 DUP6 ADD CALLDATALOAD PUSH8 0xFFFFFFFFFFFFFFFF DUP1 DUP3 GT ISZERO PUSH2 0x1718 JUMPI PUSH0 DUP1 REVERT JUMPDEST DUP2 DUP8 ADD SWAP2 POP DUP8 PUSH1 0x1F DUP4 ADD SLT PUSH2 0x172B JUMPI PUSH0 DUP1 REVERT JUMPDEST DUP2 CALLDATALOAD DUP2 DUP2 GT ISZERO PUSH2 0x173D JUMPI PUSH2 0x173D PUSH2 0x16B7 JUMP JUMPDEST PUSH1 0x40 MLOAD PUSH1 0x1F DUP3 ADD PUSH1 0x1F NOT SWAP1 DUP2 AND PUSH1 0x3F ADD AND DUP2 ADD SWAP1 DUP4 DUP3 GT DUP2 DUP4 LT OR ISZERO PUSH2 0x1765 JUMPI PUSH2 0x1765 PUSH2 0x16B7 JUMP JUMPDEST DUP2 PUSH1 0x40 MSTORE DUP3 DUP2 MSTORE DUP11 PUSH1 0x20 DUP5 DUP8 ADD ADD GT ISZERO PUSH2 0x177D JUMPI PUSH0 DUP1 REVERT JUMPDEST DUP3 PUSH1 0x20 DUP7 ADD PUSH1 0x20 DUP4 ADD CALLDATACOPY PUSH0 PUSH1 0x20 DUP5 DUP4 ADD ADD MSTORE DUP1 SWAP6 POP POP POP POP POP POP SWAP3 SWAP6 SWAP2 SWAP5 POP SWAP3 POP JUMP JUMPDEST PUSH0 DUP1 PUSH1 0x40 DUP4 DUP6 SUB SLT ISZERO PUSH2 0x17B1 JUMPI PUSH0 DUP1 REVERT JUMPDEST PUSH2 0x17BA DUP4 PUSH2 0x155D JUMP JUMPDEST SWAP2 POP PUSH2 0x16AE PUSH1 0x20 DUP5 ADD PUSH2 0x155D JUMP JUMPDEST PUSH1 0x1 DUP2 DUP2 SHR SWAP1 DUP3 AND DUP1 PUSH2 0x17DC JUMPI PUSH1 0x7F DUP3 AND SWAP2 POP JUMPDEST PUSH1 0x20 DUP3 LT DUP2 SUB PUSH2 0x17FA JUMPI PUSH4 0x4E487B71 PUSH1 0xE0 SHL PUSH0 MSTORE PUSH1 0x22 PUSH1 0x4 MSTORE PUSH1 0x24 PUSH0 REVERT JUMPDEST POP SWAP2 SWAP1 POP JUMP JUMPDEST PUSH1 0x1F DUP3 GT ISZERO PUSH2 0x6A6 JUMPI DUP1 PUSH0 MSTORE PUSH1 0x20 PUSH0 KECCAK256 PUSH1 0x1F DUP5 ADD PUSH1 0x5 SHR DUP2 ADD PUSH1 0x20 DUP6 LT ISZERO PUSH2 0x1825 JUMPI POP DUP1 JUMPDEST PUSH1 0x1F DUP5 ADD PUSH1 0x5 SHR DUP3 ADD SWAP2 POP JUMPDEST DUP2 DUP2 LT ISZERO PUSH2 0xE88 JUMPI PUSH0 DUP2 SSTORE PUSH1 0x1 ADD PUSH2 0x1831 JUMP JUMPDEST PUSH8 0xFFFFFFFFFFFFFFFF DUP4 GT ISZERO PUSH2 0x185C JUMPI PUSH2 0x185C PUSH2 0x16B7 JUMP JUMPDEST PUSH2 0x1870 DUP4 PUSH2 0x186A DUP4 SLOAD PUSH2 0x17C8 JUMP JUMPDEST DUP4 PUSH2 0x1800 JUMP JUMPDEST PUSH0 PUSH1 0x1F DUP5 GT PUSH1 0x1 DUP2 EQ PUSH2 0x18A1 JUMPI PUSH0 DUP6 ISZERO PUSH2 0x188A JUMPI POP DUP4 DUP3 ADD CALLDATALOAD JUMPDEST PUSH0 NOT PUSH1 0x3 DUP8 SWAP1 SHL SHR NOT AND PUSH1 0x1 DUP7 SWAP1 SHL OR DUP4 SSTORE PUSH2 0xE88 JUMP JUMPDEST PUSH0 DUP4 DUP2 MSTORE PUSH1 0x20 DUP2 KECCAK256 PUSH1 0x1F NOT DUP8 AND SWAP2 JUMPDEST DUP3 DUP2 LT ISZERO PUSH2 0x18D0 JUMPI DUP7 DUP6 ADD CALLDATALOAD DUP3 SSTORE PUSH1 0x20 SWAP5 DUP6 ADD SWAP5 PUSH1 0x1 SWAP1 SWAP3 ADD SWAP2 ADD PUSH2 0x18B0 JUMP JUMPDEST POP DUP7 DUP3 LT ISZERO PUSH2 0x18EC JUMPI PUSH0 NOT PUSH1 0xF8 DUP9 PUSH1 0x3 SHL AND SHR NOT DUP5 DUP8 ADD CALLDATALOAD AND DUP2 SSTORE JUMPDEST POP POP PUSH1 0x1 DUP6 PUSH1 0x1 SHL ADD DUP4 SSTORE POP POP POP POP POP JUMP JUMPDEST PUSH0 DUP1 DUP5 SLOAD PUSH2 0x190B DUP2 PUSH2 0x17C8 JUMP JUMPDEST PUSH1 0x1 DUP3 DUP2 AND DUP1 ISZERO PUSH2 0x1923 JUMPI PUSH1 0x1 DUP2 EQ PUSH2 0x1938 JUMPI PUSH2 0x1964 JUMP JUMPDEST PUSH1 0xFF NOT DUP5 AND DUP8 MSTORE DUP3 ISZERO ISZERO DUP4 MUL DUP8 ADD SWAP5 POP PUSH2 0x1964 JUMP JUMPDEST DUP9 PUSH0 MSTORE PUSH1 0x20 DUP1 PUSH0 KECCAK256 PUSH0 JUMPDEST DUP6 DUP2 LT ISZERO PUSH2 0x195B JUMPI DUP2 SLOAD DUP11 DUP3 ADD MSTORE SWAP1 DUP5 ADD SWAP1 DUP3 ADD PUSH2 0x1942 JUMP JUMPDEST POP POP POP DUP3 DUP8 ADD SWAP5 POP JUMPDEST POP POP POP POP DUP4 MLOAD PUSH2 0x1978 DUP2 DUP4 PUSH1 0x20 DUP9 ADD PUSH2 0x14E7 JUMP JUMPDEST PUSH5 0x173539B7B7 PUSH1 0xD9 SHL SWAP2 ADD SWAP1 DUP2 MSTORE PUSH1 0x5 ADD SWAP5 SWAP4 POP POP POP POP JUMP JUMPDEST PUSH1 0x20 DUP2 MSTORE DUP2 PUSH1 0x20 DUP3 ADD MSTORE DUP2 DUP4 PUSH1 0x40 DUP4 ADD CALLDATACOPY PUSH0 DUP2 DUP4 ADD PUSH1 0x40 SWAP1 DUP2 ADD SWAP2 SWAP1 SWAP2 MSTORE PUSH1 0x1F SWAP1 SWAP3 ADD PUSH1 0x1F NOT AND ADD ADD SWAP2 SWAP1 POP JUMP JUMPDEST PUSH1 0x1 PUSH1 0x1 PUSH1 0xA0 SHL SUB DUP6 DUP2 AND DUP3 MSTORE DUP5 AND PUSH1 0x20 DUP3 ADD MSTORE PUSH1 0x40 DUP2 ADD DUP4 SWAP1 MSTORE PUSH1 0x80 PUSH1 0x60 DUP3 ADD DUP2 SWAP1 MSTORE PUSH0 SWAP1 PUSH2 0x19F1 SWAP1 DUP4 ADD DUP5 PUSH2 0x1509 JUMP JUMPDEST SWAP7 SWAP6 POP POP POP POP POP POP JUMP JUMPDEST PUSH0 PUSH1 0x20 DUP3 DUP5 SUB SLT ISZERO PUSH2 0x1A0B JUMPI PUSH0 DUP1 REVERT JUMPDEST DUP2 MLOAD PUSH2 0x851 DUP2 PUSH2 0x14B7 JUMP JUMPDEST PUSH0 DUP4 MLOAD PUSH2 0x1A27 DUP2 DUP5 PUSH1 0x20 DUP9 ADD PUSH2 0x14E7 JUMP JUMPDEST DUP4 MLOAD SWAP1 DUP4 ADD SWAP1 PUSH2 0x1A3B DUP2 DUP4 PUSH1 0x20 DUP9 ADD PUSH2 0x14E7 JUMP JUMPDEST ADD SWAP5 SWAP4 POP POP POP POP JUMP JUMPDEST DUP2 MLOAD PUSH8 0xFFFFFFFFFFFFFFFF DUP2 GT ISZERO PUSH2 0x1A5E JUMPI PUSH2 0x1A5E PUSH2 0x16B7 JUMP JUMPDEST PUSH2 0x1A72 DUP2 PUSH2 0x1A6C DUP5 SLOAD PUSH2 0x17C8 JUMP JUMPDEST DUP5 PUSH2 0x1800 JUMP JUMPDEST PUSH1 0x20 DUP1 PUSH1 0x1F DUP4 GT PUSH1 0x1 DUP2 EQ PUSH2 0x1AA5 JUMPI PUSH0 DUP5 ISZERO PUSH2 0x1A8E JUMPI POP DUP6 DUP4 ADD MLOAD JUMPDEST PUSH0 NOT PUSH1 0x3 DUP7 SWAP1 SHL SHR NOT AND PUSH1 0x1 DUP6 SWAP1 SHL OR DUP6 SSTORE PUSH2 0xE86 JUMP JUMPDEST PUSH0 DUP6 DUP2 MSTORE PUSH1 0x20 DUP2 KECCAK256 PUSH1 0x1F NOT DUP7 AND SWAP2 JUMPDEST DUP3 DUP2 LT ISZERO PUSH2 0x1AD3 JUMPI DUP9 DUP7 ADD MLOAD DUP3 SSTORE SWAP5 DUP5 ADD SWAP5 PUSH1 0x1 SWAP1 SWAP2 ADD SWAP1 DUP5 ADD PUSH2 0x1AB4 JUMP JUMPDEST POP DUP6 DUP3 LT ISZERO PUSH2 0x1AF0 JUMPI DUP8 DUP6 ADD MLOAD PUSH0 NOT PUSH1 0x3 DUP9 SWAP1 SHL PUSH1 0xF8 AND SHR NOT AND DUP2 SSTORE JUMPDEST POP POP POP POP POP PUSH1 0x1 SWAP1 DUP2 SHL ADD SWAP1 SSTORE POP JUMP INVALID LOG2 PUSH5 0x6970667358 0x22 SLT KECCAK256 SMOD PUSH32 0xB6D5041F8D4D6EE3D6DD528CBD1F2ABBE7201FB53D39D60603B08FDC56146473 PUSH16 0x6C634300081800330000000000000000 "
		},
		"gasEstimates": {
			"creation": {
				"codeDepositCost": "1393200",
				"executionCost": "infinite",
				"totalCost": "infinite"
			},
			"external": {
				"approve(address,uint256)": "31537",
				"balanceOf(address)": "2653",
				"baseURI()": "infinite",
				"getApproved(uint256)": "4823",
				"isApprovedForAll(address,address)": "infinite",
				"mint(string)": "infinite",
				"mintPrice()": "2405",
				"name()": "infinite",
				"owner()": "2397",
				"ownerOf(uint256)": "2644",
				"pause()": "infinite",
				"paused()": "2376",
				"publicMintEnabled()": "2410",
				"renounceOwnership()": "infinite",
				"safeTransferFrom(address,address,uint256)": "infinite",
				"safeTransferFrom(address,address,uint256,bytes)": "infinite",
				"setApprovalForAll(address,bool)": "infinite",
				"setBaseURI(string)": "infinite",
				"setMintPrice(uint256)": "24596",
				"supportsInterface(bytes4)": "infinite",
				"symbol()": "infinite",
				"togglePublicMint(bool)": "26802",
				"tokenURI(uint256)": "infinite",
				"transferFrom(address,address,uint256)": "infinite",
				"transferOwnership(address)": "28421",
				"unpause()": "infinite",
				"withdraw()": "infinite"
			}
		},
		"methodIdentifiers": {
			"approve(address,uint256)": "095ea7b3",
			"balanceOf(address)": "70a08231",
			"baseURI()": "6c0360eb",
			"getApproved(uint256)": "081812fc",
			"isApprovedForAll(address,address)": "e985e9c5",
			"mint(string)": "d85d3d27",
			"mintPrice()": "6817c76c",
			"name()": "06fdde03",
			"owner()": "8da5cb5b",
			"ownerOf(uint256)": "6352211e",
			"pause()": "8456cb59",
			"paused()": "5c975abb",
			"publicMintEnabled()": "0f4161aa",
			"renounceOwnership()": "715018a6",
			"safeTransferFrom(address,address,uint256)": "42842e0e",
			"safeTransferFrom(address,address,uint256,bytes)": "b88d4fde",
			"setApprovalForAll(address,bool)": "a22cb465",
			"setBaseURI(string)": "55f804b3",
			"setMintPrice(uint256)": "f4a0a528",
			"supportsInterface(bytes4)": "01ffc9a7",
			"symbol()": "95d89b41",
			"togglePublicMint(bool)": "9b7c1c83",
			"tokenURI(uint256)": "c87b56dd",
			"transferFrom(address,address,uint256)": "23b872dd",
			"transferOwnership(address)": "f2fde38b",
			"unpause()": "3f4ba83a",
			"withdraw()": "3ccfd60b"
		}
	},
	"abi": [
		{
			"inputs": [
				{
					"internalType": "string",
					"name": "_name",
					"type": "string"
				},
				{
					"internalType": "string",
					"name": "_symbol",
					"type": "string"
				},
				{
					"internalType": "string",
					"name": "_baseURI",
					"type": "string"
				}
			],
			"stateMutability": "nonpayable",
			"type": "constructor"
		},
		{
			"inputs": [
				{
					"internalType": "address",
					"name": "sender",
					"type": "address"
				},
				{
					"internalType": "uint256",
					"name": "tokenId",
					"type": "uint256"
				},
				{
					"internalType": "address",
					"name": "owner",
					"type": "address"
				}
			],
			"name": "ERC721IncorrectOwner",
			"type": "error"
		},
		{
			"inputs": [
				{
					"internalType": "address",
					"name": "operator",
					"type": "address"
				},
				{
					"internalType": "uint256",
					"name": "tokenId",
					"type": "uint256"
				}
			],
			"name": "ERC721InsufficientApproval",
			"type": "error"
		},
		{
			"inputs": [
				{
					"internalType": "address",
					"name": "approver",
					"type": "address"
				}
			],
			"name": "ERC721InvalidApprover",
			"type": "error"
		},
		{
			"inputs": [
				{
					"internalType": "address",
					"name": "operator",
					"type": "address"
				}
			],
			"name": "ERC721InvalidOperator",
			"type": "error"
		},
		{
			"inputs": [
				{
					"internalType": "address",
					"name": "owner",
					"type": "address"
				}
			],
			"name": "ERC721InvalidOwner",
			"type": "error"
		},
		{
			"inputs": [
				{
					"internalType": "address",
					"name": "receiver",
					"type": "address"
				}
			],
			"name": "ERC721InvalidReceiver",
			"type": "error"
		},
		{
			"inputs": [
				{
					"internalType": "address",
					"name": "sender",
					"type": "address"
				}
			],
			"name": "ERC721InvalidSender",
			"type": "error"
		},
		{
			"inputs": [
				{
					"internalType": "uint256",
					"name": "tokenId",
					"type": "uint256"
				}
			],
			"name": "ERC721NonexistentToken",
			"type": "error"
		},
		{
			"inputs": [
				{
					"internalType": "address",
					"name": "owner",
					"type": "address"
				}
			],
			"name": "OwnableInvalidOwner",
			"type": "error"
		},
		{
			"inputs": [
				{
					"internalType": "address",
					"name": "account",
					"type": "address"
				}
			],
			"name": "OwnableUnauthorizedAccount",
			"type": "error"
		},
		{
			"anonymous": false,
			"inputs": [
				{
					"indexed": true,
					"internalType": "address",
					"name": "owner",
					"type": "address"
				},
				{
					"indexed": true,
					"internalType": "address",
					"name": "approved",
					"type": "address"
				},
				{
					"indexed": true,
					"internalType": "uint256",
					"name": "tokenId",
					"type": "uint256"
				}
			],
			"name": "Approval",
			"type": "event"
		},
		{
			"anonymous": false,
			"inputs": [
				{
					"indexed": true,
					"internalType": "address",
					"name": "owner",
					"type": "address"
				},
				{
					"indexed": true,
					"internalType": "address",
					"name": "operator",
					"type": "address"
				},
				{
					"indexed": false,
					"internalType": "bool",
					"name": "approved",
					"type": "bool"
				}
			],
			"name": "ApprovalForAll",
			"type": "event"
		},
		{
			"anonymous": false,
			"inputs": [
				{
					"indexed": false,
					"internalType": "uint256",
					"name": "_fromTokenId",
					"type": "uint256"
				},
				{
					"indexed": false,
					"internalType": "uint256",
					"name": "_toTokenId",
					"type": "uint256"
				}
			],
			"name": "BatchMetadataUpdate",
			"type": "event"
		},
		{
			"anonymous": false,
			"inputs": [
				{
					"indexed": false,
					"internalType": "uint256",
					"name": "_tokenId",
					"type": "uint256"
				}
			],
			"name": "MetadataUpdate",
			"type": "event"
		},
		{
			"anonymous": false,
			"inputs": [
				{
					"indexed": true,
					"internalType": "address",
					"name": "minter",
					"type": "address"
				},
				{
					"indexed": true,
					"internalType": "uint256",
					"name": "tokenId",
					"type": "uint256"
				},
				{
					"indexed": false,
					"internalType": "string",
					"name": "tokenURI",
					"type": "string"
				}
			],
			"name": "NFTMinted",
			"type": "event"
		},
		{
			"anonymous": false,
			"inputs": [
				{
					"indexed": true,
					"internalType": "address",
					"name": "previousOwner",
					"type": "address"
				},
				{
					"indexed": true,
					"internalType": "address",
					"name": "newOwner",
					"type": "address"
				}
			],
			"name": "OwnershipTransferred",
			"type": "event"
		},
		{
			"anonymous": false,
			"inputs": [
				{
					"indexed": false,
					"internalType": "address",
					"name": "account",
					"type": "address"
				}
			],
			"name": "Paused",
			"type": "event"
		},
		{
			"anonymous": false,
			"inputs": [
				{
					"indexed": true,
					"internalType": "address",
					"name": "from",
					"type": "address"
				},
				{
					"indexed": true,
					"internalType": "address",
					"name": "to",
					"type": "address"
				},
				{
					"indexed": true,
					"internalType": "uint256",
					"name": "tokenId",
					"type": "uint256"
				}
			],
			"name": "Transfer",
			"type": "event"
		},
		{
			"anonymous": false,
			"inputs": [
				{
					"indexed": false,
					"internalType": "address",
					"name": "account",
					"type": "address"
				}
			],
			"name": "Unpaused",
			"type": "event"
		},
		{
			"inputs": [
				{
					"internalType": "address",
					"name": "to",
					"type": "address"
				},
				{
					"internalType": "uint256",
					"name": "tokenId",
					"type": "uint256"
				}
			],
			"name": "approve",
			"outputs": [],
			"stateMutability": "nonpayable",
			"type": "function"
		},
		{
			"inputs": [
				{
					"internalType": "address",
					"name": "owner",
					"type": "address"
				}
			],
			"name": "balanceOf",
			"outputs": [
				{
					"internalType": "uint256",
					"name": "",
					"type": "uint256"
				}
			],
			"stateMutability": "view",
			"type": "function"
		},
		{
			"inputs": [],
			"name": "baseURI",
			"outputs": [
				{
					"internalType": "string",
					"name": "",
					"type": "string"
				}
			],
			"stateMutability": "view",
			"type": "function"
		},
		{
			"inputs": [
				{
					"internalType": "uint256",
					"name": "tokenId",
					"type": "uint256"
				}
			],
			"name": "getApproved",
			"outputs": [
				{
					"internalType": "address",
					"name": "",
					"type": "address"
				}
			],
			"stateMutability": "view",
			"type": "function"
		},
		{
			"inputs": [
				{
					"internalType": "address",
					"name": "owner",
					"type": "address"
				},
				{
					"internalType": "address",
					"name": "operator",
					"type": "address"
				}
			],
			"name": "isApprovedForAll",
			"outputs": [
				{
					"internalType": "bool",
					"name": "",
					"type": "bool"
				}
			],
			"stateMutability": "view",
			"type": "function"
		},
		{
			"inputs": [
				{
					"internalType": "string",
					"name": "customTokenURI",
					"type": "string"
				}
			],
			"name": "mint",
			"outputs": [],
			"stateMutability": "payable",
			"type": "function"
		},
		{
			"inputs": [],
			"name": "mintPrice",
			"outputs": [
				{
					"internalType": "uint256",
					"name": "",
					"type": "uint256"
				}
			],
			"stateMutability": "view",
			"type": "function"
		},
		{
			"inputs": [],
			"name": "name",
			"outputs": [
				{
					"internalType": "string",
					"name": "",
					"type": "string"
				}
			],
			"stateMutability": "view",
			"type": "function"
		},
		{
			"inputs": [],
			"name": "owner",
			"outputs": [
				{
					"internalType": "address",
					"name": "",
					"type": "address"
				}
			],
			"stateMutability": "view",
			"type": "function"
		},
		{
			"inputs": [
				{
					"internalType": "uint256",
					"name": "tokenId",
					"type": "uint256"
				}
			],
			"name": "ownerOf",
			"outputs": [
				{
					"internalType": "address",
					"name": "",
					"type": "address"
				}
			],
			"stateMutability": "view",
			"type": "function"
		},
		{
			"inputs": [],
			"name": "pause",
			"outputs": [],
			"stateMutability": "nonpayable",
			"type": "function"
		},
		{
			"inputs": [],
			"name": "paused",
			"outputs": [
				{
					"internalType": "bool",
					"name": "",
					"type": "bool"
				}
			],
			"stateMutability": "view",
			"type": "function"
		},
		{
			"inputs": [],
			"name": "publicMintEnabled",
			"outputs": [
				{
					"internalType": "bool",
					"name": "",
					"type": "bool"
				}
			],
			"stateMutability": "view",
			"type": "function"
		},
		{
			"inputs": [],
			"name": "renounceOwnership",
			"outputs": [],
			"stateMutability": "nonpayable",
			"type": "function"
		},
		{
			"inputs": [
				{
					"internalType": "address",
					"name": "from",
					"type": "address"
				},
				{
					"internalType": "address",
					"name": "to",
					"type": "address"
				},
				{
					"internalType": "uint256",
					"name": "tokenId",
					"type": "uint256"
				}
			],
			"name": "safeTransferFrom",
			"outputs": [],
			"stateMutability": "nonpayable",
			"type": "function"
		},
		{
			"inputs": [
				{
					"internalType": "address",
					"name": "from",
					"type": "address"
				},
				{
					"internalType": "address",
					"name": "to",
					"type": "address"
				},
				{
					"internalType": "uint256",
					"name": "tokenId",
					"type": "uint256"
				},
				{
					"internalType": "bytes",
					"name": "data",
					"type": "bytes"
				}
			],
			"name": "safeTransferFrom",
			"outputs": [],
			"stateMutability": "nonpayable",
			"type": "function"
		},
		{
			"inputs": [
				{
					"internalType": "address",
					"name": "operator",
					"type": "address"
				},
				{
					"internalType": "bool",
					"name": "approved",
					"type": "bool"
				}
			],
			"name": "setApprovalForAll",
			"outputs": [],
			"stateMutability": "nonpayable",
			"type": "function"
		},
		{
			"inputs": [
				{
					"internalType": "string",
					"name": "uri",
					"type": "string"
				}
			],
			"name": "setBaseURI",
			"outputs": [],
			"stateMutability": "nonpayable",
			"type": "function"
		},
		{
			"inputs": [
				{
					"internalType": "uint256",
					"name": "price",
					"type": "uint256"
				}
			],
			"name": "setMintPrice",
			"outputs": [],
			"stateMutability": "nonpayable",
			"type": "function"
		},
		{
			"inputs": [
				{
					"internalType": "bytes4",
					"name": "interfaceId",
					"type": "bytes4"
				}
			],
			"name": "supportsInterface",
			"outputs": [
				{
					"internalType": "bool",
					"name": "",
					"type": "bool"
				}
			],
			"stateMutability": "view",
			"type": "function"
		},
		{
			"inputs": [],
			"name": "symbol",
			"outputs": [
				{
					"internalType": "string",
					"name": "",
					"type": "string"
				}
			],
			"stateMutability": "view",
			"type": "function"
		},
		{
			"inputs": [
				{
					"internalType": "bool",
					"name": "enabled",
					"type": "bool"
				}
			],
			"name": "togglePublicMint",
			"outputs": [],
			"stateMutability": "nonpayable",
			"type": "function"
		},
		{
			"inputs": [
				{
					"internalType": "uint256",
					"name": "tokenId",
					"type": "uint256"
				}
			],
			"name": "tokenURI",
			"outputs": [
				{
					"internalType": "string",
					"name": "",
					"type": "string"
				}
			],
			"stateMutability": "view",
			"type": "function"
		},
		{
			"inputs": [
				{
					"internalType": "address",
					"name": "from",
					"type": "address"
				},
				{
					"internalType": "address",
					"name": "to",
					"type": "address"
				},
				{
					"internalType": "uint256",
					"name": "tokenId",
					"type": "uint256"
				}
			],
			"name": "transferFrom",
			"outputs": [],
			"stateMutability": "nonpayable",
			"type": "function"
		},
		{
			"inputs": [
				{
					"internalType": "address",
					"name": "newOwner",
					"type": "address"
				}
			],
			"name": "transferOwnership",
			"outputs": [],
			"stateMutability": "nonpayable",
			"type": "function"
		},
		{
			"inputs": [],
			"name": "unpause",
			"outputs": [],
			"stateMutability": "nonpayable",
			"type": "function"
		},
		{
			"inputs": [],
			"name": "withdraw",
			"outputs": [],
			"stateMutability": "nonpayable",
			"type": "function"
		}
	]
}