{
	"data": {
		"bytecode": {
			"linkReferences": {},
			"object": "60a0604052641af2af8c84600255348015610018575f80fd5b5073cd1710e8a72c95bdd127cc71e1227d8c98e05aec61003781610055565b5073ebd92716d4aac1abe6a73a42b5a83a42c145447d6080526100a4565b5f80546001600160a01b038381166001600160a01b0319831681178455604051919092169283917f8be0079c531659141344cd1fd0a4f28419497f9722a3daafe3b4186f6b6457e09190a35050565b60805161098e6100de5f395f818160fc015281816102a6015281816103dd01528181610547015281816106030152610678015261098e5ff3fe608060405234801561000f575f80fd5b50600436106100a6575f3560e01c80638da5cb5b1161006e5780638da5cb5b1461016a5780639e447fc61461017a578063a694fc3a1461018d578063b88a802f146101a0578063db2e21bc146101a8578063f2fde38b146101b0575f80fd5b806316934fc4146100aa5780631859ea47146100f75780632e1a7d4d146101365780635d773b2c1461014b578063715018a614610162575b5f80fd5b6100d76100b8366004610868565b600160208190525f918252604090912080549181015460029091015483565b604080519384526020840192909252908201526060015b60405180910390f35b61011e7f000000000000000000000000000000000000000000000000000000000000000081565b6040516001600160a01b0390911681526020016100ee565b610149610144366004610895565b6101c3565b005b61015460025481565b6040519081526020016100ee565b610149610352565b5f546001600160a01b031661011e565b610149610188366004610895565b610365565b61014961019b366004610895565b610372565b6101496104b9565b6101496105e4565b6101496101be366004610868565b610728565b5f811161020b5760405162461bcd60e51b8152602060048201526011602482015270043616e6e6f74207769746864726177203607c1b60448201526064015b60405180910390fd5b335f9081526001602052604090205481111561025e5760405162461bcd60e51b8152602060048201526012602482015271496e73756666696369656e74207374616b6560701b6044820152606401610202565b61026733610765565b335f90815260016020526040812080548392906102859084906108c0565b909155505060405163a9059cbb60e01b8152336004820152602481018290527f00000000000000000000000000000000000000000000000000000000000000006001600160a01b03169063a9059cbb906044016020604051808303815f875af11580156102f4573d5f803e3d5ffd5b505050506040513d601f19601f8201168201806040525081019061031891906108d9565b5060405181815233907f7084f5476618d8e60b11ef0d7d3f06914655adb8793e28ff7f018d4c76d505d5906020015b60405180910390a250565b61035a6107ed565b6103635f610819565b565b61036d6107ed565b600255565b5f81116103b25760405162461bcd60e51b815260206004820152600e60248201526d043616e6e6f74207374616b6520360941b6044820152606401610202565b6103bb33610765565b6040516323b872dd60e01b8152336004820152306024820152604481018290527f00000000000000000000000000000000000000000000000000000000000000006001600160a01b0316906323b872dd906064016020604051808303815f875af115801561042b573d5f803e3d5ffd5b505050506040513d601f19601f8201168201806040525081019061044f91906108d9565b50335f908152600160205260408120805483929061046e9084906108f8565b9091555050335f8181526001602081905260409182902042910155517f9e71bc8eea02a63969f509818f2dafb9254532904319f9dbda79b67bd34a5f3d906103479084815260200190565b6104c233610765565b335f908152600160205260409020600201548061050d5760405162461bcd60e51b8152602060048201526009602482015268139bc81c995dd85c9960ba1b6044820152606401610202565b335f81815260016020526040808220600201919091555163a9059cbb60e01b81526004810191909152602481018290526001600160a01b037f0000000000000000000000000000000000000000000000000000000000000000169063a9059cbb906044016020604051808303815f875af115801561058d573d5f803e3d5ffd5b505050506040513d601f19601f820116820180604052508101906105b191906108d9565b5060405181815233907f106f923f993c2149d49b4255ff723acafa1f2d94393f561d3eda32ae348f724190602001610347565b6105ec6107ed565b6040516370a0823160e01b81523060048201525f907f00000000000000000000000000000000000000000000000000000000000000006001600160a01b0316906370a0823190602401602060405180830381865afa158015610650573d5f803e3d5ffd5b505050506040513d601f19601f82011682018060405250810190610674919061090b565b90507f00000000000000000000000000000000000000000000000000000000000000006001600160a01b031663a9059cbb6106b65f546001600160a01b031690565b6040516001600160e01b031960e084901b1681526001600160a01b039091166004820152602481018490526044016020604051808303815f875af1158015610700573d5f803e3d5ffd5b505050506040513d601f19601f8201168201806040525081019061072491906108d9565b5050565b6107306107ed565b6001600160a01b03811661075957604051631e4fbdf760e01b81525f6004820152602401610202565b61076281610819565b50565b6001600160a01b0381165f9081526001602052604090208054156107e3575f81600101544261079491906108c0565b90505f670de0b6b3a764000060025483855f01546107b29190610922565b6107bc9190610922565b6107c69190610939565b905080836002015f8282546107db91906108f8565b909155505050505b4260019091015550565b5f546001600160a01b031633146103635760405163118cdaa760e01b8152336004820152602401610202565b5f80546001600160a01b038381166001600160a01b0319831681178455604051919092169283917f8be0079c531659141344cd1fd0a4f28419497f9722a3daafe3b4186f6b6457e09190a35050565b5f60208284031215610878575f80fd5b81356001600160a01b038116811461088e575f80fd5b9392505050565b5f602082840312156108a5575f80fd5b5035919050565b634e487b7160e01b5f52601160045260245ffd5b818103818111156108d3576108d36108ac565b92915050565b5f602082840312156108e9575f80fd5b8151801515811461088e575f80fd5b808201808211156108d3576108d36108ac565b5f6020828403121561091b575f80fd5b5051919050565b80820281158282048414176108d3576108d36108ac565b5f8261095357634e487b7160e01b5f52601260045260245ffd5b50049056fea2646970667358221220865846f46a5c71d6a995cc169d950b034aa3c90694fe54f005cbca303f62f7d064736f6c63430008180033",
			"opcodes": "PUSH1 0xA0 PUSH1 0x40 MSTORE PUSH5 0x1AF2AF8C84 PUSH1 0x2 SSTORE CALLVALUE DUP1 ISZERO PUSH2 0x18 JUMPI PUSH0 DUP1 REVERT JUMPDEST POP PUSH20 0xCD1710E8A72C95BDD127CC71E1227D8C98E05AEC PUSH2 0x37 DUP2 PUSH2 0x55 JUMP JUMPDEST POP PUSH20 0xEBD92716D4AAC1ABE6A73A42B5A83A42C145447D PUSH1 0x80 MSTORE PUSH2 0xA4 JUMP JUMPDEST PUSH0 DUP1 SLOAD PUSH1 0x1 PUSH1 0x1 PUSH1 0xA0 SHL SUB DUP4 DUP2 AND PUSH1 0x1 PUSH1 0x1 PUSH1 0xA0 SHL SUB NOT DUP4 AND DUP2 OR DUP5 SSTORE PUSH1 0x40 MLOAD SWAP2 SWAP1 SWAP3 AND SWAP3 DUP4 SWAP2 PUSH32 0x8BE0079C531659141344CD1FD0A4F28419497F9722A3DAAFE3B4186F6B6457E0 SWAP2 SWAP1 LOG3 POP POP JUMP JUMPDEST PUSH1 0x80 MLOAD PUSH2 0x98E PUSH2 0xDE PUSH0 CODECOPY PUSH0 DUP2 DUP2 PUSH1 0xFC ADD MSTORE DUP2 DUP2 PUSH2 0x2A6 ADD MSTORE DUP2 DUP2 PUSH2 0x3DD ADD MSTORE DUP2 DUP2 PUSH2 0x547 ADD MSTORE DUP2 DUP2 PUSH2 0x603 ADD MSTORE PUSH2 0x678 ADD MSTORE PUSH2 0x98E PUSH0 RETURN INVALID PUSH1 0x80 PUSH1 0x40 MSTORE CALLVALUE DUP1 ISZERO PUSH2 0xF JUMPI PUSH0 DUP1 REVERT JUMPDEST POP PUSH1 0x4 CALLDATASIZE LT PUSH2 0xA6 JUMPI PUSH0 CALLDATALOAD PUSH1 0xE0 SHR DUP1 PUSH4 0x8DA5CB5B GT PUSH2 0x6E JUMPI DUP1 PUSH4 0x8DA5CB5B EQ PUSH2 0x16A JUMPI DUP1 PUSH4 0x9E447FC6 EQ PUSH2 0x17A JUMPI DUP1 PUSH4 0xA694FC3A EQ PUSH2 0x18D JUMPI DUP1 PUSH4 0xB88A802F EQ PUSH2 0x1A0 JUMPI DUP1 PUSH4 0xDB2E21BC EQ PUSH2 0x1A8 JUMPI DUP1 PUSH4 0xF2FDE38B EQ PUSH2 0x1B0 JUMPI PUSH0 DUP1 REVERT JUMPDEST DUP1 PUSH4 0x16934FC4 EQ PUSH2 0xAA JUMPI DUP1 PUSH4 0x1859EA47 EQ PUSH2 0xF7 JUMPI DUP1 PUSH4 0x2E1A7D4D EQ PUSH2 0x136 JUMPI DUP1 PUSH4 0x5D773B2C EQ PUSH2 0x14B JUMPI DUP1 PUSH4 0x715018A6 EQ PUSH2 0x162 JUMPI JUMPDEST PUSH0 DUP1 REVERT JUMPDEST PUSH2 0xD7 PUSH2 0xB8 CALLDATASIZE PUSH1 0x4 PUSH2 0x868 JUMP JUMPDEST PUSH1 0x1 PUSH1 0x20 DUP2 SWAP1 MSTORE PUSH0 SWAP2 DUP3 MSTORE PUSH1 0x40 SWAP1 SWAP2 KECCAK256 DUP1 SLOAD SWAP2 DUP2 ADD SLOAD PUSH1 0x2 SWAP1 SWAP2 ADD SLOAD DUP4 JUMP JUMPDEST PUSH1 0x40 DUP1 MLOAD SWAP4 DUP5 MSTORE PUSH1 0x20 DUP5 ADD SWAP3 SWAP1 SWAP3 MSTORE SWAP1 DUP3 ADD MSTORE PUSH1 0x60 ADD JUMPDEST PUSH1 0x40 MLOAD DUP1 SWAP2 SUB SWAP1 RETURN JUMPDEST PUSH2 0x11E PUSH32 0x0 DUP2 JUMP JUMPDEST PUSH1 0x40 MLOAD PUSH1 0x1 PUSH1 0x1 PUSH1 0xA0 SHL SUB SWAP1 SWAP2 AND DUP2 MSTORE PUSH1 0x20 ADD PUSH2 0xEE JUMP JUMPDEST PUSH2 0x149 PUSH2 0x144 CALLDATASIZE PUSH1 0x4 PUSH2 0x895 JUMP JUMPDEST PUSH2 0x1C3 JUMP JUMPDEST STOP JUMPDEST PUSH2 0x154 PUSH1 0x2 SLOAD DUP2 JUMP JUMPDEST PUSH1 0x40 MLOAD SWAP1 DUP2 MSTORE PUSH1 0x20 ADD PUSH2 0xEE JUMP JUMPDEST PUSH2 0x149 PUSH2 0x352 JUMP JUMPDEST PUSH0 SLOAD PUSH1 0x1 PUSH1 0x1 PUSH1 0xA0 SHL SUB AND PUSH2 0x11E JUMP JUMPDEST PUSH2 0x149 PUSH2 0x188 CALLDATASIZE PUSH1 0x4 PUSH2 0x895 JUMP JUMPDEST PUSH2 0x365 JUMP JUMPDEST PUSH2 0x149 PUSH2 0x19B CALLDATASIZE PUSH1 0x4 PUSH2 0x895 JUMP JUMPDEST PUSH2 0x372 JUMP JUMPDEST PUSH2 0x149 PUSH2 0x4B9 JUMP JUMPDEST PUSH2 0x149 PUSH2 0x5E4 JUMP JUMPDEST PUSH2 0x149 PUSH2 0x1BE CALLDATASIZE PUSH1 0x4 PUSH2 0x868 JUMP JUMPDEST PUSH2 0x728 JUMP JUMPDEST PUSH0 DUP2 GT PUSH2 0x20B JUMPI PUSH1 0x40 MLOAD PUSH3 0x461BCD PUSH1 0xE5 SHL DUP2 MSTORE PUSH1 0x20 PUSH1 0x4 DUP3 ADD MSTORE PUSH1 0x11 PUSH1 0x24 DUP3 ADD MSTORE PUSH17 0x43616E6E6F74207769746864726177203 PUSH1 0x7C SHL PUSH1 0x44 DUP3 ADD MSTORE PUSH1 0x64 ADD JUMPDEST PUSH1 0x40 MLOAD DUP1 SWAP2 SUB SWAP1 REVERT JUMPDEST CALLER PUSH0 SWAP1 DUP2 MSTORE PUSH1 0x1 PUSH1 0x20 MSTORE PUSH1 0x40 SWAP1 KECCAK256 SLOAD DUP2 GT ISZERO PUSH2 0x25E JUMPI PUSH1 0x40 MLOAD PUSH3 0x461BCD PUSH1 0xE5 SHL DUP2 MSTORE PUSH1 0x20 PUSH1 0x4 DUP3 ADD MSTORE PUSH1 0x12 PUSH1 0x24 DUP3 ADD MSTORE PUSH18 0x496E73756666696369656E74207374616B65 PUSH1 0x70 SHL PUSH1 0x44 DUP3 ADD MSTORE PUSH1 0x64 ADD PUSH2 0x202 JUMP JUMPDEST PUSH2 0x267 CALLER PUSH2 0x765 JUMP JUMPDEST CALLER PUSH0 SWAP1 DUP2 MSTORE PUSH1 0x1 PUSH1 0x20 MSTORE PUSH1 0x40 DUP2 KECCAK256 DUP1 SLOAD DUP4 SWAP3 SWAP1 PUSH2 0x285 SWAP1 DUP5 SWAP1 PUSH2 0x8C0 JUMP JUMPDEST SWAP1 SWAP2 SSTORE POP POP PUSH1 0x40 MLOAD PUSH4 0xA9059CBB PUSH1 0xE0 SHL DUP2 MSTORE CALLER PUSH1 0x4 DUP3 ADD MSTORE PUSH1 0x24 DUP2 ADD DUP3 SWAP1 MSTORE PUSH32 0x0 PUSH1 0x1 PUSH1 0x1 PUSH1 0xA0 SHL SUB AND SWAP1 PUSH4 0xA9059CBB SWAP1 PUSH1 0x44 ADD PUSH1 0x20 PUSH1 0x40 MLOAD DUP1 DUP4 SUB DUP2 PUSH0 DUP8 GAS CALL ISZERO DUP1 ISZERO PUSH2 0x2F4 JUMPI RETURNDATASIZE PUSH0 DUP1 RETURNDATACOPY RETURNDATASIZE PUSH0 REVERT JUMPDEST POP POP POP POP PUSH1 0x40 MLOAD RETURNDATASIZE PUSH1 0x1F NOT PUSH1 0x1F DUP3 ADD AND DUP3 ADD DUP1 PUSH1 0x40 MSTORE POP DUP2 ADD SWAP1 PUSH2 0x318 SWAP2 SWAP1 PUSH2 0x8D9 JUMP JUMPDEST POP PUSH1 0x40 MLOAD DUP2 DUP2 MSTORE CALLER SWAP1 PUSH32 0x7084F5476618D8E60B11EF0D7D3F06914655ADB8793E28FF7F018D4C76D505D5 SWAP1 PUSH1 0x20 ADD JUMPDEST PUSH1 0x40 MLOAD DUP1 SWAP2 SUB SWAP1 LOG2 POP JUMP JUMPDEST PUSH2 0x35A PUSH2 0x7ED JUMP JUMPDEST PUSH2 0x363 PUSH0 PUSH2 0x819 JUMP JUMPDEST JUMP JUMPDEST PUSH2 0x36D PUSH2 0x7ED JUMP JUMPDEST PUSH1 0x2 SSTORE JUMP JUMPDEST PUSH0 DUP2 GT PUSH2 0x3B2 JUMPI PUSH1 0x40 MLOAD PUSH3 0x461BCD PUSH1 0xE5 SHL DUP2 MSTORE PUSH1 0x20 PUSH1 0x4 DUP3 ADD MSTORE PUSH1 0xE PUSH1 0x24 DUP3 ADD MSTORE PUSH14 0x43616E6E6F74207374616B65203 PUSH1 0x94 SHL PUSH1 0x44 DUP3 ADD MSTORE PUSH1 0x64 ADD PUSH2 0x202 JUMP JUMPDEST PUSH2 0x3BB CALLER PUSH2 0x765 JUMP JUMPDEST PUSH1 0x40 MLOAD PUSH4 0x23B872DD PUSH1 0xE0 SHL DUP2 MSTORE CALLER PUSH1 0x4 DUP3 ADD MSTORE ADDRESS PUSH1 0x24 DUP3 ADD MSTORE PUSH1 0x44 DUP2 ADD DUP3 SWAP1 MSTORE PUSH32 0x0 PUSH1 0x1 PUSH1 0x1 PUSH1 0xA0 SHL SUB AND SWAP1 PUSH4 0x23B872DD SWAP1 PUSH1 0x64 ADD PUSH1 0x20 PUSH1 0x40 MLOAD DUP1 DUP4 SUB DUP2 PUSH0 DUP8 GAS CALL ISZERO DUP1 ISZERO PUSH2 0x42B JUMPI RETURNDATASIZE PUSH0 DUP1 RETURNDATACOPY RETURNDATASIZE PUSH0 REVERT JUMPDEST POP POP POP POP PUSH1 0x40 MLOAD RETURNDATASIZE PUSH1 0x1F NOT PUSH1 0x1F DUP3 ADD AND DUP3 ADD DUP1 PUSH1 0x40 MSTORE POP DUP2 ADD SWAP1 PUSH2 0x44F SWAP2 SWAP1 PUSH2 0x8D9 JUMP JUMPDEST POP CALLER PUSH0 SWAP1 DUP2 MSTORE PUSH1 0x1 PUSH1 0x20 MSTORE PUSH1 0x40 DUP2 KECCAK256 DUP1 SLOAD DUP4 SWAP3 SWAP1 PUSH2 0x46E SWAP1 DUP5 SWAP1 PUSH2 0x8F8 JUMP JUMPDEST SWAP1 SWAP2 SSTORE POP POP CALLER PUSH0 DUP2 DUP2 MSTORE PUSH1 0x1 PUSH1 0x20 DUP2 SWAP1 MSTORE PUSH1 0x40 SWAP2 DUP3 SWAP1 KECCAK256 TIMESTAMP SWAP2 ADD SSTORE MLOAD PUSH32 0x9E71BC8EEA02A63969F509818F2DAFB9254532904319F9DBDA79B67BD34A5F3D SWAP1 PUSH2 0x347 SWAP1 DUP5 DUP2 MSTORE PUSH1 0x20 ADD SWAP1 JUMP JUMPDEST PUSH2 0x4C2 CALLER PUSH2 0x765 JUMP JUMPDEST CALLER PUSH0 SWAP1 DUP2 MSTORE PUSH1 0x1 PUSH1 0x20 MSTORE PUSH1 0x40 SWAP1 KECCAK256 PUSH1 0x2 ADD SLOAD DUP1 PUSH2 0x50D JUMPI PUSH1 0x40 MLOAD PUSH3 0x461BCD PUSH1 0xE5 SHL DUP2 MSTORE PUSH1 0x20 PUSH1 0x4 DUP3 ADD MSTORE PUSH1 0x9 PUSH1 0x24 DUP3 ADD MSTORE PUSH9 0x139BC81C995DD85C99 PUSH1 0xBA SHL PUSH1 0x44 DUP3 ADD MSTORE PUSH1 0x64 ADD PUSH2 0x202 JUMP JUMPDEST CALLER PUSH0 DUP2 DUP2 MSTORE PUSH1 0x1 PUSH1 0x20 MSTORE PUSH1 0x40 DUP1 DUP3 KECCAK256 PUSH1 0x2 ADD SWAP2 SWAP1 SWAP2 SSTORE MLOAD PUSH4 0xA9059CBB PUSH1 0xE0 SHL DUP2 MSTORE PUSH1 0x4 DUP2 ADD SWAP2 SWAP1 SWAP2 MSTORE PUSH1 0x24 DUP2 ADD DUP3 SWAP1 MSTORE PUSH1 0x1 PUSH1 0x1 PUSH1 0xA0 SHL SUB PUSH32 0x0 AND SWAP1 PUSH4 0xA9059CBB SWAP1 PUSH1 0x44 ADD PUSH1 0x20 PUSH1 0x40 MLOAD DUP1 DUP4 SUB DUP2 PUSH0 DUP8 GAS CALL ISZERO DUP1 ISZERO PUSH2 0x58D JUMPI RETURNDATASIZE PUSH0 DUP1 RETURNDATACOPY RETURNDATASIZE PUSH0 REVERT JUMPDEST POP POP POP POP PUSH1 0x40 MLOAD RETURNDATASIZE PUSH1 0x1F NOT PUSH1 0x1F DUP3 ADD AND DUP3 ADD DUP1 PUSH1 0x40 MSTORE POP DUP2 ADD SWAP1 PUSH2 0x5B1 SWAP2 SWAP1 PUSH2 0x8D9 JUMP JUMPDEST POP PUSH1 0x40 MLOAD DUP2 DUP2 MSTORE CALLER SWAP1 PUSH32 0x106F923F993C2149D49B4255FF723ACAFA1F2D94393F561D3EDA32AE348F7241 SWAP1 PUSH1 0x20 ADD PUSH2 0x347 JUMP JUMPDEST PUSH2 0x5EC PUSH2 0x7ED JUMP JUMPDEST PUSH1 0x40 MLOAD PUSH4 0x70A08231 PUSH1 0xE0 SHL DUP2 MSTORE ADDRESS PUSH1 0x4 DUP3 ADD MSTORE PUSH0 SWAP1 PUSH32 0x0 PUSH1 0x1 PUSH1 0x1 PUSH1 0xA0 SHL SUB AND SWAP1 PUSH4 0x70A08231 SWAP1 PUSH1 0x24 ADD PUSH1 0x20 PUSH1 0x40 MLOAD DUP1 DUP4 SUB DUP2 DUP7 GAS STATICCALL ISZERO DUP1 ISZERO PUSH2 0x650 JUMPI RETURNDATASIZE PUSH0 DUP1 RETURNDATACOPY RETURNDATASIZE PUSH0 REVERT JUMPDEST POP POP POP POP PUSH1 0x40 MLOAD RETURNDATASIZE PUSH1 0x1F NOT PUSH1 0x1F DUP3 ADD AND DUP3 ADD DUP1 PUSH1 0x40 MSTORE POP DUP2 ADD SWAP1 PUSH2 0x674 SWAP2 SWAP1 PUSH2 0x90B JUMP JUMPDEST SWAP1 POP PUSH32 0x0 PUSH1 0x1 PUSH1 0x1 PUSH1 0xA0 SHL SUB AND PUSH4 0xA9059CBB PUSH2 0x6B6 PUSH0 SLOAD PUSH1 0x1 PUSH1 0x1 PUSH1 0xA0 SHL SUB AND SWAP1 JUMP JUMPDEST PUSH1 0x40 MLOAD PUSH1 0x1 PUSH1 0x1 PUSH1 0xE0 SHL SUB NOT PUSH1 0xE0 DUP5 SWAP1 SHL AND DUP2 MSTORE PUSH1 0x1 PUSH1 0x1 PUSH1 0xA0 SHL SUB SWAP1 SWAP2 AND PUSH1 0x4 DUP3 ADD MSTORE PUSH1 0x24 DUP2 ADD DUP5 SWAP1 MSTORE PUSH1 0x44 ADD PUSH1 0x20 PUSH1 0x40 MLOAD DUP1 DUP4 SUB DUP2 PUSH0 DUP8 GAS CALL ISZERO DUP1 ISZERO PUSH2 0x700 JUMPI RETURNDATASIZE PUSH0 DUP1 RETURNDATACOPY RETURNDATASIZE PUSH0 REVERT JUMPDEST POP POP POP POP PUSH1 0x40 MLOAD RETURNDATASIZE PUSH1 0x1F NOT PUSH1 0x1F DUP3 ADD AND DUP3 ADD DUP1 PUSH1 0x40 MSTORE POP DUP2 ADD SWAP1 PUSH2 0x724 SWAP2 SWAP1 PUSH2 0x8D9 JUMP JUMPDEST POP POP JUMP JUMPDEST PUSH2 0x730 PUSH2 0x7ED JUMP JUMPDEST PUSH1 0x1 PUSH1 0x1 PUSH1 0xA0 SHL SUB DUP2 AND PUSH2 0x759 JUMPI PUSH1 0x40 MLOAD PUSH4 0x1E4FBDF7 PUSH1 0xE0 SHL DUP2 MSTORE PUSH0 PUSH1 0x4 DUP3 ADD MSTORE PUSH1 0x24 ADD PUSH2 0x202 JUMP JUMPDEST PUSH2 0x762 DUP2 PUSH2 0x819 JUMP JUMPDEST POP JUMP JUMPDEST PUSH1 0x1 PUSH1 0x1 PUSH1 0xA0 SHL SUB DUP2 AND PUSH0 SWAP1 DUP2 MSTORE PUSH1 0x1 PUSH1 0x20 MSTORE PUSH1 0x40 SWAP1 KECCAK256 DUP1 SLOAD ISZERO PUSH2 0x7E3 JUMPI PUSH0 DUP2 PUSH1 0x1 ADD SLOAD TIMESTAMP PUSH2 0x794 SWAP2 SWAP1 PUSH2 0x8C0 JUMP JUMPDEST SWAP1 POP PUSH0 PUSH8 0xDE0B6B3A7640000 PUSH1 0x2 SLOAD DUP4 DUP6 PUSH0 ADD SLOAD PUSH2 0x7B2 SWAP2 SWAP1 PUSH2 0x922 JUMP JUMPDEST PUSH2 0x7BC SWAP2 SWAP1 PUSH2 0x922 JUMP JUMPDEST PUSH2 0x7C6 SWAP2 SWAP1 PUSH2 0x939 JUMP JUMPDEST SWAP1 POP DUP1 DUP4 PUSH1 0x2 ADD PUSH0 DUP3 DUP3 SLOAD PUSH2 0x7DB SWAP2 SWAP1 PUSH2 0x8F8 JUMP JUMPDEST SWAP1 SWAP2 SSTORE POP POP POP POP JUMPDEST TIMESTAMP PUSH1 0x1 SWAP1 SWAP2 ADD SSTORE POP JUMP JUMPDEST PUSH0 SLOAD PUSH1 0x1 PUSH1 0x1 PUSH1 0xA0 SHL SUB AND CALLER EQ PUSH2 0x363 JUMPI PUSH1 0x40 MLOAD PUSH4 0x118CDAA7 PUSH1 0xE0 SHL DUP2 MSTORE CALLER PUSH1 0x4 DUP3 ADD MSTORE PUSH1 0x24 ADD PUSH2 0x202 JUMP JUMPDEST PUSH0 DUP1 SLOAD PUSH1 0x1 PUSH1 0x1 PUSH1 0xA0 SHL SUB DUP4 DUP2 AND PUSH1 0x1 PUSH1 0x1 PUSH1 0xA0 SHL SUB NOT DUP4 AND DUP2 OR DUP5 SSTORE PUSH1 0x40 MLOAD SWAP2 SWAP1 SWAP3 AND SWAP3 DUP4 SWAP2 PUSH32 0x8BE0079C531659141344CD1FD0A4F28419497F9722A3DAAFE3B4186F6B6457E0 SWAP2 SWAP1 LOG3 POP POP JUMP JUMPDEST PUSH0 PUSH1 0x20 DUP3 DUP5 SUB SLT ISZERO PUSH2 0x878 JUMPI PUSH0 DUP1 REVERT JUMPDEST DUP2 CALLDATALOAD PUSH1 0x1 PUSH1 0x1 PUSH1 0xA0 SHL SUB DUP2 AND DUP2 EQ PUSH2 0x88E JUMPI PUSH0 DUP1 REVERT JUMPDEST SWAP4 SWAP3 POP POP POP JUMP JUMPDEST PUSH0 PUSH1 0x20 DUP3 DUP5 SUB SLT ISZERO PUSH2 0x8A5 JUMPI PUSH0 DUP1 REVERT JUMPDEST POP CALLDATALOAD SWAP2 SWAP1 POP JUMP JUMPDEST PUSH4 0x4E487B71 PUSH1 0xE0 SHL PUSH0 MSTORE PUSH1 0x11 PUSH1 0x4 MSTORE PUSH1 0x24 PUSH0 REVERT JUMPDEST DUP2 DUP2 SUB DUP2 DUP2 GT ISZERO PUSH2 0x8D3 JUMPI PUSH2 0x8D3 PUSH2 0x8AC JUMP JUMPDEST SWAP3 SWAP2 POP POP JUMP JUMPDEST PUSH0 PUSH1 0x20 DUP3 DUP5 SUB SLT ISZERO PUSH2 0x8E9 JUMPI PUSH0 DUP1 REVERT JUMPDEST DUP2 MLOAD DUP1 ISZERO ISZERO DUP2 EQ PUSH2 0x88E JUMPI PUSH0 DUP1 REVERT JUMPDEST DUP1 DUP3 ADD DUP1 DUP3 GT ISZERO PUSH2 0x8D3 JUMPI PUSH2 0x8D3 PUSH2 0x8AC JUMP JUMPDEST PUSH0 PUSH1 0x20 DUP3 DUP5 SUB SLT ISZERO PUSH2 0x91B JUMPI PUSH0 DUP1 REVERT JUMPDEST POP MLOAD SWAP2 SWAP1 POP JUMP JUMPDEST DUP1 DUP3 MUL DUP2 ISZERO DUP3 DUP3 DIV DUP5 EQ OR PUSH2 0x8D3 JUMPI PUSH2 0x8D3 PUSH2 0x8AC JUMP JUMPDEST PUSH0 DUP3 PUSH2 0x953 JUMPI PUSH4 0x4E487B71 PUSH1 0xE0 SHL PUSH0 MSTORE PUSH1 0x12 PUSH1 0x4 MSTORE PUSH1 0x24 PUSH0 REVERT JUMPDEST POP DIV SWAP1 JUMP INVALID LOG2 PUSH5 0x6970667358 0x22 SLT KECCAK256 DUP7 PC CHAINID DELEGATECALL PUSH11 0x5C71D6A995CC169D950B03 BLOBBASEFEE LOG3 0xC9 MOD SWAP5 INVALID SLOAD CREATE SDIV 0xCB 0xCA ADDRESS EXTCODEHASH PUSH3 0xF7D064 PUSH20 0x6F6C634300081800330000000000000000000000 "
		},
		"gasEstimates": {
			"creation": {
				"codeDepositCost": "489200",
				"executionCost": "infinite",
				"totalCost": "infinite"
			},
			"external": {
				"claimReward()": "infinite",
				"emergencyWithdraw()": "infinite",
				"owner()": "2329",
				"renounceOwnership()": "infinite",
				"rewardRatePerSecond()": "2361",
				"setRewardRate(uint256)": "24507",
				"stake(uint256)": "infinite",
				"stakes(address)": "6746",
				"tolcoin()": "infinite",
				"transferOwnership(address)": "28404",
				"withdraw(uint256)": "infinite"
			},
			"internal": {
				"_updateReward(address)": "infinite"
			}
		},
		"methodIdentifiers": {
			"claimReward()": "b88a802f",
			"emergencyWithdraw()": "db2e21bc",
			"owner()": "8da5cb5b",
			"renounceOwnership()": "715018a6",
			"rewardRatePerSecond()": "5d773b2c",
			"setRewardRate(uint256)": "9e447fc6",
			"stake(uint256)": "a694fc3a",
			"stakes(address)": "16934fc4",
			"tolcoin()": "1859ea47",
			"transferOwnership(address)": "f2fde38b",
			"withdraw(uint256)": "2e1a7d4d"
		}
	},
	"abi": [
		{
			"inputs": [],
			"stateMutability": "nonpayable",
			"type": "constructor"
		},
		{
			"inputs": [
				{
					"internalType": "address",
					"name": "owner",
					"type": "address"
				}
			],
			"name": "OwnableInvalidOwner",
			"type": "error"
		},
		{
			"inputs": [
				{
					"internalType": "address",
					"name": "account",
					"type": "address"
				}
			],
			"name": "OwnableUnauthorizedAccount",
			"type": "error"
		},
		{
			"anonymous": false,
			"inputs": [
				{
					"indexed": true,
					"internalType": "address",
					"name": "previousOwner",
					"type": "address"
				},
				{
					"indexed": true,
					"internalType": "address",
					"name": "newOwner",
					"type": "address"
				}
			],
			"name": "OwnershipTransferred",
			"type": "event"
		},
		{
			"anonymous": false,
			"inputs": [
				{
					"indexed": true,
					"internalType": "address",
					"name": "user",
					"type": "address"
				},
				{
					"indexed": false,
					"internalType": "uint256",
					"name": "reward",
					"type": "uint256"
				}
			],
			"name": "RewardClaimed",
			"type": "event"
		},
		{
			"anonymous": false,
			"inputs": [
				{
					"indexed": true,
					"internalType": "address",
					"name": "user",
					"type": "address"
				},
				{
					"indexed": false,
					"internalType": "uint256",
					"name": "amount",
					"type": "uint256"
				}
			],
			"name": "Staked",
			"type": "event"
		},
		{
			"anonymous": false,
			"inputs": [
				{
					"indexed": true,
					"internalType": "address",
					"name": "user",
					"type": "address"
				},
				{
					"indexed": false,
					"internalType": "uint256",
					"name": "amount",
					"type": "uint256"
				}
			],
			"name": "Withdrawn",
			"type": "event"
		},
		{
			"inputs": [],
			"name": "claimReward",
			"outputs": [],
			"stateMutability": "nonpayable",
			"type": "function"
		},
		{
			"inputs": [],
			"name": "emergencyWithdraw",
			"outputs": [],
			"stateMutability": "nonpayable",
			"type": "function"
		},
		{
			"inputs": [],
			"name": "owner",
			"outputs": [
				{
					"internalType": "address",
					"name": "",
					"type": "address"
				}
			],
			"stateMutability": "view",
			"type": "function"
		},
		{
			"inputs": [],
			"name": "renounceOwnership",
			"outputs": [],
			"stateMutability": "nonpayable",
			"type": "function"
		},
		{
			"inputs": [],
			"name": "rewardRatePerSecond",
			"outputs": [
				{
					"internalType": "uint256",
					"name": "",
					"type": "uint256"
				}
			],
			"stateMutability": "view",
			"type": "function"
		},
		{
			"inputs": [
				{
					"internalType": "uint256",
					"name": "newRate",
					"type": "uint256"
				}
			],
			"name": "setRewardRate",
			"outputs": [],
			"stateMutability": "nonpayable",
			"type": "function"
		},
		{
			"inputs": [
				{
					"internalType": "uint256",
					"name": "amount",
					"type": "uint256"
				}
			],
			"name": "stake",
			"outputs": [],
			"stateMutability": "nonpayable",
			"type": "function"
		},
		{
			"inputs": [
				{
					"internalType": "address",
					"name": "",
					"type": "address"
				}
			],
			"name": "stakes",
			"outputs": [
				{
					"internalType": "uint256",
					"name": "amount",
					"type": "uint256"
				},
				{
					"internalType": "uint256",
					"name": "timestamp",
					"type": "uint256"
				},
				{
					"internalType": "uint256",
					"name": "rewardDebt",
					"type": "uint256"
				}
			],
			"stateMutability": "view",
			"type": "function"
		},
		{
			"inputs": [],
			"name": "tolcoin",
			"outputs": [
				{
					"internalType": "contract IERC20",
					"name": "",
					"type": "address"
				}
			],
			"stateMutability": "view",
			"type": "function"
		},
		{
			"inputs": [
				{
					"internalType": "address",
					"name": "newOwner",
					"type": "address"
				}
			],
			"name": "transferOwnership",
			"outputs": [],
			"stateMutability": "nonpayable",
			"type": "function"
		},
		{
			"inputs": [
				{
					"internalType": "uint256",
					"name": "amount",
					"type": "uint256"
				}
			],
			"name": "withdraw",
			"outputs": [],
			"stateMutability": "nonpayable",
			"type": "function"
		}
	]
}