{
	"data": {
		"bytecode": {
			"linkReferences": {},
			"object": "6080604052601e60065534801562000015575f80fd5b506040805180820182526007808252662a27a621a7a4a760c91b60208084018290528451808601909552918452908301523391600362000056838262000347565b50600462000065828262000347565b50506005805460ff19169055506001600160a01b038116620000a157604051631e4fbdf760e01b81525f60048201526024015b60405180910390fd5b620000ac81620000e5565b50620000c6336c0c9f2c9cd04674edea400000006200013e565b335f908152600860205260409020805460ff1916600117905562000439565b600580546001600160a01b03838116610100818102610100600160a81b031985161790945560405193909204169182907f8be0079c531659141344cd1fd0a4f28419497f9722a3daafe3b4186f6b6457e0905f90a35050565b6001600160a01b038216620001695760405163ec442f0560e01b81525f600482015260240162000098565b620001765f83836200017a565b5050565b6001600160a01b038316620001a8578060025f8282546200019c919062000413565b909155506200021a9050565b6001600160a01b0383165f9081526020819052604090205481811015620001fc5760405163391434e360e21b81526001600160a01b0385166004820152602481018290526044810183905260640162000098565b6001600160a01b0384165f9081526020819052604090209082900390555b6001600160a01b038216620002385760028054829003905562000256565b6001600160a01b0382165f9081526020819052604090208054820190555b816001600160a01b0316836001600160a01b03167fddf252ad1be2c89b69c2b068fc378daa952ba7f163c4a11628f55a4df523b3ef836040516200029c91815260200190565b60405180910390a3505050565b634e487b7160e01b5f52604160045260245ffd5b600181811c90821680620002d257607f821691505b602082108103620002f157634e487b7160e01b5f52602260045260245ffd5b50919050565b601f8211156200034257805f5260205f20601f840160051c810160208510156200031e5750805b601f840160051c820191505b818110156200033f575f81556001016200032a565b50505b505050565b81516001600160401b03811115620003635762000363620002a9565b6200037b81620003748454620002bd565b84620002f7565b602080601f831160018114620003b1575f8415620003995750858301515b5f19600386901b1c1916600185901b1785556200040b565b5f85815260208120601f198616915b82811015620003e157888601518255948401946001909101908401620003c0565b5085821015620003ff57878501515f19600388901b60f8161c191681555b505060018460011b0185555b505050505050565b808201808211156200043357634e487b7160e01b5f52601160045260245ffd5b92915050565b610bda80620004475f395ff3fe608060405234801561000f575f80fd5b506004361061013d575f3560e01c80635d5b29c1116100b45780638da5cb5b116100795780638da5cb5b1461027f57806395d89b41146102a8578063a9059cbb146102b0578063cfc06e0b146102c3578063dd62ed3e146102d6578063f2fde38b1461030e575f80fd5b80635d5b29c11461021257806370a0823114610234578063715018a61461025c57806379cc6790146102645780638456cb5914610277575f80fd5b8063313ce56711610105578063313ce567146101b457806332cb6b0c146101c357806336e8c9b3146101d75780633f4ba83a146101ec57806342966c68146101f45780635c975abb14610207575f80fd5b806306fdde0314610141578063095ea7b31461015f5780630a702e8d1461018257806318160ddd1461019957806323b872dd146101a1575b5f80fd5b610149610321565b60405161015691906109e4565b60405180910390f35b61017261016d366004610a4b565b6103b1565b6040519015158152602001610156565b61018b60065481565b604051908152602001610156565b60025461018b565b6101726101af366004610a73565b6103ca565b60405160128152602001610156565b61018b6c0c9f2c9cd04674edea4000000081565b6101ea6101e5366004610aac565b6103ed565b005b6101ea610442565b6101ea610202366004610aac565b610454565b60055460ff16610172565b610172610220366004610ac3565b60086020525f908152604090205460ff1681565b61018b610242366004610ac3565b6001600160a01b03165f9081526020819052604090205490565b6101ea610461565b6101ea610272366004610a4b565b610472565b6101ea61048b565b60055461010090046001600160a01b03166040516001600160a01b039091168152602001610156565b61014961049b565b6101726102be366004610a4b565b6104aa565b6101ea6102d1366004610ae3565b6104b7565b61018b6102e4366004610b1c565b6001600160a01b039182165f90815260016020908152604080832093909416825291909152205490565b6101ea61031c366004610ac3565b6104e9565b60606003805461033090610b4d565b80601f016020809104026020016040519081016040528092919081815260200182805461035c90610b4d565b80156103a75780601f1061037e576101008083540402835291602001916103a7565b820191905f5260205f20905b81548152906001019060200180831161038a57829003601f168201915b5050505050905090565b5f336103be818585610523565b60019150505b92915050565b5f336103d7858285610535565b6103e28585856105b1565b506001949350505050565b6103f561060e565b61012c81111561043d5760405162461bcd60e51b815260206004820152600e60248201526d44656c617920746f6f206c6f6e6760901b60448201526064015b60405180910390fd5b600655565b61044a61060e565b610452610641565b565b61045e3382610693565b50565b61046961060e565b6104525f6106c7565b61047d823383610535565b6104878282610693565b5050565b61049361060e565b610452610720565b60606004805461033090610b4d565b5f336103be8185856105b1565b6104bf61060e565b6001600160a01b03919091165f908152600860205260409020805460ff1916911515919091179055565b6104f161060e565b6001600160a01b03811661051a57604051631e4fbdf760e01b81525f6004820152602401610434565b61045e816106c7565b610530838383600161075d565b505050565b6001600160a01b038381165f908152600160209081526040808320938616835292905220545f198110156105ab578181101561059d57604051637dc7a0d960e11b81526001600160a01b03841660048201526024810182905260448101839052606401610434565b6105ab84848484035f61075d565b50505050565b6001600160a01b0383166105da57604051634b637e8f60e11b81525f6004820152602401610434565b6001600160a01b0382166106035760405163ec442f0560e01b81525f6004820152602401610434565b61053083838361082f565b6005546001600160a01b036101009091041633146104525760405163118cdaa760e01b8152336004820152602401610434565b610649610955565b6005805460ff191690557f5db9ee0a495bf2e6ff9c91a7834c1ba4fdd244a5e8aa4e537bd38aeae4b073aa335b6040516001600160a01b03909116815260200160405180910390a1565b6001600160a01b0382166106bc57604051634b637e8f60e11b81525f6004820152602401610434565b610487825f8361082f565b600580546001600160a01b03838116610100818102610100600160a81b031985161790945560405193909204169182907f8be0079c531659141344cd1fd0a4f28419497f9722a3daafe3b4186f6b6457e0905f90a35050565b61072861099e565b6005805460ff191660011790557f62e78cea01bee320cd4e420270b5ea74000d11b0c9f74754ebdbfc544b05a2586106763390565b6001600160a01b0384166107865760405163e602df0560e01b81525f6004820152602401610434565b6001600160a01b0383166107af57604051634a1406b160e11b81525f6004820152602401610434565b6001600160a01b038085165f90815260016020908152604080832093871683529290522082905580156105ab57826001600160a01b0316846001600160a01b03167f8c5be1e5ebec7d5bd14f71427d1e84f3dd0314c0f7b2291e5b200ac8c7c3b9258460405161082191815260200190565b60405180910390a350505050565b6001600160a01b038316610859578060025f82825461084e9190610b85565b909155506108c99050565b6001600160a01b0383165f90815260208190526040902054818110156108ab5760405163391434e360e21b81526001600160a01b03851660048201526024810182905260448101839052606401610434565b6001600160a01b0384165f9081526020819052604090209082900390555b6001600160a01b0382166108e557600280548290039055610903565b6001600160a01b0382165f9081526020819052604090208054820190555b816001600160a01b0316836001600160a01b03167fddf252ad1be2c89b69c2b068fc378daa952ba7f163c4a11628f55a4df523b3ef8360405161094891815260200190565b60405180910390a3505050565b60055460ff166104525760405162461bcd60e51b815260206004820152601460248201527314185d5cd8589b194e881b9bdd081c185d5cd95960621b6044820152606401610434565b60055460ff16156104525760405162461bcd60e51b815260206004820152601060248201526f14185d5cd8589b194e881c185d5cd95960821b6044820152606401610434565b5f602080835283518060208501525f5b81811015610a10578581018301518582016040015282016109f4565b505f604082860101526040601f19601f8301168501019250505092915050565b80356001600160a01b0381168114610a46575f80fd5b919050565b5f8060408385031215610a5c575f80fd5b610a6583610a30565b946020939093013593505050565b5f805f60608486031215610a85575f80fd5b610a8e84610a30565b9250610a9c60208501610a30565b9150604084013590509250925092565b5f60208284031215610abc575f80fd5b5035919050565b5f60208284031215610ad3575f80fd5b610adc82610a30565b9392505050565b5f8060408385031215610af4575f80fd5b610afd83610a30565b915060208301358015158114610b11575f80fd5b809150509250929050565b5f8060408385031215610b2d575f80fd5b610b3683610a30565b9150610b4460208401610a30565b90509250929050565b600181811c90821680610b6157607f821691505b602082108103610b7f57634e487b7160e01b5f52602260045260245ffd5b50919050565b808201808211156103c457634e487b7160e01b5f52601160045260245ffdfea2646970667358221220423032c60b73107b17126d8e8a8b530d234b7e9352f9d8fb7a665186e744781664736f6c63430008180033",
			"opcodes": "PUSH1 0x80 PUSH1 0x40 MSTORE PUSH1 0x1E PUSH1 0x6 SSTORE CALLVALUE DUP1 ISZERO PUSH3 0x15 JUMPI PUSH0 DUP1 REVERT JUMPDEST POP PUSH1 0x40 DUP1 MLOAD DUP1 DUP3 ADD DUP3 MSTORE PUSH1 0x7 DUP1 DUP3 MSTORE PUSH7 0x2A27A621A7A4A7 PUSH1 0xC9 SHL PUSH1 0x20 DUP1 DUP5 ADD DUP3 SWAP1 MSTORE DUP5 MLOAD DUP1 DUP7 ADD SWAP1 SWAP6 MSTORE SWAP2 DUP5 MSTORE SWAP1 DUP4 ADD MSTORE CALLER SWAP2 PUSH1 0x3 PUSH3 0x56 DUP4 DUP3 PUSH3 0x347 JUMP JUMPDEST POP PUSH1 0x4 PUSH3 0x65 DUP3 DUP3 PUSH3 0x347 JUMP JUMPDEST POP POP PUSH1 0x5 DUP1 SLOAD PUSH1 0xFF NOT AND SWAP1 SSTORE POP PUSH1 0x1 PUSH1 0x1 PUSH1 0xA0 SHL SUB DUP2 AND PUSH3 0xA1 JUMPI PUSH1 0x40 MLOAD PUSH4 0x1E4FBDF7 PUSH1 0xE0 SHL DUP2 MSTORE PUSH0 PUSH1 0x4 DUP3 ADD MSTORE PUSH1 0x24 ADD JUMPDEST PUSH1 0x40 MLOAD DUP1 SWAP2 SUB SWAP1 REVERT JUMPDEST PUSH3 0xAC DUP2 PUSH3 0xE5 JUMP JUMPDEST POP PUSH3 0xC6 CALLER PUSH13 0xC9F2C9CD04674EDEA40000000 PUSH3 0x13E JUMP JUMPDEST CALLER PUSH0 SWAP1 DUP2 MSTORE PUSH1 0x8 PUSH1 0x20 MSTORE PUSH1 0x40 SWAP1 KECCAK256 DUP1 SLOAD PUSH1 0xFF NOT AND PUSH1 0x1 OR SWAP1 SSTORE PUSH3 0x439 JUMP JUMPDEST PUSH1 0x5 DUP1 SLOAD PUSH1 0x1 PUSH1 0x1 PUSH1 0xA0 SHL SUB DUP4 DUP2 AND PUSH2 0x100 DUP2 DUP2 MUL PUSH2 0x100 PUSH1 0x1 PUSH1 0xA8 SHL SUB NOT DUP6 AND OR SWAP1 SWAP5 SSTORE PUSH1 0x40 MLOAD SWAP4 SWAP1 SWAP3 DIV AND SWAP2 DUP3 SWAP1 PUSH32 0x8BE0079C531659141344CD1FD0A4F28419497F9722A3DAAFE3B4186F6B6457E0 SWAP1 PUSH0 SWAP1 LOG3 POP POP JUMP JUMPDEST PUSH1 0x1 PUSH1 0x1 PUSH1 0xA0 SHL SUB DUP3 AND PUSH3 0x169 JUMPI PUSH1 0x40 MLOAD PUSH4 0xEC442F05 PUSH1 0xE0 SHL DUP2 MSTORE PUSH0 PUSH1 0x4 DUP3 ADD MSTORE PUSH1 0x24 ADD PUSH3 0x98 JUMP JUMPDEST PUSH3 0x176 PUSH0 DUP4 DUP4 PUSH3 0x17A JUMP JUMPDEST POP POP JUMP JUMPDEST PUSH1 0x1 PUSH1 0x1 PUSH1 0xA0 SHL SUB DUP4 AND PUSH3 0x1A8 JUMPI DUP1 PUSH1 0x2 PUSH0 DUP3 DUP3 SLOAD PUSH3 0x19C SWAP2 SWAP1 PUSH3 0x413 JUMP JUMPDEST SWAP1 SWAP2 SSTORE POP PUSH3 0x21A SWAP1 POP JUMP JUMPDEST PUSH1 0x1 PUSH1 0x1 PUSH1 0xA0 SHL SUB DUP4 AND PUSH0 SWAP1 DUP2 MSTORE PUSH1 0x20 DUP2 SWAP1 MSTORE PUSH1 0x40 SWAP1 KECCAK256 SLOAD DUP2 DUP2 LT ISZERO PUSH3 0x1FC JUMPI PUSH1 0x40 MLOAD PUSH4 0x391434E3 PUSH1 0xE2 SHL DUP2 MSTORE PUSH1 0x1 PUSH1 0x1 PUSH1 0xA0 SHL SUB DUP6 AND PUSH1 0x4 DUP3 ADD MSTORE PUSH1 0x24 DUP2 ADD DUP3 SWAP1 MSTORE PUSH1 0x44 DUP2 ADD DUP4 SWAP1 MSTORE PUSH1 0x64 ADD PUSH3 0x98 JUMP JUMPDEST PUSH1 0x1 PUSH1 0x1 PUSH1 0xA0 SHL SUB DUP5 AND PUSH0 SWAP1 DUP2 MSTORE PUSH1 0x20 DUP2 SWAP1 MSTORE PUSH1 0x40 SWAP1 KECCAK256 SWAP1 DUP3 SWAP1 SUB SWAP1 SSTORE JUMPDEST PUSH1 0x1 PUSH1 0x1 PUSH1 0xA0 SHL SUB DUP3 AND PUSH3 0x238 JUMPI PUSH1 0x2 DUP1 SLOAD DUP3 SWAP1 SUB SWAP1 SSTORE PUSH3 0x256 JUMP JUMPDEST PUSH1 0x1 PUSH1 0x1 PUSH1 0xA0 SHL SUB DUP3 AND PUSH0 SWAP1 DUP2 MSTORE PUSH1 0x20 DUP2 SWAP1 MSTORE PUSH1 0x40 SWAP1 KECCAK256 DUP1 SLOAD DUP3 ADD SWAP1 SSTORE JUMPDEST DUP2 PUSH1 0x1 PUSH1 0x1 PUSH1 0xA0 SHL SUB AND DUP4 PUSH1 0x1 PUSH1 0x1 PUSH1 0xA0 SHL SUB AND PUSH32 0xDDF252AD1BE2C89B69C2B068FC378DAA952BA7F163C4A11628F55A4DF523B3EF DUP4 PUSH1 0x40 MLOAD PUSH3 0x29C SWAP2 DUP2 MSTORE PUSH1 0x20 ADD SWAP1 JUMP JUMPDEST PUSH1 0x40 MLOAD DUP1 SWAP2 SUB SWAP1 LOG3 POP POP POP JUMP JUMPDEST PUSH4 0x4E487B71 PUSH1 0xE0 SHL PUSH0 MSTORE PUSH1 0x41 PUSH1 0x4 MSTORE PUSH1 0x24 PUSH0 REVERT JUMPDEST PUSH1 0x1 DUP2 DUP2 SHR SWAP1 DUP3 AND DUP1 PUSH3 0x2D2 JUMPI PUSH1 0x7F DUP3 AND SWAP2 POP JUMPDEST PUSH1 0x20 DUP3 LT DUP2 SUB PUSH3 0x2F1 JUMPI PUSH4 0x4E487B71 PUSH1 0xE0 SHL PUSH0 MSTORE PUSH1 0x22 PUSH1 0x4 MSTORE PUSH1 0x24 PUSH0 REVERT JUMPDEST POP SWAP2 SWAP1 POP JUMP JUMPDEST PUSH1 0x1F DUP3 GT ISZERO PUSH3 0x342 JUMPI DUP1 PUSH0 MSTORE PUSH1 0x20 PUSH0 KECCAK256 PUSH1 0x1F DUP5 ADD PUSH1 0x5 SHR DUP2 ADD PUSH1 0x20 DUP6 LT ISZERO PUSH3 0x31E JUMPI POP DUP1 JUMPDEST PUSH1 0x1F DUP5 ADD PUSH1 0x5 SHR DUP3 ADD SWAP2 POP JUMPDEST DUP2 DUP2 LT ISZERO PUSH3 0x33F JUMPI PUSH0 DUP2 SSTORE PUSH1 0x1 ADD PUSH3 0x32A JUMP JUMPDEST POP POP JUMPDEST POP POP POP JUMP JUMPDEST DUP2 MLOAD PUSH1 0x1 PUSH1 0x1 PUSH1 0x40 SHL SUB DUP2 GT ISZERO PUSH3 0x363 JUMPI PUSH3 0x363 PUSH3 0x2A9 JUMP JUMPDEST PUSH3 0x37B DUP2 PUSH3 0x374 DUP5 SLOAD PUSH3 0x2BD JUMP JUMPDEST DUP5 PUSH3 0x2F7 JUMP JUMPDEST PUSH1 0x20 DUP1 PUSH1 0x1F DUP4 GT PUSH1 0x1 DUP2 EQ PUSH3 0x3B1 JUMPI PUSH0 DUP5 ISZERO PUSH3 0x399 JUMPI POP DUP6 DUP4 ADD MLOAD JUMPDEST PUSH0 NOT PUSH1 0x3 DUP7 SWAP1 SHL SHR NOT AND PUSH1 0x1 DUP6 SWAP1 SHL OR DUP6 SSTORE PUSH3 0x40B JUMP JUMPDEST PUSH0 DUP6 DUP2 MSTORE PUSH1 0x20 DUP2 KECCAK256 PUSH1 0x1F NOT DUP7 AND SWAP2 JUMPDEST DUP3 DUP2 LT ISZERO PUSH3 0x3E1 JUMPI DUP9 DUP7 ADD MLOAD DUP3 SSTORE SWAP5 DUP5 ADD SWAP5 PUSH1 0x1 SWAP1 SWAP2 ADD SWAP1 DUP5 ADD PUSH3 0x3C0 JUMP JUMPDEST POP DUP6 DUP3 LT ISZERO PUSH3 0x3FF JUMPI DUP8 DUP6 ADD MLOAD PUSH0 NOT PUSH1 0x3 DUP9 SWAP1 SHL PUSH1 0xF8 AND SHR NOT AND DUP2 SSTORE JUMPDEST POP POP PUSH1 0x1 DUP5 PUSH1 0x1 SHL ADD DUP6 SSTORE JUMPDEST POP POP POP POP POP POP JUMP JUMPDEST DUP1 DUP3 ADD DUP1 DUP3 GT ISZERO PUSH3 0x433 JUMPI PUSH4 0x4E487B71 PUSH1 0xE0 SHL PUSH0 MSTORE PUSH1 0x11 PUSH1 0x4 MSTORE PUSH1 0x24 PUSH0 REVERT JUMPDEST SWAP3 SWAP2 POP POP JUMP JUMPDEST PUSH2 0xBDA DUP1 PUSH3 0x447 PUSH0 CODECOPY PUSH0 RETURN INVALID PUSH1 0x80 PUSH1 0x40 MSTORE CALLVALUE DUP1 ISZERO PUSH2 0xF JUMPI PUSH0 DUP1 REVERT JUMPDEST POP PUSH1 0x4 CALLDATASIZE LT PUSH2 0x13D JUMPI PUSH0 CALLDATALOAD PUSH1 0xE0 SHR DUP1 PUSH4 0x5D5B29C1 GT PUSH2 0xB4 JUMPI DUP1 PUSH4 0x8DA5CB5B GT PUSH2 0x79 JUMPI DUP1 PUSH4 0x8DA5CB5B EQ PUSH2 0x27F JUMPI DUP1 PUSH4 0x95D89B41 EQ PUSH2 0x2A8 JUMPI DUP1 PUSH4 0xA9059CBB EQ PUSH2 0x2B0 JUMPI DUP1 PUSH4 0xCFC06E0B EQ PUSH2 0x2C3 JUMPI DUP1 PUSH4 0xDD62ED3E EQ PUSH2 0x2D6 JUMPI DUP1 PUSH4 0xF2FDE38B EQ PUSH2 0x30E JUMPI PUSH0 DUP1 REVERT JUMPDEST DUP1 PUSH4 0x5D5B29C1 EQ PUSH2 0x212 JUMPI DUP1 PUSH4 0x70A08231 EQ PUSH2 0x234 JUMPI DUP1 PUSH4 0x715018A6 EQ PUSH2 0x25C JUMPI DUP1 PUSH4 0x79CC6790 EQ PUSH2 0x264 JUMPI DUP1 PUSH4 0x8456CB59 EQ PUSH2 0x277 JUMPI PUSH0 DUP1 REVERT JUMPDEST DUP1 PUSH4 0x313CE567 GT PUSH2 0x105 JUMPI DUP1 PUSH4 0x313CE567 EQ PUSH2 0x1B4 JUMPI DUP1 PUSH4 0x32CB6B0C EQ PUSH2 0x1C3 JUMPI DUP1 PUSH4 0x36E8C9B3 EQ PUSH2 0x1D7 JUMPI DUP1 PUSH4 0x3F4BA83A EQ PUSH2 0x1EC JUMPI DUP1 PUSH4 0x42966C68 EQ PUSH2 0x1F4 JUMPI DUP1 PUSH4 0x5C975ABB EQ PUSH2 0x207 JUMPI PUSH0 DUP1 REVERT JUMPDEST DUP1 PUSH4 0x6FDDE03 EQ PUSH2 0x141 JUMPI DUP1 PUSH4 0x95EA7B3 EQ PUSH2 0x15F JUMPI DUP1 PUSH4 0xA702E8D EQ PUSH2 0x182 JUMPI DUP1 PUSH4 0x18160DDD EQ PUSH2 0x199 JUMPI DUP1 PUSH4 0x23B872DD EQ PUSH2 0x1A1 JUMPI JUMPDEST PUSH0 DUP1 REVERT JUMPDEST PUSH2 0x149 PUSH2 0x321 JUMP JUMPDEST PUSH1 0x40 MLOAD PUSH2 0x156 SWAP2 SWAP1 PUSH2 0x9E4 JUMP JUMPDEST PUSH1 0x40 MLOAD DUP1 SWAP2 SUB SWAP1 RETURN JUMPDEST PUSH2 0x172 PUSH2 0x16D CALLDATASIZE PUSH1 0x4 PUSH2 0xA4B JUMP JUMPDEST PUSH2 0x3B1 JUMP JUMPDEST PUSH1 0x40 MLOAD SWAP1 ISZERO ISZERO DUP2 MSTORE PUSH1 0x20 ADD PUSH2 0x156 JUMP JUMPDEST PUSH2 0x18B PUSH1 0x6 SLOAD DUP2 JUMP JUMPDEST PUSH1 0x40 MLOAD SWAP1 DUP2 MSTORE PUSH1 0x20 ADD PUSH2 0x156 JUMP JUMPDEST PUSH1 0x2 SLOAD PUSH2 0x18B JUMP JUMPDEST PUSH2 0x172 PUSH2 0x1AF CALLDATASIZE PUSH1 0x4 PUSH2 0xA73 JUMP JUMPDEST PUSH2 0x3CA JUMP JUMPDEST PUSH1 0x40 MLOAD PUSH1 0x12 DUP2 MSTORE PUSH1 0x20 ADD PUSH2 0x156 JUMP JUMPDEST PUSH2 0x18B PUSH13 0xC9F2C9CD04674EDEA40000000 DUP2 JUMP JUMPDEST PUSH2 0x1EA PUSH2 0x1E5 CALLDATASIZE PUSH1 0x4 PUSH2 0xAAC JUMP JUMPDEST PUSH2 0x3ED JUMP JUMPDEST STOP JUMPDEST PUSH2 0x1EA PUSH2 0x442 JUMP JUMPDEST PUSH2 0x1EA PUSH2 0x202 CALLDATASIZE PUSH1 0x4 PUSH2 0xAAC JUMP JUMPDEST PUSH2 0x454 JUMP JUMPDEST PUSH1 0x5 SLOAD PUSH1 0xFF AND PUSH2 0x172 JUMP JUMPDEST PUSH2 0x172 PUSH2 0x220 CALLDATASIZE PUSH1 0x4 PUSH2 0xAC3 JUMP JUMPDEST PUSH1 0x8 PUSH1 0x20 MSTORE PUSH0 SWAP1 DUP2 MSTORE PUSH1 0x40 SWAP1 KECCAK256 SLOAD PUSH1 0xFF AND DUP2 JUMP JUMPDEST PUSH2 0x18B PUSH2 0x242 CALLDATASIZE PUSH1 0x4 PUSH2 0xAC3 JUMP JUMPDEST PUSH1 0x1 PUSH1 0x1 PUSH1 0xA0 SHL SUB AND PUSH0 SWAP1 DUP2 MSTORE PUSH1 0x20 DUP2 SWAP1 MSTORE PUSH1 0x40 SWAP1 KECCAK256 SLOAD SWAP1 JUMP JUMPDEST PUSH2 0x1EA PUSH2 0x461 JUMP JUMPDEST PUSH2 0x1EA PUSH2 0x272 CALLDATASIZE PUSH1 0x4 PUSH2 0xA4B JUMP JUMPDEST PUSH2 0x472 JUMP JUMPDEST PUSH2 0x1EA PUSH2 0x48B JUMP JUMPDEST PUSH1 0x5 SLOAD PUSH2 0x100 SWAP1 DIV PUSH1 0x1 PUSH1 0x1 PUSH1 0xA0 SHL SUB AND PUSH1 0x40 MLOAD PUSH1 0x1 PUSH1 0x1 PUSH1 0xA0 SHL SUB SWAP1 SWAP2 AND DUP2 MSTORE PUSH1 0x20 ADD PUSH2 0x156 JUMP JUMPDEST PUSH2 0x149 PUSH2 0x49B JUMP JUMPDEST PUSH2 0x172 PUSH2 0x2BE CALLDATASIZE PUSH1 0x4 PUSH2 0xA4B JUMP JUMPDEST PUSH2 0x4AA JUMP JUMPDEST PUSH2 0x1EA PUSH2 0x2D1 CALLDATASIZE PUSH1 0x4 PUSH2 0xAE3 JUMP JUMPDEST PUSH2 0x4B7 JUMP JUMPDEST PUSH2 0x18B PUSH2 0x2E4 CALLDATASIZE PUSH1 0x4 PUSH2 0xB1C JUMP JUMPDEST PUSH1 0x1 PUSH1 0x1 PUSH1 0xA0 SHL SUB SWAP2 DUP3 AND PUSH0 SWAP1 DUP2 MSTORE PUSH1 0x1 PUSH1 0x20 SWAP1 DUP2 MSTORE PUSH1 0x40 DUP1 DUP4 KECCAK256 SWAP4 SWAP1 SWAP5 AND DUP3 MSTORE SWAP2 SWAP1 SWAP2 MSTORE KECCAK256 SLOAD SWAP1 JUMP JUMPDEST PUSH2 0x1EA PUSH2 0x31C CALLDATASIZE PUSH1 0x4 PUSH2 0xAC3 JUMP JUMPDEST PUSH2 0x4E9 JUMP JUMPDEST PUSH1 0x60 PUSH1 0x3 DUP1 SLOAD PUSH2 0x330 SWAP1 PUSH2 0xB4D JUMP JUMPDEST DUP1 PUSH1 0x1F ADD PUSH1 0x20 DUP1 SWAP2 DIV MUL PUSH1 0x20 ADD PUSH1 0x40 MLOAD SWAP1 DUP2 ADD PUSH1 0x40 MSTORE DUP1 SWAP3 SWAP2 SWAP1 DUP2 DUP2 MSTORE PUSH1 0x20 ADD DUP3 DUP1 SLOAD PUSH2 0x35C SWAP1 PUSH2 0xB4D JUMP JUMPDEST DUP1 ISZERO PUSH2 0x3A7 JUMPI DUP1 PUSH1 0x1F LT PUSH2 0x37E JUMPI PUSH2 0x100 DUP1 DUP4 SLOAD DIV MUL DUP4 MSTORE SWAP2 PUSH1 0x20 ADD SWAP2 PUSH2 0x3A7 JUMP JUMPDEST DUP3 ADD SWAP2 SWAP1 PUSH0 MSTORE PUSH1 0x20 PUSH0 KECCAK256 SWAP1 JUMPDEST DUP2 SLOAD DUP2 MSTORE SWAP1 PUSH1 0x1 ADD SWAP1 PUSH1 0x20 ADD DUP1 DUP4 GT PUSH2 0x38A JUMPI DUP3 SWAP1 SUB PUSH1 0x1F AND DUP3 ADD SWAP2 JUMPDEST POP POP POP POP POP SWAP1 POP SWAP1 JUMP JUMPDEST PUSH0 CALLER PUSH2 0x3BE DUP2 DUP6 DUP6 PUSH2 0x523 JUMP JUMPDEST PUSH1 0x1 SWAP2 POP POP JUMPDEST SWAP3 SWAP2 POP POP JUMP JUMPDEST PUSH0 CALLER PUSH2 0x3D7 DUP6 DUP3 DUP6 PUSH2 0x535 JUMP JUMPDEST PUSH2 0x3E2 DUP6 DUP6 DUP6 PUSH2 0x5B1 JUMP JUMPDEST POP PUSH1 0x1 SWAP5 SWAP4 POP POP POP POP JUMP JUMPDEST PUSH2 0x3F5 PUSH2 0x60E JUMP JUMPDEST PUSH2 0x12C DUP2 GT ISZERO PUSH2 0x43D JUMPI PUSH1 0x40 MLOAD PUSH3 0x461BCD PUSH1 0xE5 SHL DUP2 MSTORE PUSH1 0x20 PUSH1 0x4 DUP3 ADD MSTORE PUSH1 0xE PUSH1 0x24 DUP3 ADD MSTORE PUSH14 0x44656C617920746F6F206C6F6E67 PUSH1 0x90 SHL PUSH1 0x44 DUP3 ADD MSTORE PUSH1 0x64 ADD JUMPDEST PUSH1 0x40 MLOAD DUP1 SWAP2 SUB SWAP1 REVERT JUMPDEST PUSH1 0x6 SSTORE JUMP JUMPDEST PUSH2 0x44A PUSH2 0x60E JUMP JUMPDEST PUSH2 0x452 PUSH2 0x641 JUMP JUMPDEST JUMP JUMPDEST PUSH2 0x45E CALLER DUP3 PUSH2 0x693 JUMP JUMPDEST POP JUMP JUMPDEST PUSH2 0x469 PUSH2 0x60E JUMP JUMPDEST PUSH2 0x452 PUSH0 PUSH2 0x6C7 JUMP JUMPDEST PUSH2 0x47D DUP3 CALLER DUP4 PUSH2 0x535 JUMP JUMPDEST PUSH2 0x487 DUP3 DUP3 PUSH2 0x693 JUMP JUMPDEST POP POP JUMP JUMPDEST PUSH2 0x493 PUSH2 0x60E JUMP JUMPDEST PUSH2 0x452 PUSH2 0x720 JUMP JUMPDEST PUSH1 0x60 PUSH1 0x4 DUP1 SLOAD PUSH2 0x330 SWAP1 PUSH2 0xB4D JUMP JUMPDEST PUSH0 CALLER PUSH2 0x3BE DUP2 DUP6 DUP6 PUSH2 0x5B1 JUMP JUMPDEST PUSH2 0x4BF PUSH2 0x60E JUMP JUMPDEST PUSH1 0x1 PUSH1 0x1 PUSH1 0xA0 SHL SUB SWAP2 SWAP1 SWAP2 AND PUSH0 SWAP1 DUP2 MSTORE PUSH1 0x8 PUSH1 0x20 MSTORE PUSH1 0x40 SWAP1 KECCAK256 DUP1 SLOAD PUSH1 0xFF NOT AND SWAP2 ISZERO ISZERO SWAP2 SWAP1 SWAP2 OR SWAP1 SSTORE JUMP JUMPDEST PUSH2 0x4F1 PUSH2 0x60E JUMP JUMPDEST PUSH1 0x1 PUSH1 0x1 PUSH1 0xA0 SHL SUB DUP2 AND PUSH2 0x51A JUMPI PUSH1 0x40 MLOAD PUSH4 0x1E4FBDF7 PUSH1 0xE0 SHL DUP2 MSTORE PUSH0 PUSH1 0x4 DUP3 ADD MSTORE PUSH1 0x24 ADD PUSH2 0x434 JUMP JUMPDEST PUSH2 0x45E DUP2 PUSH2 0x6C7 JUMP JUMPDEST PUSH2 0x530 DUP4 DUP4 DUP4 PUSH1 0x1 PUSH2 0x75D JUMP JUMPDEST POP POP POP JUMP JUMPDEST PUSH1 0x1 PUSH1 0x1 PUSH1 0xA0 SHL SUB DUP4 DUP2 AND PUSH0 SWAP1 DUP2 MSTORE PUSH1 0x1 PUSH1 0x20 SWAP1 DUP2 MSTORE PUSH1 0x40 DUP1 DUP4 KECCAK256 SWAP4 DUP7 AND DUP4 MSTORE SWAP3 SWAP1 MSTORE KECCAK256 SLOAD PUSH0 NOT DUP2 LT ISZERO PUSH2 0x5AB JUMPI DUP2 DUP2 LT ISZERO PUSH2 0x59D JUMPI PUSH1 0x40 MLOAD PUSH4 0x7DC7A0D9 PUSH1 0xE1 SHL DUP2 MSTORE PUSH1 0x1 PUSH1 0x1 PUSH1 0xA0 SHL SUB DUP5 AND PUSH1 0x4 DUP3 ADD MSTORE PUSH1 0x24 DUP2 ADD DUP3 SWAP1 MSTORE PUSH1 0x44 DUP2 ADD DUP4 SWAP1 MSTORE PUSH1 0x64 ADD PUSH2 0x434 JUMP JUMPDEST PUSH2 0x5AB DUP5 DUP5 DUP5 DUP5 SUB PUSH0 PUSH2 0x75D JUMP JUMPDEST POP POP POP POP JUMP JUMPDEST PUSH1 0x1 PUSH1 0x1 PUSH1 0xA0 SHL SUB DUP4 AND PUSH2 0x5DA JUMPI PUSH1 0x40 MLOAD PUSH4 0x4B637E8F PUSH1 0xE1 SHL DUP2 MSTORE PUSH0 PUSH1 0x4 DUP3 ADD MSTORE PUSH1 0x24 ADD PUSH2 0x434 JUMP JUMPDEST PUSH1 0x1 PUSH1 0x1 PUSH1 0xA0 SHL SUB DUP3 AND PUSH2 0x603 JUMPI PUSH1 0x40 MLOAD PUSH4 0xEC442F05 PUSH1 0xE0 SHL DUP2 MSTORE PUSH0 PUSH1 0x4 DUP3 ADD MSTORE PUSH1 0x24 ADD PUSH2 0x434 JUMP JUMPDEST PUSH2 0x530 DUP4 DUP4 DUP4 PUSH2 0x82F JUMP JUMPDEST PUSH1 0x5 SLOAD PUSH1 0x1 PUSH1 0x1 PUSH1 0xA0 SHL SUB PUSH2 0x100 SWAP1 SWAP2 DIV AND CALLER EQ PUSH2 0x452 JUMPI PUSH1 0x40 MLOAD PUSH4 0x118CDAA7 PUSH1 0xE0 SHL DUP2 MSTORE CALLER PUSH1 0x4 DUP3 ADD MSTORE PUSH1 0x24 ADD PUSH2 0x434 JUMP JUMPDEST PUSH2 0x649 PUSH2 0x955 JUMP JUMPDEST PUSH1 0x5 DUP1 SLOAD PUSH1 0xFF NOT AND SWAP1 SSTORE PUSH32 0x5DB9EE0A495BF2E6FF9C91A7834C1BA4FDD244A5E8AA4E537BD38AEAE4B073AA CALLER JUMPDEST PUSH1 0x40 MLOAD PUSH1 0x1 PUSH1 0x1 PUSH1 0xA0 SHL SUB SWAP1 SWAP2 AND DUP2 MSTORE PUSH1 0x20 ADD PUSH1 0x40 MLOAD DUP1 SWAP2 SUB SWAP1 LOG1 JUMP JUMPDEST PUSH1 0x1 PUSH1 0x1 PUSH1 0xA0 SHL SUB DUP3 AND PUSH2 0x6BC JUMPI PUSH1 0x40 MLOAD PUSH4 0x4B637E8F PUSH1 0xE1 SHL DUP2 MSTORE PUSH0 PUSH1 0x4 DUP3 ADD MSTORE PUSH1 0x24 ADD PUSH2 0x434 JUMP JUMPDEST PUSH2 0x487 DUP3 PUSH0 DUP4 PUSH2 0x82F JUMP JUMPDEST PUSH1 0x5 DUP1 SLOAD PUSH1 0x1 PUSH1 0x1 PUSH1 0xA0 SHL SUB DUP4 DUP2 AND PUSH2 0x100 DUP2 DUP2 MUL PUSH2 0x100 PUSH1 0x1 PUSH1 0xA8 SHL SUB NOT DUP6 AND OR SWAP1 SWAP5 SSTORE PUSH1 0x40 MLOAD SWAP4 SWAP1 SWAP3 DIV AND SWAP2 DUP3 SWAP1 PUSH32 0x8BE0079C531659141344CD1FD0A4F28419497F9722A3DAAFE3B4186F6B6457E0 SWAP1 PUSH0 SWAP1 LOG3 POP POP JUMP JUMPDEST PUSH2 0x728 PUSH2 0x99E JUMP JUMPDEST PUSH1 0x5 DUP1 SLOAD PUSH1 0xFF NOT AND PUSH1 0x1 OR SWAP1 SSTORE PUSH32 0x62E78CEA01BEE320CD4E420270B5EA74000D11B0C9F74754EBDBFC544B05A258 PUSH2 0x676 CALLER SWAP1 JUMP JUMPDEST PUSH1 0x1 PUSH1 0x1 PUSH1 0xA0 SHL SUB DUP5 AND PUSH2 0x786 JUMPI PUSH1 0x40 MLOAD PUSH4 0xE602DF05 PUSH1 0xE0 SHL DUP2 MSTORE PUSH0 PUSH1 0x4 DUP3 ADD MSTORE PUSH1 0x24 ADD PUSH2 0x434 JUMP JUMPDEST PUSH1 0x1 PUSH1 0x1 PUSH1 0xA0 SHL SUB DUP4 AND PUSH2 0x7AF JUMPI PUSH1 0x40 MLOAD PUSH4 0x4A1406B1 PUSH1 0xE1 SHL DUP2 MSTORE PUSH0 PUSH1 0x4 DUP3 ADD MSTORE PUSH1 0x24 ADD PUSH2 0x434 JUMP JUMPDEST PUSH1 0x1 PUSH1 0x1 PUSH1 0xA0 SHL SUB DUP1 DUP6 AND PUSH0 SWAP1 DUP2 MSTORE PUSH1 0x1 PUSH1 0x20 SWAP1 DUP2 MSTORE PUSH1 0x40 DUP1 DUP4 KECCAK256 SWAP4 DUP8 AND DUP4 MSTORE SWAP3 SWAP1 MSTORE KECCAK256 DUP3 SWAP1 SSTORE DUP1 ISZERO PUSH2 0x5AB JUMPI DUP3 PUSH1 0x1 PUSH1 0x1 PUSH1 0xA0 SHL SUB AND DUP5 PUSH1 0x1 PUSH1 0x1 PUSH1 0xA0 SHL SUB AND PUSH32 0x8C5BE1E5EBEC7D5BD14F71427D1E84F3DD0314C0F7B2291E5B200AC8C7C3B925 DUP5 PUSH1 0x40 MLOAD PUSH2 0x821 SWAP2 DUP2 MSTORE PUSH1 0x20 ADD SWAP1 JUMP JUMPDEST PUSH1 0x40 MLOAD DUP1 SWAP2 SUB SWAP1 LOG3 POP POP POP POP JUMP JUMPDEST PUSH1 0x1 PUSH1 0x1 PUSH1 0xA0 SHL SUB DUP4 AND PUSH2 0x859 JUMPI DUP1 PUSH1 0x2 PUSH0 DUP3 DUP3 SLOAD PUSH2 0x84E SWAP2 SWAP1 PUSH2 0xB85 JUMP JUMPDEST SWAP1 SWAP2 SSTORE POP PUSH2 0x8C9 SWAP1 POP JUMP JUMPDEST PUSH1 0x1 PUSH1 0x1 PUSH1 0xA0 SHL SUB DUP4 AND PUSH0 SWAP1 DUP2 MSTORE PUSH1 0x20 DUP2 SWAP1 MSTORE PUSH1 0x40 SWAP1 KECCAK256 SLOAD DUP2 DUP2 LT ISZERO PUSH2 0x8AB JUMPI PUSH1 0x40 MLOAD PUSH4 0x391434E3 PUSH1 0xE2 SHL DUP2 MSTORE PUSH1 0x1 PUSH1 0x1 PUSH1 0xA0 SHL SUB DUP6 AND PUSH1 0x4 DUP3 ADD MSTORE PUSH1 0x24 DUP2 ADD DUP3 SWAP1 MSTORE PUSH1 0x44 DUP2 ADD DUP4 SWAP1 MSTORE PUSH1 0x64 ADD PUSH2 0x434 JUMP JUMPDEST PUSH1 0x1 PUSH1 0x1 PUSH1 0xA0 SHL SUB DUP5 AND PUSH0 SWAP1 DUP2 MSTORE PUSH1 0x20 DUP2 SWAP1 MSTORE PUSH1 0x40 SWAP1 KECCAK256 SWAP1 DUP3 SWAP1 SUB SWAP1 SSTORE JUMPDEST PUSH1 0x1 PUSH1 0x1 PUSH1 0xA0 SHL SUB DUP3 AND PUSH2 0x8E5 JUMPI PUSH1 0x2 DUP1 SLOAD DUP3 SWAP1 SUB SWAP1 SSTORE PUSH2 0x903 JUMP JUMPDEST PUSH1 0x1 PUSH1 0x1 PUSH1 0xA0 SHL SUB DUP3 AND PUSH0 SWAP1 DUP2 MSTORE PUSH1 0x20 DUP2 SWAP1 MSTORE PUSH1 0x40 SWAP1 KECCAK256 DUP1 SLOAD DUP3 ADD SWAP1 SSTORE JUMPDEST DUP2 PUSH1 0x1 PUSH1 0x1 PUSH1 0xA0 SHL SUB AND DUP4 PUSH1 0x1 PUSH1 0x1 PUSH1 0xA0 SHL SUB AND PUSH32 0xDDF252AD1BE2C89B69C2B068FC378DAA952BA7F163C4A11628F55A4DF523B3EF DUP4 PUSH1 0x40 MLOAD PUSH2 0x948 SWAP2 DUP2 MSTORE PUSH1 0x20 ADD SWAP1 JUMP JUMPDEST PUSH1 0x40 MLOAD DUP1 SWAP2 SUB SWAP1 LOG3 POP POP POP JUMP JUMPDEST PUSH1 0x5 SLOAD PUSH1 0xFF AND PUSH2 0x452 JUMPI PUSH1 0x40 MLOAD PUSH3 0x461BCD PUSH1 0xE5 SHL DUP2 MSTORE PUSH1 0x20 PUSH1 0x4 DUP3 ADD MSTORE PUSH1 0x14 PUSH1 0x24 DUP3 ADD MSTORE PUSH20 0x14185D5CD8589B194E881B9BDD081C185D5CD959 PUSH1 0x62 SHL PUSH1 0x44 DUP3 ADD MSTORE PUSH1 0x64 ADD PUSH2 0x434 JUMP JUMPDEST PUSH1 0x5 SLOAD PUSH1 0xFF AND ISZERO PUSH2 0x452 JUMPI PUSH1 0x40 MLOAD PUSH3 0x461BCD PUSH1 0xE5 SHL DUP2 MSTORE PUSH1 0x20 PUSH1 0x4 DUP3 ADD MSTORE PUSH1 0x10 PUSH1 0x24 DUP3 ADD MSTORE PUSH16 0x14185D5CD8589B194E881C185D5CD959 PUSH1 0x82 SHL PUSH1 0x44 DUP3 ADD MSTORE PUSH1 0x64 ADD PUSH2 0x434 JUMP JUMPDEST PUSH0 PUSH1 0x20 DUP1 DUP4 MSTORE DUP4 MLOAD DUP1 PUSH1 0x20 DUP6 ADD MSTORE PUSH0 JUMPDEST DUP2 DUP2 LT ISZERO PUSH2 0xA10 JUMPI DUP6 DUP2 ADD DUP4 ADD MLOAD DUP6 DUP3 ADD PUSH1 0x40 ADD MSTORE DUP3 ADD PUSH2 0x9F4 JUMP JUMPDEST POP PUSH0 PUSH1 0x40 DUP3 DUP7 ADD ADD MSTORE PUSH1 0x40 PUSH1 0x1F NOT PUSH1 0x1F DUP4 ADD AND DUP6 ADD ADD SWAP3 POP POP POP SWAP3 SWAP2 POP POP JUMP JUMPDEST DUP1 CALLDATALOAD PUSH1 0x1 PUSH1 0x1 PUSH1 0xA0 SHL SUB DUP2 AND DUP2 EQ PUSH2 0xA46 JUMPI PUSH0 DUP1 REVERT JUMPDEST SWAP2 SWAP1 POP JUMP JUMPDEST PUSH0 DUP1 PUSH1 0x40 DUP4 DUP6 SUB SLT ISZERO PUSH2 0xA5C JUMPI PUSH0 DUP1 REVERT JUMPDEST PUSH2 0xA65 DUP4 PUSH2 0xA30 JUMP JUMPDEST SWAP5 PUSH1 0x20 SWAP4 SWAP1 SWAP4 ADD CALLDATALOAD SWAP4 POP POP POP JUMP JUMPDEST PUSH0 DUP1 PUSH0 PUSH1 0x60 DUP5 DUP7 SUB SLT ISZERO PUSH2 0xA85 JUMPI PUSH0 DUP1 REVERT JUMPDEST PUSH2 0xA8E DUP5 PUSH2 0xA30 JUMP JUMPDEST SWAP3 POP PUSH2 0xA9C PUSH1 0x20 DUP6 ADD PUSH2 0xA30 JUMP JUMPDEST SWAP2 POP PUSH1 0x40 DUP5 ADD CALLDATALOAD SWAP1 POP SWAP3 POP SWAP3 POP SWAP3 JUMP JUMPDEST PUSH0 PUSH1 0x20 DUP3 DUP5 SUB SLT ISZERO PUSH2 0xABC JUMPI PUSH0 DUP1 REVERT JUMPDEST POP CALLDATALOAD SWAP2 SWAP1 POP JUMP JUMPDEST PUSH0 PUSH1 0x20 DUP3 DUP5 SUB SLT ISZERO PUSH2 0xAD3 JUMPI PUSH0 DUP1 REVERT JUMPDEST PUSH2 0xADC DUP3 PUSH2 0xA30 JUMP JUMPDEST SWAP4 SWAP3 POP POP POP JUMP JUMPDEST PUSH0 DUP1 PUSH1 0x40 DUP4 DUP6 SUB SLT ISZERO PUSH2 0xAF4 JUMPI PUSH0 DUP1 REVERT JUMPDEST PUSH2 0xAFD DUP4 PUSH2 0xA30 JUMP JUMPDEST SWAP2 POP PUSH1 0x20 DUP4 ADD CALLDATALOAD DUP1 ISZERO ISZERO DUP2 EQ PUSH2 0xB11 JUMPI PUSH0 DUP1 REVERT JUMPDEST DUP1 SWAP2 POP POP SWAP3 POP SWAP3 SWAP1 POP JUMP JUMPDEST PUSH0 DUP1 PUSH1 0x40 DUP4 DUP6 SUB SLT ISZERO PUSH2 0xB2D JUMPI PUSH0 DUP1 REVERT JUMPDEST PUSH2 0xB36 DUP4 PUSH2 0xA30 JUMP JUMPDEST SWAP2 POP PUSH2 0xB44 PUSH1 0x20 DUP5 ADD PUSH2 0xA30 JUMP JUMPDEST SWAP1 POP SWAP3 POP SWAP3 SWAP1 POP JUMP JUMPDEST PUSH1 0x1 DUP2 DUP2 SHR SWAP1 DUP3 AND DUP1 PUSH2 0xB61 JUMPI PUSH1 0x7F DUP3 AND SWAP2 POP JUMPDEST PUSH1 0x20 DUP3 LT DUP2 SUB PUSH2 0xB7F JUMPI PUSH4 0x4E487B71 PUSH1 0xE0 SHL PUSH0 MSTORE PUSH1 0x22 PUSH1 0x4 MSTORE PUSH1 0x24 PUSH0 REVERT JUMPDEST POP SWAP2 SWAP1 POP JUMP JUMPDEST DUP1 DUP3 ADD DUP1 DUP3 GT ISZERO PUSH2 0x3C4 JUMPI PUSH4 0x4E487B71 PUSH1 0xE0 SHL PUSH0 MSTORE PUSH1 0x11 PUSH1 0x4 MSTORE PUSH1 0x24 PUSH0 REVERT INVALID LOG2 PUSH5 0x6970667358 0x22 SLT KECCAK256 TIMESTAMP ADDRESS ORIGIN 0xC6 SIGNEXTEND PUSH20 0x107B17126D8E8A8B530D234B7E9352F9D8FB7A66 MLOAD DUP7 0xE7 PREVRANDAO PUSH25 0x1664736F6C6343000818003300000000000000000000000000 "
		},
		"gasEstimates": {
			"creation": {
				"codeDepositCost": "606800",
				"executionCost": "infinite",
				"totalCost": "infinite"
			},
			"external": {
				"MAX_SUPPLY()": "239",
				"allowance(address,address)": "infinite",
				"approve(address,uint256)": "24758",
				"balanceOf(address)": "2582",
				"burn(uint256)": "51027",
				"burnFrom(address,uint256)": "infinite",
				"decimals()": "199",
				"excludeFromAntiBot(address,bool)": "26957",
				"isExcludedFromAntiBot(address)": "2551",
				"name()": "infinite",
				"owner()": "2351",
				"pause()": "infinite",
				"paused()": "2436",
				"renounceOwnership()": "infinite",
				"setTransferDelay(uint256)": "24593",
				"symbol()": "infinite",
				"totalSupply()": "2381",
				"transfer(address,uint256)": "51282",
				"transferDelay()": "2362",
				"transferFrom(address,address,uint256)": "infinite",
				"transferOwnership(address)": "28498",
				"unpause()": "infinite"
			},
			"internal": {
				"_beforeTokenTransfer(address,address,uint256)": "infinite"
			}
		},
		"methodIdentifiers": {
			"MAX_SUPPLY()": "32cb6b0c",
			"allowance(address,address)": "dd62ed3e",
			"approve(address,uint256)": "095ea7b3",
			"balanceOf(address)": "70a08231",
			"burn(uint256)": "42966c68",
			"burnFrom(address,uint256)": "79cc6790",
			"decimals()": "313ce567",
			"excludeFromAntiBot(address,bool)": "cfc06e0b",
			"isExcludedFromAntiBot(address)": "5d5b29c1",
			"name()": "06fdde03",
			"owner()": "8da5cb5b",
			"pause()": "8456cb59",
			"paused()": "5c975abb",
			"renounceOwnership()": "715018a6",
			"setTransferDelay(uint256)": "36e8c9b3",
			"symbol()": "95d89b41",
			"totalSupply()": "18160ddd",
			"transfer(address,uint256)": "a9059cbb",
			"transferDelay()": "0a702e8d",
			"transferFrom(address,address,uint256)": "23b872dd",
			"transferOwnership(address)": "f2fde38b",
			"unpause()": "3f4ba83a"
		}
	},
	"abi": [
		{
			"inputs": [],
			"stateMutability": "nonpayable",
			"type": "constructor"
		},
		{
			"inputs": [
				{
					"internalType": "address",
					"name": "spender",
					"type": "address"
				},
				{
					"internalType": "uint256",
					"name": "allowance",
					"type": "uint256"
				},
				{
					"internalType": "uint256",
					"name": "needed",
					"type": "uint256"
				}
			],
			"name": "ERC20InsufficientAllowance",
			"type": "error"
		},
		{
			"inputs": [
				{
					"internalType": "address",
					"name": "sender",
					"type": "address"
				},
				{
					"internalType": "uint256",
					"name": "balance",
					"type": "uint256"
				},
				{
					"internalType": "uint256",
					"name": "needed",
					"type": "uint256"
				}
			],
			"name": "ERC20InsufficientBalance",
			"type": "error"
		},
		{
			"inputs": [
				{
					"internalType": "address",
					"name": "approver",
					"type": "address"
				}
			],
			"name": "ERC20InvalidApprover",
			"type": "error"
		},
		{
			"inputs": [
				{
					"internalType": "address",
					"name": "receiver",
					"type": "address"
				}
			],
			"name": "ERC20InvalidReceiver",
			"type": "error"
		},
		{
			"inputs": [
				{
					"internalType": "address",
					"name": "sender",
					"type": "address"
				}
			],
			"name": "ERC20InvalidSender",
			"type": "error"
		},
		{
			"inputs": [
				{
					"internalType": "address",
					"name": "spender",
					"type": "address"
				}
			],
			"name": "ERC20InvalidSpender",
			"type": "error"
		},
		{
			"inputs": [
				{
					"internalType": "address",
					"name": "owner",
					"type": "address"
				}
			],
			"name": "OwnableInvalidOwner",
			"type": "error"
		},
		{
			"inputs": [
				{
					"internalType": "address",
					"name": "account",
					"type": "address"
				}
			],
			"name": "OwnableUnauthorizedAccount",
			"type": "error"
		},
		{
			"anonymous": false,
			"inputs": [
				{
					"indexed": true,
					"internalType": "address",
					"name": "owner",
					"type": "address"
				},
				{
					"indexed": true,
					"internalType": "address",
					"name": "spender",
					"type": "address"
				},
				{
					"indexed": false,
					"internalType": "uint256",
					"name": "value",
					"type": "uint256"
				}
			],
			"name": "Approval",
			"type": "event"
		},
		{
			"anonymous": false,
			"inputs": [
				{
					"indexed": true,
					"internalType": "address",
					"name": "previousOwner",
					"type": "address"
				},
				{
					"indexed": true,
					"internalType": "address",
					"name": "newOwner",
					"type": "address"
				}
			],
			"name": "OwnershipTransferred",
			"type": "event"
		},
		{
			"anonymous": false,
			"inputs": [
				{
					"indexed": false,
					"internalType": "address",
					"name": "account",
					"type": "address"
				}
			],
			"name": "Paused",
			"type": "event"
		},
		{
			"anonymous": false,
			"inputs": [
				{
					"indexed": true,
					"internalType": "address",
					"name": "from",
					"type": "address"
				},
				{
					"indexed": true,
					"internalType": "address",
					"name": "to",
					"type": "address"
				},
				{
					"indexed": false,
					"internalType": "uint256",
					"name": "value",
					"type": "uint256"
				}
			],
			"name": "Transfer",
			"type": "event"
		},
		{
			"anonymous": false,
			"inputs": [
				{
					"indexed": false,
					"internalType": "address",
					"name": "account",
					"type": "address"
				}
			],
			"name": "Unpaused",
			"type": "event"
		},
		{
			"inputs": [],
			"name": "MAX_SUPPLY",
			"outputs": [
				{
					"internalType": "uint256",
					"name": "",
					"type": "uint256"
				}
			],
			"stateMutability": "view",
			"type": "function"
		},
		{
			"inputs": [
				{
					"internalType": "address",
					"name": "owner",
					"type": "address"
				},
				{
					"internalType": "address",
					"name": "spender",
					"type": "address"
				}
			],
			"name": "allowance",
			"outputs": [
				{
					"internalType": "uint256",
					"name": "",
					"type": "uint256"
				}
			],
			"stateMutability": "view",
			"type": "function"
		},
		{
			"inputs": [
				{
					"internalType": "address",
					"name": "spender",
					"type": "address"
				},
				{
					"internalType": "uint256",
					"name": "value",
					"type": "uint256"
				}
			],
			"name": "approve",
			"outputs": [
				{
					"internalType": "bool",
					"name": "",
					"type": "bool"
				}
			],
			"stateMutability": "nonpayable",
			"type": "function"
		},
		{
			"inputs": [
				{
					"internalType": "address",
					"name": "account",
					"type": "address"
				}
			],
			"name": "balanceOf",
			"outputs": [
				{
					"internalType": "uint256",
					"name": "",
					"type": "uint256"
				}
			],
			"stateMutability": "view",
			"type": "function"
		},
		{
			"inputs": [
				{
					"internalType": "uint256",
					"name": "value",
					"type": "uint256"
				}
			],
			"name": "burn",
			"outputs": [],
			"stateMutability": "nonpayable",
			"type": "function"
		},
		{
			"inputs": [
				{
					"internalType": "address",
					"name": "account",
					"type": "address"
				},
				{
					"internalType": "uint256",
					"name": "value",
					"type": "uint256"
				}
			],
			"name": "burnFrom",
			"outputs": [],
			"stateMutability": "nonpayable",
			"type": "function"
		},
		{
			"inputs": [],
			"name": "decimals",
			"outputs": [
				{
					"internalType": "uint8",
					"name": "",
					"type": "uint8"
				}
			],
			"stateMutability": "view",
			"type": "function"
		},
		{
			"inputs": [
				{
					"internalType": "address",
					"name": "account",
					"type": "address"
				},
				{
					"internalType": "bool",
					"name": "excluded",
					"type": "bool"
				}
			],
			"name": "excludeFromAntiBot",
			"outputs": [],
			"stateMutability": "nonpayable",
			"type": "function"
		},
		{
			"inputs": [
				{
					"internalType": "address",
					"name": "",
					"type": "address"
				}
			],
			"name": "isExcludedFromAntiBot",
			"outputs": [
				{
					"internalType": "bool",
					"name": "",
					"type": "bool"
				}
			],
			"stateMutability": "view",
			"type": "function"
		},
		{
			"inputs": [],
			"name": "name",
			"outputs": [
				{
					"internalType": "string",
					"name": "",
					"type": "string"
				}
			],
			"stateMutability": "view",
			"type": "function"
		},
		{
			"inputs": [],
			"name": "owner",
			"outputs": [
				{
					"internalType": "address",
					"name": "",
					"type": "address"
				}
			],
			"stateMutability": "view",
			"type": "function"
		},
		{
			"inputs": [],
			"name": "pause",
			"outputs": [],
			"stateMutability": "nonpayable",
			"type": "function"
		},
		{
			"inputs": [],
			"name": "paused",
			"outputs": [
				{
					"internalType": "bool",
					"name": "",
					"type": "bool"
				}
			],
			"stateMutability": "view",
			"type": "function"
		},
		{
			"inputs": [],
			"name": "renounceOwnership",
			"outputs": [],
			"stateMutability": "nonpayable",
			"type": "function"
		},
		{
			"inputs": [
				{
					"internalType": "uint256",
					"name": "delayInSeconds",
					"type": "uint256"
				}
			],
			"name": "setTransferDelay",
			"outputs": [],
			"stateMutability": "nonpayable",
			"type": "function"
		},
		{
			"inputs": [],
			"name": "symbol",
			"outputs": [
				{
					"internalType": "string",
					"name": "",
					"type": "string"
				}
			],
			"stateMutability": "view",
			"type": "function"
		},
		{
			"inputs": [],
			"name": "totalSupply",
			"outputs": [
				{
					"internalType": "uint256",
					"name": "",
					"type": "uint256"
				}
			],
			"stateMutability": "view",
			"type": "function"
		},
		{
			"inputs": [
				{
					"internalType": "address",
					"name": "to",
					"type": "address"
				},
				{
					"internalType": "uint256",
					"name": "value",
					"type": "uint256"
				}
			],
			"name": "transfer",
			"outputs": [
				{
					"internalType": "bool",
					"name": "",
					"type": "bool"
				}
			],
			"stateMutability": "nonpayable",
			"type": "function"
		},
		{
			"inputs": [],
			"name": "transferDelay",
			"outputs": [
				{
					"internalType": "uint256",
					"name": "",
					"type": "uint256"
				}
			],
			"stateMutability": "view",
			"type": "function"
		},
		{
			"inputs": [
				{
					"internalType": "address",
					"name": "from",
					"type": "address"
				},
				{
					"internalType": "address",
					"name": "to",
					"type": "address"
				},
				{
					"internalType": "uint256",
					"name": "value",
					"type": "uint256"
				}
			],
			"name": "transferFrom",
			"outputs": [
				{
					"internalType": "bool",
					"name": "",
					"type": "bool"
				}
			],
			"stateMutability": "nonpayable",
			"type": "function"
		},
		{
			"inputs": [
				{
					"internalType": "address",
					"name": "newOwner",
					"type": "address"
				}
			],
			"name": "transferOwnership",
			"outputs": [],
			"stateMutability": "nonpayable",
			"type": "function"
		},
		{
			"inputs": [],
			"name": "unpause",
			"outputs": [],
			"stateMutability": "nonpayable",
			"type": "function"
		}
	]
}